:100000000C9411010C9439010C9439010C94A80B37
:100010000C94A80B0C94A80B0C9439010C94390186
:100020000C9439010C9439010C9439010C94390168
:100030000C9439010C9439010C9439010C94390158
:100040000C9468150C9439010C94760B0C94500B9D
:100050000C9439010C9439010C9439010C94390138
:100060000C9439010C9439016F1989199E19B91929
:10007000C4191E1A251A2F1A3A1A441A441A441A75
:10008000441A441A441A441A441A441A441A441A80
:10009000441A441A441A441A441A441A441A441A70
:1000A000441A441A441A441A6F19841989199E195A
:1000B000B919C419DF19EA19F51900407A10F35A71
:1000C00000A0724E18090010A5D4E80000E8764898
:1000D000170000E40B54020000CA9A3B000000E144
:1000E000F505000080969800000040420F000000D7
:1000F000A08601000000102700000000E8030000B7
:1001000000006400000000000A0000000000010080
:10011000000000002C76D888DC674F0823DFC1DFA1
:10012000AE59E1B1B796E5E3E453C63AE6519976A4
:1001300096E8E6C28426EB898C9B62ED407C6FFCDE
:10014000EFBC9C9F40F2BAA56FA5F490055A2AF720
:100150005C936B6CF9676DC11BFCE0E40D47FEF529
:1001600020E6B500D0ED902E030094357705008091
:10017000841E080000204E0A000000C80C333333F0
:10018000330F986E12831141EF8D2114893BE65590
:1001900016CFFEE6DB18D1844B381BF77C1D901D73
:1001A000A4BBE424203284725E228100C9F124ECD5
:1001B000A1E53D277C3C3E5E2B3D3F2F5B5D3B2C0C
:1001C0002A225C0000000000240027002A00000012
:1001D0000008000201000003040700000000000006
:1001E000000000000000230026002900000000009D
:1001F000250028002B000404040404040404020263
:100200000202020203030303030301020408102095
:100210004080010204081020010204081020B41DCF
:10022000981D11241FBECFEFD8E0DEBFCDBF26E062
:10023000ACE0B2E001C01D92A236B207E1F712E0D5
:10024000A0E0B1E0E6E8F1E502C005900D92AC3027
:10025000B107D9F711E0C0E1D1E004C02197FE0158
:100260000E94C923CF30D107C9F70E94B2150C9460
:10027000B6280C940000DC015996ED91FC915A9738
:100280003097B9F083899489A589B68942855385C9
:1002900064857585841B950BA60BB70B811520E82B
:1002A0009207A105B10538F08FEF9FE7A0E0B0E01D
:1002B000089580E090E00895CF93DF931F92CDB72B
:1002C000DEB76983DC01ED91FC910280F381E02DC2
:1002D00041E050E0BE016F5F7F4F09950F90DF91C5
:1002E000CF910895089580E090E00895CF93DF9333
:1002F000EC018D81882379F18C8187FF28C06E8580
:100300007F858889998941E00E94E30C882319F14F
:10031000EA8980E2E89FF0011124E255FD4F309711
:10032000D1F08D81823040F48B899C89AD89BE8962
:10033000848F958FA68FB78F8F89988DA98DBA8D51
:10034000938F828FB58BA48B8C818F778C83DF9179
:10035000CF910C94A80C80E0DF91CF910895FC011F
:10036000818D928D009711F00C94760108958F92F3
:100370009F92AF92BF92CF92DF92EF92FF920F9334
:100380001F93CF93DF93EC018D81811102C080E038
:1003900078C00B891C892D893E890417150726070B
:1003A0003707A8F36A017B01823029F4CA86DB860D
:1003B000EC86FD860DC0C114D104E104F10451F4B2
:1003C0001E821F82188619861A861B861C861D8629
:1003D00081E057C08A849B84AC84BD84EB8DFC8D06
:1003E000258530E0275F3F4FB501A40141505109F9
:1003F00061097109022E04C0769567955795479556
:100400000A94D2F7D701C6010197A109B10904C026
:10041000B695A795979587952A95D2F7841795074E
:10042000A607B70720F089288A288B2871F44F89FE
:10043000588D698D7A8D4E835F83688779874C01EB
:100440005D018E010A5F1F4F16C0841B950BA60B22
:10045000B70BF5CF4E815F816885798598018B8DCB
:100460009C8D0E94CD0D91E0891A9108A108B108D8
:10047000882309F48CCF81149104A104B10451F7AD
:1004800095CFDF91CF911F910F91FF90EF90DF906B
:10049000CF90BF90AF909F908F9008958F929F9232
:1004A000AF92BF92CF92DF92EF92FF920F931F9382
:1004B000CF93DF9300D000D0CDB7DEB77C0180E2D0
:1004C000689FF0011124E255FD4F9385917121F051
:1004D000842F827409F08FC0142FD70152966C9329
:1004E00052974091360150913701609138017091D7
:1004F00039011E964D935D936D937C93519744897A
:10050000558960E070E0BA0155274427828D938DAC
:10051000A0E0B0E0482B592B6A2B7B2BD7015796D4
:100520004D935D936D937C935A978385887159F4AD
:10053000848D958DA68DB78DF701838B948BA58BBC
:10054000B68B81E012C0803109F055C097012D5E55
:100550003F4FD7015B968D919C915C970E9417103D
:10056000882309F448C084E0F7018583812F8F70C8
:10057000D70114968C931497F70116821782108670
:1005800011861A961D921D921D921C921D9716FFA0
:1005900034C015968C91813071F511FF2CC0F70194
:1005A0004389548965897689452B462B472B09F465
:1005B00061C040E050E0BA01C7010E94B701882342
:1005C000D1F0F7018788908CA18CB28CC38CD48C2D
:1005D00082E090E0A0E0B0E0F60180839183A28306
:1005E000B3839E012F5F3F4FB501A401C6010E9456
:1005F000CD0D811104C080E03DC081E03BC000E032
:1006000010E09801B501A401C6010E942C0D8823B9
:1006100091F389809A80AB80BC80D60157968C91EB
:10062000803129F088EF9FEFAFEFBFE004C088EF83
:100630009FEFA0E0B0E088169906AA06BB0688F2F4
:10064000D70157961D921D921D921C925A97F70141
:10065000138A148A158A168A848180688483C70164
:100660000E947601882339F240E050E0BA01C701C8
:100670000E94B7010F900F900F900F90DF91CF91D4
:100680001F910F91FF90EF90DF90CF90BF90AF90B0
:100690009F908F900895CF93DF93EC010E94760195
:1006A000882311F01D8281E0DF91CF9108953F9260
:1006B0004F925F926F927F928F929F92AF92BF9272
:1006C000CF92DF92EF92FF920F931F93CF93DF931E
:1006D000CDB7DEB72C970FB6F894DEBF0FBECDBFF7
:1006E0005C01DC015B968D909C905C971696CD909A
:1006F000DD90ED90FC901997C114D104E104F10450
:1007000039F0BFEFCB1ADB0AEB0AFB0A312C07C02A
:10071000F401C080D180E280F38033243394F4016B
:1007200081859285A385B4859C01AD012F5F3F4FE4
:100730004F4F5F4F29873A874B875C8726013701E8
:100740001D821E821F821886F40181859285A385F1
:10075000B4852D813E814F815885281739074A0776
:100760005B0708F063C089859A85AB85BC858C15CD
:100770009D05AE05BF0550F482E0C82ED12CE12CBA
:10078000F12C92E0492E512C612C712C9E012F5F8F
:100790003F4FB701A601C4010E94CD0D882309F483
:1007A00045C089819A81AB81BC81892B8A2B8B2B97
:1007B00041F0260137019FEF491A590A690A790A5F
:1007C00005C0C414D504E604F70491F02D813E81E0
:1007D0004F8158852F5F3F4F4F4F5F4F2D833E8393
:1007E0004F8358873FEFC31AD30AE30AF30AACCF0B
:1007F0000FEF1FEF2FEF3FE0B301A201C4010E94F2
:100800002C0D882399F0D50116964D915D916D912F
:100810007C911997411551056105710549F09301C6
:100820008201C4010E942C0D811102C080E02AC007
:10083000D50116964D925D926D927C921997332058
:1008400051F0D301C2010196A11DB11DF4018083B5
:100850009183A283B383F5018789908DA18DB28D99
:10086000892B8A2B8B2B69F4D50157964D925D927B
:100870006D927C925A9714968C9114978068149676
:100880008C9381E02C960FB6F894DEBF0FBECDBFDF
:10089000DF91CF911F910F91FF90EF90DF90CF905C
:1008A000BF90AF909F908F907F906F905F904F9090
:1008B0003F9008958FB7F894809160028FBF08959C
:1008C00061E0FC0184810E942B1480915F02811100
:1008D00010925F0208958EBD00000DB407FEFDCF9B
:1008E0008EB508958FEF0C946B040F931F93CF93E5
:1008F000DF93EB010E945C158B010E9472048F3F15
:1009000049F00E945C15601B710B6C177D07A8F302
:1009100080E001C081E0DF91CF911F910F91089598
:10092000CF93DF93EC018E81882389F08F819885A6
:100930009C012F5F3F4F38872F838230924018F4FD
:100940000E947204F3CFCE010E9460041E82DF91E8
:10095000CF9108958CBD9DBD0895CF93DF93EC0199
:1009600080915F02811109C081E080935F028091D4
:100970004D0590914E050E94AA0460E08C81DF91A4
:10098000CF910C942B148F929F92AF92BF92FF92B3
:100990000F931F93CF93DF93EC01F62E49015A0179
:1009A0000E949004CE010E94AD046CE271E0CE0181
:1009B0000E9475048F2D80640E946B0408E110E092
:1009C000D501C401002E04C0B695A79597958795CB
:1009D0000A94D2F70E946B0408501109083F8FEF68
:1009E000180771F7FF2029F088E0F81204C087E8A3
:1009F00003C085E901C08FEF0E946B0410E00E94E4
:100A000072048A8787FF04C01F3F11F01F5FF7CF72
:100A1000DF91CF911F910F91FF90BF90AF909F906A
:100A20008F900895AF92BF92CF92DF92EF92FF9294
:100A30000F931F93CF93DF93EC016901C801820FDD
:100A4000931F8130924008F070C08E81882371F02E
:100A500088819981AA81BB8184179507A607B7076A
:100A600029F48F819885C816D906B0F54883598333
:100A70006A837B838B85833039F089E0440F551F6F
:100A8000661F771F8A95D1F79A01AB0161E1CE010C
:100A90000E94C304882319F083E08D8346C00E941E
:100AA0005C155B010E9472048A878F3F49F40E94A3
:100AB0005C156A197B096D327140A0F38FE003C0A9
:100AC0008E3F31F08DE08D83CE010E9460042DC0F9
:100AD00018861F8281E08E838F8198858C159D05F5
:100AE00040F40E9472048F819885019698878F83C5
:100AF000F3CF6701E00EF11EEC14FD0431F00E940B
:100B00007204F60181936F01F7CF8F819885080FEA
:100B1000191F18870F838985882319F00115124042
:100B200048F0CE010E94900405C0CE010E946004EE
:100B300080E001C081E0DF91CF911F910F91FF9084
:100B4000EF90DF90CF90BF90AF900895EF92FF921B
:100B50000F931F93CF93DF93EC017901411551055A
:100B60006105710511F482E13CC08B85833039F059
:100B700089E0440F551F661F771F8A95D1F79A01A8
:100B8000AB0168E1CE010E94C304882311F084E028
:100B900028C08EEF0E946B0487018EEFF81AF801CF
:100BA00081918F010E946B04E016F106C1F78FEF6F
:100BB0000E946B048FEF0E946B040E9472048A876C
:100BC0008F71853031F081E18D83CE010E94600408
:100BD00009C068E572E0CE010E947504811107C06A
:100BE00085E18D83CE010E94600480E014C020E086
:100BF00030E0A9016DE0CE010E94C304811109C05B
:100C00000E947204811105C0CE010E94600481E03F
:100C100002C084E1E6CFDF91CF911F910F91FF9049
:100C2000EF9008952F923F924F925F926F927F9232
:100C30008F929F92AF92BF92CF92DF92EF92FF92EC
:100C40000F931F93CF93DF9300D000D0CDB7DEB7C3
:100C50008C015B011A01DC0115968C91159781308E
:100C6000C9F414968C9181FF15C082FF1DC0F80154
:100C7000438954896589768982859385A485B5855C
:100C800084179507A607B70779F0C8010E94B70136
:100C900081110AC081E090E0D80113969C938E9355
:100CA000129780E090E036C1610183C05B968D9120
:100CB0009C915C97FC0174802FEF270D2A013B016A
:100CC00039E076946794579447943A95D1F7722E09
:100CD00074207A01F1E0FF22772009F476C080E0E9
:100CE00092E08E199F0946018C159D0508F44C0170
:100CF000D8015B962D913C915C9716968D919D91B4
:100D00000D90BC91A02D0297A109B109F9010584AC
:100D100004C0880F991FAA1FBB1F0A94D2F74685EB
:100D2000578560897189840F951FA61FB71F9C0185
:100D3000AD01270D311D411D511D29013A018114BD
:100D400032E0930609F088C0809136019091370116
:100D5000A0913801B0913901481659066A067B0600
:100D600059F48FEF9FEFDC018093360190933701A8
:100D7000A0933801B09339019501B301A20180918C
:100D8000AE049091AF040E94A605882309F482CF97
:100D90009EEFB91AC818D908F80182859385A485F1
:100DA000B585880D991DA11DB11D82879387A487E4
:100DB000B587D8011A964D915D916D917C911D97E3
:100DC000C114D10409F072CF87C0E114F10409F015
:100DD00086CF16964D915D916D917C911997411535
:100DE00051056105710559F457968D919D910D90AE
:100DF000BC91A02D0097A105B10541F521C09E0130
:100E00002F5F3F4F0E94CD0D882309F44BCF89817E
:100E10009A81AB81BC81F801238D348DF90127893A
:100E2000203129F048EF5FEF6FEF7FE004C048EF1B
:100E30005FEF60E070E084179507A607B70730F012
:100E4000C8010E94570381114ACF24CFF80186833D
:100E50009783A087B18743CFE114F10429F5D80126
:100E60001A964D915D916D917C911D9753968D9140
:100E70009D910D90BC91A02D481759076A077B07DB
:100E800098F00E94A80C882309F404CF4092360100
:100E9000509237016092380170923901809161025D
:100EA00081608093610208C041E0C301B2010E94E9
:100EB000E30C882309F4EECED501F701E255FD4F8E
:100EC0009F01280D391D2E173F0719F08D91819331
:100ED000FACFA80CB91C5ECFF80183899489A58943
:100EE000B68984179507A607B70738F4438B548B48
:100EF000658B768B848180688483F801848183FD8F
:100F000002C0C10107C0C8010E947601882309F40C
:100F1000C1CEF7CF0F900F900F900F90DF91CF9130
:100F20001F910F91FF90EF90DF90CF90BF90AF9007
:100F30009F908F907F906F905F904F903F902F90F9
:100F40000895CF93DF93EC01898D9A8D009739F442
:100F500081E090E09B838A8380E090E00BC0FC01FD
:100F6000138212820E941206E98DFA8D228133814A
:100F7000232B71F7DF91CF910895FC01DB011296CD
:100F80008D919C9113979383828386E591E0918361
:100F9000808314968C911497848315968C91159761
:100FA000858316964D915D916D917C91199746833D
:100FB0005783608771871A964D915D916D917C91F1
:100FC0001D9742875387648775871E964D915D9163
:100FD0006D917C91519746875787608B718B5296A4
:100FE0008C915297828B53964D915D916D917C912E
:100FF0005697438B548B658B768B57964D915D91AD
:101000006D917C915A97478B508F618F728F5B9651
:101010008D919C915C97948F838F08954F925F92EE
:101020006F927F92AF92BF92CF92DF92EF92FF9238
:101030000F931F93CF93DF931F92CDB7DEB7FC01C1
:101040002581222309F4C1C0848180FFBEC0838929
:101050009489A589B68942845384648475848415EF
:101060009505A605B70509F4B0C06F015201F1E07E
:10107000BF22D6015B968D919C915C97B301A20132
:1010800039E076956795579547953A95D1F722308F
:1010900071F4FC01828D938DA48DB58D8A019B0125
:1010A000080F191F2A1F3B1FC901B8014AC0DC01E4
:1010B00014961C9111501423A114B104F9F41111C8
:1010C0001DC045284628472851F4F6018789908D90
:1010D000A18DB28D86839783A087B1870FC0D6017B
:1010E00016964D915D916D917C91199796012A5FAD
:1010F0003F4F0E94CD0D882309F467C0F601238D70
:10110000348D86819781A085B1850297A109B109A7
:10111000AC01BD01F901058404C0440F551F661FD1
:10112000771F0A94D2F786859785A089B189840FA5
:10113000951FA61FB71FBC01CD01610F711D811D39
:10114000911DD60114962C9126FF0DC040903601BA
:10115000509037016090380170903901461657065B
:101160006806790699F440E00E94E30C882369F14F
:10117000F501E255FD4FDE0111969F012F5F3F4FB4
:101180002E173F0799F081918D93FACFFE0131968A
:101190007F0101E010E09501AB01BC018091AE043C
:1011A0009091AF040E941205882379F0F6018285A0
:1011B0009385A485B5850196A11DB11D828793876E
:1011C000A487B587898190E002C08FEF9FEF0F90D1
:1011D000DF91CF911F910F91FF90EF90DF90CF9013
:1011E000BF90AF907F906F905F904F900895FC01FB
:1011F000818D928D009711F00C940E088FEF9FEF68
:1012000008950F931F93CF93DF93FC01818D928DEF
:101210000097B9F0EF010E940E088C010F3F8FEF8D
:10122000180791F0898D9A8DFC014285538564855C
:10123000758541505109610971090E94B701C801C2
:1012400005C080E090E002C08FEF9FEFDF91CF916B
:101250001F910F910895CF92DF92EF92FF920F931B
:101260001F93CF93DF936C017A018B01C0E0D0E034
:10127000CE15DF0581F0D8016D918D01D601ED917C
:10128000FC910190F081E02DC6010995892B11F0A8
:101290002196EECF7E01C701DF91CF911F910F9173
:1012A000FF90EF90DF90CF900895FC01538D448D17
:1012B000252F30E0842F90E0821B930B541710F001
:1012C000CF96089501970895FC01918D828D98170E
:1012D00061F0828DDF01A80FB11D5D968C91928D1A
:1012E0009F5F9F73928F90E008958FEF9FEF089517
:1012F000FC01918D828D981731F0828DE80FF11DE0
:10130000858D90E008958FEF9FEF0895FC01918DFA
:10131000228D892F90E0805C9F4F821B91098F73F3
:101320009927089580EB94E00E94860921E0892B9B
:1013300009F420E0822F0895FC01848DDF01A80FBD
:10134000B11DA35ABF4F2C91848D90E001968F73ED
:101350009927848FA689B7892C93A089B1898C910C
:10136000837080648C93938D848D981306C002885B
:10137000F389E02D80818F7D80830895EF92FF9225
:101380000F931F93CF93DF93EC0181E0888F9B8DA8
:101390008C8D981305C0E889F989808185FD26C068
:1013A000F62E0B8D10E00F5F1F4F0F731127E02EED
:1013B0008C8DE8120CC00FB607FCFACFE889F989CA
:1013C000808185FFF5CFCE010E949C09F1CF8B8DE6
:1013D000FE01E80FF11DE35AFF4FF0829FB7F8942A
:1013E0000B8FEA89FB89808180620AC09FB7F894DD
:1013F000EE89FF896083E889F98980818370806440
:1014000080839FBF81E090E0DF91CF911F910F918A
:10141000FF90EF900895CF93DF93EC01888D8823A0
:10142000C9F0EA89FB89808185FD05C0A889B98951
:101430008C9186FD0FC00FB607FCF5CF808185FF2C
:10144000F2CFA889B9898C9185FFEDCFCE010E949A
:101450009C09E7CFDF91CF91089580E090E0892B40
:1014600029F00E94920981110C94000008952091A6
:101470000E0230910F022817390771F490910C0277
:1014800080910D02981741F0E0910C02F0E0EA59CA
:10149000FD4F808190E008958FEF9FEF08950895AC
:1014A0001F93CF93DF93DC015C968D919C915D97A8
:1014B000009739F421E030E013963C932E93129775
:1014C0003BC05196ED91FC91529750962C915097BC
:1014D000322F30951FB75E964C915E97742F7270C5
:1014E00041FD6095F8944081772311F0422B01C0B3
:1014F00043234083EC012197F1F748E0508160FFDE
:1015000002C0522B01C053235083EC012197F1F705
:101510006695415099F78081772319F08323808362
:1015200002C0282B20831FBF5C968D919C915D97F4
:101530000197F1F781E090E0DF91CF911F9108953D
:1015400020910E0230910F022817390771F4809113
:101550000D0220910C0290E0805C9F4F821B91094C
:1015600060E470E00E949323089580E090E0089585
:1015700020910E0230910F0228173907B9F490918B
:101580000C0280910D02981789F0E0910C02F0E0B6
:10159000EA59FD4F808120910C0230E02F5F3F4FD0
:1015A0002F73332720930C0290E008958FEF9FEF65
:1015B00008950E94D225CF93DF93EC0160E08E81E5
:1015C0000E942B1461E08E810E942B1460E08E81BA
:1015D0000E942B148BE891E00197F1F7DF91CF91F6
:1015E0000895CF93DF931F92CDB7DEB7698341E0B3
:1015F00050E0BE016F5F7F4F0E9412060F90DF9197
:10160000CF9108950F931F93CF93DF93EC018881BF
:101610009981009729F02A813B812617370788F4A2
:101620008B016F5F7F4F0E940C25009761F09983BB
:1016300088831B830A832C813D81232B11F4FC01B9
:10164000108281E001C080E0DF91CF911F910F9166
:101650000895CF93DF93EC0188819981009711F071
:101660000E948324198218821D821C821B821A8286
:10167000DF91CF9108956115710579F0FB0101901B
:101680000020E9F73197AF01461B570BDC01ED91C4
:10169000FC910280F381E02D099480E090E00895B0
:1016A0001F920F920FB60F9211242F933F934F93D7
:1016B0005F936F937F938F939F93AF93BF93EF93BA
:1016C000FF9380EB94E00E949C09FF91EF91BF9102
:1016D000AF919F918F917F916F915F914F913F91CA
:1016E0002F910F900FBE0F901F9018951F920F9281
:1016F0000FB60F9211242F938F939F93EF93FF9325
:10170000E091C004F091C1048081E091C604F091A1
:10171000C70482FD12C090818091C9048F5F8F73CE
:101720002091CA04821751F0E091C904F0E0E0551D
:10173000FB4F958F8093C90401C08081FF91EF9189
:101740009F918F912F910F900FBE0F901F90189522
:101750001F920F920FB60F9211242F933F934F9326
:101760005F936F937F938F939F93AF93BF93EF9309
:10177000FF93E0910E02F0910F02309709F451C0EF
:10178000968DA685B785858591FF04C09C91892398
:1017900029F447C09C91892309F043C0A389B489E7
:1017A0009C918589809589238C9386899789019757
:1017B000F1F7608D718DA685B785558538E020E0FD
:1017C000CB010197F1F7822F90E095958795282F0F
:1017D0004C91452309F02068315091F7868D81FDA9
:1017E000209580910D0290E001968F73992730919A
:1017F0000C02381749F0A0910D02B0E0AA59BD4F74
:101800002C9380930D0203C0868D8160868F828D1C
:10181000938D0197F1F7A389B4899C918589892BD0
:101820008C93FF91EF91BF91AF919F918F917F9199
:101830006F915F914F913F912F910F900FBE0F903D
:101840001F901895CF92DF92EF92FF920F931F9304
:10185000CF93DF936C017C0187E0E80EF11CC0E0C0
:10186000D0E0062F10E0B8010C2E02C075956795E8
:101870000A94E2F76170F70181917F010E942B14B5
:101880002196C430D10579F7C601DF91CF911F9120
:101890000F91FF90EF90DF90CF900C94DB0ACF92E6
:1018A000DF92EF92FF920F931F93CF93DF93EC01A0
:1018B000F62E642F8C810E942B148D818F3F19F09E
:1018C00060E00E942B148F850F2D10E084FF25C04F
:1018D0006E0187E0C80ED11CE12CF12CB8010E2C52
:1018E00002C0759567950A94E2F76170F6018191DF
:1018F0006F010E942B14FFEFEF1AFF0A88E0E81631
:10190000F10461F7CE01DF91CF911F910F91FF900C
:10191000EF90DF90CF900C94DB0AB80184E07595CE
:1019200067958A95E1F7CE010E94220C6F2DCE01BA
:10193000DF91CF911F910F91FF90EF90DF90CF90AB
:101940000C94220C41E00E944F0C81E090E008953D
:10195000809161028823A9F14091360150913701AD
:1019600060913801709139012EEA32E08091AE0425
:101970009091AF040E94A605811102C080E00895F5
:10198000409162025091630260916402709165021D
:10199000411551056105710591F02EEA32E0809103
:1019A000AE049091AF040E94A605882339F31092EB
:1019B0006202109263021092640210926502109209
:1019C000610281E008958F929F92AF92BF92EF9251
:1019D000FF920F931F93CF934B015C01C42F809113
:1019E000360190913701A0913801B09139018815E5
:1019F0009905AA05BB0501F10E94A80C811102C03E
:101A000080E020C08EEAE82E82E0F82E00E012E0AE
:101A100020E030E0B501A4018091AE049091AF04C4
:101A20000E941205882361F380923601909237015B
:101A3000A0923801B092390180916102C82BC09305
:101A4000610281E0CF911F910F91FF90EF90BF90C5
:101A5000AF909F908F9008954F925F926F927F9278
:101A60008F929F92AF92BF92CF92DF92EF92FF92AE
:101A70000F931F93CF93DF93EC0142305105610523
:101A8000710510F480E078C089859A85AB85BC85A6
:101A90000196A11DB11D84179507A607B70790F3FE
:101AA000CB88DC88ED88FE888F89803129F4BB27BC
:101AB000A72F962F852F09C0DB01CA01E7E0B69555
:101AC000A79597958795EA95D1F7480159012A017D
:101AD0003B01C80ED91EEA1EFB1E80913601909173
:101AE0003701A0913801B0913901C816D906EA062C
:101AF000FB0681F48F898031A9F4B301A201552737
:101B000066277727440F551FFA01E255FD4F918252
:101B1000808219C040E0C701B6010E94E30C811128
:101B2000E9CFB0CFB301A2014F77552766277727BA
:101B3000440F551F440F551FFA01E255FD4F808297
:101B40009182A282B382809161028160809361025E
:101B50008A89823080F08D819E81AF81B885C80EE0
:101B6000D91EEA1EFB1EC0926202D0926302E0926E
:101B70006402F092650281E0DF91CF911F910F9195
:101B8000FF90EF90DF90CF90BF90AF909F908F909D
:101B90007F906F905F904F9008958F929F92AF9239
:101BA000BF92CF92DF92EF92FF920F931F93CF934A
:101BB000DF93FC0181859285A385B4850196A11DE3
:101BC000B11D84179507A607B70710F480E05BC026
:101BD00083889488A588B6888789803129F4BB27B3
:101BE000A72F962F852F09C0DB01CA01C7E0B69544
:101BF000A79597958795CA95D1F7E9016A017B0169
:101C00008F01BC01CD01680D791D8A1D9B1D80903F
:101C1000360190903701A0903801B09039016815D5
:101C200079058A059B0591F4F80187898031A1F433
:101C3000DD24EE24FF24C601880F991FFC01E25524
:101C4000FD4F80819181A0E0B0E018C040E00E948B
:101C5000E30C8111E9CFBACFE894C7F8DD24EE2474
:101C6000FF24C601880F991F880F991FFC01E255B8
:101C7000FD4F80819181A281B381BF708883998358
:101C8000AA83BB8381E0DF91CF911F910F91FF90D9
:101C9000EF90DF90CF90BF90AF909F908F9008957E
:101CA0002F923F924F925F926F927F928F929F926C
:101CB000AF92BF92CF92DF92EF92FF920F931F935A
:101CC000CF93DF93CDB7DEB72B970FB6F894DEBF77
:101CD0000FBECDBF7C01FE013196CE010C966F0187
:101CE00030E23193E817F907E1F7DA0130E087E0F5
:101CF0009D91992331F19E3231F48A3009F46BC100
:101D000038E08AE0F5CFE4EBF1E04491442321F0A0
:101D100031969413FACF5FC1831708F45CC14FED7D
:101D2000490F4E3508F057C141E0430FF601E30F6C
:101D3000F11D3FE9390F3A3108F490529083342F66
:101D4000D7CF8981803209F446C1322E8B01DB0165
:101D50005B968D919C915C97F701948F838F16967B
:101D60001D921D921D921C921997FB0112861386DB
:101D700014861586B12CF80182859385A485B585D6
:101D8000438954896589768984179507A607B7071B
:101D900008F05BC025E0B695A795979587952A959D
:101DA000D1F7F82FFF70AF2ED80115968C918230A5
:101DB00008F411C1C8010E940E0897FD0CC1F8017A
:101DC00082859385A485B5854F96A11DB11D828717
:101DD0009387A487B587F0E2AF9EB00111246255C6
:101DE0007D4F6115710509F4F6C0DB018C918823E4
:101DF00019F0853EC1F4F1C0B1100EC0F701A28AFE
:101E00008091360190913701A0913801B09139014C
:101E100086879787A08BB18BDB018C91882399F003
:101E2000BB24B394A8CF4BE050E0C6010E94D72555
:101E3000892B09F0A0CF832D8073803309F4CBC0A8
:101E4000432D6A2DC4C0BB24B394832D827182318B
:101E500009F0C1C0BB20C1F0F70166857785808994
:101E6000918941E00E94E30C882309F4B4C0D701B2
:101E700052968C91B0E28B9FC001112482559D4FE8
:101E8000009709F078C0A7C0F8018581823009F475
:101E9000A2C0C8010E945703882309F49CC0D8013E
:101EA0005B96ED91FC915C9716968D909D90AD9010
:101EB000BC901997B2E08B1A9108A108B10805846B
:101EC00004C0880C991CAA1CBB1C0A94D2F78685F6
:101ED0009785A089B189880E991EAA1EBB1E2480F1
:101EE000E1E08E1A9108A108B108222009F124012D
:101EF0003501420C511C611C711C0E94A80C8823E6
:101F000009F469C0EEEAF2E0119224E0EE3AF20739
:101F1000D9F74092360150923701609238017092A1
:101F20003901809161028160809361022A94DDCF42
:101F3000D8015B96ED91FC915C9780E092E0A0E087
:101F4000B0E0058404C0880F991FAA1FBB1F0A9424
:101F5000D2F7F8014389548965897689840F951FE2
:101F6000A61FB71F838B948BA58BB68BD701529678
:101F70001C928EEA92E020E2FC0111922A95E9F788
:101F80002BE0F601DC0101900D922A95E1F721E2A8
:101F900038E2DC0151963C932E93509740E058E094
:101FA0001F965C934E931E9753963C932E93529795
:101FB00059963C932E93589757965C934E93569709
:101FC0000E94A80C882339F0432DF7016289C701CC
:101FD0000E944E0205C080E003C0B11021CF0ECF99
:101FE0002B960FB6F894DEBF0FBECDBFDF91CF9119
:101FF0001F910F91FF90EF90DF90CF90BF90AF9027
:102000009F908F907F906F905F904F903F902F9018
:10201000089540E0682F88E995E00C944F0C81E02A
:102020000E9409108BE39FE10197F1F708954F9209
:102030005F926F927F92AF92BF92CF92DF92EF92B8
:10204000FF920F931F93CF93DF9300D000D0CDB7B3
:10205000DEB78C0149835A836B837C835901C12C81
:10206000D12C7601412C82E0582E612C712C4981B3
:102070005A816B817C819E012F5F3F4FC8010E9476
:10208000CD0D882351F1D301C201F801058404C0AC
:10209000880F991FAA1FBB1F0A94D2F7C80ED91E1A
:1020A000EA1EFB1E49815A816B817C8187898031C0
:1020B00029F088EF9FEFAFEFBFE004C088EF9FEFFC
:1020C000A0E0B0E0481759076A077B0780F2F501E6
:1020D000C082D182E282F38281E00F900F900F9054
:1020E0000F90DF91CF911F910F91FF90EF90DF90B4
:1020F000CF90BF90AF907F906F905F904F9008957A
:10210000CF93DF93FC012581222311F080E049C0A9
:10211000EC01809172058031C1F482E08583178AD9
:10212000108E118E128E8091730590917405A0E02F
:10213000B0E025E0880F991FAA1FBB1F2A95D1F791
:10214000838B948BA58BB68B19C08032F9F683E014
:102150008583409175055091760560917705709162
:102160007805478B508F618F728F9F012D5E3F4F97
:102170008BE595E00E941710882341F28BE595E0EE
:102180009C8F8B8F81E08C831E821F82188619861C
:102190001A861B861C861D861E861F86188A198A2B
:1021A0001A8ADF91CF9108958F929F92AF92BF923A
:1021B000CF92DF92EF92FF92CF93DF93C82F8FE4FD
:1021C00095E09093AF048093AE04CC2369F1C530C1
:1021D00010F080E00CC140E060E070E0CB010E94B4
:1021E000E30C8823B1F320E1C29FC0011124825681
:1021F0009D4FFC01E254FE4F20812F7751F73C9612
:1022000040815181628173814436510561057105B8
:1022100000F33497C080D180E280F380C114D104F0
:10222000E104F10421F4D5CFC12CD12C760140E09A
:10223000C701B6010E94E30C882359F28091B902CC
:102240009091BA028115924021F6A091BE02AA2374
:1022500009F4BFCF6091BC027091BD026115710598
:1022600009F4B7CF2091BB02222309F4B2CFA09387
:102270006D0520935F0580E030E041E050E0C82F1D
:10228000FA01082E02C0EE0FFF1F0A94E2F72E1784
:102290003F0739F08F5FC83091F789E08093680578
:1022A00098CF809368052091C4023091C502211512
:1022B000310519F040E050E008C02091D202309181
:1022C000D3024091D4025091D502209360053093FF
:1022D0006105409362055093630546015701860EE0
:1022E000971EA11CB11C80926E0590926F05A09262
:1022F0007005B0927105E091BF02F091C002F093B9
:102300007405E0937305B0E00E94C022860E971E0C
:10231000A81EB91E8092750590927605A092770549
:10232000B092780585E0EE0FFF1F8A95E1F7E15046
:10233000FE4FEF2FFF27E6958E0E9F1EA11CB11CAE
:102340008092690590926A05A0926B05B0926C0527
:102350002091C1023091C2022115310521F0A9015D
:1023600060E070E008C04091CE025091CF026091D1
:10237000D0027091D102D701C60188199909AA0922
:10238000BB09840F951FA61FB71F04C0B695A7955C
:1023900097958795CA95D2F78093640590936505C4
:1023A000A0936605B0936705853F2FE09207A105CE
:1023B000B10510F48CE018C0853F9F4FA105B10511
:1023C00010F480E111C08091DA029091DB02A091BB
:1023D000DC02B091DD028093750590937605A093A1
:1023E0007705B093780580E28093720581E0DF91F4
:1023F000CF91FF90EF90DF90CF90BF90AF909F90E4
:102400008F900895EF92FF920F931F93CF93DF93D6
:10241000EC017B018A011B821A8288EE93E0A0E026
:10242000B0E08C839D83AE83BF838EE691E0998379
:1024300088838DE190E00E94EB239A8F898F00972B
:1024400079F02DE1F701DC0101900D922A95E1F779
:102450004CE050E0B801CE010C960E94F425188E95
:10246000DF91CF911F910F91FF90EF900895EF9220
:10247000FF920F931F93CF93DF93EC01FB01048135
:102480001581E080F180E114F104C9F00115110516
:10249000C9F08C819D81080F191FB801CE010E94DF
:1024A000020B882361F0288139818C819D81B701DD
:1024B000820F931F0E94ED251D830C8303C0CE0164
:1024C0000E94290BCE01DF91CF911F910F91FF90B8
:1024D000EF900895CF93DF93EC01198218821B824D
:1024E0001A821D821C8266E070E00E94020B81113C
:1024F00005C0CE01DF91CF910C94290B86E090E0CE
:102500009D838C8364E072E088819981DF91CF9113
:102510000C94ED25CF92DF92EF92FF920F931F93D1
:10252000CF93DF93CDB7DEB7A1970FB6F894DEBF98
:102530000FBECDBF7C01CB01BA01F7011182108221
:1025400013821282158214828E010F5F1F4F22E0C8
:1025500044E00E944D1F6C01009771F0FC01019056
:102560000020E9F731978F01081B190BB801C7014B
:102570000E94020B811104C0C7010E94290B08C0F0
:10258000F70115830483B601808191810E94ED25B6
:10259000A1960FB6F894DEBF0FBECDBFDF91CF91ED
:1025A0001F910F91FF90EF90DF90CF900895E091F1
:1025B000AB05E23010F4E15001C0E1E0F0E0E85694
:1025C000FA4F9489890F80680C940910CF92DF929A
:1025D000EF92FF920F931F93CF93DF93C09140062A
:1025E000CD3219F4E1E4F6E002C0E0E4F6E08F0158
:1025F00020E030E0A901D801DD918D0180ED8D0F43
:102600008A30B0F4AAE0B0E00E94C022CD2EDD0FE7
:10261000DD08EE08FF08DC01CB018C0D9D1DAE1D11
:10262000BF1D9C01AD012053310941095109E3CF80
:10263000A4E6B0E00E94C022DF01219130ED320F0C
:102640003A30D0F32E3269F511962C91119730ED76
:10265000320F3A3030F5022E000C330B2053310983
:102660004AE0429F8001439F100D1124012E000C6F
:10267000220B330B600F711F821F931F12960C9158
:1026800020ED200F2A3068F4002E000C110B0053AF
:102690001109012E000C220B330B600F711F821FDA
:1026A000931FCD3239F490958095709561957F4F49
:1026B0008F4F9F4FDF91CF911F910F91FF90EF9020
:1026C000DF90CF9008954F925F926F927F928F929A
:1026D0009F92AF92BF92CF92DF92EF92FF921F93A1
:1026E000CF93DF93C0E4D6E0FE01812C912C5401FE
:1026F000119180ED810F8A30A8F4AAE0B0E0A50125
:1027000094010E94C022812E110F9908AA08BB08CB
:10271000860E971EA81EB91E80E3881A9108A1088C
:10272000B108E6CFC501B40124E630E040E050E056
:102730000E94A7239B01AC0160EA76E881E090E06B
:102740000E9483236B017C019E01899190ED980F7B
:102750009A30D0F38E3221F5E901219680E1482E9E
:1027600087E2582E612C712CA99180ED8A0F8A3056
:10277000B8F40A2E000CBB0BD097A30192010E9463
:10278000CF23C60ED71EE81EF91EC301B2012AE0F0
:1027900030E040E050E00E94A72329013A01E4CF55
:1027A000C501B40124E630E040E050E00E94A723D8
:1027B00060E472E48FE090E00E9483234B015C01AF
:1027C000C701B6016D5F7F4F8F4F9F4F26E030E00E
:1027D00040E050E00E94A723C501B401620F731FBF
:1027E000841F951FDF91CF911F91FF90EF90DF9095
:1027F000CF90BF90AF909F908F907F906F905F90A1
:102800004F900895833081F028F4813099F0823020
:10281000A1F008958730A9F08830B9F08430D1F460
:10282000809180008F7D03C0809180008F7780939E
:102830008000089584B58F7702C084B58F7D84BDF4
:1028400008958091B0008F7703C08091B0008F7D94
:102850008093B00008951F93CF93DF93282F30E02B
:10286000F901E253FE4F8491F901E65FFD4FD491E7
:10287000F901EA50FE4FC491CC23C1F0162F81110B
:102880000E940214EC2FF0E0EE0FFF1FE451FE4F08
:10289000A591B4919FB7F894111104C08C91D09573
:1028A000D82302C0EC91DE2BDC939FBFDF91CF9148
:1028B0001F910895CF93DF9390E0FC01E65FFD4FF9
:1028C0002491FC01EA50FE4F8491882361F190E04D
:1028D000880F991FFC01EC53FE4FC591D491FC0168
:1028E000E451FE4FA591B491611109C09FB7F894CE
:1028F0008881209582238883EC912E230BC062303F
:1029000061F49FB7F8948881322F309583238883B0
:10291000EC912E2B2C939FBF06C08FB7F894E881C3
:102920002E2B28838FBFDF91CF910895CF93DF9314
:10293000823028F09091A70598609093A705809326
:10294000AB051092AC0580E48093AD0580E18093E7
:10295000AE0580E58093AF0561E080919C050E9403
:102960005A1480919D058F3F19F061E00E945A141E
:1029700061E080919E050E945A14C8E9D5E09E014D
:10298000285935408091A70584FD03C084E090E07C
:1029900002C088E090E02196281739072CF461E006
:1029A0008E810E945A14EBCF8BE39DE00197F1F7E3
:1029B00060E080919C050E942B1460E080919E0550
:1029C0000E942B1480919D058F3F19F060E00E94BA
:1029D0002B148091A70584FD20C063E088E995E071
:1029E0000E94220CCBE4D6E4CE010197F1F763E01C
:1029F00088E995E00E94220C2197F1F763E088E9CD
:102A000095E00E94220C83E592E00197F1F762E0E5
:102A100088E995E00E94220C15C080620E9409108E
:102A20008BE496E40197F1F78091A70580620E94FC
:102A3000091083E592E00197F1F78091A705806284
:102A40000E9409108091A70580620E94091084E00D
:102A50008093A8058CE00E9409100E940F1082E06C
:102A60008093A90586E0DF91CF910C9409103FB7C0
:102A7000F8948091AA029091AB02A091AC02B0911F
:102A8000AD0226B5A89B05C02F3F19F00196A11DE8
:102A9000B11D3FBFBA2FA92F982F8827820F911DF4
:102AA000A11DB11DBC01CD0142E0660F771F881F3B
:102AB000991F4A95D1F708952FB7F8946091A6020F
:102AC0007091A7028091A8029091A9022FBF08954A
:102AD0001F920F920FB60F9211242F933F938F9353
:102AE0009F93AF93BF938091A6029091A702A0916C
:102AF000A802B091A90230915D0623E0230F2D3783
:102B000020F40196A11DB11D05C026E8230F0296F1
:102B1000A11DB11D20935D068093A6029093A7028C
:102B2000A093A802B093A9028091AA029091AB024F
:102B3000A091AC02B091AD020196A11DB11D809390
:102B4000AA029093AB02A093AC02B093AD02BF91E6
:102B5000AF919F918F913F912F910F900FBE0F904A
:102B60001F901895CF93DF93CDB7DEB7C257D10929
:102B70000FB6F894DEBF0FBECDBF789484B58260E7
:102B800084BD84B5816084BD85B5826085BD85B511
:102B9000816085BD80916E00816080936E0010928F
:102BA000810080918100826080938100809181000A
:102BB000816080938100809180008160809380009B
:102BC0008091B10084608093B1008091B0008160F9
:102BD0008093B00080917A00846080937A00809125
:102BE0007A00826080937A0080917A00816080937D
:102BF0007A0080917A00806880937A001092C100F8
:102C00001092E6051092E5051092E4051092E30596
:102C10001092E2051092E1058DE991E09093E805AC
:102C20008093E7059091D705963108F058C02DEBB9
:102C300030E03093E2052093E1052BE931E0309359
:102C4000E4052093E3052CE231E03093E605209380
:102C5000E50540916800983058F031E09E3008F466
:102C600030E021E0822F01C0880F3A95EAF701C0D9
:102C700084E0842B80936800983038F09E3040F0D8
:102C8000963148F020E030E008C02DE630E005C085
:102C90002BE630E002C02CE630E03093DF052093D5
:102CA000DE05983030F481E001C0880F9A95EAF78C
:102CB0000EC0292F30E09E3018F42850310902C090
:102CC0002E50310981E001C0880F2A95EAF78093E0
:102CD000E0058091E7059091E8050197F1F7809173
:102CE000E5059091E605892B49F1E0910E02F091FE
:102CF0000F0225E0EB3CF20709F1309739F0A38988
:102D0000B4899C918589809589238C938091E9056C
:102D10008E7F8093E90510920D0210920C028BECCD
:102D200095E090930F0280930E02E091DE05F09102
:102D3000DF0590818091E005892B808361E082E04E
:102D40000E945A1461E083E00E945A1461E084E01A
:102D50000E945A1461E085E00E945A1461E086E006
:102D60000E945A1461E087E00E945A1460E088E0F3
:102D70000E945A1461E08AE00E945A1482E00E9484
:102D8000961480917E05882321F089E795E00E94C2
:102D90004B0310925A051092580510925505109247
:102DA00054058AE0809353050E945C158B0161E015
:102DB000809153050E945A1461E0809153050E944E
:102DC0002B14FFB6F89480911002811127C0E0E027
:102DD000F2E08491E4E1F2E09491E82FF0E0EE0F6C
:102DE000FF1FEC53FE4FA591B491EC91E92321F420
:102DF00061E08AE00E942B1461E08AE00E945A148C
:102E00008CB580618CBD8CB580648CBD61E08DE03B
:102E10000E945A1461E08BE00E945A1480911002C3
:102E20008F5F80931002FFBE82E580934D05109264
:102E30004E0580914D0590914E050E94AA046AE0CE
:102E4000F62E8FEF0E946B04FA94F110FACF8FE404
:102E500095E00E94AD0420E030E0A90160E08FE43D
:102E600095E00E94C304F82E8093590531E0831742
:102E700049F00E945C15601B710B613D774058F36F
:102E800081E056C02AEA31E040E050E068E08FE49B
:102E900095E00E94C30482FF03C0F0925A0510C05F
:102EA00054E0F52E0E94720480935905FA94F110B3
:102EB000F9CF8A3A11F082E03BC082E080935A0554
:102EC00080915A05823021F0C12CD12C760105C0A9
:102ED000C12CD12CE12C40E4F42E20E030E0A901FB
:102EE00067E38FE495E00E94C304A701960169E2BD
:102EF0008FE495E00E94C30480935905882349F02C
:102F00000E945C15601B710B613D774030F388E0D7
:102F10000FC080915A05823001F520E030E0A90110
:102F20006AE38FE495E00E94C304882341F086E0C1
:102F3000809354058FE495E00E94600426C00E94AF
:102F40007204807C803C19F483E080935A050E94CF
:102F500072040E9472040E9472048FE495E00E9441
:102F6000600480E580934D0510924E0581E00E943B
:102F7000D410882329F089E795E00E94801005C0CD
:102F800080E00E94D4108111F6CF22E0322E34E688
:102F9000C32ED12CE12CF12C01E08BEC95E00E94AA
:102FA000A00A892B09F49FC28BEC95E00E94B80A15
:102FB000182F8091530690915406A0915506B09118
:102FC00056060196A11DB11D809353069093540699
:102FD000A0935506B0935606143209F463C2E091EB
:102FE0005106153234F41A3071F01D3009F067C201
:102FF0000AC01A3241F01C3209F061C280913E06CB
:10300000812780933E06EF3008F03EC2F0E0E05C9E
:10301000F94F108280913F06882309F428C120913E
:1030200040063FEB320F822F022E000C990B3630F8
:1030300010F4C79707C02156263018F48755910918
:1030400001C0C097282F2295207F309141064FEB79
:10305000430F832F032E000C990B463010F4C797B3
:1030600007C03156363018F48755910901C0C09712
:10307000820F90913E068913F0C0809152068823FA
:1030800009F402C2809157069091580601969093D8
:103090005806809357068091320690913306A0918E
:1030A0003406B091350680932E0690932F06A09398
:1030B0003006B093310680913A0690913B06A0917C
:1030C0003C06B0913D068093360690933706A09358
:1030D0003806B093390680914F06882309F464C0FE
:1030E000813009F0D1C18091EE059091EF05A0915A
:1030F000F005B091F1058093EA059093EB05A0935C
:10310000EC05B093ED058091F6059091F705A0913F
:10311000F805B091F9058093F2059093F305A0931B
:10312000F405B093F5058091FE059091FF05A091FF
:103130000006B09101068093FA059093FB05A093D9
:10314000FC05B093FD058091060690910706A091BD
:103150000806B09109068093020690930306A09397
:103160000406B09305068091160690911706A0916B
:103170001806B09119068093120690931306A09337
:103180001406B093150680911E0690911F06A0911B
:103190002006B091210680931A0690931B06A093F7
:1031A0001C06B0931D0670C180910E0690910F060B
:1031B000A0911006B091110680930A0690930B0619
:1031C000A0930C06B0930D068091EE059091EF054B
:1031D000A091F005B091F1058093EA059093EB057D
:1031E000A093EC05B093ED058091FE059091FF054D
:1031F000A0910006B09101068093FA059093FB051B
:10320000A093FC05B093FD058091060690910706FA
:10321000A0910806B09109068093020690930306D8
:10322000A0930406B093050680912C0690912D067C
:1032300090932B0680932A0680912606909127066C
:10324000A0912806B0912906809322069093230628
:10325000A0932406B093250617C18091590690913A
:103260005A06019690935A06809359060DC1909183
:10327000500691111CC0A0E4B6E04CEA51E09D015B
:10328000F90181919F01882309F481C3FA01919189
:10329000AF018917A9F3E2EBF1E08D91882309F4DE
:1032A00079C391918917C9F330924F06EDC0E0912F
:1032B0004F06E23009F4E8C080914006882309F403
:1032C000E3C020E2E29FF0011124E92B3197E932BB
:1032D000F10508F0D9C0EC5CFF4F0C94C9230E94A3
:1032E000E6126093EE057093EF058093F0059093DE
:1032F000F1050E945C15609332067093330680934B
:10330000340690933506C0C091E0813409F099C02D
:1033100099C00E9463136093FE057093FF0580932C
:103320000006909301060E945C1560933A06709324
:103330003B0680933C0690933D06A6C0833509F07A
:10334000A3C08091FE059091FF05A0910006B09169
:103350000106B095A095909581959F4FAF4FBF4FB7
:103360008093FE059093FF05A0930006B09301069D
:103370008BC00E94631360930606709307068093C8
:1033800008069093090680C0873509F07DC08091BA
:10339000060690910706A0910806B0910906B0951F
:1033A000A095909581959F4FAF4FBF4F8093060694
:1033B00090930706A0930806B093090665C00E9483
:1033C000E612609316067093170680931806909382
:1033D00019065AC00E94E61260931E0670931F06DB
:1033E00080932006909321064FC0E0E4F6E020E0B1
:1033F00030E0A901B19080ED8B0D8A30B0F4AAE0E5
:10340000B0E00E94C0228B2CBB0C9908AA08BB0814
:10341000DC01CB01880D991DAA1DBB1D9C01AD01CE
:103420002053310941095109E5CF2093F605309326
:10343000F7054093F8055093F90526C091E08133D4
:103440000CF490E0909352061FC080E496E00E9436
:103450006D1F992790932D0680932C0615C00E940E
:10346000E6126093260670932706809328069093B1
:1034700029060AC00E94E61260930E0670930F069A
:103480008093100690931106809150068F5F809371
:1034900050061092510681E01A3209F080E08093C4
:1034A0003F067BCD109251061092500610923E06B8
:1034B00030924F0610923F06109252066ECDEE30BB
:1034C00040F481E08E0F80935106F0E0E05CF94F0C
:1034D000108380913F06811160CD80913E061827B0
:1034E00010933E065ACD8090FA059090FB05A0906F
:1034F000FC05B090FD0540900206509003066090D8
:103500000406709005063FEF831639EC93063AE9FE
:10351000A3063BE3B30659F0C501B4010E94C721DD
:1035200020E034E244E759E40E94112304C060E043
:1035300070E08AE794E460935B0270935C0280938E
:103540005D0290935E028FEF881689EC98068AE9F7
:10355000A8068BE3B80659F0C301B2010E94C72147
:1035600020E034E244E759E40E94112304C060E003
:1035700070E08AE794E46093570270935802809356
:10358000590290935A024090F2055090F3056090D2
:10359000F4057090F5058090EA059090EB05A090F9
:1035A000EC05B090ED05C301B201A70196010E94A0
:1035B000A723613571051CF420ED37E002C02CE62D
:1035C00037E0620F731F7093560260935502C30178
:1035D000B201A70196010E94A723CA01B901A70160
:1035E00096010E94A72360935402C301B20120E117
:1035F00037E240E050E00E94A72320935302C50128
:10360000B40120E432E44FE050E00E94A72320936D
:103610005202C501B40120E137E240E050E00E94CF
:10362000A723CA01B901A70196010E94A7236093AD
:103630005102C501B401A70196010E94A723162FCC
:10364000CA01B901A70196010E94A7236093500205
:1036500010934F0280E480937C0080917A00806414
:1036600080937A0080917A0086FDFCCF609178008B
:103670008091790070E0782B072E000C880B990B55
:103680000E94C72120E130E44AEF5EE30E9402225B
:1036900060934B0270934C0280934D0290934E02C4
:1036A000E6EDF1E08491E2E1F2E00491EEEFF1E089
:1036B0001491112309F471C181110E940214E12FA8
:1036C000F0E0EE0FFF1FEE51FE4FA591B491EC918B
:1036D0000E2309F462C10E940F1081E00E94D712EC
:1036E00080915E028F9380915D028F9380915C0246
:1036F0008F9380915B028F9385EE91E09F938F93E0
:1037000085E291E09F938F930E94032665E271E02A
:1037100088E995E00E943B0B82E00E94D7128091DD
:103720005A028F93809159028F93809158028F9300
:10373000809157028F9380EF91E09F938F9384E164
:1037400091E09F938F930E94032664E171E088E9E2
:1037500095E00E943B0B0FB6F894DEBF0FBECDBFC5
:103760008091530690915406A0915506B09156064B
:103770008093470290934802A0934902B0934A0273
:103780008091570690915806909346028093450287
:103790008091590690915A06909344028093430277
:1037A0001C821B8206E511E01A8309831E82CE016A
:1037B00001960E948010BE016F5F7F4FCE01CB96B5
:1037C0000E94BD0719A218A21F8F0E8F1BA221965F
:1037D0008FAD219781111CC06C961FAE1EAE6C97E9
:1037E00088EE93E0A0E0B0E0A0968CAF9DAFAEAFC6
:1037F000BFAFA0978EE691E06A969FAF8EAF6A97B3
:10380000E3961FAE1EAEE397A5961FAEA59729C0FF
:1038100027E141EC51E0BE01655C7F4FCE014E9641
:103820000E94500E8823C1F2CE01CB960E944B031A
:1038300049A95AA96BA97CA9CE014E960E94B7014D
:10384000BE01625E7F4FCE0101960E94BD0741EC32
:1038500051E0BE016F5F7F4FCE01885A9F4F0E949B
:1038600002126C968EAD9FAD6C979093B3058093CA
:10387000B205A0968CAD9DADAEADBFADA0978093C7
:10388000B4059093B505A093B605B093B705A4967B
:103890008CAD9DADAEADBFADA4978093B8059093B0
:1038A000B905A093BA05B093BB05A8E5B0E0AC0F8D
:1038B000BD1F1C96ECEBF5E08D91819395E0E93C02
:1038C000F907D1F7E396EEADFFADE397F093CA05A4
:1038D000E093C905309709F457C08581882309F41E
:1038E00053C080914E028F9380914D028F938091AF
:1038F0004C028F9380914B028F9380915A028F9349
:10390000809159028F93809158028F938091570232
:103910008F9380915E028F9380915D028F9380914F
:103920005C028F9380915B028F938BE091E09F9379
:103930008F9380E091E09F938F938FEC91E09F9322
:103940008F9381E192E09F938F930E94032661E120
:1039500072E080EB95E00E943B0B8091C90590914D
:10396000CA050FB6F894DEBF0FBECDBF009761F059
:103970000E944B038091C9059091CA050E9483243F
:103980001092CA051092C9050E942D0A05CB00931A
:103990004F067ACD10924F0677CD0E940F1081E02E
:1039A0000E94D712809150021F928F9380915102F2
:1039B0001F928F93809152021F928F938BEF91E011
:1039C0009F938F938BE091E09F938F930E940326A8
:1039D0006BE071E088E995E00E943B0B82E00E9479
:1039E000D71240914B0250914C0260914D02709160
:1039F0004E02CE0101960E948A12CE014E960E947E
:103A00006A12BE016F5F7F4FCE014E960E94371241
:103A1000DC0114964D915C9115976D917C9188E92C
:103A200095E00E942B098E8D9F8D0E9483248981B1
:103A30009A810E9483240E9437152B013C010FB606
:103A4000F894DEBF0FBECDBF84EF882E99249394E7
:103A5000A12CB12C0E943715DC01CB0184199509EA
:103A6000A609B709883E9340A105B10598F391E0F6
:103A7000891A9108A108B108A8EE4A0EA3E05A1EBF
:103A8000611C711C81149104A104B10419F70E94F6
:103A90000F1081E00E94D712809156028F9380917F
:103AA00055028F93809154021F928F9380915302FD
:103AB0001F928F9388EB91E09F938F9380E091E02A
:103AC0009F938F930E94032660E071E088E995E060
:103AD0000E943B0B82E00E94D71240914B02509112
:103AE0004C0260914D0270914E02CE0101960E94EF
:103AF0008A12CE014E960E946A12BE016F5F7F4FFE
:103B0000CE014E960E943712DC0114964D915C91C5
:103B100015976D917C9188E995E00E942B098E8D17
:103B20009F8D0E94832489819A810E94832413CED1
:103B30008EE991E09093CC058093CB0580910E02A5
:103B400090910F028B5C954071F4E091DE05F0914D
:103B5000DF0590818091E005809589238083109214
:103B60000F0210920E0208950F931F931092B30448
:103B70001092B20408EE13E020E030E00093B404A9
:103B80001093B5042093B6043093B70484E491E015
:103B90009093B1048093B00485EC90E09093BD04C1
:103BA0008093BC0484EC90E09093BF048093BE04A7
:103BB00080EC90E09093C1048093C00481EC90E08D
:103BC0009093C3048093C20482EC90E09093C50468
:103BD0008093C40486EC90E09093C7048093C6045D
:103BE0001092C9041092CA041092CB041092CC0413
:103BF00080E580934D0510924E0510925405109269
:103C000055051092580510925A0582E090E0A0E008
:103C1000B0E080935B0590935C05A0935D05B09345
:103C20005E051092720510927C0510927B0586E568
:103C300091E090937A058093790510927E054FEF7D
:103C40005FEFBA014093EA055093EB056093EC05F2
:103C50007093ED051092F2051092F3051092F405A1
:103C60001092F5058FEF99ECAAE9BBE38093FA0572
:103C70009093FB05A093FC05B093FD05809302068D
:103C800090930306A0930406B093050680930A065A
:103C900090930B06A0930C06B0930D06809312062A
:103CA00090931306A0931406B093150680931A06FA
:103CB00090931B06A0931C06B0931D06409322060A
:103CC0005093230660932406709325068FEF90E0AF
:103CD00090932B0680932A0640932E0650932F062E
:103CE0006093300670933106409336065093370642
:103CF000609338067093390610923E0610923F0684
:103D000082E080934F061092500610925106109256
:103D100052061092530610925406109255061092B5
:103D20005606109258061092570610925A06109294
:103D30005906109240061092CE051092CD050093C0
:103D4000CF051093D0052093D1053093D2058EE98D
:103D500091E09093CC058093CB051092E2051092F0
:103D6000E1051092E4051092E3051092E605109229
:103D7000E5051092E8051092E7056091E9056E7F70
:103D80006D7F6093E9056695617081E0682780E04A
:103D90000E942B1461E080E00E945A14EAE0F2E0F5
:103DA000E491E093DB05E6EFF1E0E491F0E0EE0F63
:103DB000FF1FE451FE4F859194919093DD05809310
:103DC000DC0560E081E00E945A148091E90581FDE4
:103DD00004C061E081E00E942B1481E08093D7054C
:103DE000EBE0F2E0E491E093D805E7EFF1E0E49155
:103DF000F0E0EE0FFF1FEE51FE4F859194919093EE
:103E0000DA058093D9051092B3051092B20588EEB9
:103E100093E0A0E0B0E08093B4059093B505A09343
:103E2000B605B093B7058EE691E09093B105809307
:103E3000B0051092CA051092C9051092BC051092E7
:103E40009B0510929A0582E691E0909399058093E4
:103E5000980582E080939C058FEF80939D0583E019
:103E600080939E0584E080939F0585E08093A00564
:103E700086E08093A10587E08093A2051092A305B8
:103E80001092A4051092A5051092A6051092A70500
:103E900081E01F910F910C949614EF920F931F9352
:103EA000CF93DF93E80147FD02C034E001C034E165
:103EB000042E000C550B57FF03C051954195510935
:103EC000E32E022F242FAE010E94931FCE01DF911B
:103ED000CF911F910F91EF900895FC0188279927AA
:103EE000E89421912032E9F3293010F02E30C8F304
:103EF0002B3241F02D3239F4689404C00E948B1F9C
:103F0000820F911D219120532A30C0F31EF4909509
:103F100081959F4F08957AE0979F902D879F802DE0
:103F2000910D11240895A9E0B0E0E9E9FFE10C94B6
:103F3000D1226A01122FB02E2BE3201720F0FF248C
:103F4000F394F00E02C02CE3F22E0F2D27E0AE0109
:103F50004F5F5F4F0E94ED20BC014981842F897023
:103F6000813031F0E1FC06C0E0FE06C090E205C001
:103F70009DE203C09BE201C090E05E2D507143FFC3
:103F80003CC0911102C083E001C084E0811718F4A5
:103F9000212F281B01C020E051110BC0F601822FF8
:103FA00030E2882319F031938150FBCFC20ED11C2F
:103FB00020E0992329F0D6019C93F60131966F01F8
:103FC000C6010396E2FE0AC03EE4D6013C9341E4FA
:103FD00011964C93119712963C9306C03EE6F6015B
:103FE000308341E641833283FC01322F40E23323A8
:103FF00009F442C041933150FACF42FF44C09111BD
:1040000002C083E001C084E0811718F4212F281B2F
:1040100001C020E051110BC0F601822F30E288234D
:1040200019F031938150FBCFC20ED11C20E09923AF
:1040300029F0D6019C93F60131966F01C6010396D3
:10404000E2FE0BC039E4D6013C933EE411963C936A
:10405000119736E412963C9307C039E6F601308397
:104060003EE6318336E63283FC01322F40E23323D1
:1040700019F041933150FBCFFC01E20FF11D10828A
:104080008EEF9FEFA6C021E030E0911102C020E04A
:1040900030E0161617061CF4FB01319602C0E1E071
:1040A000F0E02E0F3F1FBB2021F0EB2DF0E031960A
:1040B00002C0E0E0F0E02E0F3F1FE12FF0E02E17EE
:1040C0003F071CF4121B212F01C020E08E2D8871A8
:1040D00059F4F601822F30E2882319F03193815090
:1040E000FBCFC20ED11C20E0992329F0D6019C936E
:1040F000F60131966F0151110BC0F601822F90E34A
:10410000882319F091938150FBCFC20ED11C20E07F
:104110000F2D060F9A81342F307144FF03C0913365
:1041200009F40150101624F4093018F008E001C019
:1041300001E0AB0177FF02C040E050E0FB01E41B6F
:10414000F50BA1E0B0E0AC0FBD1FEA0FFB1F8EE244
:10415000A82E4B01801A91080B2D10E011950195A6
:1041600011094F3FBFEF5B0721F4D601AC921196C6
:104170006D01641775072CF08416950614F481817F
:1041800001C080E3415051093196D60111967D015D
:104190004017510724F0D6018C936701E2CF6417D2
:1041A000750739F4963320F4953319F4311101C0B1
:1041B00081E3F6018083F701822F90E2882319F0D2
:1041C00091938150FBCFF701E20FF11D108280E047
:1041D00090E02996ECE00C94ED22283008F027E0DE
:1041E0003327DA01990F311D87FD91600096610533
:1041F000710539F432602E5F3D9330E32A95E1F783
:1042000008959F3F30F080387105610509F03C5FEB
:104210003C5F3D93913008F08068911DDF93CF9310
:104220001F930F93FF92EF92192F987F9695E92F86
:1042300096959695E90FFF27EC5EFE4F9927332759
:10424000EE24FF24A701E70105900894079428F4C1
:10425000360FE71EF81E491F511D660F771F881F76
:10426000991F0694A1F70590079428F4E70EF81E0D
:10427000491F561FC11D770F881F991F661F06947F
:10428000A1F70590079428F4F80E491F561FC71F81
:10429000D11D880F991F661F771F0694A1F70590FF
:1042A000079420F4490F561FC71FD81F990F661F88
:1042B000771F881F0694A9F784911095177041F015
:1042C000D695C79557954795F794E7941A95C1F7F2
:1042D000EAEBF0E068941590159135916591959110
:1042E00005907FE27395E118F10A430B560BC90B59
:1042F000D009C0F7E10CF11E431F561FC91FD01D86
:104300007EF4703311F48A95E6CFE894015030F0D2
:10431000080F0AF40027021708F4202F2395022F14
:104320007A3328F079E37D932A95E9F710C07D93DD
:104330002A9589F60694979567953795179517945A
:10434000E118F10A430B560BC90BD00998F02395DD
:104350007E9173957A3308F070E37C932013B8F75D
:104360007E9170617D9330F0839571E37D9370E36E
:104370002A95E1F71124EF90FF900F911F91CF91B3
:10438000DF91992787FD90950895E89409C097FBE0
:104390003EF490958095709561957F4F8F4F9F4F1C
:1043A0009923A9F0F92F96E9BB279395F695879560
:1043B00077956795B795F111F8CFFAF4BB0F11F423
:1043C00060FF1BC06F5F7F4F8F4F9F4F16C08823CA
:1043D00011F096E911C0772321F09EE8872F762F00
:1043E00005C0662371F096E8862F70E060E02AF041
:1043F0009A95660F771F881FDAF7880F969587952D
:1044000097F908950E9415220C9486220E94782222
:1044100038F00E947F2220F0952311F00C946F2237
:104420000C94752211240C94BA220E94972270F3E6
:10443000959FC1F3950F50E0551F629FF001729F49
:10444000BB27F00DB11D639FAA27F00DB11DAA1F58
:10445000649F6627B00DA11D661F829F2227B00DA5
:10446000A11D621F739FB00DA11D621F839FA00D30
:10447000611D221F749F3327A00D611D231F849F80
:10448000600D211D822F762F6A2F11249F575040D7
:104490009AF0F1F088234AF0EE0FFF1FBB1F661F52
:1044A000771F881F91505040A9F79E3F510580F01B
:1044B0000C946F220C94BA225F3FE4F3983ED4F33D
:1044C000869577956795B795F795E7959F5FC1F7BF
:1044D000FE2B880F911D9695879597F9089597F96A
:1044E0009F6780E870E060E008959FEF80EC08959A
:1044F00000240A94161617061806090608950024C3
:104500000A9412161306140605060895092E03943C
:10451000000C11F4882352F0BB0F40F4BF2B11F4B0
:1045200060FF04C06F5F7F4F8F4F9F4F089557FD0F
:104530009058440F551F59F05F3F71F04795880F11
:1045400097FB991F61F09F3F79F0879508951216A8
:1045500013061406551FF2CF4695F1DF08C0161654
:1045600017061806991FF1CF869571056105089405
:104570000895E894BB2766277727CB0197F908951C
:104580000E940223A59F900DB49F900DA49F800DC3
:10459000911D112408952F923F924F925F926F9236
:1045A0007F928F929F92AF92BF92CF92DF92EF92C3
:1045B000FF920F931F93CF93DF93CDB7DEB7CA1B44
:1045C000DB0B0FB6F894DEBF0FBECDBF09942A886F
:1045D000398848885F846E847D848C849B84AA8417
:1045E000B984C884DF80EE80FD800C811B81AA81A4
:1045F000B981CE0FD11D0FB6F894DEBF0FBECDBF6F
:10460000ED010895A29FB001B39FC001A39F700D5B
:10461000811D1124911DB29F700D811D1124911DCA
:1046200008950E9425230C9486220E947F2258F030
:104630000E94782240F029F45F3F29F00C946F2209
:1046400051110C94BA220C9475220E94972268F39F
:104650009923B1F3552391F3951B550BBB27AA273B
:1046600062177307840738F09F5F5F4F220F331F75
:10467000441FAA1FA9F335D00E2E3AF0E0E832D03D
:1046800091505040E695001CCAF72BD0FE2F29D040
:10469000660F771F881FBB1F261737074807AB0712
:1046A000B0E809F0BB0B802DBF01FF2793585F4F87
:1046B0003AF09E3F510578F00C946F220C94BA2288
:1046C0005F3FE4F3983ED4F3869577956795B79569
:1046D000F7959F5FC9F7880F911D9695879597F974
:1046E0000895E1E0660F771F881FBB1F62177307ED
:1046F0008407BA0720F0621B730B840BBA0BEE1F02
:1047000088F7E0950895DB018F939F930E94C02264
:10471000BF91AF91A29F800D911DA39F900DB29F5D
:10472000900D1124089597FB072E16F4009407D0DE
:1047300077FD09D00E94D72307FC05D03EF4909561
:1047400081959F4F0895709561957F4F0895A1E2DF
:104750001A2EAA1BBB1BFD010DC0AA1FBB1FEE1FFB
:10476000FF1FA217B307E407F50720F0A21BB30B46
:10477000E40BF50B661F771F881F991F1A9469F7C2
:1047800060957095809590959B01AC01BD01CF011E
:104790000895EE0FFF1F0590F491E02D0994B7FFE7
:1047A0000C94C0220E94C022821B930B0895AA1B66
:1047B000BB1B51E107C0AA1FBB1FA617B70710F00C
:1047C000A61BB70B881F991F5A95A9F7809590953E
:1047D000BC01CD0108950F931F93CF93DF938230D7
:1047E000910510F482E090E0E0916006F09161069E
:1047F00020E030E0A0E0B0E0309719F14081518135
:104800000281138148175907C8F08417950769F486
:10481000109731F012960C93129713961C9327C0A1
:10482000009360061093610622C02115310519F02E
:104830004217530718F49A01BD01EF01DF01F80197
:10484000DBCF21153105F9F0281B390B2430310558
:1048500080F48A819B816115710521F0FB019383AE
:10486000828304C09093610680936006FE013296B5
:1048700044C0FE01E20FF31F81939193225031094E
:10488000398328833AC020915E0630915F06232B3E
:1048900041F420913C0130913D0130935F0620931B
:1048A0005E0620913A0130913B012115310541F41A
:1048B0002DB73EB740913E0150913F01241B350B6F
:1048C000E0915E06F0915F06E217F307A0F42E1B5D
:1048D0003F0B2817390778F0AC014E5F5F4F241764
:1048E000350748F04E0F5F1F50935F0640935E06FA
:1048F0008193919302C0E0E0F0E0CF01DF91CF918E
:104900001F910F910895CF93DF93009709F481C011
:10491000FC01329713821282A0916006B091610669
:10492000109781F420813181820F931F20915E06C0
:1049300030915F062817390751F5F0935F06E09331
:104940005E0667C0ED0120E030E0CE17DF0740F4DF
:104950004A815B819E0141155105F1F0EA01F5CFD5
:10496000D383C28340815181840F951FC817D90713
:1049700059F488819981840F951F029691838083D1
:104980008A819B81938382832115310529F4F093D9
:104990006106E09360063DC0E901FB83EA8349912B
:1049A0005991C40FD51FEC17FD0761F480819181E7
:1049B000840F951F0296E9019983888382819381F0
:1049C0009B838A83E0E0F0E012968D919C9113978F
:1049D000009719F0FD01DC01F7CF8D919C911197A3
:1049E0009D012E5F3F4F820F931F20915E063091F5
:1049F0005F062817390769F4309729F41092610689
:104A00001092600602C013821282B0935F06A093D8
:104A10005E06DF91CF910895A0E0B0E0E2E1F5E21B
:104A20000C94CF22EC01009721F4CB010E94EB23E0
:104A3000B4C0FC01E60FF71F9C0122503109E217B8
:104A4000F30708F4A8C0D9010D911C91119706171E
:104A50001707B0F00530110508F49BC0C801049792
:104A60008617970708F495C002501109061B170B0B
:104A7000019311936D937C93CF010E94832489C08D
:104A80005B01A01AB10A4C01800E911EA091600634
:104A9000B0916106612C712CE12CF12C109709F476
:104AA00046C08D919C911197A815B905B1F56C017F
:104AB00042E0C40ED11CCA14DB0478F14C018A1800
:104AC0009B08640142E0C40ED11C1296BC90129760
:104AD0001396AC91B5E0CB16D10440F0B282A3831B
:104AE00091828082D9016D937C9309C00E5F1F4F24
:104AF000800F911FF90191838083EB2DFA2FE11430
:104B0000F10431F0D7011396FC93EE93129741C054
:104B1000F0936106E09360063CC06816790608F4DD
:104B20003C017D0112960D90BC91A02DB7CF8091D4
:104B30005E0690915F0688169906E1F46616770680
:104B4000C8F480913A0190913B01009741F48DB7F0
:104B50009EB740913E0150913F01841B950BE81791
:104B6000F907C8F4F0935F06E0935E06F9017183DC
:104B700060830FC0CB010E94EB237C01009759F0AA
:104B8000A801BE010E94E425CE010E948324C70132
:104B900004C0CE0102C080E090E0CDB7DEB7EEE009
:104BA0000C94EB2281E090E0F8940C94B628FB0181
:104BB000DC0104C08D910190801921F441505040D6
:104BC000C8F7881B990B0895FB01DC0102C0019016
:104BD0000D9241505040D8F70895FB01DC0101903F
:104BE0000D920020E1F70895FB01DC014150504097
:104BF00048F001900D920020C9F701C01D9241506C
:104C00005040E0F70895AEE0B0E0E9E0F6E20C9441
:104C1000D9220D891E8986E08C831A8309838FEF40
:104C20009FE79E838D83AE01475E5F4F6F89788DCE
:104C3000CE0101960E942526EF81F885E00FF11F35
:104C400010822E96E4E00C94F522ABE0B0E0EBE2AB
:104C5000F6E20C94CB226C017B018A01FC011782E5
:104C60001682838181FFCCC1CE0101963C01F60101
:104C70009381F70193FD859193FF81917F018823B3
:104C800009F4BAC1853239F493FD859193FF81917E
:104C90007F01853229F4B60190E00E941C28E7CFFD
:104CA000912C212C312CFFE1F315D8F08B3279F0C7
:104CB00038F4803279F08332A1F4232D20611DC0B5
:104CC0008D3261F0803369F4232D216016C0832D6D
:104CD0008260382EE32DE4603E2E2AC0F32DF8606A
:104CE0001DC037FC2DC020ED280F2A3040F08E3239
:104CF000B9F436FC81C1232D2064322E19C036FE52
:104D000006C08AE0989E200D1124922E11C0EAE080
:104D10002E9E200D1124222EF32DF0623F2E08C06E
:104D20008C3621F4832D8068382E02C0883641F4F9
:104D3000F70193FD859193FF81917F018111B3CF9D
:104D4000982F9F7D9554933028F40C5F1F4F9FE35D
:104D500099830DC0833631F0833771F0833509F0C4
:104D600059C021C0F801808189830E5F1F4F8824BC
:104D70008394912C530113C02801F2E04F0E511C73
:104D8000F801A080B18036FE03C0692D70E002C03A
:104D90006FEF7FEFC5010E9411284C018201F32DB6
:104DA000FF773F2E16C0280122E0420E511CF80169
:104DB000A080B18036FE03C0692D70E002C06FEFA5
:104DC0007FEFC5010E9406284C01F32DF0683F2EAD
:104DD000820133FC1BC0822D90E088169906B0F446
:104DE000B60180E290E00E941C282A94F4CFF501DD
:104DF00037FC859137FE81915F01B60190E00E94FA
:104E00001C2821102A9421E0821A9108811491040F
:104E100071F7E8C0843611F0893641F5F80137FEA4
:104E200007C060817181828193810C5F1F4F08C030
:104E300060817181072E000C880B990B0E5F1F4F4C
:104E4000F32DFF763F2E97FF09C0909580957095C2
:104E500061957F4F8F4F9F4FF0683F2E2AE030E0E3
:104E6000A3010E945828882E861845C0853731F442
:104E7000232D2F7EB22E2AE030E025C0932D997F7E
:104E8000B92E8F36C1F018F4883579F0B5C0803767
:104E900019F0883721F0B0C0E92FE061BE2EB4FED2
:104EA0000DC0FB2DF460BF2E09C034FE0AC0292FAF
:104EB0002660B22E06C028E030E005C020E130E0D8
:104EC00002C020E132E0F801B7FE07C060817181C5
:104ED000828193810C5F1F4F06C06081718180E0E9
:104EE00090E00E5F1F4FA3010E945828882E86185D
:104EF000FB2DFF773F2E36FE0DC0232D2E7FA22ED9
:104F0000891458F434FE0BC032FC09C0832D8E7E08
:104F1000A82E05C0B82CA32C03C0B82C01C0B92CF6
:104F2000A4FE0FC0FE01E80DF11D8081803321F445
:104F30009A2D997EA92E09C0A2FE06C0B394B394FF
:104F400004C08A2D867809F0B394A3FC11C0A0FE9A
:104F500006C0B21488F4280C922C9B180EC0B21410
:104F600060F4B60180E290E00E941C28B394F7CF71
:104F7000B21418F42B1802C0982C212CA4FE10C0D7
:104F8000B60180E390E00E941C28A2FE17C0A1FC9D
:104F900003C088E790E002C088E590E0B6010CC04D
:104FA0008A2D867859F0A1FE02C08BE201C080E212
:104FB000A7FC8DE2B60190E00E941C28891438F409
:104FC000B60180E390E00E941C289A94F7CF8A945F
:104FD000F301E80DF11D8081B60190E00E941C28CC
:104FE0008110F5CF222009F442CEB60180E290E094
:104FF0000E941C282A94F6CFF6018681978102C070
:105000008FEF9FEF2B96E2E10C94E722FC010590D5
:10501000615070400110D8F7809590958E0F9F1FBA
:105020000895FC016150704001900110D8F78095FF
:1050300090958E0F9F1F08950F931F93CF93DF932B
:10504000FB01238121FD03C08FEF9FEF2CC022FFC6
:1050500016C046815781248135814217530744F495
:10506000A081B1819D012F5F3F4F318320838C93BD
:10507000268137812F5F3F4F3783268314C08B01F2
:10508000EC01FB010084F185E02D0995892BE1F607
:10509000D80116968D919C911797019617969C931F
:1050A0008E931697CE01DF91CF911F910F910895A6
:1050B000FA01AA27283051F1203181F1E8946F9349
:1050C0006E7F6E5F7F4F8F4F9F4FAF4FB1E03ED0EF
:1050D000B4E03CD0670F781F891F9A1FA11D680F8D
:1050E000791F8A1F911DA11D6A0F711D811D911DC0
:1050F000A11D20D009F468943F912AE0269F112435
:105100003019305D3193DEF6CF010895462F477098
:10511000405D4193B3E00FD0C9F7F6CF462F4F70F3
:10512000405D4A3318F0495D31FD4052419302D051
:10513000A9F7EACFB4E0A6959795879577956795F7
:10514000BA95C9F700976105710508959B01AC01F7
:105150000A2E06945795479537952795BA95C9F71E
:10516000620F731F841F951FA01D089511E0C0E1F9
:10517000D1E004C0FE010E94C9232196C131D107AC
:06518000C9F7F894FFCF0F
:1051860030302F30302F303030300030303A303041
:105196003A30300030302E30300000000000000081
:1051A600000000000030302E30300000000000000B
:1051B600000000000000FFFFFFFF00006206800005
:1051C60000000000BE092B0955090B0A860964096F
:1051D600780900000000F10A2B0973017201000032
:1051E6000000A20C2B0973017201000000005C0193
:1051F600A1077301AF013B01F70801090000000098
:10520600D90A2B0973017201D90AD90AD90A0000F1
:105216000000D90A2B097301720100000000500A30
:105226002B0973014F0AA00AB80A370A4750524D94
:10523600430047504747410025642F25642F2564C6
:105246000073656E736F54656D702E7478740025E7
:10525600732C25732C252E34662C252E34662C258E
:105266002E32660D004C4154493D20252E346600F1
:105276004C4F4E473D20252E34660025643A256462
:0C5286003A25640054454D503D200000C6
:107E0000112484B714BE81FFF0D085E080938100F7
:107E100082E08093C00088E18093C10086E0809377
:107E2000C20080E18093C4008EE0C9D0259A86E02C
:107E300020E33CEF91E0309385002093840096BBD3
:107E4000B09BFECF1D9AA8958150A9F7CC24DD24C4
:107E500088248394B5E0AB2EA1E19A2EF3E0BF2EE7
:107E6000A2D0813461F49FD0082FAFD0023811F036
:107E7000013811F484E001C083E08DD089C08234E0
:107E800011F484E103C0853419F485E0A6D080C0E4
:107E9000853579F488D0E82EFF2485D0082F10E0AE
:107EA000102F00270E291F29000F111F8ED06801E7
:107EB0006FC0863521F484E090D080E0DECF843638
:107EC00009F040C070D06FD0082F6DD080E0C81688
:107ED00080E7D80618F4F601B7BEE895C0E0D1E017
:107EE00062D089930C17E1F7F0E0CF16F0E7DF06D8
:107EF00018F0F601B7BEE89568D007B600FCFDCFD4
:107F0000A601A0E0B1E02C9130E011968C91119780
:107F100090E0982F8827822B932B1296FA010C0160
:107F200087BEE89511244E5F5F4FF1E0A038BF0790
:107F300051F7F601A7BEE89507B600FCFDCF97BE46
:107F4000E89526C08437B1F42ED02DD0F82E2BD052
:107F50003CD0F601EF2C8F010F5F1F4F84911BD097
:107F6000EA94F801C1F70894C11CD11CFA94CF0C13
:107F7000D11C0EC0853739F428D08EE10CD085E9AC
:107F80000AD08FE07ACF813511F488E018D01DD067
:107F900080E101D065CF982F8091C00085FFFCCF94
:107FA0009093C60008958091C00087FFFCCF809118
:107FB000C00084FD01C0A8958091C6000895E0E648
:107FC000F0E098E1908380830895EDDF803219F02E
:107FD00088E0F5DFFFCF84E1DECF1F93182FE3DFCA
:107FE0001150E9F7F2DF1F91089580E0E8DFEE27F6
:047FF000FF270994CA
:027FFE00040479
:0400000300007E007B
:00000001FF
