:020000040000FA
:040000005BEF12F0B0
:102100001200000ED1EC10F0010ED1EC10F0120014
:10211000C2800E0EC16EA50EC06E010E926E120030
:10212000C7A095EF10F097EF10F090EF10F0C950A6
:1021300012009EAA9EEF10F0A0EF10F099EF10F0A1
:102140009E9AAE50120093809392949E929A400E63
:10215000C76E200EC66E84849E961200016E01C06A
:10216000C9FFC7A0B6EF10F0B8EF10F0B1EF10F054
:102170001200016E01C0ADFFACA2C1EF10F0C3EFC1
:0821800010F0BCEF10F012009A
:1021890030302F30302F30300030303A30303A3064
:102199003000286E756C6C2900036E8C940350D541
:1021A900EC12F08C86060E026E300EE82EFED70277
:1021B9002EFCD700D08C961200FF0E056EFF0E067E
:1021C9006EFF0E076E7F0E086E05C001F006C00295
:1021D900F007C003F008C004F0120001500302F335
:1021E900CF05F0F4CF06F001500402F350062602A1
:1021F900500302F350062605C001F006C002F01292
:102209000059C033F05AC034F0000E356E000E3656
:102219006ECEEC36F033C059F034C05AF035C05B9D
:10222900F036C05CF0120001C003F002C004F020D7
:10223900EF11F0014A022A01C0D9FF02C0DAFFDF1B
:1022490050D8A42AEF11F02CEF11F01EEF11F00372
:1022590050015C016E04500258026E12003FEF11EA
:10226900F002C0F6FF03C0F7FF0800F550B9EC1003
:10227900F0024A032A02C0F6FF03C0F7FF0800F57F
:10228900500009D8A44BEF11F04DEF11F035EF11C3
:10229900F012000150021003100410D8B457EF11C6
:1022A900F059EF11F061EF11F0000E011A000E0262
:1022B9001A000E031A800E041A01C001F002C002AE
:1022C900F003C003F004C004F01200D00E036EFF47
:1022D9000E046E01C005F002C006F0035005260485
:1022E90050062206500AE10A0E055CD8A07FEF11BC
:1022F900F082EF11F0010E83EF11F0000E016E0272
:102309006A12009F0E036EFF0E046E01C005F002F3
:10231900C006F0035005260450062206500AE11AA9
:102329000E055CD8A09BEF11F09EEF11F0010E9FF6
:10233900EF11F0000E016E026A1200BF0E036EFF6C
:102349000E046E01C005F002C006F0035005260414
:1023590050062206500AE11A0E055CD8A0B7EF1103
:10236900F0BAEF11F0010EBBEF11F0000E016E0291
:102379006A1200076EFF0EAEEC10F00750AEEC10BB
:10238900F00550AEEC10F00450AEEC10F00350AE76
:10239900EC10F00250AEEC10F00650AEEC10F0FF6D
:1023A9000EAEEC10F090EC10F01200046E04500F19
:1023B9000B026E0450F00B036E8C8403380F0BD59F
:1023C900EC12F08C860D0EE82EFED700F08C9602EA
:1023D90050D5EC12F08C860D0EE82EFED700F08C4D
:1023E90096120014BE03EF12F0145006E11304D83C
:1023F900B001EF12F003EF12F011EF12F013C01554
:10240900F014C016F0151E161E154A162A15C0130B
:10241900F016C014F015EF12F013C013F014C01425
:10242900F01200000E106E000E0F6E27EF12F00E64
:10243900C001F0026A0CC003F00DC004F044EC18AE
:10244900F00F4A102A0F500A24D96E10500B20DAC7
:102459006EDF500E6E0E50D8A435EF12F037EF1222
:10246900F01CEF12F01200000E471A000E481A0075
:102479000E491A800E4A1A43C033F044C034F0455D
:10248900C035F046C036F047C037F048C038F0498B
:10249900C039F04AC03AF087EC2BF033C043F0342E
:1024A900C044F035C045F036C046F01200890EF63A
:1024B9006E210EF76E000EF86E01EEDAF010EE19CD
:1024C900F00900F5CFEEFFE550E150FAE102EE0028
:1024D900F0500EEE6AE806FDE101EEF3F0090EEEAA
:1024E9006AE806FDE100EEF2F00C0EEE6AE806FD80
:1024F900E15F6A000EF86E00012FEF29F0010E0767
:102509006E200E01180210D8B48DEF12F08FEF1261
:10251900F0A8EF12F0F70E036EFF0E046E01C0056E
:10252900F002C006F00350052604500622065009A1
:10253900E1050E055CD8A0A4EF12F0A6EF12F0A8F1
:10254900EF12F0000E076E07C001F0026A1200BC1C
:102559000E0001CE6F000ECF6FB8C0D0F0B9C0D158
:10256900F0000ED36F000ED26F000ED56F000ED49F
:102579006FD00EB26F000EB36FBAC0B4F0BBC0B566
:10258900F0CE0EB66F000EB76FBEEC13F00001D29D
:1025990051B825D96ED351B921DA6E000EDF6E120A
:1025A90000016E01A0DBEF12F0DDEF12F0E0EF1297
:1025B900F08C88E1EF12F08C9801A2E6EF12F0E8B6
:1025C900EF12F0EBEF12F08C8AECEF12F08C9A011B
:1025D900A4F1EF12F0F3EF12F0F6EF12F08C8CF792
:1025E900EF12F08C9C01A6FCEF12F0FEEF12F00145
:1025F900EF13F08C8E02EF13F08C9E12000001F4A1
:1026090051F511D8A40BEF13F00DEF13F013EF13DD
:10261900F0F4C01FF0F5C020F019EF13F0FF0EF42D
:10262900251F6EFF0EF521206E1EC000F2000E025E
:1026390001016F1CC011F01DC012F0000E136E02D3
:102649000E146E1FC015F020C016F0E1EC17F01142
:10265900C01CF012C01DF0120003C007F004C0082E
:10266900F001C009F002C00AF00750056E085006D3
:102679006E074A082A05C0F6FF06C0F7FFF86A097F
:10268900C0D9FF0AC0DAFF094A0A2A070EF764030C
:10269900D00800F55005D0F6CFE1FFF7CFE2FFE70C
:1026A90050DF6EDF50D8A45CEF13F05EEF13F03902
:1026B900EF13F012009F0E096EFF0E0A6E07C00B92
:1026C900F008C00CF009500B260A500C220C500AD5
:1026D900E11A0E0B5CD8A074EF13F077EF13F00139
:1026E9000E78EF13F0000E0D6E0E6A0D500E10D815
:1026F900B481EF13F083EF13F089EF13F05F0E0746
:1027090014076E086A8DEF13F007C007F008C008B8
:10271900F01200BF0E096EFF0E0A6E07C00BF0081B
:10272900C00CF009500B260A500C220C500AE11A71
:102739000E0B5CD8A0A3EF13F0A6EF13F0010EA7C0
:10274900EF13F0000E0D6E0E6A0D500E10D8B4B0D6
:10275900EF13F0B2EF13F0B9EF13F0200E071007E3
:102769006E0850086EBDEF13F007C007F008C008E7
:10277900F01200B4C05DF0B5C05EF0000E0001F3C8
:102789006F000EF26FDCEF13F0B2C057F0B3C05810
:10279900F05D0E596E000E5A6EB6C05BF0B7C05CA4
:1027A900F0E7EC2DF057500001F2275850F3235D64
:1027B900C0F6FF5EC0F7FF0800F5500009D8A4E88D
:1027C900EF13F0EAEF13F0C9EF13F0F2C0B2F0F330
:1027D900C0B3F01200056E0504D8A4F6EF13F0F8A3
:1027E900EF13F009EF14F004507F0F086E08380F4B
:1027F9000B066E08500F0B076E0650D1EC10F00750
:1028090050D1EC10F021EF14F0020E0518D8A410E5
:10281900EF14F012EF14F021EF14F00450BF0F0879
:102829006E08380F0B066E08500F0B076E0650D155
:10283900EC10F00750D1EC10F01200000E096E00F8
:102849000E0A6E000E0B6E000E0C6E01A02FEF1417
:10285900F031EF14F039EF14F00550092606500A4B
:102869002207500B2208500C22D89005360636074D
:10287900360836D89004320332023201320150024E
:102889001003100410D8A44CEF14F04EEF14F02AE2
:10289900EF14F009C001F00AC002F00BC003F00CFC
:1028A900C004F01200949C948E100E056E000E0662
:1028B9006E000E076E000E086E000E016E090E0204
:1028C9006E3D0E036E000E046E02EC1BF001C01784
:1028D900F002C018F003C019F004C01AF017C001C3
:1028E900F018C002F019C003F01AC004F00FC005B7
:1028F900F010C006F011C007F012C008F002EC1B7E
:10290900F00104AF6EAC84AC98AB8EAC9CAC8AABD6
:102919009CAB881200010E076ED00E036EFF0E04E9
:102929006E01C005F002C006F003500526045006EA
:1029390022065009E10A0E055CD8A0A6EF14F0A8FA
:10294900EF14F0C3EF14F09F0E036EFF0E046E2018
:102959000E0110056E000E0210066E0350052604C6
:10296900500622065009E1060E055CD8A0BFEF14F7
:10297900F0C1EF14F0C3EF14F0000E076E07C001A9
:10298900F0026A1200000ED5EC12F01A0E046EF86D
:102999000EE82EFED7042EFCD700D0030ED1EC1082
:1029A900F0070E046E7D0EE82EFED7042EFCD7002C
:1029B900F0030ED1EC10F00F0E046E480EE82EFE57
:1029C900D7042EFCD7030ED1EC10F0020ED1EC1077
:1029D900F0020ED1EC10F0080ED1EC10F0000ED17F
:1029E900EC10F00C0ED1EC10F0000ED1EC10F0064A
:1029F9000ED1EC10F01200000E0A6E000E096E20C6
:102A0900EF15F009500524076E0A500620086E07D5
:102A1900C0F6FF08C0F7FFF86A070EF76403D0088D
:102A290000F55005D0F6CFE1FFF7CFE2FFE750DA26
:102A3900EC11F0094A0A2A09500524076E0A5006C2
:102A490020086E07C0F6FF08C0F7FFF86A070EF7FF
:102A59006403D00800F55005D0F6CFE1FFF7CFE2C7
:102A6900FFE7500009D8A43CEF15F03EEF15F0063A
:102A7900EF15F0120078EF15F0DA0EB86F000EB905
:102A89006F810EBA6F7F0EBB6FD6C0BCF0D7C0BDC9
:102A9900F0ACEC12F081EC10F0010E046E010EEFB7
:102AA900EC13F0600E056E7F0E066E00EC15F0015A
:102AB9000E046E020EEFEC13F0DA0E056E000E0630
:102AC9006E00EC15F0060E0001D96F130ED86FAD2C
:102AD9000EE82EFED7D82FFCD7D92FFAD700D00071
:102AE90001D607D8A0D7070001D651D711D8A4809D
:102AF900EF15F082EF15F041EF15F0120084840014
:102B09000E5F6E5F50800A760FD8A08EEF15F09099
:102B1900EF15F092EF15F098EF15F0FF0EAEEC10EF
:102B2900F05F2A86EF15F08494000E026E000E0302
:102B39006E000E046E000E056E950E066E400EBEFA
:102B4900EC11F0E806D8A4ACEF15F0AEEF15F0994A
:102B5900EF15F090EC10F05F6E000E026E000E03A0
:102B69006E000E046E000E056EFF0E066E410EBE5F
:102B7900EC11F00009D8A4C4EF15F0C6EF15F0B1B7
:102B8900EF15F090EC10F05F6E010E1200C30EC24B
:102B990016C282C282C2B2D4EF15F0D6EF15F0CFB9
:102BA900EF15F0C350C4CF1CF01D6A1CC01DF01CEA
:102BB9006A1C26000E1D221CC001F01DC002F00077
:102BC9000E02BEFF0E036E046E010E88EC20F01A91
:102BD900C0D9FF1BC0DAFF01C0DEFF02C0DEFF0360
:102BE900C0DEFF04C0DEFF1AC0D9FF1BC0DAFFDE5A
:102BF900CF01F0DECF02F0DECF03F0DECF04F0101C
:102C09000E056E400E066EFA0E076E3E0E086E1A1F
:102C1900EC27F01AC0D9FF1BC0DAFF01C0DEFF02A2
:102C2900C0DEFF03C0DEFF04C0DEFF1200000E019C
:102C390014096E000E02140A6E800E03140B6E7FC7
:102C49000E04140C6E09500A100B100C10D8A43085
:102C5900EF16F032EF16F03AEF16F0000E016E00A3
:102C69000E026E000E036E000E046E000E051409AE
:102C79006E000E06140A6E800E07140B6E7F0E0886
:102C8900140C6E09500A100B100C10D8A44FEF1633
:102C9900F051EF16F059EF16F0000E056E000E0612
:102CA9006E000E076E000E086E055001180FE10642
:102CB9005002180CE10750031809E108500418D80C
:102CC900B469EF16F06BEF16F06EEF16F0D8906F4F
:102CD900EF16F0D8801200000E0E6E0ABE79EF16BC
:102CE900F077EF16F07FEF16F0096C0A1ED8B00ADC
:102CF9002A010E0E6E0CBE86EF16F084EF16F08ACE
:102D0900EF16F00B6C0C1ED8B00C2A0B500C10D817
:102D1900B491EF16F093EF16F0B7EF16F0010E0D20
:102D29006E9BEF16F0D8900B360C360D2A0CAEA020
:102D3900EF16F0A2EF16F097EF16F00B50095C0CA6
:102D4900500A58D8A0ABEF16F0ADEF16F0B1EF1658
:102D5900F00B50095E0C500A5AD8900C320B320D08
:102D69002EA2EF16F00E50D8B4BDEF16F0BFEF1635
:102D7900F0C3EF16F0096C0A1ED8B00A2A09C00977
:102D8900F00AC00AF012008494FCC102F0FDC103EC
:102D9900F0FEC104F0FFC105F0FF0E066E510EBE34
:102DA900EC11F00009D8A4DCEF16F0DEEF16F0C93B
:102DB900EF16F090EC10F05F6E070E0A6E90EC10B3
:102DC900F0FE0AD8A4EBEF16F0EDEF16F0E3EF16DC
:102DD900F0000E5F6E5F50800A620FD8A0F7EF1601
:102DE900F0F9EF16F0FBEF16F008EF17F0FF0EAE53
:102DF900EC10F090EC10F0086E08500001FC6FFD2B
:102E09006B5F2AEFEF16F00AC008F0096A08BE09DD
:102E190006150E0826000E09221C0E08180910D8DE
:102E2900A419EF17F01BEF17F01EEF17F0000E1F94
:102E3900EF17F08484120083EC15F0E806D8A42873
:102E4900EF17F02AEF17F032EF17F0F30E026E7E4C
:102E59000E036E33EC11F059EF17F0260E026E7F58
:102E69000E036E33EC11F059EF17F00FC0D9FF10B4
:102E7900C0DAFF0F4A102ADF5088EC1BF00009D88E
:102E8900A449EF17F04BEF17F053EF17F0F10E02CB
:102E99006E7F0E036E33EC11F059EF17F0F80E0246
:102EA9006E7F0E036E33EC11F00FC0D9FF10C0DA3C
:102EB900FFDF50D8A463EF17F065EF17F03AEF176B
:102EC900F0C8EC16F00009D8A46DEF17F06FEF17F2
:102ED900F077EF17F03A0E026E7F0E036E33EC11A6
:102EE900F07DEF17F04E0E026E7F0E036E33EC117C
:102EF900F084841200000E066E04BE88EF17F08677
:102F0900EF17F08EEF17F0036C041ED8B0042A01F6
:102F19000E066E02BE95EF17F093EF17F09BEF17B1
:102F2900F0016C021ED8B0022A010E061A000E0822
:102F39006E000E076E03500410D8B4A6EF17F0A860
:102F4900EF17F0D0EF17F0010E056EB0EF17F0D8BC
:102F59009003360436052A04AEB5EF17F0B7EF171C
:102F6900F0ACEF17F0D890073608360350015C042F
:102F7900500258D8A0C3EF17F0C5EF17F0CAEF17E2
:102F8900F00350015E0450025A0780D890043203BE
:102F990032052EB7EF17F00650D8B4D6EF17F0D890
:102FA900EF17F0DCEF17F0076C081ED8B0082A07F6
:102FB900C001F008C002F012000001F8A1E7EF1704
:102FC900F0E9EF17F0F3EF17F013C00AF014C00B94
:102FD900F011C00CF012C00DF016EC12F016BEF88C
:102FE900EF17F0FAEF17F000EF18F015C01AF01606
:102FF900C01BF004EF18F0000E1B6E000E1A6E00D5
:103009000E196E000E186E16EF18F0000E026E20E3
:103019000E016E11C003F012C004F044EC18F01850
:103029004A192A1A50185C1950800A176E1B5080C9
:103039000A1758D8A023EF18F025EF18F00AEF184F
:10304900F00001F8B12BEF18F02DEF18F037EF1859
:10305900F013C00AF014C00BF011C00CF012C00D2F
:10306900F016EC12F013C001F014C002F018EC11C4
:10307900F01A500124116E1B500220126E12000327
:10308900500410D8B44BEF18F04DEF18F056EF1864
:10309900F003500410D8A454EF18F056EF18F05B61
:1030A900EF18F0015080EC10F0A8EF18F020EE04B2
:1030B900F00350D9260450DA22DE50DE10D8B46865
:1030C900EF18F06AEF18F085EF18F020EE04F0031E
:1030D90050D9260450DA2210EE02F00350E12604FA
:1030E90050E222DE50E65CE650800A096EDE50802E
:1030F9000A0958D8B083EF18F085EF18F0A8EF182F
:10310900F020EE02F00350D9260450DA22DECF0572
:10311900F0DDCF06F003C0D9FF04C0DAFFDECF0728
:10312900F0DDCF08F005500724D96E06500820DAE3
:103139006E01C0DFFF20EE02F00350D9260450DAF9
:1031490022DE2A000EDD22120001C0D9FF02C0DAF8
:10315900FF470EDE18D8B4B4EF18F0B6EF18F01226
:10316900EF19F0000E0B6E000E0A6E000E0F6E00C6
:103179000E0E6E000E0D6E000E0C6EDBEF18F00ECB
:1031890050076E0F50086E0E4A0F2A07500124D9B6
:103199006E08500220DA6E2C0EDE18D8A4D7EF186C
:1031A900F0D9EF18F0DBEF18F00A4A0B2A03500A9E
:1031B9001807E104500B18D8A4E5EF18F0E7EF1849
:1031C900F0C4EF18F0FBEF18F00E500124D96E0F80
:1031D900500220DA6E0C500524E16E0D500620E2F3
:1031E9006EDFCFE7FF0E4A0F2A0C4A0D2A0E500157
:1031F90024D96E0F500220DA6E2C0EDE18D8A408DE
:10320900EF19F00AEF19F0E9EF18F00C500524D97D
:103219006E0D500620DA6E000EDF6E120001C00836
:10322900F002C009F003C00AF004C00BF00506D88B
:10323900A00606052806E10628D8A426EF19F028D5
:10324900EF19F035EF19F0000E026E000E016E7DD8
:10325900EF19F0084A092A0A4A0B2A0506D8A006D6
:103269000608C0D9FF09C0DAFFDF50D8B43FEF190B
:10327900F041EF19F06CEF19F00AC0F6FF0BC0F737
:10328900FF0800F5500009D8B44DEF19F04FEF19B8
:10329900F06CEF19F005500610D8B456EF19F05834
:1032A900EF19F06CEF19F008C0D9FF09C0DAFFDF98
:1032B90050076E0AC0F6FF0BC0F7FF0800F550076C
:1032C90018D8B46AEF19F06CEF19F02EEF19F0085D
:1032D900C0D9FF09C0DAFFDF50076E0AC0F6FF0B3D
:1032E900C0F7FF0800F550075C016E026AD8A0021A
:1032F900061200F7C10BF0F8C10CF0F9C10DF0FA94
:10330900C10EF001C00BF002C00CF003C00DF004B7
:10331900C00EF00BC005F00CC006F00DC007F00E92
:10332900C008F0180E9EEF19F0D89008320732063F
:10333900320532E82E99EF19F00550096E0A6A092B
:10334900500A10D8A4ABEF19F0ADEF19F0CDEF1971
:10335900F0D8900B34056E0C34066E0D34076E0EE2
:1033690034086E0550061007100810D8A4BFEF19CD
:10337900F0C1EF19F0C7EF19F0000E026E020E014D
:103389006EFCEF19F0000E026E030E016EFCEF19D0
:10339900F009280A10D8A4D4EF19F0D6EF19F0F8DB
:1033A900EF19F00BC005F00CC006F00DC007F00EC8
:1033B900C008F0090ED8900536063607360836E8F3
:1033C9002EDFEF19F00550061007100810D8B4F0D9
:1033D900EF19F0F3EF19F0010EF4EF19F0000E01F7
:1033E9006E026AFCEF19F0000E026E040E016E12F5
:1033F90000000E1A14226E000E1B14236E800E1C80
:1034090014246E7F0E1D14256E22502310241025BE
:1034190010D8A412EF1AF014EF1AF01CEF1AF000EA
:103429000E1A6E000E1B6E000E1C6E000E1D6E0035
:103439000E1E14226E000E1F14236E800E201424FB
:103449006E7F0E2114256E2250231024102510D8CA
:10345900A431EF1AF033EF1AF03BEF1AF0000E1E09
:103469006E000E1F6E000E206E000E216E1DAE4006
:10347900EF1AF042EF1AF04BEF1AF01A6C1B1ED834
:10348900B01B2A1C1ED8B01C2A800E1D5621AE5016
:10349900EF1AF052EF1AF05BEF1AF01E6C1F1ED8EC
:1034A900B01F2A201ED8B0202A800E2156000E1ADD
:1034B9001A000E1B1A000E1C1A800E1D1A000E1E71
:1034C9001A000E1F1A000E201A800E211A1E501AF9
:1034D9005C1F501B5820501C5821501D58D8B078DB
:1034E900EF1AF07AEF1AF07DEF1AF0D8907EEF1A02
:1034F900F0D8801200033404340A6E0A50D8A48824
:10350900EF1AF08AEF1AF094EF1AF0000E016E002C
:103519000E026E000E036E000E046E01EF1BF00129
:10352900C005F002C006F003C007F004C008F0208F
:103539000EA4EF1AF0D8900832073206320532E8A5
:103549002E9FEF1AF00550096E038EFF0E0116FF2C
:103559000E0216FF0E0316000E0416960E0A5E0AD8
:10356900BEBBEF1AF0B9EF1AF0D1EF1AF00A50808A
:103579000A970FD8B0C3EF1AF0C5EF1AF0C7EF1AC0
:10358900F08AEF1AF0D89004320332023201320A7B
:103599003EC7EF1AF0E9EF1AF01F0E0A64D7EF1AC7
:1035A900F0D9EF1AF0E1EF1AF08AEF1AF0D890018A
:1035B900360236033604360A060A50D8A4E7EF1A4B
:1035C900F0E9EF1AF0DBEF1AF00950D8B4EFEF1A6F
:1035D900F0F1EF1AF0F9EF1AF0041E031E021E01B2
:1035E9006C000E02220322042201C001F002C00273
:1035F900F003C003F004C004F01200000E0A6E08C4
:10360900BE0BEF1BF009EF1BF015EF1BF0081E07AF
:103619001E061E056C000E062207220822010E0A4C
:103629006E04BE1CEF1BF01AEF1BF026EF1BF00413
:103639001E031E021E016C000E0222032204220137
:103649000E0A1A000E0B6E000E0C6E000E0D6E00A7
:103659000E0E6E0550061007100810D8B437EF1B70
:10366900F039EF1BF06FEF1BF0010E096E43EF1BF2
:10367900F0D8900536063607360836092A08AE48C6
:10368900EF1BF04AEF1BF03DEF1BF0D8900B360C07
:10369900360D360E360550015C06500258075003A8
:1036A9005808500458D8A05CEF1BF05EEF1BF06778
:1036B900EF1BF00550015E0650025A0750035A08E5
:1036C90050045A0B80D89008320732063205320965
:1036D9002E4AEF1BF00A50D8B475EF1BF077EF1B99
:1036E900F07FEF1BF00E1E0D1E0C1E0B6C000E0C56
:1036F900220D220E220BC001F00CC002F00DC003F6
:10370900F00EC004F012000C6E8494FCC102F0FDAE
:10371900C103F0FEC104F0FFC105F0FF0E066E58AB
:103729000EBEEC11F00009D8A49DEF1BF09FEF1B12
:10373900F08AEF1BF090EC10F05F6E070E0D6EFE35
:103749000EAEEC10F0000E0001FB6F000EFA6F0CCC
:1037590050AEEC10F00001FA4BFB2BFBBFBCEF1B8A
:10376900F0020EFB5DD8A0BCEF1BF0BEEF1BF0AC66
:10377900EF1BF0FF0EAEEC10F0000E5F6E5F508095
:103789000A400FD8A0CBEF1BF0CDEF1BF0CFEF1BFA
:10379900F0EAEF1BF0FF0EAEEC10F090EC10F00821
:1037A9006E08500001FC6FFD6BE50EFC19FD11D888
:1037B900A4E1EF1BF0E3EF1BF0E7EF1BF0150E0E92
:1037C9006EEAEF1BF05F2AC3EF1BF090EC10F0FFDD
:1037D9000AD8A4F2EF1BF0F4EF1BF0EAEF1BF00E8E
:1037E900C008F0096A08BE09060DC00AF00B6A0A8A
:1037F900BE0B0608500A2609500B221C0E0A180B8C
:1038090010D8A40AEF1CF00CEF1CF00FEF1CF0000D
:103819000E10EF1CF00A0E120060C059F061C05A78
:10382900F005EC11F059C064F05AC065F05BC06650
:10383900F05CC067F064C01AF065C01BF066C01C7C
:10384900F067C01DF0000E1E6E000E1F6EC80E2020
:103859006E420E216E4DEC25F01AC06AF01BC06B4A
:10386900F01CC06CF01DC06DF06AC001F06BC002A5
:10387900F06CC003F06DC004F07FEC1AF001C06871
:10388900F002C069F06AC043F06BC044F06CC045F7
:10389900F06DC046F068C001F069C002F0000E0288
:1038A900BEFF0E036E046E010E88EC20F001C047C6
:1038B900F002C048F003C049F004C04AF038EC12E5
:1038C900F043C06AF044C06BF045C06CF046C06D6F
:1038D900F0000E1E6E000E1F6E400E206E400E216F
:1038E9006E000E056E000E066EA00E076E400E08E5
:1038F9006E6AC001F06BC002F06CC003F06DC004C9
:10390900F01AEC27F001C01AF002C01BF003C01C2A
:10391900F004C01DF04DEC25F01AC033F01BC03483
:10392900F01CC035F01DC036F068C001F069C00256
:10393900F0000E02BEFF0E036E046E010E88EC202D
:10394900F001C037F002C038F003C039F004C03AC2
:10395900F087EC2BF033C06AF034C06BF035C06CE3
:10396900F036C06DF06AC060F06BC061F06CC06287
:10397900F06DC063F01200000E126E08BEC9EF1C94
:10398900F0C7EF1CF0DBEF1CF0081E071E061E0532
:103999001E041E031E021E016C000E0222032204D5
:1039A900220522062207220822010E126E10BEE20B
:1039B900EF1CF0E0EF1CF0F2EF1CF0101E0F1E0ED2
:1039C9001E0D1E0C1E0B1E0A1E096C000E0A220B70
:1039D900220C220D220E220F22102209500A100B4E
:1039E900100C100D100E100F101010D8B4FFEF1C92
:1039F900F001EF1DF049EF1DF0010E116E0FEF1DE3
:103A0900F0D89009360A360B360C360D360E360FBD
:103A1900361036112A10AE14EF1DF016EF1DF00501
:103A2900EF1DF00950015C0A5002580B5003580C65
:103A39005004580D5005580E5006580F500758108D
:103A4900500858D8A02BEF1DF02DEF1DF03DEF1DAC
:103A5900F00950015E0A50025A0B50035A0C5004E7
:103A69005A0D50055A0E50065A0F50075A10500851
:103A79005AD89010320F320E320D320C320B320AF4
:103A8900320932112E16EF1DF01250D8B44FEF1D26
:103A9900F051EF1DF061EF1DF0081E071E061E050F
:103AA9001E041E031E021E016C000E0222032204C4
:103AB90022052206220722082201C001F002C002C3
:103AC900F003C003F004C004F005C005F006C00609
:103AD900F007C007F008C008F0120021EEECF01062
:103AE900EE0FF0060EDBCFE3FFE806FCE20CC01A8E
:103AF900F00DC01BF01A501B10D8A486EF1DF088DA
:103B0900EF1DF08CEF1DF00F0E1A6E000E1B6E1AD2
:103B1900C001F01BC002F018EC11F001C01EF00248
:103B2900C01FF0F6C01CF0F7C01DF01DBE9FEF1DB1
:103B3900F0A1EF1DF0B6EF1DF01E501C5C1D50806A
:103B49000A0E6E1F50800A0E58D8A0AEEF1DF0B0B5
:103B5900EF1DF0B2EF1DF0B6EF1DF01CC01EF01DF9
:103B6900C01FF01EC01CF01FC01DF0F4C018F0F5F6
:103B7900C019F00001F8B1C4EF1DF0C6EF1DF0E364
:103B8900EF1DF0D4EF1DF0000E026E200E016E0A3B
:103B9900C003F00BC004F044EC18F01E4A1F2A18A9
:103BA900501E5C1F50800A0E6E1950800A0E58D89C
:103BB900A0E1EF1DF0E3EF1DF0C8EF1DF0000E17B7
:103BC9006E000E166EFCEF1DF01AC0D9FF1BC0DA8D
:103BD900FFDF500E6E0E50016E026A0AC003F00B31
:103BE900C004F044EC18F01A4A1B2A164A172A1C7A
:103BF90050165C1750800A0E6E1D50800A0E58D858
:103C0900A009EF1EF00BEF1EF0E9EF1DF00001F81F
:103C1900A111EF1EF013EF1EF030EF1EF021EF1E81
:103C2900F0000E026E200E016E0AC003F00BC004F4
:103C3900F044EC18F01E4A1F2A18501E5C1F5080D1
:103C49000A0E6E1950800A0E58D8A02EEF1EF030B9
:103C5900EF1EF015EF1EF01EC00AF01FC00BF01288
:103C690000000E126E10BE3EEF1EF03CEF1EF0502B
:103C7900EF1EF0101E0F1E0E1E0D1E0C1E0B1E0A2F
:103C89001E096C000E0A220B220C220D220E220F95
:103C9900221022010E126E08BE57EF1EF055EF1EBC
:103CA900F069EF1EF0081E071E061E051E041E03FE
:103CB9001E021E016C000E022203220422052206A6
:103CC9002207220822010E121A20EE13F0070EDE37
:103CD9006AE806FDE209500A100B100C100D100ECF
:103CE900100F101010D8B47CEF1EF07EEF1EF0D02C
:103CF900EF1EF0010E116E8CEF1EF0D89009360AF6
:103D0900360B360C360D360E360F361036112A1094
:103D1900AE91EF1EF093EF1EF082EF1EF0D89013D4
:103D2900361436153616361736183619361A360930
:103D390050015C0A5002580B5003580C5004580D9E
:103D49005005580E5006580F50075810500858D8AB
:103D5900A0B1EF1EF0B3EF1EF0C4EF1EF009500141
:103D69005E0A50025A0B50035A0C50045A0D500562
:103D79005A0E50065A0F50075A1050085A1380D835
:103D89009010320F320E320D320C320B320A3209D8
:103D990032112E93EF1EF01250D8B4D6EF1EF0D880
:103DA900EF1EF0E8EF1EF01A1E191E181E171E1638
:103DB9001E151E141E136C000E142215221622172E
:103DC90022182219221A2213C001F014C002F01578
:103DD900C003F016C004F017C005F018C006F019AA
:103DE900C007F01AC008F01200000E086E000E0796
:103DF9006E01C0D9FF02C0DAFF000EDF6EAB88A7E3
:103E0900EF1FF099EC10F00B6E240E0B18D8A410CC
:103E1900EF1FF012EF1FF006EF1FF0000E0A6E0001
:103E29000E096E9EEF1FF099EC10F00B6E2C0E0B25
:103E390018D8B422EF1FF024EF1FF030EF1FF0095C
:103E4900500124D96E0A500220DA6E0BC0DFFF0937
:103E59004A0A2A9EEF1FF001C0D9FF02C0DAFF47C4
:103E69000EDE18D8A43BEF1FF03DEF1FF09EEF1FA9
:103E7900F020EE01F00150D9260250DA22500EDE70
:103E890018D8A44AEF1FF04CEF1FF09EEF1FF02047
:103E9900EE02F00150D9260250DA22520EDE18D86D
:103EA900A459EF1FF05BEF1FF09EEF1FF020EE0308
:103EB900F00150D9260250DA224D0EDE18D8A46836
:103EC900EF1FF06AEF1FF09EEF1FF020EE04F001E4
:103ED90050D9260250DA22430EDE18D8A477EF1FF4
:103EE900F079EF1FF09EEF1FF0000E0A6E000E0929
:103EF9006E8CEF1FF099EC10F00B6E09500124D96C
:103F09006E0A500220DA6E0BC0DFFF094A0A2A0A3C
:103F1900BE98EF1FF00A5009E1390E095CD8A09844
:103F2900EF1FF09AEF1FF07FEF1FF0000E086E01F0
:103F39000E076E0D0E0B18D8A4A5EF1FF0A7EF1FE3
:103F4900F018EF1FF007500810D8B4AEEF1FF0B00B
:103F5900EF1FF009EF1FF009500124036E0A500208
:103F690020046EFF0E0324D96EFF0E0420DA6E00C2
:103F79000EDF6EAB981200000E166E000E156E0065
:103F89000E0F6E000E0E6ECCEF1FF0084A092A01C3
:103F99000E146E08C0F6FF09C0F7FF0800F550209F
:103FA9000AD8B4DAEF1FF0DCEF1FF0F9EF1FF0F7D2
:103FB9000E0A6EFF0E0B6E08C0F6FF09C0F7FF0868
:103FC90000F5500C6E0D6A0A500C260B500D220D8F
:103FD9005009E1050E0C5CD8A0F5EF1FF0F7EF1FB3
:103FE900F0F9EF1FF0000E146E14C010F0116A10F2
:103FF900501110D8A403EF20F005EF20F0CAEF1FED
:10400900F00FEF20F0000E0F6E010E0E6E084A0938
:104019002A44EF20F008C0F6FF09C0F7FF0800F5B1
:10402900500A6E0B6A0B50000AD8B41EEF20F044F8
:10403900EF20F00A502B0AD8B40BEF20F0060AD86B
:10404900B407EF20F044EF20F015C001F016C002CC
:10405900F0000E046E0A0E036EF2EC10F008C0F6C2
:10406900FF09C0F7FF0800F550015E000E025A3043
:104079000E0124156E000E0220166E0BEF20F0D0F3
:104089000E0A6EFF0E0B6E08C0F6FF09C0F7FF0897
:1040990000F5500C6E0D6A0A500C260B500D220DBE
:1040A900500AE10A0E0C5CD8A05DEF20F060EF2009
:1040B900F0010E61EF20F0000E126E136A12501318
:1040C90010D8A46AEF20F06CEF20F029EF20F00E51
:1040D900500F10D8A473EF20F075EF20F083EF2074
:1040E900F015C00AF016C00BF00A1E0B1E0A4A0B87
:1040F9002A0AC008F00BC009F087EF20F015C008A4
:10410900F016C009F01200096E0950D8B48FEF20DB
:10411900F091EF20F0B3EF20F004BE98EF20F09675
:10412900EF20F0B3EF20F001C005F002C006F00364
:10413900C007F004C008F0051E061E071E081E056C
:104149002A000E06220722082205C00BF006C00C21
:10415900F007C00DF008C00EF0BBEF20F001C00B56
:10416900F002C00CF003C00DF004C00EF0015002C3
:104179001003100410D8A4C4EF20F0C6EF20F0D02B
:10418900EF20F0000E016E000E026E000E036E00AD
:104199000E046E61EF21F0960E0A6EDAEF20F00A36
:1041A9002AD8900E320D320C320B32000E0B140548
:1041B9006E000E0C14066E000E0D14076EFE0E0E28
:1041C90014086E0550061007100810D8A4EFEF2048
:1041D900F0F1EF20F0D4EF20F0FFEF20F00A2A01F0
:1041E9000E0B26000E0C220D220E22D8900E320D37
:1041F900320C320B32000E0B14056E000E0C140635
:104209006E000E0D14076EFF0E0E14086E05500693
:104219001007100810D8A414EF21F016EF21F0F3BD
:10422900EF20F01EEF21F00A06D8900B360C360D60
:10423900360E360DBE23EF21F025EF21F02DEF21AB
:10424900F0020E0A602BEF21F02DEF21F018EF217B
:10425900F00AB032EF21F034EF21F035EF21F00D03
:104269009ED8900A320AC005F0066A076A086A05EC
:10427900C008F0076A066A056A05500B1206500C59
:104289001207500D1208500E120950D8B44FEF21E1
:10429900F051EF21F059EF21F004BE58EF21F0560B
:1042A900EF21F059EF21F00E8E0BC001F00CC00286
:1042B900F00DC003F00EC004F01200F3C143F0F496
:1042C900C144F0F5C145F0F6C146F033C043F034BE
:1042D900C044F035C045F036C046F0810E376EFF58
:1042E9000E386E43C039F044C03AF045C03BF04641
:1042F900C03CF0180E86EF21F0D8903C323B323AA0
:10430900323932E82E81EF21F039503724416E00DD
:104319000E3820426E42BE9BEF21F0425009E11750
:104329000E415CD8A09BEF21F09DEF21F0A7EF2172
:10433900F033C033F034C034F035C035F036C03610
:10434900F06AEF22F042BEACEF21F0AEEF21F01E91
:10435900EF22F041C037F0FF0E386EFF0E396E7F45
:104369000E3A6E000E3B6E3766BDEF21F0C5EF21A8
:10437900F03B343B323A3239323832372EB8EF21FA
:10438900F038C03DF039C03EF03AC03FF03BC04084
:10439900F03D504314376E3E504414386E3F50453B
:1043A90014396E405046143A6E3750381039103A65
:1043B90010D8A4E2EF21F0E4EF21F0E6EF21F09D1F
:1043C900EF21F043C037F044C038F045C039F0461A
:1043D900C03AF0200EF6EF21F0D8903A323932384F
:1043E900323732E82EF1EF21F03750381039103AD0
:1043F90010D8B402EF22F004EF22F00CEF22F03DC6
:104409005043263E5044223F504522405046223DCB
:104419001C376E3E1C386E3F1C396E401C3A6E3795
:1044290050431638504416395045163A50461662CC
:10443900EF22F043C037F044C038F045C039F046A8
:10444900C03AF0200E2EEF22F0D8903A32393238A5
:10445900323732E82E29EF22F03750381039103A26
:1044690010D8A43AEF22F03CEF22F046EF22F000F8
:104479000E436E000E446E000E456E000E466E62CF
:10448900EF22F0D8904334376E4434386E453439CE
:104499006E46343A6E3750381039103A10D8B4583D
:1044A900EF22F05AEF22F062EF22F0000E436E0085
:1044B9000E446E800E456EBF0E466E43C033F04407
:1044C900C034F045C035F046C036F01200000E0089
:1044D90001E76F000EE66F9CEF23F0E651D625D970
:1044E9006EE751D721DA6EE651D825E16EE751D949
:1044F90021E26EDFCFE7FFC2EF23F0E651D625D9DF
:104509006EE751D721DA6EE651D825E16EE751D928
:1045190021E26EDFCFE7FFD8C0D9FFD9C0DAFFDFCC
:1045290050DA6FD00EDA25E46FE56BFF0EE523E470
:10453900C001F0E5C002F0000E046E0A0E036EF22F
:10454900EC10F001C0E4F002C0E5F0D00E0001DA91
:104559006FFF0EDB6FE651D825D96EE751D921DA05
:104569006EDF50DC6FDD6BDA51DC27DB51DD23DCDC
:1045790051E427DD51E523FB0EE427FF0EE523E592
:10458900BFCBEF22F0C9EF22F0D6EF22F0180EE4EC
:1045990025E46F000EE521E56F010E0101FB6FD9DE
:1045A900EF22F0000E0101FB6F000E046E0A0E03EC
:1045B9006EE4C001F0E5C002F07FEC17F001C0091C
:1045C900F002C00AF0000E0C6E0A0E0B6E70EC16AB
:1045D900F009C0E2F00AC0E3F0DE0E0001B86F0096
:1045E9000EB96FFB0EBA6F7F0EBB6FE2C0BCF0E372
:1045F900C0BDF0ACEC12F0E4C009F0E5C00AF0006F
:104609000E0C6E0A0E0B6E70EC16F009C0E2F00A81
:10461900C0E3F0E00E0001B86F000EB96FFB0EBAEF
:104629006F7F0EBB6FE2C0BCF0E3C0BDF0ACEC1213
:10463900F0D8C0D9FFD9C0DAFFDEC0DFFF00012002
:10464900EE01F0D851D926D951DA22E0C0DFFFC2F4
:10465900EF23F0E651D825D96EE751D921DA6E3A20
:104669000EDF6EE651D625D96EE751D721DA6EE60F
:1046790051D825DA6FE751D921DB6F010EDA25E12F
:104689006E000EDB21E26EDFCFE7FFC2EF23F0E61B
:1046990051D625DA6FE751D721DB6FFF0EDA25D91D
:1046A9006EFF0EDB21DA6EE651D825E16EE751D9AE
:1046B90021E26EDFCFE7FFC2EF23F0E651D825D91B
:1046C9006EE751D921DA6E3A0EDF6EE651D625DA58
:1046D9006FE751D721DB6FFF0EDA25D96EFF0EDBAD
:1046E90021DA6EE651D825DC6FE751D921DD6F015A
:1046F9000EDC25E16E000EDD21E26EDFCFE7FFC2A1
:10470900EF23F0E651D625DA6FE751D721DB6FFEAB
:104719000EDA25D96EFF0EDB21DA6EE651D825E1D6
:104729006EE751D921E26EDFCFE7FFC2EF23F0E652
:10473900C0DAF0E7C0DBF0DB51000AD8B4A7EF23F9
:10474900F0C2EF23F0DA51000AD8B472EF22F00177
:104759000AD8B482EF22F0030AD8B42EEF23F00668
:104769000AD8B44CEF23F0010AD8B462EF23F0025F
:104779000AD8B486EF23F0C2EF23F0E64BE72BE724
:10478900BFD0EF23F0E75109E1080EE65DD8A0D0CC
:10479900EF23F0D2EF23F09CEF23F020EE08F0D8BE
:1047A90051D926D951DA22000EDF6E12001EC03609
:1047B900F01FC037F020C038F021C039F022C03ACC
:1047C900F023C03BF024C03CF025C03DF03DBEF0D5
:1047D900EF23F0F3EF23F0010EF4EF23F0000E3492
:1047E9006E356A34503510D8B4FDEF23F0FFEF234E
:1047F900F00FEF24F03D1E3C1E3B1E3A1E391E38B9
:104809001E371E366C000E3722382239223A223BD7
:10481900223C223D220001F7BF15EF24F017EF24B7
:10482900F018EF24F0F893F7BF25EF24F0F75106BD
:10483900E1F605D8B023EF24F025EF24F02BEF247F
:10484900F0000E316E010E306E2FEF24F0F6C030FD
:10485900F0F7C031F0F4C032F0F5C033F034503520
:1048690010D8A43AEF24F03CEF24F043EF24F0F8F9
:10487900A541EF24F043EF24F046EF24F03206D8A7
:10488900A03306000E3F6E4F0E3E6E000E02014F22
:104899006FCBEF24F03E06D8A03F06000E3E24D988
:1048A9006E020E3F20DA6E36C001F037C002F038D2
:1048B900C003F039C004F03AC005F03BC006F03C33
:1048C900C007F03DC008F00A0E096E000E0A6E001E
:1048D9000E0B6E000E0C6E000E0D6E000E0E6E00AD
:1048E9000E0F6E000E106EC0EC1CF001C026F00217
:1048F900C027F003C028F004C029F005C02AF0063B
:10490900C02BF007C02CF008C02DF026C013F028EA
:10491900C014F0F6EC11F01350300FDF6E3006D8EA
:10492900A031063206D8A0330636C001F037C002DE
:10493900F038C003F039C004F03AC005F03BC006B6
:10494900F03CC007F03DC008F00A0E096E000E0ADF
:104959006E000E0B6E000E0C6E000E0D6E000E0E2C
:104969006E000E0F6E000E106E35EC1EF001C03693
:10497900F002C037F003C038F004C039F005C03A7E
:10498900F006C03BF007C03CF008C03DF03FBED682
:10499900EF24F03F5008E13E04D8A0D6EF24F0D828
:1049A900EF24F009EF25F036503710381039103A56
:1049B900103B103C103D10D8A4E5EF24F0E7EF249C
:1049C900F04FEF24F031BEF4EF24F0315006E1301E
:1049D90004D8B0F2EF24F0F4EF24F04FEF24F033D1
:1049E900BEFFEF24F0335008E13204D8A0FFEF24D2
:1049F900F001EF25F009EF25F00001F8B307EF25E5
:104A0900F009EF25F04FEF24F034503510D8A410F9
:104A1900EF25F012EF25F01AEF25F00001F8A5189F
:104A2900EF25F01AEF25F038EF25F03E06D8A03F24
:104A39000634503510D8A424EF25F026EF25F02CA4
:104A4900EF25F0000E2F6E2B0E2E6E30EF25F000A5
:104A59000E2F6E2D0E2E6E000E3E24D96E020E3FC5
:104A690020DA6E2EC0DFFF1CC011F01DC012F0004D
:104A79000E3E24136E020E3F20146E32C015F03321
:104A8900C016F0E1EC17F011C01CF012C01DF012B5
:104A9900001D50800B2A6E1D501D24316E1CAE580E
:104AA900EF25F05AEF25F05BEF25F031803150D832
:104AB900B461EF25F063EF25F078EF25F03128D8C0
:104AC900A469EF25F06BEF25F073EF25F0000E1ABE
:104AD9006E000E1B6E000E1C6E000E1D6E1C8E00ED
:104AE9000E1D6E80EF25F0000E1A6E000E1B6E0073
:104AF9000E1C6E000E1D6E2150800B2A1A215021AA
:104B090024326E20AE8BEF25F08DEF25F08EEF2548
:104B1900F032803250D8B494EF25F096EF25F0ABFF
:104B2900EF25F03228D8A49CEF25F09EEF25F0A6BA
:104B3900EF25F0000E1E6E000E1F6E000E206E0097
:104B49000E216E208E000E216EB3EF25F0000E1E91
:104B59006E000E1F6E000E206E000E216E1E501F7D
:104B69001020102110D8A4BCEF25F0BEEF25F0D6F7
:104B7900EF25F0000E1A6E000E1B6E000E1C6E0063
:104B89000E1D6E800E1C127F0E1D122A501D121A48
:104B9900C01AF01BC01BF01CC01CF01DC01DF01971
:104BA900EF27F03150D8A4DCEF25F0DEEF25F0E84F
:104BB900EF25F0000E1A6E000E1B6E000E1C6E0023
:104BC9000E1D6E19EF27F0325031C022F0236A22F0
:104BD9005E000E235A7F0E22242B6E000E23202CFA
:104BE9006E1AC026F01BC027F01CC028F01DC02972
:104BF900F0000E1A6E000E1B6E000E1C6E000E1DCC
:104C09006E000E2D6E000E2E6E000E2F6E000E30F1
:104C19006E000E326E49EF26F03250D8B417EF26E7
:104C2900F019EF26F030EF26F0D8902636273628EF
:104C3900362936D8901A361B361C361D3630AE2822
:104C4900EF26F02AEF26F02BEF26F01A80D8902DC8
:104C5900362E362F3630361E50265C1F50275820E8
:104C690050285821502958D8A03DEF26F03FEF266B
:104C7900F048EF26F0308C1E50265E1F50275A2030
:104C890050285A2150295A322A190E32644FEF26D8
:104C9900F051EF26F011EF26F026502710281029A1
:104CA90010D8B45AEF26F05CEF26F074EF26F02DF9
:104CB9008074EF26F0D8901A361B361C361D363014
:104CC900AE69EF26F06BEF26F06CEF26F01A80D86C
:104CD900902D362E362F3630362B06D8A02C061CB2
:104CE900AE79EF26F07BEF26F05FEF26F0000E326B
:104CF9006E30AE82EF26F084EF26F0A8EF26F0FFA3
:104D09000E2D14226EFF0E2E14236EFF0E2F142467
:104D19006E7F0E3014256E2250231024102510D8D2
:104D2900B499EF26F09BEF26F09FEF26F0010E32A3
:104D39006EA8EF26F01AA0A4EF26F0A6EF26F0A899
:104D4900EF26F09BEF26F03250D8B4AEEF26F0B044
:104D5900EF26F0D4EF26F0010E1A26000E1B221CB6
:104D6900221D221DA0BBEF26F0BDEF26F0D4EF26B1
:104D7900F01AC022F01BC023F01CC024F01DC0256E
:104D8900F02534253224322332223222C01AF0236C
:104D9900C01BF024C01CF025C01DF02B4A2C2A2C66
:104DA900BEDFEF26F02C5008E12B28D8A0DFEF2634
:104DB900F0E1EF26F0ECEF26F0000E2C6E2B6800E8
:104DC9000E1A6E000E1B6E000E1C6E000E1D6E2C50
:104DD900BEF9EF26F02C5006E12B04D8B0F7EF26E8
:104DE900F0F9EF26F007EF27F0000E2C6E000E2BDE
:104DF9006E000E1A6E000E1B6E000E1C6E000E1D4C
:104E09006E000E2A6E2BC031F031A00EEF27F01084
:104E1900EF27F013EF27F01C8E14EF27F01C9ED814
:104E29009031301D6ECAEF25F012000450800B0D31
:104E39006E04500424136E03AE25EF27F027EF27E5
:104E4900F028EF27F013801350D8B42EEF27F03055
:104E5900EF27F043EF27F01328D8A436EF27F038CF
:104E6900EF27F040EF27F0000E016E000E026E00F2
:104E79000E036E000E046E038E4BEF27F0000E0139
:104E89006E000E026E000E036E000E046E08508056
:104E99000B0D1A08500824126E07AE56EF27F0586A
:104EA900EF27F059EF27F012801250D8B45FEF279F
:104EB900F061EF27F074EF27F01228D8A467EF27E5
:104EC900F069EF27F071EF27F0000E056E000E066E
:104ED9006E000E076E000E086E078E7CEF27F0003D
:104EE9000E056E000E066E000E076E000E086E129D
:104EF90050D8B482EF27F084EF27F08CEF27F01316
:104F090050D8A48AEF27F08CEF27F096EF27F0000E
:104F19000E016E000E026E000E036E000E046E2E60
:104F2900EF29F007500102F3CF18F0F4CF19F01868
:104F3900500E6E0F6A106A116A1950146E156A16AE
:104F49006A176A06500202F3CF18F0F4CF19F01865
:104F5900500E26000E0F221022112219501426007D
:104F69000E15221622172205500302F3CF18F0F46A
:104F7900CF19F018500E26000E0F221022112219F7
:104F8900501426000E15221622172210C011F00FF8
:104F9900C010F00EC00FF00E6A05500202F3CF18D0
:104FA900F0F4CF19F018500E2619500F22000E10E8
:104FB90022000E112206500102F3CF18F0F4CF1986
:104FC900F018500E2619500F22000E1022000E1153
:104FD9002210C011F00FC010F00EC00FF00E6A05BC
:104FE900500102F3CF18F0F4CF19F018500E26191A
:104FF900500F22000E1022000E112207500202F358
:10500900CF18F0F4CF19F0185014261950152200B2
:105019000E1622000E172206500302F3CF18F0F4E1
:10502900CF19F01850142619501522000E16220017
:105039000E172207500302F3CF18F0F4CF19F01816
:1050490050096E19500A6E0B6A0C6A0BC00CF00AF3
:10505900C00BF009C00AF0096A095014260A501554
:10506900220B5016220C5017220EC009F00FC00A4D
:10507900F010C00BF011C00CF0190E49EF28F0D850
:10508900900C320B320A320932E82E44EF28F0092B
:105099005014260A5015220B5016220C50172210B4
:1050A900C011F00FC010F00EC00FF00E6A125013AD
:1050B900C009F00A6A0926000E0A22820E0924187C
:1050C9006EFF0E0A20196E7FEF28F0D8901436155E
:1050D900361636173611AE74EF28F076EF28F077CA
:1050E900EF28F01480D8900E360F36103611361886
:1050F90006D8A0190616AE84EF28F086EF28F06AC4
:10510900EF28F0000E126E11AE8DEF28F08FEF2808
:10511900F0B3EF28F0FF0E0E14096EFF0E0F140AFC
:105129006EFF0E10140B6E7F0E11140C6E09500ACF
:10513900100B100C10D8B4A4EF28F0A6EF28F0AA91
:10514900EF28F0010E126EB3EF28F014A0AFEF288C
:10515900F0B1EF28F0B3EF28F0A6EF28F01250D8FD
:10516900B4B9EF28F0BBEF28F0DFEF28F0010E14F7
:1051790026000E15221622172217A0C6EF28F0C8FE
:10518900EF28F0DFEF28F014C009F015C00AF01677
:10519900C00BF017C00CF00C340C320B320A320978
:1051A9003209C014F00AC015F00BC016F00CC01774
:1051B900F0184A192A19BEEAEF28F0195008E1181F
:1051C90028D8A0EAEF28F0ECEF28F0F6EF28F00055
:1051D9000E146E000E156E800E166E7F0E176E245D
:1051E900EF29F019BE03EF29F0195006E11804D888
:1051F900B001EF29F003EF29F00FEF29F0000E14A9
:105209006E000E156E000E166E000E176E000E0D56
:105219006E24EF29F018C013F0FF0E1416FF0E15B7
:10522900167F0E1616000E171613A01EEF29F02072
:10523900EF29F021EF29F0168ED8901330176E0D53
:1052490050171214C001F015C002F016C003F01770
:10525900C004F01200000E0101D56F000ED46F21B9
:10526900EEE3F011EE9BF0080EDBCFE3FFE806FC5E
:10527900E221EEDAF011EEBEF0080EDBCFE3FFE833
:1052890006FCE2000ED36F000EFC6F120EFD6F00DC
:105299000EFE6F000EFF6F000E956E938488EC1062
:1052A900F0A3EC10F0C7EC14F0800E0F6E250E1071
:1052B9006E000E116E000E126E57EC14F0320E01D4
:1052C9006E010E026EF9EC1EF0000E0001D76F0F91
:1052D9000ED66F3FEC15F0D60E1A6E010E1B6ECB73
:1052E900EC15F0320E016E010E026EF9EC1EF03271
:1052F9000E0001D66F010ED76F9B0ED86F010ED924
:105309006F6BEC22F0320E016E010E026E000E047C
:105319006E020E036EB10E056E010E066EA9EC1833
:10532900F0320E016E010E026E000E046E040E03C1
:105339006EA40E056E010E066EA9EC18F0320E0170
:105349006E010E026E000E046E080E036EBE0E058F
:105359006E010E066EA9EC18F00101FB51D8B4B824
:10536900EF29F0BAEF29F0EBEF29F0D00EBE2501B5
:105379006E026AFF0E0222000E046E0A0E036EF21E
:10538900EC10F001C0D4F102C0D5F1D00E0001EE4D
:105399006FFF0EEF6F0101BF510001F06FF16BEE6E
:1053A90051F027EF51F123F0510101D4270001F108
:1053B900510101D523D405D511D8B4E6EF29F0E878
:1053C900EF29F0EBEF29F0D407D8A0D507B10E00EB
:1053D90001606F010E616F11EC1CF060C0C7F161D3
:1053E900C0C8F162C0C9F163C0CAF1A40E0001606E
:1053F9006F010E616F11EC1CF060C0CFF161C0D07C
:10540900F162C0D1F163C0D2F181A40EEF2AF0108C
:10541900EF2AF019EF2AF081B415EF2AF017EF2AD5
:10542900F010EF2AF00101D31F0101D351D8B420A4
:10543900EF2AF022EF2AF07CEF2AF081EC10F0013C
:105449000E046E010EEFEC13F0870E0001B86F0128
:105459000EB96FB30EBA6F7F0EBB6FC7C1BCF0C870
:10546900C1BDF0C9C1BEF0CAC1BFF0ACEC12F08732
:105479000E056E010E066E00EC15F0010E046E02AB
:105489000EEFEC13F0CFC101F0D0C102F0D1C1038E
:10549900F0D2C104F0000E056E000E066E800E07F4
:1054A9006EBF0E086E1AEC27F001C0CBF102C0CC1A
:1054B900F103C0CDF104C0CEF1870E0001B86F0130
:1054C9000EB96FA80EBA6F7F0EBB6FCBC1BCF0CC03
:1054D900C1BDF0CDC1BEF0CEC1BFF0ACEC12F087BA
:1054E9000E056E010E066E00EC15F038EF2BF081FB
:1054F900EC10F0010E046E010EEFEC13F0870E00B4
:1055090001B86F010EB96FD00EBA6F7F0EBB6F9BDA
:105519000EBC6F010EBD6FACEC12F0870E056E016B
:105529000E066E00EC15F0010E046E020EEFEC1380
:10553900F0870E0001B86F010EB96F9D0EBA6F7F2B
:105549000EBB6FD6C1BCF0D7C1BDF0D8C1BEF0D972
:10555900C1BFF0ACEC12F0870E056E010E066E00AD
:10556900EC15F0030E0001EF6F8A0EEE6F550EE891
:105579002EFED7EE2FFCD7EF2FFAD700D081EC10F3
:10558900F0010E046E010EEFEC13F00101FB51D88E
:10559900B4D1EF2AF0D3EF2AF0F0EF2AF0730E001E
:1055A90001B86F010EB96F900EBA6F7F0EBB6FD441
:1055B900C1BCF0D5C1BDF0C0C1BEF0BF6BC1C1C097
:1055C900F0C16BC2C1C2F0C36BC3C1C4F0C56BAC3F
:1055D900EC12F00DEF2BF0730E0001B86F010EB94C
:1055E9006F720EBA6F7F0EBB6FBEC1BCF0BD6BBFD1
:1055F900C1BEF0BF6BC0C1C0F0C16BC1C1C2F0C3B5
:105609006BC2C1C4F0C56BC3C1C6F0C76BACEC12A9
:10561900F0D90E056E7F0E066E00EC15F0080E042B
:105629006E010EEFEC13F0730E056E010E066E009F
:10563900EC15F0010E046E020EEFEC13F0870E006C
:1056490001B86F010EB96F9D0EBA6F7F0EBB6FD691
:10565900C1BCF0D7C1BDF0D8C1BEF0D9C1BFF0AC53
:10566900EC12F074EF2AF0CFC101F0D0C102F0D1F1
:10567900C103F0D2C104F0000E056E000E066E8063
:105689000E076EBF0E086E1AEC27F001C0CBF102AF
:10569900C0CCF103C0CDF104C0CEF1000E0001B8B9
:1056A9006F010EB96F100EBA6F7F0EBB6F730EBC10
:1056B9006F010EBD6F9B0EBE6F010EBF6FC7C1C0DC
:1056C900F0C8C1C1F0C9C1C2F0CAC1C3F0CBC1C4DD
:1056D900F0CCC1C5F0CDC1C6F0CEC1C7F0D6C1C8A6
:1056E900F0D7C1C9F0D8C1CAF0D9C1CBF0ACEC121E
:1056F900F0000E0F6E010E106E20EC17F070EF29FE
:10570900F000EF00F03650800B3F6E3650362441E2
:105719006E35AE92EF2BF094EF2BF095EF2BF04115
:10572900804150D8B49BEF2BF09DEF2BF0B2EF2BBB
:10573900F04128D8A4A3EF2BF0A5EF2BF0ADEF2B68
:10574900F0000E336E000E346E000E356E000E360C
:105759006E358E000E366EBAEF2BF0000E336E00EA
:105769000E346E000E356E000E366E3A50800B40C8
:105779006E3F504018D8B4C4EF2BF0C6EF2BF0C7DA
:10578900EF2BF03F8C3A503A24406E39AECFEF2BD5
:10579900F0D1EF2BF0D2EF2BF040804050D8B4D8A5
:1057A900EF2BF0DAEF2BF0EFEF2BF04028D8A4E045
:1057B900EF2BF0E2EF2BF0EAEF2BF0000E376E0043
:1057C9000E386E000E396E000E3A6E398E000E3AA2
:1057D9006EF7EF2BF0000E376E000E386E000E39A3
:1057E9006E000E3A6E4150405CD8B0FEEF2BF000CF
:1057F900EF2CF027EF2CF03FAC05EF2CF007EF2C46
:10580900F009EF2CF0800E3F1A41C042F040C04130
:10581900F042C040F033C042F037C033F042C037E5
:10582900F034C042F038C034F042C038F035C042DC
:10583900F039C035F042C039F036C042F03AC036CE
:10584900F042C03AF0000E426E415040C03BF03C7D
:105859006A3B5E000E3C5A3CBE3CEF2CF03C5009C2
:10586900E11A0E3B5CD8A03CEF2CF03EEF2CF07512
:10587900EF2CF03350341035103610D8A447EF2CE4
:10588900F04AEF2CF0010E4BEF2CF0000E426E00A7
:105899000E336E000E346E000E356E000E366E40FD
:1058A900C041F07EEF2CF042A05DEF2CF05FEF2CB1
:1058B900F065EF2CF0D89042300109426E67EF2C69
:1058C900F0D890423233A06CEF2CF06EEF2CF06FD1
:1058D900EF2CF0428E36343632353234323332419F
:1058E9002A4050415CD8A07CEF2CF07EEF2CF05878
:1058F900EF2CF03FBC83EF2CF085EF2CF0C5EF2C9B
:10590900F04150D8A48BEF2CF08DEF2CF097EF2CB1
:10591900F0000E336E000E346E000E356E000E363A
:105929006EE6EF2DF0375033263850342239503592
:10593900223A50362236A0A4EF2CF0A6EF2CF052D2
:10594900EF2DF042A0ABEF2CF0ADEF2CF0B3EF2C24
:10595900F0D89042300109426EB5EF2CF0D8904250
:105969003233A0BAEF2CF0BCEF2CF0BDEF2CF04293
:105979008E36343632353234323332412A52EF2DB3
:10598900F03750335C3850345839503558365080D8
:105999000A3B6E3A50800A3B58D8B0D6EF2CF0D863
:1059A900EF2CF003EF2DF03350375C3B6E34503859
:1059B900583C6E355039583D6E36503A583E6EFF58
:1059C9000E3B24336EFF0E3C20346EFF0E3D203516
:1059D9006EFF0E3E20366E800E3F1A426C4250D842
:1059E900A4F9EF2CF0FBEF2CF00BEF2DF0010E33A7
:1059F90026000E3422352236220BEF2DF037503394
:105A09005E3850345A3950355A3A50365A33503430
:105A19001035103610D8A414EF2DF016EF2DF04BD9
:105A2900EF2DF04250D8A41CEF2DF01EEF2DF04BB6
:105A3900EF2DF0000E336E000E346E000E356E0041
:105A49000E366EE6EF2DF0D89033363436353636CD
:105A59003642AE32EF2DF034EF2DF035EF2DF03325
:105A69008042A03AEF2DF03CEF2DF040EF2DF0D819
:105A790080423642EF2DF0D89042364150D8B44892
:105A8900EF2DF04AEF2DF04BEF2DF0410635AE50DA
:105A9900EF2DF052EF2DF028EF2DF0000E406E4261
:105AA900AE59EF2DF05BEF2DF073EF2DF042C03BB7
:105AB900F07F0E3B16D8B464EF2DF066EF2DF06A37
:105AC900EF2DF0010E406E73EF2DF033A06FEF2D27
:105AD900F071EF2DF073EF2DF066EF2DF04050D8F7
:105AE900B479EF2DF07BEF2DF0A6EF2DF0010E33F9
:105AF90026000E34223522362236A086EF2DF08874
:105B0900EF2DF0A6EF2DF033C03BF034C03CF0355B
:105B1900C03DF036C03EF03E343E323D323C323B71
:105B2900323BC033F03CC034F03DC035F03EC036A6
:105B3900F04128D8B4A3EF2DF0A5EF2DF0A6EF2D55
:105B4900F0412A4128D8B4ACEF2DF0AEEF2DF0B6D4
:105B5900EF2DF04150D8A4B4EF2DF0B6EF2DF0C8D9
:105B6900EF2DF0000E336E000E346E000E356E0010
:105B79000E366E4150D8A4C4EF2DF0C6EF2DF0C8F3
:105B8900EF2DF0000E3F6E41A0CDEF2DF0CFEF2DA0
:105B9900F0D2EF2DF0358ED3EF2DF0359ED8904110
:105BA90030366E3FAEDBEF2DF0DDEF2DF0DEEF2D61
:105BB900F0368E33C033F034C034F035C035F036AA
:105BC900C036F0120059C0D9FF5AC0DAFFDECFF64D
:105BD900FFDDCFF7FF0800F550250AD8A4F7EF2D10
:105BE900F0F9EF2DF0DAEF30F059C0D9FF5AC0DAE9
:105BF900FFDE2A000EDD22000E0001F56F000EF413
:105C09006FF4C0F8F0F5C0F9F0F669F76959C0D931
:105C1900FF5AC0DAFFDECFF6FFDDCFF7FF0800F548
:105C2900502E0AD8A41BEF2EF01DEF2EF09BEF2E5D
:105C3900F0000EF76F000EF66F59C0D9FF5AC0DA9F
:105C4900FFDE2A000EDD2259C0D9FF5AC0DAFFDE75
:105C5900CFF6FFDDCFF7FF0800F5502A0AD8A438A0
:105C6900EF2EF03AEF2EF057EF2EF059C0D9FF5A28
:105C7900C0DAFFDE2A000EDD225BC0D9FF5CC0DA84
:105C8900FFDFCF98F0020EDE26DFCF99F0000EDDA0
:105C99002298C0D9FF99C0DAFFDECFF6F0DDCFF741
:105CA900F09BEF2EF059C0D9FF5AC0DAFFDECF08BA
:105CB900F0DDCF09F0C0EC1FF008C0F6F009C0F71D
:105CC900F06EEF2EF059C0D9FF5AC0DAFFDE2A0074
:105CD9000EDD22D00E0001986FFF0E996F59C0D9C1
:105CE900FF5AC0DAFFDECFF6FFDDCFF7FF0800F578
:105CF900509A6F9B6B98519A2799519B239B510AF4
:105D0900E10A0E9A5DD8A08CEF2EF08FEF2EF001EC
:105D19000E90EF2EF0000EA66FA76BA651A711D813
:105D2900A499EF2EF09BEF2EF067EF2EF059C0D912
:105D3900FF5AC0DAFFDECFF6FFDDCFF7FF0800F527
:105D490050076E086A8EEC13F007500001AE6FAE73
:105D590051D8B4B2EF2EF0B4EF2EF0EEEF2EF05989
:105D6900C0D9FF5AC0DAFFDECF98F0DDCF99F00134
:105D79000E9827000E992398C0F6FF99C0F7FF08DF
:105D890000F550076E086A8EEC13F007500001AF5A
:105D99006FAF51D8B4D3EF2EF0D5EF2EF0EEEF2E32
:105DA900F059C0D9FF5AC0DAFFDECF98F0DDCF999C
:105DB900F0020E9827000E992398C0F6FF99C0F7B4
:105DC900FF0800F550076E086A8EEC13F0075000C3
:105DD90001B06F59C0D9FF5AC0DAFFDECFF6FFDD37
:105DE900CFF7FF0800F550630AD8A4FEEF2EF000A4
:105DF900EF2FF027EF2FF059C0D9FF5AC0DAFFDE95
:105E09002A000EDD225BC0D9FF5CC0DAFFDFCF9824
:105E1900F0020EDE26DFCF99F0000EDD2298C0D900
:105E2900FF99C0DAFFDF50B16F57C01CF058C01D91
:105E3900F0B1C01EF003EC13F01CC057F01DC058A0
:105E4900F0F5EF30F059C0D9FF5AC0DAFFDECFF6CE
:105E5900FFDDCFF7FF0800F550640AD8B437EF2FFC
:105E6900F039EF2FF04BEF2FF059C0D9FF5AC0DAB4
:105E7900FFDECFF6FFDDCFF7FF0800F550690AD83E
:105E8900A449EF2FF04BEF2FF08BEF2FF059C0D92A
:105E9900FF5AC0DAFFDE2A000EDD225BC0D9FF5CA3
:105EA900C0DAFFDFCF98F0020EDE26DFCF99F000CF
:105EB9000EDD2298C0D9FF99C0DAFFDECF9CF0DD54
:105EC900CF9DF0000E9DBFFF0E9E6F9F6FA06FA12B
:105ED9006FA26FA36F57C01CF058C01DF09CC01E65
:105EE900F09DC01FF09EC020F09FC021F0A0C022ED
:105EF900F0A1C023F0A2C024F0A3C025F0DBEC235D
:105F0900F01CC057F01DC058F0F5EF30F0660EAE2A
:105F190019D8A492EF2FF094EF2FF0D4EF2FF05966
:105F2900C0D9FF5AC0DAFFDECFF6FFDDCFF7FF0891
:105F390000F5CFB1F059C0D9FF5AC0DAFFDE2A0007
:105F49000EDD225BC0D9FF5CC0DAFFDFCF98F00419
:105F59000EDE26DFCF99F0000EDD2298C0D9FF9919
:105F6900C0DAFFDECFAAF0DECFABF0DECFACF0DED9
:105F7900CFADF057C04BF058C04CF0AAC04DF0ABB4
:105F8900C04EF0ACC04FF0ADC050F0B1C051F0F60A
:105F9900EC30F04BC057F04CC058F0F5EF30F0AE94
:105FA9000E016E000E026EF50E036E7F0E046E007A
:105FB9000E066E020E056E13EC19F001500210D890
:105FC900A4E9EF2FF0EBEF2FF067EF30F059C0D9CC
:105FD900FF5AC0DAFFDECF98F0DDCF99F0010E004D
:105FE900019827000E992398C0F6FF99C0F7FF087A
:105FF90000F5CFB1F0BF0E986FFF0E996F59C0D958
:10600900FF5AC0DAFFDECFF6FFDDCFF7FF0800F554
:10601900509A6F9B6B98519A2799519B239B510AD0
:10602900E11A0E9A5DD8A01CEF30F01FEF30F00195
:106039000E20EF30F0000EA86FA96BA851A911D856
:10604900B429EF30F02BEF30F045EF30F05BC0D9D9
:10605900FF5CC0DAFFDFCF98F0040EDE26DFCF99B0
:10606900F0000EDD2298C0D9FF99C0DAFFDECFAA71
:10607900F0DECFABF0DECFACF0DECFADF05DEF30D0
:10608900F05BC0D9FF5CC0DAFFDFCF98F0040EDE09
:1060990026DFCF99F0000EDD2298C0D9FF99C0DA2A
:1060A900FFDECFAAF0DECFABF0DECFACF0DECFADB6
:1060B900F0020E59C0D9FF5AC0DAFFDE26000EDD04
:1060C90022BEEF2FF059C0D9FF5AC0DAFFDECFF652
:1060D900FFDDCFF7FF0800F550730AD8A477EF303A
:1060E900F079EF30F0A4EF30F059C0D9FF5AC0DA97
:1060F900FFDE2A000EDD225BC0D9FF5CC0DAFFDFBC
:10610900CF98F0020EDE26DFCF99F0000EDD22983F
:10611900C0D9FF99C0DAFFDECFA4F0DDCFA5F057D3
:10612900C00AF058C00BF0A4C00CF0A5C00DF07265
:10613900EC1DF00AC057F00BC058F0F5EF30F059DC
:10614900C0D9FF5AC0DAFFDECFF6FFDDCFF7FF086F
:1061590000F550250AD8A4B4EF30F0B6EF30F0CDF1
:10616900EF30F059C0D9FF5AC0DAFFDE2A000EDD40
:1061790022000E026E250E016E57C003F058C004AE
:10618900F044EC18F0000E586E010E576EF5EF3022
:10619900F059C0D9FF5AC0DAFFDE2A000EDD22000D
:1061A9000E586E000E576EF5EF30F059C0D9FF5AF0
:1061B900C0DAFFDECFF6FFDDCFF7FF0800F55001AB
:1061C9006E026A57C003F058C004F044EC18F05945
:1061D900C0D9FF5AC0DAFFDE2A000EDD22C7EF3030
:1061E900F01200000E00017B6F000E7A6F4DC08C1B
:1061F900F04EC08DF04FC08EF050C08FF08FBF0AA7
:10620900EF31F008EF31F020EF31F0000E7B6F0134
:106219000E7A6F8CC001F08DC002F08EC003F08F32
:10622900C004F04EEC11F001C08CF002C08DF003F7
:10623900C08EF004C08FF0000E0001936F000E9223
:106249006FF4C07FF0F5C080F07A517B11D8A4308B
:10625900EF31F032EF31F039EF31F0F8A537EF31A6
:10626900F039EF31F053EF31F07A517B11D8A44076
:10627900EF31F042EF31F048EF31F0000E656F2B4E
:106289000E646F4CEF31F0000E656F2D0E646F6474
:10629900C000F2924B932B7F07D8A080078CC001D6
:1062A900F08DC002F08EC003F08FC004F07EEC19AF
:1062B900F001040210D8A464EF31F066EF31F0BDAB
:1062C900EF31F0BF0E526EFF0E536E5150546E55A2
:1062D9006A525054265350552255500AE11A0E5409
:1062E9005CD8A07AEF31F07DEF31F0010E7EEF310D
:1062F900F0000E0001666F676B66516711D8B488AC
:10630900EF31F08AEF31F098EF31F0000E9225016C
:106319006E020E9321026EE10E036E7F0E046E3142
:10632900EC13F0A4EF31F0000E9225016E020E93EA
:1063390021026EE90E036E7F0E046E31EC13F0003C
:1063490001FD0E7F27FF0E80234BC011F04CC012B8
:10635900F0000E136E020E146E7FC015F080C01689
:10636900F0E1EC17F011C04BF012C04CF0CDEF3654
:10637900F08CC001F08DC002F08EC003F08FC00414
:10638900F07EEC19F001500210D8A4CEEF31F0D014
:10639900EF31F010EF32F0BF0E526EFF0E536E5117
:1063A90050546E556A525054265350552255500A2E
:1063B900E11A0E545CD8A0E4EF31F0E7EF31F001B7
:1063C9000EE8EF31F0000E0001686F696B685169E2
:1063D90011D8B4F2EF31F0F4EF31F002EF32F000FE
:1063E9000E9225016E020E9321026EE50E036E7F59
:1063F9000E046E31EC13F0A4EF31F0000E9225017A
:106409006E020E9321026EED0E036E7F0E046E3145
:10641900EC13F0A4EF31F0000E0001946F000E951B
:106429006F800E966F3F0E976F000E916F000E9062
:106439006F8CC001F08DC002F08EC003F08FC004D4
:10644900F0000E056E000E066E000E076E000E08B7
:106459006E1BEC16F0D8B034EF32F036EF32F0B9EB
:10646900EF32F055EF32F094C001F095C002F0968A
:10647900C003F097C004F0000E056E000E066E20F2
:106489000E076E410E086E1AEC27F001C094F00257
:10649900C095F003C096F004C097F00001904B91AD
:1064A9002B8CC01AF08DC01BF08EC01CF08FC01D44
:1064B900F0000E056E000E066E200E076E410E08E6
:1064C9006E94C001F095C002F096C003F097C00425
:1064D900F01AEC27F001C01EF002C01FF003C02023
:1064E900F004C021F0FDEC19F0D8B07EEF32F08055
:1064F900EF32F038EF32F0A0EF32F094C01AF09595
:10650900C01BF096C01CF097C01DF0000E1E6E0057
:106519000E1F6E200E206E410E216E4DEC25F01AD5
:10652900C094F01BC095F01CC096F01DC097F000F8
:10653900019007D8A091078CC01AF08DC01BF08E6E
:10654900C01CF08FC01DF094C01EF095C01FF096BE
:10655900C020F097C021F0FDEC19F0D8A0B7EF32B8
:10656900F0B9EF32F082EF32F051C007F0086A8ECD
:10657900EC13F007500001816F81C07EF0670E8136
:1065890019D8A4CAEF32F0CCEF32F0F2EF32F0F6BC
:1065990051F711D8A4D3EF32F0D5EF32F0D9EF3259
:1065A900F0000EF76F010EF66FF7BFE6EF32F0F766
:1065B9005106E1F605D8B0E4EF32F0E6EF32F0EC3F
:1065C900EF32F0000E7D6F060E7C6FFBEF32F0F6B6
:1065D900C07CF0F7C07DF0FBEF32F0F7BFF7EF3288
:1065E900F0F9EF32F0E6EF32F0ECEF32F0670E81BE
:1065F90019D8A402EF33F004EF33F033EF33F091FD
:10660900AF12EF33F0FC0E905DFF0E9159D8A01038
:10661900EF33F012EF33F031EF33F0FF0E526EFF2C
:106629000E536E7CC054F07DC055F0525054265321
:106639005055229051545C5550800A566E915180A4
:106649000A5658D8A02BEF33F02DEF33F031EF3342
:10665900F0660E7E6F33EF33F0650E7E6F7CC0748B
:10666900F07DC075F0670E8119D8A43EEF33F04074
:10667900EF33F050EF33F0660E7E19D8A447EF33AD
:10668900F049EF33F052EF33F091BF50EF33F04E52
:10669900EF33F052EF33F0744B752B660E7E19D839
:1066A900A459EF33F05BEF33F07BEF33F091BF6226
:1066B900EF33F060EF33F06EEF33F0000E946F00BC
:1066C9000E956F800E966F3F0E976F000E916F00BB
:1066D9000E906F670E8119D8B475EF33F077EF33E9
:1066E900F07BEF33F09051742791517523000E8B95
:1066F9006F000E8A6F8CC082F08DC083F08EC084CB
:10670900F08FC085F094C060F095C061F096C062CA
:10671900F097C063F00CEF34F082C01AF083C01B0D
:10672900F084C01CF085C01DF094C01EF095C01FF8
:10673900F096C020F097C021F04DEC25F01AC03337
:10674900F01BC034F01CC035F01DC036F062EC21DE
:10675900F033C086F034C087F035C088F036C08980
:10676900F086C001F087C002F088C003F089C00438
:10677900F07FEC1AF001C078F002C079F082C043D2
:10678900F083C044F084C045F085C046F094C0054C
:10679900F095C006F096C007F097C008F086C001D2
:1067A900F087C002F088C003F089C004F01AEC2712
:1067B900F001C047F002C048F003C049F004C04AE4
:1067C900F038EC12F043C082F044C083F045C08435
:1067D900F046C085F094C01AF095C01BF096C01C15
:1067E900F097C01DF0000E1E6E000E1F6E200E20C9
:1067F9006E410E216E4DEC25F01AC094F01BC09528
:10680900F01CC096F01DC097F000018A4B8B2B74C9
:10681900518A5D8B51800A526E7551800A5258D83F
:10682900A019EF34F01BEF34F091EF33F094C0016D
:10683900F095C002F096C003F097C004F0000E0571
:106849006E000E066EA00E076E400E086E1AEC273B
:10685900F001C086F002C087F003C088F004C08947
:10686900F082C01AF083C01BF084C01CF085C01DE3
:10687900F086C01EF087C01FF088C020F089C021B3
:10688900F0FDEC19F0D8B04CEF34F04EEF34F0597C
:10689900EF34F0000E0001866F000E876F000E883E
:1068A9006F000E896F82EF34F082C001F083C0025D
:1068B900F084C003F085C004F086C005F087C006E7
:1068C900F088C007F089C008F01BEC16F0D8A0705A
:1068D900EF34F072EF34F082EF34F0000178B178E0
:1068E900EF34F07AEF34F082EF34F0000E866F0067
:1068F9000E876F000E886F000E896F8CC033F08D84
:10690900C034F08EC035F08FC036F086C037F087BE
:10691900C038F088C039F089C03AF087EC2BF033E1
:10692900C082F034C083F035C084F036C085F06091
:10693900C094F061C095F062C096F063C097F065AD
:106949000E00017E19D8B4ACEF34F0AEEF34F0B4D8
:10695900EF34F090C076F091C077F0B8EF34F000E2
:106969000E776F000E766F000E736F000E726F0058
:106979000E716F000E706F000E8B6F000E8A6FB371
:10698900EF35F082C01AF083C01BF084C01CF0857B
:10699900C01DF094C01EF095C01FF096C020F0975E
:1069A900C021F04DEC25F01AC033F01BC034F01CA7
:1069B900C035F01DC036F062EC21F033C086F034EA
:1069C900C087F035C088F036C089F086C001F087ED
:1069D900C002F088C003F089C004F07FEC1AF0010E
:1069E900C078F002C079F00001F8B9FEEF34F00088
:1069F900EF35F01DEF35F078517911D8A407EF354F
:106A0900F009EF35F01DEF35F0670E8119D8A410A4
:106A1900EF35F012EF35F01DEF35F077BF19EF358F
:106A2900F017EF35F01DEF35F0704B712B67EF352F
:106A3900F072517311D8A424EF35F026EF35F050D8
:106A4900EF35F077BF2DEF35F02BEF35F050EF35FF
:106A5900F0000E9225D96E020E9321DA6E2E0EDF0A
:106A69006E924B932B7F07D8A08007000E736F019E
:106A79000E726F50EF35F0000E9225D96E020E930B
:106A890021DA6E300EDF6E924B932B7F07D8A080F0
:106A9900077007D8A0710770517111D8A457EF3545
:106AA900F059EF35F040EF35F0000E9225D96E021E
:106AB9000E9321DA6E7851300FDF6E924B932B7F54
:106AC90007D8A0800782C043F083C044F084C04542
:106AD900F085C046F094C005F095C006F096C00751
:106AE900F097C008F086C001F087C002F088C003A3
:106AF900F089C004F01AEC27F001C047F002C04841
:106B0900F003C049F004C04AF038EC12F043C082E7
:106B1900F044C083F045C084F046C085F094C01AA3
:106B2900F095C01BF096C01CF097C01DF0000E1E1A
:106B39006E000E1F6E200E206E410E216E4DEC254B
:106B4900F01AC094F01BC095F01CC096F01DC097B8
:106B5900F000017607D8A077078A4B8B2B74518AEE
:106B69005D8B51800A526E7551800A5258D8B0C057
:106B7900EF35F0C2EF35F0D0EF35F093BFCEEF35FA
:106B8900F0935109E14B0E925DD8A0CEEF35F0D0CC
:106B9900EF35F0C6EF34F072517311D8A4D7EF3541
:106BA900F0D9EF35F0EAEF35F0F8A9DEEF35F0E08E
:106BB900EF35F0EAEF35F0000E9225D96E020E930B
:106BC90021DA6E2E0EDF6E924B932B000E9225D991
:106BD9006E020E9321DA6E000EDF6E650E7E19D8F5
:106BE900A4F9EF35F0FBEF35F0A9EF31F0000E8B8A
:106BF9006F4F0E8A6F000E8A25D96E020E8B21DA2D
:106C09006E000EDF6E000E7B6F000E7A6F91BF1261
:106C1900EF36F010EF36F01AEF36F0000E7B6F0109
:106C29000E7A6F906D911FD8B0912B000E7D6F0277
:106C39000E7C6F4BEF36F08A07D8A08B07000E8ABF
:106C490025D96E020E8B21DA6E90C009F091C00A27
:106C5900F0000E0C6E0A0E0B6E70EC16F009503037
:106C69000FDF6E90C001F091C002F0000E046E0AB1
:106C79000E036E7FEC17F001C090F002C091F00096
:106C8900017C07D8A07D077F07D8A0800790519184
:106C990011D8A452EF36F054EF36F020EF36F07DDC
:106CA900BF61EF36F07D5106E17C05D8B05FEF3664
:106CB900F061EF36F020EF36F08A07D8A08B077A1B
:106CC900517B11D8A46BEF36F06DEF36F073EF36C8
:106CD900F0000E6B6F2B0E6A6F77EF36F0000E6BBC
:106CE9006F2D0E6A6F000E8A25D96E020E8B21DA7E
:106CF9006E6AC0DFFF7F07D8A080078A07D8A08BFC
:106D090007BF0E526EFF0E536E5150546E556A52A4
:106D19005054265350552255500AE11A0E545CD846
:106D2900A099EF36F09CEF36F0010E9DEF36F0009A
:106D39000E6E6F6F6B6E516F11D8A4A6EF36F0A867
:106D4900EF36F0AEEF36F0000E6D6F650E6C6FB278
:106D5900EF36F0000E6D6F450E6C6F000E8A25D967
:106D69006E020E8B21DA6E6CC0DFFF7F07D8A08020
:106D790007000E9225016E020E9321026E000E8A03
:106D890025036E020E8B21046E31EC13F0A9EF314D
:106D9900F0120035503610D8B4D5EF36F0D7EF36AB
:106DA900F0E3EF36F035C0D9FF36C0DAFF33C0DE85
:106DB900FF34C0DDFFE3EF36F0334A342A010E4DCC
:106DC9006E33C0D9FF34C0DAFF200EDE18D8B4F014
:106DD900EF36F0F3EF36F0010EF4EF36F0000E5215
:106DE9006E536A52505310D8A4FDEF36F0FFEF36B8
:106DF900F021EF37F0F70E376EFF0E386E33C0D93A
:106E0900FF34C0DAFFDF50396E3950526E536A527F
:106E1900C03AF053C03BF037503A2638503B223B3A
:106E29005009E1050E3A5CD8A01DEF37F01FEF3786
:106E3900F021EF37F0000E4D6E4DC03DF03E6A3D3A
:106E4900503E10D8A42BEF37F02DEF37F0E1EF3695
:106E5900F0000E4F6E2D0E52185310D8A437EF378D
:106E6900F039EF37F03FEF37F0010E4F6E334A3408
:106E79002A4BEF37F02B0E52185310D8A447EF378F
:106E8900F049EF37F04BEF37F03BEF37F0000E5892
:106E99006E50EF37F0582A58503324D96E000E340B
:106EA90020DA6EDF50D8B45CEF37F05EEF37F08E42
:106EB900EF37F058503324D96E000E3420DA6EDFE4
:106EC90050376EC70E5824F66EF76A7F0EF7220800
:106ED90000F5503718D8B474EF37F076EF37F04F24
:106EE900EF37F058503324D96E000E3420DA6EDFB4
:106EF90050376EBE0E5824F66EF76A7F0EF72208D9
:106F090000F5503718D8B48CEF37F08EEF37F04FC3
:106F1900EF37F0020E586494EF37F096EF37F0C26E
:106F2900EF37F0000E546E000E556E800E566E7FD0
:106F39000E576E35503610D8B4A5EF37F0A7EF3796
:106F4900F057EF3FF0080E5818D8B4AEEF37F0B04D
:106F5900EF37F0B2EF37F0030E586E58503324373D
:106F69006E000E3420386E35C0D9FF36C0DAFF37CF
:106F7900C0DEFF38C0DDFF57EF3FF0000E586EC787
:106F8900EF37F0582A58503324D96E000E3420DADE
:106F99006EDF50D8B4D3EF37F0D5EF37F005EF38BF
:106FA900F058503324D96E000E3420DA6EDF503792
:106FB9006EED0E5824F66EF76A7F0EF7220800F57B
:106FC900503718D8B4EBEF37F0EDEF37F0C6EF379D
:106FD900F058503324D96E000E3420DA6EDF503762
:106FE9006EE50E5824F66EF76A7F0EF7220800F553
:106FF900503718D8B403EF38F005EF38F0C6EF373B
:10700900F0030E5818D8A40CEF38F00EEF38F07CC6
:10701900EF38F0FA0E016E7F0E026EE1EC10F0010E
:10702900C054F002C055F003C056F004C057F03503
:10703900503610D8B423EF38F025EF38F057EF3F2A
:10704900F058503326000E342233C0D9FF34C0DA49
:10705900FF280EDE18D8A434EF38F036EF38F07276
:10706900EF38F0000E586E3BEF38F0582A5850337D
:1070790024D96E000E3420DA6EDF50D8B447EF38C9
:10708900F049EF38F058EF38F058503324D96E00F2
:107099000E3420DA6E290EDE18D8A456EF38F058CF
:1070A900EF38F03AEF38F058503324D96E000E34E7
:1070B90020DA6E290EDE18D8A465EF38F067EF38AC
:1070C900F072EF38F05850376E386A010E372600E3
:1070D9000E3822375033263850342235C0D9FF367E
:1070E900C0DAFF33C0DEFF34C0DDFF57EF3FF000E9
:1070F9000E536E000E526E000E546E000E556E0049
:107109000E566E000E576E000E516E000E506E0038
:107119000E586E91EF38F0582A58503324D96E0022
:107129000E3420DA6E300EDE18D8B49EEF38F0A097
:10713900EF38F090EF38F05850D8B4A6EF38F0A8EF
:10714900EF38F03FEF3CF058503324D96E000E343D
:1071590020DA6E780EDE18D8B4B5EF38F0B7EF380C
:10716900F0C6EF38F058503324D96E000E3420DAC7
:107179006E580EDE18D8A4C4EF38F0C6EF38F03FC9
:10718900EF3CF05850376E386A010E3726000E383A
:10719900223750332638503422000E586ED6EF3835
:1071A900F0582A58503324D96E000E3420DA6E3044
:1071B9000EDE18D8B4E3EF38F0E5EF38F0D5EF3844
:1071C900F0000E586E58503324D96E000E3420DA70
:1071D9006E700EDE18D8B4F4EF38F0F6EF38F0829E
:1071E900EF3AF058503324D96E000E3420DA6E503D
:1071F9000EDE18D8A403EF39F005EF39F007EF399F
:10720900F082EF3AF058503324D96E000E3420DA68
:107219006E2E0EDE18D8A414EF39F016EF39F01AD5
:10722900EF39F04F88582A82EF3AF058503324D971
:107239006E000E3420DA6EDF50376E3750016E0261
:107249006A8FEC14F001500210D8B42EEF39F030E7
:10725900EF39F0ABEF39F0000E4E6ED00E376EFFFE
:107269000E386E58503324D96E000E3420DA6EDF92
:1072790050396E3A6A3750392638503A223A500A0C
:10728900E10A0E395CD8A04CEF39F04FEF39F00123
:107299000E50EF39F0000E3F6E406A3F504010D853
:1072A900B459EF39F05BEF39F066EF39F0585033E4
:1072B90024D96E000E3420DA6EDF50D00F4E6E7670
:1072C900EF39F058503324D96E000E3420DA6EDFCE
:1072D90050376E3750076E086A5FEC13F00750C9D4
:1072E9000F4E6E53BE84EF39F0535007E1080E522A
:1072F9005CD8B082EF39F084EF39F0A3EF39F0525E
:10730900500708376ED8903736D89037364EC03880
:10731900F0396A3A6A3B6A372A98EF39F0D89038D7
:107329003639363A363B36372E93EF39F0385054E2
:1073390012395055123A5056123B505712524A536D
:107349002A040E5026000E5122B5EF39F0000E33F3
:107359006E000E346E000E356E000E366E78EF3FFD
:10736900F0582AE7EF38F058503324D96E000E341C
:1073790020DA6E700EDE18D8B4C5EF39F0C7EF39D0
:10738900F089EF3AF058503324D96E000E3420DAE0
:107399006E500EDE18D8A4D4EF39F0D6EF39F0D8F4
:1073A900EF39F089EF3AF058503324D96E000E3492
:1073B90020DA6E300EDE18D8A4E5EF39F0E7EF39A0
:1073C900F0F6EF39F052505310D8A4EEEF39F0F03F
:1073D900EF39F0F6EF39F0FC0E5026FF0E512281FD
:1073E900EF3AF058503324D96E000E3420DA6EDFAC
:1073F90050376E3750016E026A8FEC14F00150025B
:1074090010D8B40AEF3AF00CEF3AF081EF3AF000F5
:107419000E4E6ED00E376EFF0E386E58503324D98B
:107429006E000E3420DA6EDF50396E3A6A37503901
:107439002638503A223A500AE10A0E395CD8A02877
:10744900EF3AF02BEF3AF0010E2CEF3AF0000E4133
:107459006E426A41504210D8B435EF3AF037EF3AEC
:10746900F042EF3AF058503324D96E000E3420DA46
:107479006EDF50D00F4E6E52EF3AF058503324D988
:107489006E000E3420DA6EDF50376E3750076E0803
:107499006A5FEC13F00750C90F4E6E53BE60EF3AA6
:1074A900F0535007E1080E525CD8B05EEF3AF06035
:1074B900EF3AF07FEF3AF052500708376ED890371D
:1074C90036D89037364EC038F0396A3A6A3B6A374F
:1074D9002A74EF3AF0D890383639363A363B36378F
:1074E9002E6FEF3AF038505412395055123A50561F
:1074F900123B505712524A532A582A4FB887EF3A2B
:10750900F089EF3AF0B8EF39F058503324D96E00CA
:107519000E3420DA6E700EDE18D8B496EF3AF09871
:10752900EF3AF0B1EF3AF058503324D96E000E34E7
:1075390020DA6E500EDE18D8B4A5EF3AF0A7EF3A6C
:10754900F0B1EF3AF0000E336E000E346E000E35D6
:107559006E000E366E78EF3FF0582A58503324D912
:107569006E000E3420DA6E2B0EDE18D8A4BFEF3A67
:10757900F0C1EF3AF0C4EF3AF0582AD5EF3AF05893
:10758900503324D96E000E3420DA6E2D0EDE18D851
:10759900A4D1EF3AF0D3EF3AF0D5EF3AF04F86584D
:1075A9002A58503326000E3422000E586EDEEF3A68
:1075B900F0582A58503324D96E000E3420DA6E3030
:1075C9000EDE18D8B4EBEF3AF0EDEF3AF0DDEF3A12
:1075D900F0000E536E000E526E1FEF3BF05850D85C
:1075E900B4F9EF3AF0FBEF3AF009EF3BF052C00182
:1075F900F053C002F0000E046E0A0E036EF2EC1096
:10760900F001C052F002C053F0D00E376EFF0E38B1
:107619006E58503324D96E000E3420DA6EDF50399B
:107629006E3A6A3750392638503A22395052263A3A
:10763900505322582AD00E376EFF0E386E585033E9
:1076490024D96E000E3420DA6EDF50396E3A6A376B
:1076590050392638503A223A500AE10A0E395CD894
:10766900A039EF3BF03CEF3BF0010E3DEF3BF00062
:107679000E436E446A43504410D8A446EF3BF04889
:10768900EF3BF0F3EF3AF05850D8A44EEF3BF050EF
:10769900EF3BF05AEF3BF0000E336E000E346E00F4
:1076A9000E356E000E366E78EF3FF04FA65FEF3B5A
:1076B900F061EF3BF065EF3BF0526C531ED8B053CD
:1076C9002A525050265350512235503610D8B47092
:1076D900EF3BF072EF3BF080EF3BF058503324372B
:1076E9006E000E3420386E35C0D9FF36C0DAFF3748
:1076F900C0DEFF38C0DDFF5450551056105710D862
:10770900A489EF3BF08BEF3BF095EF3BF0000E3394
:107719006E000E346E000E356E000E366E78EF3F39
:10772900F0FF0E5414376E000E5514386E000E56C5
:1077390014396E000E57143A6E3A50391038100940
:10774900E1810E375CD8A0ACEF3BF0AEEF3BF0C067
:10775900EF3BF0000E5426010E5522000E56220072
:107769000E5722C0EF3BF0D890543655365636574F
:10777900365006D8A0510657AEC5EF3BF0C7EF3BD0
:10778900F0B8EF3BF051AED3EF3BF0830E505CFF06
:107799000E5158D8B0D3EF3BF0D5EF3BF0E1EF3BBA
:1077A900F0FF0E516E810E506E000E546E000E5594
:1077B9006E000E566E000E576E810E501808E1517C
:1077C90028D8B4EAEF3BF0ECEF3BF0F4EF3BF0D80C
:1077D9009054365536563657365006D8A05106516C
:1077E900BE00EF3CF0515009E1800E505CD8A0007A
:1077F900EF3CF002EF3CF00EEF3CF0000E546E004F
:107809000E556E000E566E000E576E000E516E80AC
:107819000E506E090E376ED8905732563255325483
:1078290032372E10EF3CF0FF0E5416FF0E55167F1F
:107839000E5616000E57167F0E5024376E000E5145
:1078490020386EFF0E3714396E3A6A3B6A3C6A1764
:107859000ED89039363A363B363C36E82E2DEF3C79
:10786900F0395054123A5055123B5056123C505769
:107879001257EF3FF04FB844EF3CF046EF3CF05859
:10788900EF3CF033C0D9FF34C0DAFF2E0EDE18D832
:10789900A451EF3CF053EF3CF058EF3CF04F8833E4
:1078A9004A342A3FEF3CF0D00E376EFF0E386E3364
:1078B900C0D9FF34C0DAFFDF50396E3A6A37503920
:1078C9002638503A223A500AE10A0E395CD8A0709B
:1078D900EF3CF073EF3CF0010E74EF3CF0000E4505
:1078E9006E466A45504610D8A47DEF3CF07FEF3CC8
:1078F900F081EF3CF0CFEF3CF04F82090E52185364
:1079090010D8B48AEF3CF08CEF3CF0C2EF3CF04F5A
:10791900A891EF3CF093EF3CF096EF3CF05006D87D
:10792900A05106524A532A54C001F055C002F056DC
:10793900C003F057C004F00A0E056E000E066E0073
:107949000E076E000E086E22EC14F001C054F0020E
:10795900C055F003C056F004C057F033C0D9FF3406
:10796900C0DAFFDF50376ED00E3726375054260065
:107979000E552256225722CBEF3CF04FB8C7EF3CA9
:10798900F0C9EF3CF0CBEF3CF0504A512A334A346E
:107999002A3FEF3CF0000E536E000E526E33C0D9F1
:1079A900FF34C0DAFF650EDE18D8B4DEEF3CF0E034
:1079B900EF3CF0EDEF3CF033C0D9FF34C0DAFF45BE
:1079C9000EDE18D8A4EBEF3CF0EDEF3CF0DCEF3D18
:1079D900F0334A342A33C0D9FF34C0DAFF2D0EDE22
:1079E90018D8A4FAEF3CF0FCEF3CF001EF3DF04F62
:1079F90086334A342A10EF3DF033C0D9FF34C0DA58
:107A0900FF2B0EDE18D8A40CEF3DF00EEF3DF01061
:107A1900EF3DF0334A342A33C0D9FF34C0DAFF309E
:107A29000EDE18D8B41BEF3DF01DEF3DF00EEF3D13
:107A3900F0D00E376EFF0E386E33C0D9FF34C0DA7E
:107A4900FFDF50396E3A6A3750392638503A223AB0
:107A5900500AE10A0E395CD8A035EF3DF038EF3D08
:107A6900F0010E39EF3DF0000E476E486A47504865
:107A790010D8B442EF3DF044EF3DF0D1EF3DF03383
:107A8900C0D9FF34C0DAFFDF50376ED00E37263742
:107A990050526E536A334A342AD00E376EFF0E386D
:107AA9006E33C0D9FF34C0DAFFDF50396E3A6A3716
:107AB90050392638503A223A500AE10A0E395CD830
:107AC900A069EF3DF06CEF3DF0010E6DEF3DF00068
:107AD9000E496E4A6A49504A10D8B476EF3DF0789B
:107AE900EF3DF0D1EF3DF033C0D9FF34C0DAFFDF0D
:107AF90050376ED00E372652C001F053C002F00045
:107B09000E046E0A0E036EF2EC10F0375001245287
:107B19006E000E0220536E334A342AD00E376EFFA0
:107B29000E386E33C0D9FF34C0DAFFDF50396E3AF0
:107B39006A3750392638503A223A500AE10A0E3942
:107B49005CD8A0AAEF3DF0ADEF3DF0010EAEEF3DE0
:107B5900F0000E4B6E4C6A4B504C10D8B4B7EF3D49
:107B6900F0B9EF3DF0D1EF3DF033C0D9FF34C0DAC1
:107B7900FFDF50376ED00E372652C001F053C002D6
:107B8900F0000E046E0A0E036EF2EC10F03750018D
:107B990024526E000E0220536E4FA6D6EF3DF0D848
:107BA900EF3DF0DCEF3DF0526C531ED8B0532A5232
:107BB9005050265350512235503610D8B4E7EF3D76
:107BC900F0E9EF3DF0F8EF3DF04FA2EEEF3DF0F0B8
