:020000040000FA
:04000000BCEF2FF032
:100800000025732C25732C252E34662C252E34665A
:100810002C252E32660D00436F6E656374616E6425
:100820006F204750532E2E2E00256325632F2563FE
:1008300025632F25632563004573706572653A2033
:100840002564207365670025642F256325632F25A4
:100850006325630054454D503D20252E3266004CE3
:100860004F4E473D20252E3466004C4154493D20D3
:10087000252E346600494E46494E49545900696E4A
:1008800066696E69747900484F52413D20257300B6
:1008900046454348413D2000494E46004E414E00EA
:0F08A000696E66006E616E006C66002564000074
:1008B00035503610D8B45FEF04F061EF04F06DEFFF
:1008C00004F035C0D9FF36C0DAFF33C0DEFF34C0D4
:1008D000DDFF6DEF04F0334A342A010E4D6E33C054
:1008E000D9FF34C0DAFF200EDE18D8B47AEF04F056
:1008F0007DEF04F0010E7EEF04F0000E526E536A9D
:1009000052505310D8A487EF04F089EF04F0ABEFF6
:1009100004F0F70E376EFF0E386E33C0D9FF34C0C7
:10092000DAFFDF50396E3950526E536A52C03AF0D6
:1009300053C03BF037503A2638503B223B5009E138
:10094000050E3A5CD8A0A7EF04F0A9EF04F0ABEFD6
:1009500004F0000E4D6E4DC03DF03E6A3D503E101D
:10096000D8A4B5EF04F0B7EF04F06BEF04F0000E7D
:100970004F6E2D0E52185310D8A4C1EF04F0C3EFE0
:1009800004F0C9EF04F0010E4F6E334A342AD5EF5C
:1009900004F02B0E52185310D8A4D1EF04F0D3EF6B
:1009A00004F0D5EF04F0C5EF04F0000E586EDAEF56
:1009B00004F0582A58503324D96E000E3420DA6ED1
:1009C000DF50D8B4E6EF04F0E8EF04F018EF05F0DC
:1009D00058503324D96E000E3420DA6EDF50376E53
:1009E0007E0E5824F66EF76A080EF7220800F550BE
:1009F0003718D8B4FEEF04F000EF05F0D9EF04F09B
:100A000058503324D96E000E3420DA6EDF50376E22
:100A1000750E5824F66EF76A080EF7220800F55096
:100A20003718D8B416EF05F018EF05F0D9EF04F039
:100A3000020E58641EEF05F020EF05F04CEF05F0B4
:100A4000000E546E000E556E800E566E7F0E576E61
:100A500035503610D8B42FEF05F031EF05F0E1EF47
:100A60000CF0080E5818D8B438EF05F03AEF05F03E
:100A70003CEF05F0030E586E58503324376E000ECD
:100A80003420386E35C0D9FF36C0DAFF37C0DEFFFC
:100A900038C0DDFFE1EF0CF0000E586E51EF05F0AD
:100AA000582A58503324D96E000E3420DA6EDF50A5
:100AB000D8B45DEF05F05FEF05F08FEF05F058500B
:100AC0003324D96E000E3420DA6EDF50376EA40E58
:100AD0005824F66EF76A080EF7220800F55037180A
:100AE000D8B475EF05F077EF05F050EF05F05850EA
:100AF0003324D96E000E3420DA6EDF50376E9C0E30
:100B00005824F66EF76A080EF7220800F5503718D9
:100B1000D8B48DEF05F08FEF05F050EF05F0030E20
:100B20005818D8A496EF05F098EF05F006EF06F0F8
:100B3000160E016E080E026E2DEC31F001C054F05D
:100B400002C055F003C056F004C057F035503610BF
:100B5000D8B4ADEF05F0AFEF05F0E1EF0CF0585071
:100B60003326000E342233C0D9FF34C0DAFF280EFA
:100B7000DE18D8A4BEEF05F0C0EF05F0FCEF05F0DD
:100B8000000E586EC5EF05F0582A58503324D96E20
:100B9000000E3420DA6EDF50D8B4D1EF05F0D3EF79
:100BA00005F0E2EF05F058503324D96E000E3420E2
:100BB000DA6E290EDE18D8A4E0EF05F0E2EF05F0BA
:100BC000C4EF05F058503324D96E000E3420DA6E8D
:100BD000290EDE18D8A4EFEF05F0F1EF05F0FCEFD9
:100BE00005F05850376E386A010E3726000E38224D
:100BF000375033263850342235C0D9FF36C0DAFF9B
:100C000033C0DEFF34C0DDFFE1EF0CF0000E536EA9
:100C1000000E526E000E546E000E556E000E566E93
:100C2000000E576E000E516E000E506E000E586E84
:100C30001BEF06F0582A58503324D96E000E34208A
:100C4000DA6E300EDE18D8B428EF06F02AEF06F080
:100C50001AEF06F05850D8B430EF06F032EF06F035
:100C6000C9EF09F058503324D96E000E3420DA6EE3
:100C7000780EDE18D8B43FEF06F041EF06F050EFE3
:100C800006F058503324D96E000E3420DA6E580E18
:100C9000DE18D8A44EEF06F050EF06F0C9EF09F0C9
:100CA0005850376E386A010E3726000E38223750FA
:100CB000332638503422000E586E60EF06F0582A62
:100CC00058503324D96E000E3420DA6E300EDE1800
:100CD000D8B46DEF06F06FEF06F05FEF06F0000E90
:100CE000586E58503324D96E000E3420DA6E700ED0
:100CF000DE18D8B47EEF06F080EF06F00CEF08F0B7
:100D000058503324D96E000E3420DA6E500EDE189F
:100D1000D8A48DEF06F08FEF06F091EF06F00CEF00
:100D200008F058503324D96E000E3420DA6E2E0E9F
:100D3000DE18D8A49EEF06F0A0EF06F0A4EF06F0B0
:100D40004F88582A0CEF08F058503324D96E000E03
:100D50003420DA6EDF50376E3750016E026A78EC5D
:100D60002DF001500210D8B4B8EF06F0BAEF06F03B
:100D700035EF07F0000E4E6ED00E376EFF0E386E58
:100D800058503324D96E000E3420DA6EDF50396E9D
:100D90003A6A3750392638503A223A500AE10A0E58
:100DA000395CD8A0D6EF06F0D9EF06F0010EDAEFE5
:100DB00006F0000E3F6E406A3F504010D8B4E3EF9B
:100DC00006F0E5EF06F0F0EF06F058503324D96E48
:100DD000000E3420DA6EDF50D00F4E6E00EF07F0B9
:100DE00058503324D96E000E3420DA6EDF50376E3F
:100DF0003750076E086AB1EC2EF00750C90F4E6EDF
:100E000053BE0EEF07F0535007E1080E525CD8B006
:100E10000CEF07F00EEF07F02DEF07F05250070828
:100E2000376ED8903736D89037364EC038F0396A9A
:100E30003A6A3B6A372A22EF07F0D89038363936BB
:100E40003A363B36372E1DEF07F0385054123950E2
:100E500055123A5056123B505712524A532A040E1A
:100E60005026000E51223FEF07F0000E336E000EA9
:100E7000346E000E356E000E366E02EF0DF0582AFD
:100E800071EF06F058503324D96E000E3420DA6E1C
:100E9000700EDE18D8B44FEF07F051EF07F013EFE4
:100EA00008F058503324D96E000E3420DA6E500EFC
:100EB000DE18D8A45EEF07F060EF07F062EF07F0EE
:100EC00013EF08F058503324D96E000E3420DA6E38
:100ED000300EDE18D8A46FEF07F071EF07F080EF47
:100EE00007F052505310D8A478EF07F07AEF07F0CC
:100EF00080EF07F0FC0E5026FF0E51220BEF08F09A
:100F000058503324D96E000E3420DA6EDF50376E1D
:100F10003750016E026A78EC2DF001500210D8B4FF
:100F200094EF07F096EF07F00BEF08F0000E4E6E0F
:100F3000D00E376EFF0E386E58503324D96E000E27
:100F40003420DA6EDF50396E3A6A3750392638501D
:100F50003A223A500AE10A0E395CD8A0B2EF07F003
:100F6000B5EF07F0010EB6EF07F0000E416E426AD2
:100F700041504210D8B4BFEF07F0C1EF07F0CCEFFB
:100F800007F058503324D96E000E3420DA6EDF504B
:100F9000D00F4E6EDCEF07F058503324D96E000EA0
:100FA0003420DA6EDF50376E3750076E086AB1ECC6
:100FB0002EF00750C90F4E6E53BEEAEF07F05350A4
:100FC00007E1080E525CD8B0E8EF07F0EAEF07F04F
:100FD00009EF08F052500708376ED8903736D8908E
:100FE00037364EC038F0396A3A6A3B6A372AFEEF24
:100FF00007F0D890383639363A363B36372EF9EF87
:1010000007F038505412395055123A5056123B508E
:101010005712524A532A582A4FB811EF08F013EFCB
:1010200008F042EF07F058503324D96E000E3420F8
:10103000DA6E700EDE18D8B420EF08F022EF08F058
:101040003BEF08F058503324D96E000E3420DA6E8E
:10105000500EDE18D8B42FEF08F031EF08F03BEF58
:1010600008F0000E336E000E346E000E356E000E6A
:10107000366E02EF0DF0582A58503324D96E000E08
:101080003420DA6E2B0EDE18D8A449EF08F04BEFAF
:1010900008F04EEF08F0582A5FEF08F0585033245C
:1010A000D96E000E3420DA6E2D0EDE18D8A45BEF58
:1010B00008F05DEF08F05FEF08F04F86582A5850AF
:1010C0003326000E3422000E586E68EF08F0582ABE
:1010D00058503324D96E000E3420DA6E300EDE18EC
:1010E000D8B475EF08F077EF08F067EF08F0000E5E
:1010F000536E000E526EA9EF08F05850D8B483EF2B
:1011000008F085EF08F093EF08F052C001F053C0EB
:1011100002F0000E046E0A0E036E1AEC31F001C0EC
:1011200052F002C053F0D00E376EFF0E386E58509A
:101130003324D96E000E3420DA6EDF50396E3A6AED
:101140003750392638503A22395052263A505322D5
:10115000582AD00E376EFF0E386E58503324D96E91
:10116000000E3420DA6EDF50396E3A6A3750392675
:1011700038503A223A500AE10A0E395CD8A0C3EF3F
:1011800008F0C6EF08F0010EC7EF08F0000E436E3E
:10119000446A43504410D8A4D0EF08F0D2EF08F0CE
:1011A0007DEF08F05850D8A4D8EF08F0DAEF08F037
:1011B000E4EF08F0000E336E000E346E000E356E54
:1011C000000E366E02EF0DF04FA6E9EF08F0EBEFE0
:1011D00008F0EFEF08F0526C531ED8B0532A52506B
:1011E00050265350512235503610D8B4FAEF08F03B
:1011F000FCEF08F00AEF09F058503324376E000E68
:101200003420386E35C0D9FF36C0DAFF37C0DEFF74
:1012100038C0DDFF5450551056105710D8A413EFA6
:1012200009F015EF09F01FEF09F0000E336E000E04
:10123000346E000E356E000E366E02EF0DF0FF0EAE
:101240005414376E000E5514386E000E5614396E55
:10125000000E57143A6E3A503910381009E1810ED9
:10126000375CD8A036EF09F038EF09F04AEF09F003
:10127000000E5426010E5522000E5622000E572253
:101280004AEF09F0D8905436553656365736500640
:10129000D8A0510657AE4FEF09F051EF09F042EFD9
:1012A00009F051AE5DEF09F0830E505CFF0E51580E
:1012B000D8B05DEF09F05FEF09F06BEF09F0FF0EBA
:1012C000516E810E506E000E546E000E556E000E63
:1012D000566E000E576E810E501808E15128D8B492
:1012E00074EF09F076EF09F07EEF09F0D8905436EC
:1012F0005536563657365006D8A0510651BE8AEF9D
:1013000009F0515009E1800E505CD8A08AEF09F035
:101310008CEF09F098EF09F0000E546E000E556E38
:10132000000E566E000E576E000E516E800E506EFF
:10133000090E376ED8905732563255325432372E06
:101340009AEF09F0FF0E5416FF0E55167F0E561633
:10135000000E57167F0E5024376E000E5120386E47
:10136000FF0E3714396E3A6A3B6A3C6A170ED89002
:1013700039363A363B363C36E82EB7EF09F039506D
:1013800054123A5055123B5056123C505712E1EF4E
:101390000CF04FB8CEEF09F0D0EF09F0E2EF09F012
:1013A00033C0D9FF34C0DAFF2E0EDE18D8A4DBEF2D
:1013B00009F0DDEF09F0E2EF09F04F88334A342AF3
:1013C000C9EF09F0D00E376EFF0E386E33C0D9FF6B
:1013D00034C0DAFFDF50396E3A6A37503926385058
:1013E0003A223A500AE10A0E395CD8A0FAEF09F025
:1013F000FDEF09F0010EFEEF09F0000E456E466AA2
:1014000045504610D8A407EF0AF009EF0AF00BEF99
:101410000AF059EF0AF04F82090E52185310D8B44F
:1014200014EF0AF016EF0AF04CEF0AF04FA81BEF8A
:101430000AF01DEF0AF020EF0AF05006D8A051067E
:10144000524A532A54C001F055C002F056C003F06E
:1014500057C004F00A0E056E000E066E000E076EF1
:10146000000E086EE8EC2DF001C054F002C055F0FB
:1014700003C056F004C057F033C0D9FF34C0DAFFC0
:10148000DF50376ED00E372637505426000E5522C7
:101490005622572255EF0AF04FB851EF0AF053EF9A
:1014A0000AF055EF0AF0504A512A334A342AC9EF5C
:1014B00009F0000E536E000E526E33C0D9FF34C0D7
:1014C000DAFF650EDE18D8B468EF0AF06AEF0AF0AA
:1014D00077EF0AF033C0D9FF34C0DAFF450EDE18CB
:1014E000D8A475EF0AF077EF0AF066EF0BF0334AF5
:1014F000342A33C0D9FF34C0DAFF2D0EDE18D8A449
:1015000084EF0AF086EF0AF08BEF0AF04F86334A39
:10151000342A9AEF0AF033C0D9FF34C0DAFF2B0E19
:10152000DE18D8A496EF0AF098EF0AF09AEF0AF0C6
:10153000334A342A33C0D9FF34C0DAFF300EDE1804
:10154000D8B4A5EF0AF0A7EF0AF098EF0AF0D00E92
:10155000376EFF0E386E33C0D9FF34C0DAFFDF506C
:10156000396E3A6A3750392638503A223A500AE1F1
:101570000A0E395CD8A0BFEF0AF0C2EF0AF0010EE4
:10158000C3EF0AF0000E476E486A47504810D8B4BF
:10159000CCEF0AF0CEEF0AF05BEF0BF033C0D9FFCF
:1015A00034C0DAFFDF50376ED00E37263750526E18
:1015B000536A334A342AD00E376EFF0E386E33C06A
:1015C000D9FF34C0DAFFDF50396E3A6A3750392616
:1015D00038503A223A500AE10A0E395CD8A0F3EFAB
:1015E0000AF0F6EF0AF0010EF7EF0AF0000E496E6E
:1015F0004A6A49504A10D8B400EF0BF002EF0BF0E2
:101600005BEF0BF033C0D9FF34C0DAFFDF50376E29
:10161000D00E372652C001F053C002F0000E046E07
:101620000A0E036E1AEC31F037500124526E000E90
:101630000220536E334A342AD00E376EFF0E386EB6
:1016400033C0D9FF34C0DAFFDF50396E3A6A375001
:10165000392638503A223A500AE10A0E395CD8A0AD
:1016600034EF0BF037EF0BF0010E38EF0BF0000EFC
:101670004B6E4C6A4B504C10D8B441EF0BF043EF1B
:101680000BF05BEF0BF033C0D9FF34C0DAFFDF5053
:10169000376ED00E372652C001F053C002F0000E54
:1016A000046E0A0E036E1AEC31F037500124526EAC
:1016B000000E0220536E4FA660EF0BF062EF0BF0AE
:1016C00066EF0BF0526C531ED8B0532A525050267E
:1016D0005350512235503610D8B471EF0BF073EFE0
:1016E0000BF082EF0BF04FA278EF0BF07AEF0BF0DC
:1016F00082EF0BF035C0D9FF36C0DAFF33C0DEFF12
:1017000034C0DDFF54C001F055C002F056C003F0F4
:1017100057C004F0000E65EC22F001C054F002C086
:1017200055F003C056F004C057F054C001F055C046
:1017300002F056C003F057C004F0000E056E000E14
:10174000066E000E076E000E086E17EC2CF0D8A087
:10175000ACEF0BF0AEEF0BF0B8EF0BF0000E336E0A
:10176000000E346E000E356E000E366E02EF0DF078
:1017700051BEBFEF0BF0BDEF0BF04DEF0CF0506C16
:10178000511ED8B0512AE3EF0BF054C01AF055C0E7
:101790001BF056C01CF057C01DF0F90E1E6E020E55
:1017A0001F6E150E206E500E216EADEC1CF01AC08F
:1017B00054F01BC055F01CC056F01DC057F0F60E7B
:1017C0005026FF0E512251BEF1EF0BF0515007E1B0
:1017D0000A0E505CD8B0EFEF0BF0F1EF0BF0C5EF55
:1017E0000BF010EF0CF054C01AF055C01BF056C0AF
:1017F0001CF057C01DF0000E1E6E000E1F6E200E56
:10180000206E410E216EADEC1CF01AC054F01BC0CE
:1018100055F01CC056F01DC057F05006D8A0510618
:1018200050505110D8A417EF0CF019EF0CF0F3EF53
:101830000BF054C01AF055C01BF056C01CF057C036
:101840001DF0000E1E6E000E1F6E800E206E000E2C
:10185000216EBFEC28F0D8B030EF0CF032EF0CF076
:10186000E1EF0CF04FA037EF0CF039EF0CF043EF45
:101870000CF0000E336E000E346E800E356E800E4E
:10188000366E02EF0DF0000E336E000E346E800ED9
:10189000356E000E366E02EF0DF051BE58EF0CF0B3
:1018A000515008E15004D8A058EF0CF05AEF0CF05A
:1018B000E1EF0CF07AEF0CF054C001F055C002F0EB
:1018C00056C003F057C004F0F90E056E020E066E06
:1018D000150E076E500E086E98EC1AF001C054F009
:1018E00002C055F003C056F004C057F0F60E502663
:1018F000FF0E5122515007E10A0E505CD8B083EF21
:101900000CF085EF0CF05CEF0CF0A4EF0CF054C081
:1019100001F055C002F056C003F057C004F0000EAD
:10192000056E000E066E200E076E410E086E98ECD6
:101930001AF001C054F002C055F003C056F004C0C4
:1019400057F05006D8A0510650505110D8A4ABEF14
:101950000CF0ADEF0CF087EF0CF0FF0E1A6EFF0EDF
:101960001B6E7F0E1C6E7F0E1D6E54C01EF055C088
:101970001FF056C020F057C021F0BFEC28F0D8B0BF
:10198000C4EF0CF0C6EF0CF0E1EF0CF04FA0CBEF82
:101990000CF0CDEF0CF0D7EF0CF0000E336E000E14
:1019A000346E800E356E800E366E02EF0DF0000E36
:1019B000336E000E346E800E356E000E366E02EF02
:1019C0000DF04FA0E6EF0CF0E8EF0CF0FAEF0CF0A2
:1019D00054C001F055C002F056C003F057C004F0E7
:1019E000B8EC30F001C054F002C055F003C056F01E
:1019F00004C057F054C033F055C034F056C035F031
:101A000057C036F01200000E00017B6F000E7A6F97
:101A10004DC08CF04EC08DF04FC08EF050C08FF096
:101A20008FBF17EF0DF015EF0DF02DEF0DF0000E3D
:101A30007B6F010E7A6F8CC001F08DC002F08EC0FA
:101A400003F08FC004F0B8EC30F001C08CF002C09D
:101A50008DF003C08EF004C08FF0000E0001936F74
:101A6000000E926FF8C07FF0F9C080F07A517B11C0
:101A7000D8A43DEF0DF03FEF0DF046EF0DF0FCA5C3
:101A800044EF0DF046EF0DF060EF0DF07A517B1151
:101A9000D8A44DEF0DF04FEF0DF055EF0DF0000E07
:101AA000656F2B0E646F59EF0DF0000E656F2D0EF4
:101AB000646F64C000F2924B932B7F07D8A080071D
:101AC0008CC001F08DC002F08EC003F08FC004F016
:101AD00041EC29F001040210D8A471EF0DF073EF6E
:101AE0000DF0CAEF0DF0BF0E526EFF0E536E515047
:101AF000546E556A525054265350552255500AE19F
:101B00001A0E545CD8A087EF0DF08AEF0DF0010E8D
:101B10008BEF0DF0000E0001666F676B6651671169
:101B2000D8B495EF0DF097EF0DF0A5EF0DF0000E86
:101B30009225016E020E9321026E980E036E080E1E
:101B4000046EE0EC2EF0B1EF0DF0000E9225016E68
:101B5000020E9321026EA00E036E080E046EE0ECDE
:101B60002EF00001FD0E7F27FF0E80234BC011F0E9
:101B70004CC012F0000E136E020E146E7FC015F0F2
:101B800080C016F0FAEC2AF011C04BF012C04CF0F5
:101B9000DAEF12F08CC001F08DC002F08EC003F0BD
:101BA0008FC004F041EC29F001500210D8A4DBEF03
:101BB0000DF0DDEF0DF01DEF0EF0BF0E526EFF0EBB
:101BC000536E5150546E556A5250542653505522FC
:101BD00055500AE11A0E545CD8A0F1EF0DF0F4EF65
:101BE0000DF0010EF5EF0DF0000E0001686F696B4E
:101BF00068516911D8B4FFEF0DF001EF0EF00FEF4F
:101C00000EF0000E9225016E020E9321026E9C0EC4
:101C1000036E080E046EE0EC2EF0B1EF0DF0000E36
:101C20009225016E020E9321026EA40E036E080E21
:101C3000046EE0EC2EF0B1EF0DF0000E0001946F99
:101C4000000E956F800E966F3F0E976F000E916F8E
:101C5000000E906F8CC001F08DC002F08EC003F0BA
:101C60008FC004F0000E056E000E066E000E076EAB
:101C7000000E086E17EC2CF0D8B041EF0EF043EFD9
:101C80000EF0C6EF0EF062EF0EF094C001F095C0BA
:101C900002F096C003F097C004F0000E056E000E2F
:101CA000066E200E076E410E086E98EC1AF001C009
:101CB00094F002C095F003C096F004C097F00001C4
:101CC000904B912B8CC01AF08DC01BF08EC01CF075
:101CD0008FC01DF0000E056E000E066E200E076E02
:101CE000410E086E94C001F095C002F096C003F05A
:101CF00097C004F098EC1AF001C01EF002C01FF06B
:101D000003C020F004C021F0BFEC28F0D8B08BEF66
:101D10000EF08DEF0EF045EF0EF0ADEF0EF094C02B
:101D20001AF095C01BF096C01CF097C01DF0000E75
:101D30001E6E000E1F6E200E206E410E216EADEC49
:101D40001CF01AC094F01BC095F01CC096F01DC08A
:101D500097F000019007D8A091078CC01AF08DC0B1
:101D60001BF08EC01CF08FC01DF094C01EF095C0FB
:101D70001FF096C020F097C021F0BFEC28F0D8A04B
:101D8000C4EF0EF0C6EF0EF08FEF0EF051C007F06B
:101D9000086A81EC2EF007500001816F81C07EF04F
:101DA000670E8119D8A4D7EF0EF0D9EF0EF0FFEF30
:101DB0000EF0FA51FB11D8A4E0EF0EF0E2EF0EF0B6
:101DC000E6EF0EF0000EFB6F010EFA6FFBBFF3EFB4
:101DD0000EF0FB5106E1FA05D8B0F1EF0EF0F3EF8B
:101DE0000EF0F9EF0EF0000E7D6F060E7C6F08EF1F
:101DF0000FF0FAC07CF0FBC07DF008EF0FF0FBBFE6
:101E000004EF0FF006EF0FF0F3EF0EF0F9EF0EF026
:101E1000670E8119D8A40FEF0FF011EF0FF040EF0C
:101E20000FF091AF1FEF0FF0FC0E905DFF0E915978
:101E3000D8A01DEF0FF01FEF0FF03EEF0FF0FF0ED9
:101E4000526EFF0E536E7CC054F07DC055F0525060
:101E50005426535055229051545C5550800A566E6A
:101E60009151800A5658D8A038EF0FF03AEF0FF092
:101E70003EEF0FF0660E7E6F40EF0FF0650E7E6F47
:101E80007CC074F07DC075F0670E8119D8A44BEF4B
:101E90000FF04DEF0FF05DEF0FF0660E7E19D8A436
:101EA00054EF0FF056EF0FF05FEF0FF091BF5DEFC3
:101EB0000FF05BEF0FF05FEF0FF0744B752B660EBA
:101EC0007E19D8A466EF0FF068EF0FF088EF0FF0DF
:101ED00091BF6FEF0FF06DEF0FF07BEF0FF0000E83
:101EE000946F000E956F800E966F3F0E976F000EE9
:101EF000916F000E906F670E8119D8B482EF0FF0CA
:101F000084EF0FF088EF0FF09051742791517523F3
:101F1000000E8B6F000E8A6F8CC082F08DC083F034
:101F20008EC084F08FC085F094C060F095C061F0E1
:101F300096C062F097C063F019EF10F082C01AF0FB
:101F400083C01BF084C01CF085C01DF094C01EF03F
:101F500095C01FF096C020F097C021F0ADEC1CF0AA
:101F60001AC033F01BC034F01CC035F01DC036F071
:101F70005CEC21F033C086F034C087F035C088F0C7
:101F800036C089F086C001F087C002F088C003F037
:101F900089C004F03CEC28F001C078F002C079F070
:101FA00082C043F083C044F084C045F085C046F051
:101FB00094C005F095C006F096C007F097C008F0F1
:101FC00086C001F087C002F088C003F089C004F029
:101FD00098EC1AF001C047F002C048F003C049F085
:101FE00004C04AF0E3EC2FF043C082F044C083F019
:101FF00045C084F046C085F094C01AF095C01BF02F
:1020000096C01CF097C01DF0000E1E6E000E1F6ED5
:10201000200E206E410E216EADEC1CF01AC094F023
:102020001BC095F01CC096F01DC097F000018A4BB4
:102030008B2B74518A5D8B51800A526E7551800AC8
:102040005258D8A026EF10F028EF10F09EEF0FF0B6
:1020500094C001F095C002F096C003F097C004F060
:10206000000E056E000E066EA00E076E400E086E86
:1020700098EC1AF001C086F002C087F003C088F027
:1020800004C089F082C01AF083C01BF084C01CF029
:1020900085C01DF086C01EF087C01FF088C020F0EC
:1020A00089C021F0BFEC28F0D8B059EF10F05BEFF9
:1020B00010F066EF10F0000E0001866F000E876FC3
:1020C000000E886F000E896F8FEF10F082C001F054
:1020D00083C002F084C003F085C004F086C005F020
:1020E00087C006F088C007F089C008F017EC2CF014
:1020F000D8A07DEF10F07FEF10F08FEF10F000010F
:1021000078B185EF10F087EF10F08FEF10F0000E30
:10211000866F000E876F000E886F000E896F8CC06F
:1021200033F08DC034F08EC035F08FC036F086C0ED
:1021300037F087C038F088C039F089C03AF0EAEC4F
:1021400015F033C082F034C083F035C084F036C05F
:1021500085F060C094F061C095F062C096F063C0F5
:1021600097F0650E00017E19D8B4B9EF10F0BBEFFF
:1021700010F0C1EF10F090C076F091C077F0C5EF8D
:1021800010F0000E776F000E766F000E736F000E6A
:10219000726F000E716F000E706F000E8B6F000E6D
:1021A0008A6FC0EF11F082C01AF083C01BF084C0A8
:1021B0001CF085C01DF094C01EF095C01FF096C0A5
:1021C00020F097C021F0ADEC1CF01AC033F01BC01A
:1021D00034F01CC035F01DC036F05CEC21F033C08B
:1021E00086F034C087F035C088F036C089F086C0EC
:1021F00001F087C002F088C003F089C004F03CEC15
:1022000028F001C078F002C079F00001FCB90BEFB2
:1022100011F00DEF11F02AEF11F078517911D8A4D7
:1022200014EF11F016EF11F02AEF11F0670E81197B
:10223000D8A41DEF11F01FEF11F02AEF11F077BFB6
:1022400026EF11F024EF11F02AEF11F0704B712BF3
:1022500074EF11F072517311D8A431EF11F033EF14
:1022600011F05DEF11F077BF3AEF11F038EF11F098
:102270005DEF11F0000E9225D96E020E9321DA6EF9
:102280002E0EDF6E924B932B7F07D8A08007000E97
:10229000736F010E726F5DEF11F0000E9225D96E13
:1022A000020E9321DA6E300EDF6E924B932B7F0776
:1022B000D8A080077007D8A0710770517111D8A4F9
:1022C00064EF11F066EF11F04DEF11F0000E922562
:1022D000D96E020E9321DA6E7851300FDF6E924B79
:1022E000932B7F07D8A0800782C043F083C044F0BF
:1022F00084C045F085C046F094C005F095C006F056
:1023000096C007F097C008F086C001F087C002F0C1
:1023100088C003F089C004F098EC1AF001C047F0BF
:1023200002C048F003C049F004C04AF0E3EC2FF0CB
:1023300043C082F044C083F045C084F046C085F0BD
:1023400094C01AF095C01BF096C01CF097C01DF009
:10235000000E1E6E000E1F6E200E206E410E216EAE
:10236000ADEC1CF01AC094F01BC095F01CC096F0A8
:102370001DC097F000017607D8A077078A4B8B2BFA
:1023800074518A5D8B51800A526E7551800A525881
:10239000D8B0CDEF11F0CFEF11F0DDEF11F093BF1A
:1023A000DBEF11F0935109E14B0E925DD8A0DBEF0A
:1023B00011F0DDEF11F0D3EF10F072517311D8A4CA
:1023C000E4EF11F0E6EF11F0F7EF11F0FCA9EBEFFD
:1023D00011F0EDEF11F0F7EF11F0000E9225D96E2C
:1023E000020E9321DA6E2E0EDF6E924B932B000EAF
:1023F0009225D96E020E9321DA6E000EDF6E650E05
:102400007E19D8A406EF12F008EF12F0B6EF0DF027
:10241000000E8B6F4F0E8A6F000E8A25D96E020E4A
:102420008B21DA6E000EDF6E000E7B6F000E7A6F6E
:1024300091BF1FEF12F01DEF12F027EF12F0000E08
:102440007B6F010E7A6F906D911FD8B0912B000EAB
:102450007D6F020E7C6F58EF12F08A07D8A08B07B1
:10246000000E8A25D96E020E8B21DA6E90C009F01B
:1024700091C00AF0000E0C6E0A0E0B6EBFEC2BF032
:102480000950300FDF6E90C001F091C002F0000ED5
:10249000046E0A0E036E5DEC2BF001C090F002C0DA
:1024A00091F000017C07D8A07D077F07D8A08007A6
:1024B00090519111D8A45FEF12F061EF12F02DEF5F
:1024C00012F07DBF6EEF12F07D5106E17C05D8B0B1
:1024D0006CEF12F06EEF12F02DEF12F08A07D8A019
:1024E0008B077A517B11D8A478EF12F07AEF12F0B3
:1024F00080EF12F0000E6B6F2B0E6A6F84EF12F0FC
:10250000000E6B6F2D0E6A6F000E8A25D96E020EBB
:102510008B21DA6E6AC0DFFF7F07D8A080078A07A9
:10252000D8A08B07BF0E526EFF0E536E5150546EE3
:10253000556A525054265350552255500AE11A0EEE
:10254000545CD8A0A6EF12F0A9EF12F0010EAAEF8A
:1025500012F0000E6E6F6F6B6E516F11D8A4B3EF57
:1025600012F0B5EF12F0BBEF12F0000E6D6F650EBA
:102570006C6FBFEF12F0000E6D6F450E6C6F000EAA
:102580008A25D96E020E8B21DA6E6CC0DFFF7F07C1
:10259000D8A08007000E9225016E020E9321026ED4
:1025A000000E8A25036E020E8B21046EE0EC2EF0E5
:1025B000B6EF0DF0120059C0D9FF5AC0DAFFDECFD6
:1025C000F6FFDDCFF7FF0800F550250AD8A4EBEFA2
:1025D00012F0EDEF12F0CEEF15F059C0D9FF5AC04E
:1025E000DAFFDE2A000EDD22000E0001F96F000E78
:1025F000F86FF8C0FCF0F9C0FDF0FA69FB6959C04A
:10260000D9FF5AC0DAFFDECFF6FFDDCFF7FF0800B3
:10261000F5502E0AD8A40FEF13F011EF13F08FEF3F
:1026200013F0000EFB6F000EFA6F59C0D9FF5AC0AD
:10263000DAFFDE2A000EDD2259C0D9FF5AC0DAFFC8
:10264000DECFF6FFDDCFF7FF0800F5502A0AD8A449
:102650002CEF13F02EEF13F04BEF13F059C0D9FF0E
:102660005AC0DAFFDE2A000EDD225BC0D9FF5CC053
:10267000DAFFDFCF98F0020EDE26DFCF99F0000EF2
:10268000DD2298C0D9FF99C0DAFFDECFFAF0DDCFA6
:10269000FBF08FEF13F059C0D9FF5AC0DAFFDECF3D
:1026A00008F0DDCF09F03FEC23F008C0FAF009C0D4
:1026B000FBF062EF13F059C0D9FF5AC0DAFFDE2AEF
:1026C000000EDD22D00E0001986FFF0E996F59C0E9
:1026D000D9FF5AC0DAFFDECFF6FFDDCFF7FF0800E3
:1026E000F5509A6F9B6B98519A2799519B239B5158
:1026F0000AE10A0E9A5DD8A080EF13F083EF13F081
:10270000010E84EF13F0000EA66FA76BA651A71160
:10271000D8A48DEF13F08FEF13F05BEF13F059C0D7
:10272000D9FF5AC0DAFFDECFF6FFDDCFF7FF080092
:10273000F550076E086A81EC2EF007500001AE6F6D
:10274000AE51D8B4A6EF13F0A8EF13F0E2EF13F0F8
:1027500059C0D9FF5AC0DAFFDECF98F0DDCF99F02B
:10276000010E9827000E992398C0F6FF99C0F7FF35
:102770000800F550076E086A81EC2EF00750000142
:10278000AF6FAF51D8B4C7EF13F0C9EF13F0E2EF5A
:1027900013F059C0D9FF5AC0DAFFDECF98F0DDCF71
:1027A00099F0020E9827000E992398C0F6FF99C061
:1027B000F7FF0800F550076E086A81EC2EF007500D
:1027C0000001B06F59C0D9FF5AC0DAFFDECFF6FF63
:1027D000DDCFF7FF0800F550630AD8A4F2EF13F03D
:1027E000F4EF13F01BEF14F059C0D9FF5AC0DAFF11
:1027F000DE2A000EDD225BC0D9FF5CC0DAFFDFCF2E
:1028000098F0020EDE26DFCF99F0000EDD2298C090
:10281000D9FF99C0DAFFDF50B16F57C01CF058C024
:102820001DF0B1C01EF00EEC2FF01CC057F01DC003
:1028300058F0E9EF15F059C0D9FF5AC0DAFFDECFE2
:10284000F6FFDDCFF7FF0800F550640AD8B42BEF90
:1028500014F02DEF14F03FEF14F059C0D9FF5AC017
:10286000DAFFDECFF6FFDDCFF7FF0800F550690A8B
:10287000D8A43DEF14F03FEF14F07FEF14F059C0EF
:10288000D9FF5AC0DAFFDE2A000EDD225BC0D9FF75
:102890005CC0DAFFDFCF98F0020EDE26DFCF99F0C2
:1028A000000EDD2298C0D9FF99C0DAFFDECF9CF080
:1028B000DDCF9DF0000E9DBFFF0E9E6F9F6FA06F3E
:1028C000A16FA26FA36F57C01CF058C01DF09CC031
:1028D0001EF09DC01FF09EC020F09FC021F0A0C040
:1028E00022F0A1C023F0A2C024F0A3C025F07AEC0E
:1028F0001EF01CC057F01DC058F0E9EF15F0660E31
:10290000AE19D8A486EF14F088EF14F0C8EF14F0D5
:1029100059C0D9FF5AC0DAFFDECFF6FFDDCFF7FF8F
:102920000800F5CFB1F059C0D9FF5AC0DAFFDE2A4E
:10293000000EDD225BC0D9FF5CC0DAFFDFCF98F06C
:10294000040EDE26DFCF99F0000EDD2298C0D9FFFD
:1029500099C0DAFFDECFAAF0DECFABF0DECFACF06D
:10296000DECFADF057C04BF058C04CF0AAC04DF0D0
:10297000ABC04EF0ACC04FF0ADC050F0B1C051F0A4
:1029800003EC0DF04BC057F04CC058F0E9EF15F0D8
:10299000AE0E016E000E026EA80E036E080E046EDF
:1029A000000E066E020E056EC0EC29F001500210FA
:1029B000D8A4DDEF14F0DFEF14F05BEF15F059C091
:1029C000D9FF5AC0DAFFDECF98F0DDCF99F0010EC3
:1029D00000019827000E992398C0F6FF99C0F7FFD1
:1029E0000800F5CFB1F0BF0E986FFF0E996F59C078
:1029F000D9FF5AC0DAFFDECFF6FFDDCFF7FF0800C0
:102A0000F5509A6F9B6B98519A2799519B239B5134
:102A10000AE11A0E9A5DD8A010EF15F013EF15F029
:102A2000010E14EF15F0000EA86FA96BA851A911A3
:102A3000D8B41DEF15F01FEF15F039EF15F05BC09E
:102A4000D9FF5CC0DAFFDFCF98F0040EDE26DFCFBF
:102A500099F0000EDD2298C0D9FF99C0DAFFDECFD1
:102A6000AAF0DECFABF0DECFACF0DECFADF051EFB1
:102A700015F05BC0D9FF5CC0DAFFDFCF98F0040E21
:102A8000DE26DFCF99F0000EDD2298C0D9FF99C075
:102A9000DAFFDECFAAF0DECFABF0DECFACF0DECFD8
:102AA000ADF0020E59C0D9FF5AC0DAFFDE26000E83
:102AB000DD22B2EF14F059C0D9FF5AC0DAFFDECFE1
:102AC000F6FFDDCFF7FF0800F550730AD8A46BEFCF
:102AD00015F06DEF15F098EF15F059C0D9FF5AC0F9
:102AE000DAFFDE2A000EDD225BC0D9FF5CC0DAFF10
:102AF000DFCF98F0020EDE26DFCF99F0000EDD2248
:102B000098C0D9FF99C0DAFFDECFA4F0DDCFA5F0E1
:102B100057C00AF058C00BF0A4C00CF0A5C00DF0CF
:102B200092EC25F00AC057F00BC058F0E9EF15F011
:102B300059C0D9FF5AC0DAFFDECFF6FFDDCFF7FF6D
:102B40000800F550250AD8A4A8EF15F0AAEF15F053
:102B5000C1EF15F059C0D9FF5AC0DAFFDE2A000EC6
:102B6000DD22000E026E250E016E57C003F058C024
:102B700004F095EC2AF0000E586E010E576EE9EF46
:102B800015F059C0D9FF5AC0DAFFDE2A000EDD2247
:102B9000000E586E000E576EE9EF15F059C0D9FFC0
:102BA0005AC0DAFFDECFF6FFDDCFF7FF0800F550A1
:102BB000016E026A57C003F058C004F095EC2AF089
:102BC00059C0D9FF5AC0DAFFDE2A000EDD22BBEF62
:102BD00015F012003650800B3F6E36503624416E91
:102BE00035AEF5EF15F0F7EF15F0F8EF15F0418081
:102BF0004150D8B4FEEF15F000EF16F015EF16F0C7
:102C00004128D8A406EF16F008EF16F010EF16F0E2
:102C1000000E336E000E346E000E356E000E366EF2
:102C2000358E000E366E1DEF16F0000E336E000E60
:102C3000346E000E356E000E366E3A50800B406ECC
:102C40003F504018D8B427EF16F029EF16F02AEFBE
:102C500016F03F8C3A503A24406E39AE32EF16F0FF
:102C600034EF16F035EF16F040804050D8B43BEF0B
:102C700016F03DEF16F052EF16F04028D8A443EFBF
:102C800016F045EF16F04DEF16F0000E376E000E01
:102C9000386E000E396E000E3A6E398E000E3A6EA6
:102CA0005AEF16F0000E376E000E386E000E396EB9
:102CB000000E3A6E4150405CD8B061EF16F063EF01
:102CC00016F08AEF16F03FAC68EF16F06AEF16F0D8
:102CD0006CEF16F0800E3F1A41C042F040C041F048
:102CE00042C040F033C042F037C033F042C037F04A
:102CF00034C042F038C034F042C038F035C042F041
:102D000039C035F042C039F036C042F03AC036F032
:102D100042C03AF0000E426E415040C03BF03C6A67
:102D20003B5E000E3C5A3CBE9FEF16F03C5009E162
:102D30001A0E3B5CD8A09FEF16F0A1EF16F0D8EF6B
:102D400016F03350341035103610D8A4AAEF16F010
:102D5000ADEF16F0010EAEEF16F0000E426E000E53
:102D6000336E000E346E000E356E000E366E40C0AF
:102D700041F0E1EF16F042A0C0EF16F0C2EF16F0FE
:102D8000C8EF16F0D89042300109426ECAEF16F033
:102D9000D890423233A0CFEF16F0D1EF16F0D2EF39
:102DA00016F0428E36343632353234323332412ADE
:102DB0004050415CD8A0DFEF16F0E1EF16F0BBEF1A
:102DC00016F03FBCE6EF16F0E8EF16F028EF17F02C
:102DD0004150D8A4EEEF16F0F0EF16F0FAEF16F02F
:102DE000000E336E000E346E000E356E000E366E21
:102DF00049EF18F0375033263850342239503522F5
:102E00003A50362236A007EF17F009EF17F0B5EF6A
:102E100017F042A00EEF17F010EF17F016EF17F0B3
:102E2000D89042300109426E18EF17F0D890423224
:102E300033A01DEF17F01FEF17F020EF17F0428EB1
:102E400036343632353234323332412AB5EF17F068
:102E50003750335C38503458395035583650800A22
:102E60003B6E3A50800A3B58D8B039EF17F03BEF31
:102E700017F066EF17F03350375C3B6E345038581C
:102E80003C6E355039583D6E36503A583E6EFF0E06
:102E90003B24336EFF0E3C20346EFF0E3D20356E1A
:102EA000FF0E3E20366E800E3F1A426C4250D8A470
:102EB0005CEF17F05EEF17F06EEF17F0010E3326A0
:102EC000000E3422352236226EEF17F03750335E73
:102ED0003850345A3950355A3A50365A33503410E3
:102EE00035103610D8A477EF17F079EF17F0AEEF62
:102EF00017F04250D8A47FEF17F081EF17F0AEEF34
:102F000017F0000E336E000E346E000E356E000E9C
:102F1000366E49EF18F0D8903336343635363636BB
:102F200042AE95EF17F097EF17F098EF17F0338058
:102F300042A09DEF17F09FEF17F0A3EF17F0D88096
:102F40004236A5EF17F0D89042364150D8B4ABEFD7
:102F500017F0ADEF17F0AEEF17F0410635AEB3EF57
:102F600017F0B5EF17F08BEF17F0000E406E42AE82
:102F7000BCEF17F0BEEF17F0D6EF17F042C03BF0F2
:102F80007F0E3B16D8B4C7EF17F0C9EF17F0CDEF9F
:102F900017F0010E406ED6EF17F033A0D2EF17F006
:102FA000D4EF17F0D6EF17F0C9EF17F04050D8B4B0
:102FB000DCEF17F0DEEF17F009EF18F0010E332603
:102FC000000E34223522362236A0E9EF17F0EBEF5F
:102FD00017F009EF18F033C03BF034C03CF035C0B7
:102FE0003DF036C03EF03E343E323D323C323B3264
:102FF0003BC033F03CC034F03DC035F03EC036F04D
:103000004128D8B406EF18F008EF18F009EF18F0CF
:10301000412A4128D8B40FEF18F011EF18F019EF3A
:1030200018F04150D8A417EF18F019EF18F02BEF53
:1030300018F0000E336E000E346E000E356E000E6A
:10304000366E4150D8A427EF18F029EF18F02BEF77
:1030500018F0000E3F6E41A030EF18F032EF18F07C
:1030600035EF18F0358E36EF18F0359ED890413098
:10307000366E3FAE3EEF18F040EF18F041EF18F01B
:10308000368E33C033F034C034F035C035F036C03E
:1030900036F01200000E0101D56F000ED46F21EE44
:1030A000E3F011EE9BF0080EDBCFE3FFE806FCE255
:1030B00021EEDAF011EEBEF0080EDBCFE3FFE806FA
:1030C000FCE2000ED36F000E956E938470EC31F02D
:1030D0003FEC2DF0800E0F6E250E106E000E116E5F
:1030E000000E126EB0EC2DF0320E016E010E026E6B
:1030F00007EC24F0000E0001D76F0F0ED66FBCEC6A
:103100002CF0D60E1A6E010E1B6E6CEC2CF0320EEB
:10311000016E010E026E07EC24F0320E0001D66F34
:10312000010ED76F9B0ED86F010ED96FECEC1FF01C
:10313000320E016E010E026E000E046E020E036E60
:10314000B10E056E010E066E2BEC2AF0320E016EEA
:10315000010E026E000E046E040E036EA40E056EC8
:10316000010E066E2BEC2AF0320E016E010E026E7D
:10317000000E046E080E036EBE0E056E010E066E86
:103180002BEC2AF00101F751D8B4C9EF18F0CBEFBE
:1031900018F0FCEF18F0D00EBE25016E026AFF0E8B
:1031A0000222000E046E0A0E036E1AEC31F001C00A
:1031B000D4F102C0D5F1D00E0001EE6FFF0EEF6F1B
:1031C0000101BF510001F06FF16BEE51F027EF519B
:1031D000F123F0510101D4270001F1510101D52360
:1031E000D405D511D8B4F7EF18F0F9EF18F0FCEFCB
:1031F00018F0D407D8A0D507B10E0001606F010EFA
:10320000616F07EC27F060C0C7F161C0C8F162C010
:10321000C9F163C0CAF1A40E0001606F010E616FB5
:1032200007EC27F060C0CFF161C0D0F162C0D1F1EE
:1032300063C0D2F181A41FEF19F021EF19F02AEF3A
:1032400019F081B426EF19F028EF19F021EF19F0E9
:103250000101D31F0101D351D8B431EF19F033EF7D
:1032600019F08DEF19F078EC31F0010E046E010EBB
:103270001DEC2EF0870E0001B86F010EB96F6A0EBB
:10328000BA6F080EBB6FC7C1BCF0C8C1BDF0C9C1E1
:10329000BEF0CAC1BFF06AEC2FF0870E056E010EBA
:1032A000066E00EC2DF0010E046E020E1DEC2EF0E9
:1032B000CFC101F0D0C102F0D1C103F0D2C104F0FE
:1032C000000E056E000E066E800E076EBF0E086EB5
:1032D00098EC1AF001C0CBF102C0CCF103C0CDF1E3
:1032E00004C0CEF1870E0001B86F010EB96F5F0EFA
:1032F000BA6F080EBB6FCBC1BCF0CCC1BDF0CDC165
:10330000BEF0CEC1BFF06AEC2FF0870E056E010E45
:10331000066E00EC2DF049EF1AF078EC31F0010E5A
:10332000046E010E1DEC2EF0870E0001B86F010E29
:10333000B96F870EBA6F080EBB6F9B0EBC6F010E84
:10334000BD6F6AEC2FF0870E056E010E066E00EC65
:103350002DF0010E046E020E1DEC2EF0870E000102
:10336000B86F010EB96F540EBA6F080EBB6FD6C19D
:10337000BCF0D7C1BDF0D8C1BEF0D9C1BFF06AEC76
:103380002FF0870E056E010E066E00EC2DF0030E79
:103390000001EF6F8A0EEE6F550EE82EFED7EE2F6E
:1033A000FCD7EF2FFAD700D078EC31F0010E046E85
:1033B000010E1DEC2EF00101F751D8B4E2EF19F027
:1033C000E4EF19F001EF1AF0730E0001B86F010E6F
:1033D000B96F470EBA6F080EBB6FD4C1BCF0D5C130
:1033E000BDF0C0C1BEF0BF6BC1C1C0F0C16BC2C1F6
:1033F000C2F0C36BC3C1C4F0C56B6AEC2FF01EEF03
:103400001AF0730E0001B86F010EB96F290EBA6F72
:10341000080EBB6FBEC1BCF0BD6BBFC1BEF0BF6BC1
:10342000C0C1C0F0C16BC1C1C2F0C36BC2C1C4F0A6
:10343000C56BC3C1C6F0C76B6AEC2FF0900E056E6A
:10344000080E066E00EC2DF0080E046E010E1DEC49
:103450002EF0730E056E010E066E00EC2DF0010EBF
:10346000046E020E1DEC2EF0870E0001B86F010EE7
:10347000B96F540EBA6F080EBB6FD6C1BCF0D7C17E
:10348000BDF0D8C1BEF0D9C1BFF06AEC2FF085EF16
:1034900019F0CFC101F0D0C102F0D1C103F0D2C107
:1034A00004F0000E056E000E066E800E076EBF0E55
:1034B000086E98EC1AF001C0CBF102C0CCF103C049
:1034C000CDF104C0CEF1000E0001B86F010EB96F4E
:1034D000010EBA6F080EBB6F730EBC6F010EBD6F8D
:1034E0009B0EBE6F010EBF6FC7C1C0F0C8C1C1F057
:1034F000C9C1C2F0CAC1C3F0CBC1C4F0CCC1C5F0D0
:10350000CDC1C6F0CEC1C7F0D6C1C8F0D7C1C9F091
:10351000D8C1CAF0D9C1CBF06AEC2FF0000E026E10
:10352000010E036EEFEC30F081EF18F000EF00F0C9
:103530000450800B0D6E04500424136E03AEA3EFF1
:103540001AF0A5EF1AF0A6EF1AF013801350D8B4B2
:10355000ACEF1AF0AEEF1AF0C1EF1AF01328D8A4AE
:10356000B4EF1AF0B6EF1AF0BEEF1AF0000E016ECB
:10357000000E026E000E036E000E046E038EC9EF85
:103580001AF0000E016E000E026E000E036E000EA9
:10359000046E0850800B0D1A08500824126E07AEF6
:1035A000D4EF1AF0D6EF1AF0D7EF1AF012801250BB
:1035B000D8B4DDEF1AF0DFEF1AF0F2EF1AF01228AC
:1035C000D8A4E5EF1AF0E7EF1AF0EFEF1AF0000ECB
:1035D000056E000E066E000E076E000E086E078E5A
:1035E000FAEF1AF0000E056E000E066E000E076E62
:1035F000000E086E1250D8B400EF1BF002EF1BF063
:103600000AEF1BF01350D8A408EF1BF00AEF1BF0D1
:1036100014EF1BF0000E016E000E026E000E036E22
:10362000000E046EACEF1CF007500102F3CF18F04F
:10363000F4CF19F018500E6E0F6A106A116A195003
:10364000146E156A166A176A06500202F3CF18F054
:10365000F4CF19F018500E26000E0F22102211225E
:1036600019501426000E15221622172205500302A7
:10367000F3CF18F0F4CF19F018500E26000E0F22D9
:103680001022112219501426000E1522162217227C
:1036900010C011F00FC010F00EC00FF00E6A0550F0
:1036A0000202F3CF18F0F4CF19F018500E2619507B
:1036B0000F22000E1022000E112206500102F3CF3D
:1036C00018F0F4CF19F018500E2619500F22000EE2
:1036D0001022000E112210C011F00FC010F00EC009
:1036E0000FF00E6A05500102F3CF18F0F4CF19F075
:1036F00018500E2619500F22000E1022000E112213
:1037000007500202F3CF18F0F4CF19F01850142626
:1037100019501522000E1622000E17220650030221
:10372000F3CF18F0F4CF19F01850142619501522C1
:10373000000E1622000E172207500302F3CF18F0D6
:10374000F4CF19F01850096E19500A6E0B6A0C6A02
:103750000BC00CF00AC00BF009C00AF0096A09504E
:1037600014260A5015220B5016220C5017220EC098
:1037700009F00FC00AF010C00BF011C00CF0190EC8
:10378000C7EF1BF0D8900C320B320A320932E82E08
:10379000C2EF1BF0095014260A5015220B501622B6
:1037A0000C50172210C011F00FC010F00EC00FF017
:1037B0000E6A125013C009F00A6A0926000E0A2286
:1037C000820E0924186EFF0E0A20196EFDEF1BF001
:1037D000D890143615361636173611AEF2EF1BF0A8
:1037E000F4EF1BF0F5EF1BF01480D8900E360F3677
:1037F000103611361806D8A0190616AE02EF1CF0C6
:1038000004EF1CF0E8EF1BF0000E126E11AE0BEF90
:103810001CF00DEF1CF031EF1CF0FF0E0E14096EC2
:10382000FF0E0F140A6EFF0E10140B6E7F0E111494
:103830000C6E09500A100B100C10D8B422EF1CF0BB
:1038400024EF1CF028EF1CF0010E126E31EF1CF07B
:1038500014A02DEF1CF02FEF1CF031EF1CF024EF23
:103860001CF01250D8B437EF1CF039EF1CF05DEFAC
:103870001CF0010E1426000E15221622172217A086
:1038800044EF1CF046EF1CF05DEF1CF014C009F093
:1038900015C00AF016C00BF017C00CF00C340C3237
:1038A0000B320A32093209C014F00AC015F00BC0FD
:1038B00016F00CC017F0184A192A19BE68EF1CF050
:1038C000195008E11828D8A068EF1CF06AEF1CF026
:1038D00074EF1CF0000E146E000E156E800E166E46
:1038E0007F0E176EA2EF1CF019BE81EF1CF019506D
:1038F00006E11804D8B07FEF1CF081EF1CF08DEFCB
:103900001CF0000E146E000E156E000E166E000EEA
:10391000176E000E0D6EA2EF1CF018C013F0FF0E14
:103920001416FF0E15167F0E1616000E171613A08E
:103930009CEF1CF09EEF1CF09FEF1CF0168ED890B1
:103940001330176E0D50171214C001F015C002F09D
:1039500016C003F017C004F012001D50800B2A6E31
:103960001D501D24316E1CAEB8EF1CF0BAEF1CF0D8
:10397000BBEF1CF031803150D8B4C1EF1CF0C3EF65
:103980001CF0D8EF1CF03128D8A4C9EF1CF0CBEF05
:103990001CF0D3EF1CF0000E1A6E000E1B6E000E12
:1039A0001C6E000E1D6E1C8E000E1D6EE0EF1CF0D6
:1039B000000E1A6E000E1B6E000E1C6E000E1D6EA9
:1039C0002150800B2A1A21502124326E20AEEBEFB9
:1039D0001CF0EDEF1CF0EEEF1CF032803250D8B44A
:1039E000F4EF1CF0F6EF1CF00BEF1DF03228D8A41A
:1039F000FCEF1CF0FEEF1CF006EF1DF0000E1E6E3B
:103A0000000E1F6E000E206E000E216E208E000E26
:103A1000216E13EF1DF0000E1E6E000E1F6E000EC5
:103A2000206E000E216E1E501F1020102110D8A4F1
:103A30001CEF1DF01EEF1DF036EF1DF0000E1A6E8C
:103A4000000E1B6E000E1C6E000E1D6E800E1C12F2
:103A50007F0E1D122A501D121AC01AF01BC01BF037
:103A60001CC01CF01DC01DF079EF1EF03150D8A411
:103A70003CEF1DF03EEF1DF048EF1DF0000E1A6EFA
:103A8000000E1B6E000E1C6E000E1D6E79EF1EF0F8
:103A9000325031C022F0236A225E000E235A7F0E7C
:103AA00022242B6E000E23202C6E1AC026F01BC081
:103AB00027F01CC028F01DC029F0000E1A6E000E61
:103AC0001B6E000E1C6E000E1D6E000E2D6E000E85
:103AD0002E6E000E2F6E000E306E000E326EA9EFAD
:103AE0001DF03250D8B477EF1DF079EF1DF090EF54
:103AF0001DF0D8902636273628362936D8901A3623
:103B00001B361C361D3630AE88EF1DF08AEF1DF0D7
:103B10008BEF1DF01A80D8902D362E362F3630368A
:103B20001E50265C1F5027582050285821502958D5
:103B3000D8A09DEF1DF09FEF1DF0A8EF1DF0308C79
:103B40001E50265E1F50275A2050285A2150295AAD
:103B5000322A190E3264AFEF1DF0B1EF1DF071EF94
:103B60001DF02650271028102910D8B4BAEF1DF0E8
:103B7000BCEF1DF0D4EF1DF02D80D4EF1DF0D890D8
:103B80001A361B361C361D3630AEC9EF1DF0CBEF92
:103B90001DF0CCEF1DF01A80D8902D362E362F3622
:103BA00030362B06D8A02C061CAED9EF1DF0DBEF6B
:103BB0001DF0BFEF1DF0000E326E30AEE2EF1DF0D3
:103BC000E4EF1DF008EF1EF0FF0E2D14226EFF0E25
:103BD0002E14236EFF0E2F14246E7F0E3014256ECC
:103BE0002250231024102510D8B4F9EF1DF0FBEF5C
:103BF0001DF0FFEF1DF0010E326E08EF1EF01AA04F
:103C000004EF1EF006EF1EF008EF1EF0FBEF1DF0B4
:103C10003250D8B40EEF1EF010EF1EF034EF1EF04D
:103C2000010E1A26000E1B221C221D221DA01BEFB6
:103C30001EF01DEF1EF034EF1EF01AC022F01BC064
:103C400023F01CC024F01DC025F025342532243279
:103C50002332223222C01AF023C01BF024C01CF0F1
:103C600025C01DF02B4A2C2A2CBE3FEF1EF02C50F5
:103C700008E12B28D8A03FEF1EF041EF1EF04CEFDB
:103C80001EF0000E2C6E2B68000E1A6E000E1B6EBE
:103C9000000E1C6E000E1D6E2CBE59EF1EF02C5037
:103CA00006E12B04D8B057EF1EF059EF1EF067EF76
:103CB0001EF0000E2C6E000E2B6E000E1A6E000E03
:103CC0001B6E000E1C6E000E1D6E000E2A6E2BC0A9
:103CD00031F031A06EEF1EF070EF1EF073EF1EF0AA
:103CE0001C8E74EF1EF01C9ED89031301D6E2AEF92
:103CF0001DF012001EC036F01FC037F020C038F093
:103D000021C039F022C03AF023C03BF024C03CF07F
:103D100025C03DF03DBE8FEF1EF092EF1EF0010E6C
:103D200093EF1EF0000E346E356A34503510D8B45F
:103D30009CEF1EF09EEF1EF0AEEF1EF03D1E3C1EEF
:103D40003B1E3A1E391E381E371E366C000E3722B7
:103D5000382239223A223B223C223D220001FBBF7D
:103D6000B4EF1EF0B6EF1EF0B7EF1EF0FC93FBBFF2
:103D7000C4EF1EF0FB5106E1FA05D8B0C2EF1EF009
:103D8000C4EF1EF0CAEF1EF0000E316E010E306E51
:103D9000CEEF1EF0FAC030F0FBC031F0F8C032F0C8
:103DA000F9C033F034503510D8A4D9EF1EF0DBEF52
:103DB0001EF0E2EF1EF0FCA5E0EF1EF0E2EF1EF0B9
:103DC000E5EF1EF03206D8A03306000E3F6E4F0E10
:103DD0003E6E000E02014F6F6AEF1FF03E06D8A044
:103DE0003F06000E3E24D96E020E3F20DA6E36C02A
:103DF00001F037C002F038C003F039C004F03AC017
:103E000005F03BC006F03CC007F03DC008F00A0ECC
:103E1000096E000E0A6E000E0B6E000E0C6E000E88
:103E20000D6E000E0E6E000E0F6E000E106E55EC35
:103E300026F001C026F002C027F003C028F004C01D
:103E400029F005C02AF006C02BF007C02CF008C0EE
:103E50002DF026C013F028C014F028EC30F01350D9
:103E6000300FDF6E3006D8A031063206D8A03306F8
:103E700036C001F037C002F038C003F039C004F09A
:103E80003AC005F03BC006F03CC007F03DC008F06A
:103E90000A0E096E000E0A6E000E0B6E000E0C6EFE
:103EA000000E0D6E000E0E6E000E0F6E000E106EE8
:103EB000CEEC24F001C036F002C037F003C038F079
:103EC00004C039F005C03AF006C03BF007C03CF032
:103ED00008C03DF03FBE75EF1FF03F5008E13E04C3
:103EE000D8A075EF1FF077EF1FF0A8EF1FF0365046
:103EF0003710381039103A103B103C103D10D8A440
:103F000084EF1FF086EF1FF0EEEF1EF031BE93EF4F
:103F10001FF0315006E13004D8B091EF1FF093EF5D
:103F20001FF0EEEF1EF033BE9EEF1FF0335008E19E
:103F30003204D8A09EEF1FF0A0EF1FF0A8EF1FF0F3
:103F40000001FCB3A6EF1FF0A8EF1FF0EEEF1EF08C
:103F500034503510D8A4AFEF1FF0B1EF1FF0B9EF18
:103F60001FF00001FCA5B7EF1FF0B9EF1FF0D7EF6E
:103F70001FF03E06D8A03F0634503510D8A4C3EF3A
:103F80001FF0C5EF1FF0CBEF1FF0000E2F6E2B0EB2
:103F90002E6ECFEF1FF0000E2F6E2D0E2E6E000E28
:103FA0003E24D96E020E3F20DA6E2EC0DFFF1CC009
:103FB00011F01DC012F0000E3E24136E020E3F20C1
:103FC000146E32C015F033C016F0FAEC2AF011C0AE
:103FD0001CF012C01DF01200000E0001E76F000E71
:103FE000E66F1DEF21F0E651D625D96EE751D721B6
:103FF000DA6EE651D825E16EE751D921E26EDFCFC6
:10400000E7FF43EF21F0E651D625D96EE751D721DE
:10401000DA6EE651D825E16EE751D921E26EDFCFA5
:10402000E7FFD8C0D9FFD9C0DAFFDF50DA6FD00E72
:10403000DA25E46FE56BFF0EE523E4C001F0E5C08F
:1040400002F0000E046E0A0E036E1AEC31F001C08D
:10405000E4F002C0E5F0D00E0001DA6FFF0EDB6F76
:10406000E651D825D96EE751D921DA6EDF50DC6FE1
:10407000DD6BDA51DC27DB51DD23DC51E427DD5138
:10408000E523FB0EE427FF0EE523E5BF4CEF20F010
:104090004AEF20F057EF20F0180EE425E46F000EF1
:1040A000E521E56F010E0101F76F5AEF20F0000ED8
:1040B0000101F76F000E046E0A0E036EE4C001F0FA
:1040C000E5C002F05DEC2BF001C009F002C00AF07F
:1040D000000E0C6E0A0E0B6EBFEC2BF009C0E2F066
:1040E0000AC0E3F0DE0E0001B86F000EB96FAB0E30
:1040F000BA6F080EBB6FE2C0BCF0E3C0BDF06AEC63
:104100002FF0E4C009F0E5C00AF0000E0C6E0A0EB4
:104110000B6EBFEC2BF009C0E2F00AC0E3F0E00E3A
:104120000001B86F000EB96FAB0EBA6F080EBB6F0F
:10413000E2C0BCF0E3C0BDF06AEC2FF0D8C0D9FFFC
:10414000D9C0DAFFDEC0DFFF000120EE01F0D85158
:10415000D926D951DA22E0C0DFFF43EF21F0E65142
:10416000D825D96EE751D921DA6E3A0EDF6EE651C5
:10417000D625D96EE751D721DA6EE651D825DA6F08
:10418000E751D921DB6F010EDA25E16E000EDB214C
:10419000E26EDFCFE7FF43EF21F0E651D625DA6F7D
:1041A000E751D721DB6FFF0EDA25D96EFF0EDB2139
:1041B000DA6EE651D825E16EE751D921E26EDFCF04
:1041C000E7FF43EF21F0E651D825D96EE751D92119
:1041D000DA6E3A0EDF6EE651D625DA6FE751D72157
:1041E000DB6FFF0EDA25D96EFF0EDB21DA6EE651AA
:1041F000D825DC6FE751D921DD6F010EDC25E16E9A
:10420000000EDD21E26EDFCFE7FF43EF21F0E65144
:10421000D625DA6FE751D721DB6FFE0EDA25D96E8E
:10422000FF0EDB21DA6EE651D825E16EE751D92188
:10423000E26EDFCFE7FF43EF21F0E6C0DAF0E7C040
:10424000DBF0DB51000AD8B428EF21F043EF21F076
:10425000DA51000AD8B4F3EF1FF0010AD8B403EF23
:1042600020F0030AD8B4AFEF20F0060AD8B4CDEF9F
:1042700020F0010AD8B4E3EF20F0020AD8B407EF27
:1042800021F043EF21F0E64BE72BE7BF51EF21F0A0
:10429000E75109E1080EE65DD8A051EF21F053EF98
:1042A00021F01DEF21F020EE08F0D851D926D95188
:1042B000DA22000EDF6E1200F3C143F0F4C144F0C5
:1042C000F5C145F0F6C146F033C043F034C044F0C8
:1042D00035C045F036C046F0810E376EFF0E386EA1
:1042E00043C039F044C03AF045C03BF046C03CF012
:1042F000180E80EF21F0D8903C323B323A323932FE
:10430000E82E7BEF21F039503724416E000E382023
:10431000426E42BE95EF21F0425009E1170E415C1A
:10432000D8A095EF21F097EF21F0A1EF21F033C055
:1043300033F034C034F035C035F036C036F064EFB9
:1043400022F042BEA6EF21F0A8EF21F018EF22F0F4
:1043500041C037F0FF0E386EFF0E396E7F0E3A6E99
:10436000000E3B6E3766B7EF21F0BFEF21F03B3414
:104370003B323A3239323832372EB2EF21F038C080
:104380003DF039C03EF03AC03FF03BC040F03D50F8
:104390004314376E3E504414386E3F504514396E06
:1043A000405046143A6E3750381039103A10D8A49D
:1043B000DCEF21F0DEEF21F0E0EF21F097EF21F0CC
:1043C00043C037F044C038F045C039F046C03AF039
:1043D000200EF0EF21F0D8903A32393238323732AD
:1043E000E82EEBEF21F03750381039103A10D8B4DE
:1043F000FCEF21F0FEEF21F006EF22F03D504326C6
:104400003E5044223F504522405046223D1C376ECC
:104410003E1C386E3F1C396E401C3A6E37504316B6
:1044200038504416395045163A5046165CEF22F083
:1044300043C037F044C038F045C039F046C03AF0C8
:10444000200E28EF22F0D8903A3239323832373203
:10445000E82E23EF22F03750381039103A10D8A444
:1044600034EF22F036EF22F040EF22F0000E436EE0
:10447000000E446E000E456E000E466E5CEF22F09C
:10448000D8904334376E4434386E4534396E4634F0
:104490003A6E3750381039103A10D8B452EF22F033
:1044A00054EF22F05CEF22F0000E436E000E446EDB
:1044B000800E456EBF0E466E43C033F044C034F0EC
:1044C00045C035F046C036F01200096E0950D8B428
:1044D0006CEF22F06EEF22F090EF22F004BE75EF49
:1044E00022F073EF22F090EF22F001C005F002C03D
:1044F00006F003C007F004C008F0051E061E071EE4
:10450000081E052A000E06220722082205C00BF00D
:1045100006C00CF007C00DF008C00EF098EF22F0B6
:1045200001C00BF002C00CF003C00DF004C00EF08F
:104530000150021003100410D8A4A1EF22F0A3EF41
:1045400022F0ADEF22F0000E016E000E026E000EA2
:10455000036E000E046E3EEF23F0960E0A6EB7EF68
:1045600022F00A2AD8900E320D320C320B32000E95
:104570000B14056E000E0C14066E000E0D14076E63
:10458000FE0E0E14086E0550061007100810D8A471
:10459000CCEF22F0CEEF22F0B1EF22F0DCEF22F0F0
:1045A0000A2A010E0B26000E0C220D220E22D89094
:1045B0000E320D320C320B32000E0B14056E000E53
:1045C0000C14066E000E0D14076EFF0E0E14086E0E
:1045D0000550061007100810D8A4F1EF22F0F3EFF1
:1045E00022F0D0EF22F0FBEF22F00A06D8900B3633
:1045F0000C360D360E360DBE00EF23F002EF23F021
:104600000AEF23F0020E0A6008EF23F00AEF23F00E
:10461000F5EF22F00AB00FEF23F011EF23F012EFC5
:1046200023F00D9ED8900A320AC005F0066A076A88
:10463000086A05C008F0076A066A056A05500B1289
:1046400006500C1207500D1208500E120950D8B423
:104650002CEF23F02EEF23F036EF23F004BE35EFDE
:1046600023F033EF23F036EF23F00E8E0BC001F072
:104670000CC002F00DC003F00EC004F01200000EDA
:10468000166E000E156E000E0F6E000E0E6E4BEFC6
:1046900023F0084A092A010E146E08C0F6FF09C06B
:1046A000F7FF0800F550200AD8B459EF23F05BEF6C
:1046B00023F078EF23F0F70E0A6EFF0E0B6E08C0A2
:1046C000F6FF09C0F7FF0800F5500C6E0D6A0A509E
:1046D0000C260B500D220D5009E1050E0C5CD8A0E4
:1046E00074EF23F076EF23F078EF23F0000E146ED2
:1046F00014C010F0116A10501110D8A482EF23F0EA
:1047000084EF23F049EF23F08EEF23F0000E0F6EBD
:10471000010E0E6E084A092AC3EF23F008C0F6FF07
:1047200009C0F7FF0800F5500A6E0B6A0B50000A2B
:10473000D8B49DEF23F0C3EF23F00A502B0AD8B46E
:104740008AEF23F0060AD8B486EF23F0C3EF23F0F4
:1047500015C001F016C002F0000E046E0A0E036EC2
:104760001AEC31F008C0F6FF09C0F7FF0800F55059
:10477000015E000E025A300E0124156E000E02205A
:10478000166E8AEF23F0D00E0A6EFF0E0B6E08C075
:10479000F6FF09C0F7FF0800F5500C6E0D6A0A50CD
:1047A0000C260B500D220D500AE10A0E0C5CD8A00D
:1047B000DCEF23F0DFEF23F0010EE0EF23F0000E3B
:1047C000126E136A12501310D8A4E9EF23F0EBEF26
:1047D00023F0A8EF23F00E500F10D8A4F2EF23F02F
:1047E000F4EF23F002EF24F015C00AF016C00BF02E
:1047F0000A1E0B1E0A4A0B2A0AC008F00BC009F059
:1048000006EF24F015C008F016C009F01200000EE3
:10481000086E000E076E01C0D9FF02C0DAFF000E5D
:10482000DF6EAB88B5EF24F066EC31F00B6E240E32
:104830000B18D8A41EEF24F020EF24F014EF24F07E
:10484000000E0A6E000E096EACEF24F066EC31F03B
:104850000B6E2C0E0B18D8B430EF24F032EF24F08E
:104860003EEF24F009500124D96E0A500220DA6E7E
:104870000BC0DFFF094A0A2AACEF24F001C0D9FFC0
:1048800002C0DAFF470EDE18D8A449EF24F04BEF40
:1048900024F0ACEF24F020EE01F00150D9260250B4
:1048A000DA22500EDE18D8A458EF24F05AEF24F084
:1048B000ACEF24F020EE02F00150D9260250DA22AB
:1048C000520EDE18D8A467EF24F069EF24F0ACEFA5
:1048D00024F020EE03F00150D9260250DA224D0ECA
:1048E000DE18D8A476EF24F078EF24F0ACEF24F0B3
:1048F00020EE04F00150D9260250DA22430EDE18D1
:10490000D8A485EF24F087EF24F0ACEF24F0000E5C
:104910000A6E000E096E9AEF24F066EC31F00B6E11
:1049200009500124D96E0A500220DA6E0BC0DFFF55
:10493000094A0A2A0ABEA6EF24F00A5009E1390EF4
:10494000095CD8A0A6EF24F0A8EF24F08DEF24F0A6
:10495000000E086E010E076E0D0E0B18D8A4B3EFF3
:1049600024F0B5EF24F026EF24F007500810D8B457
:10497000BCEF24F0BEEF24F017EF24F0095001241F
:10498000036E0A500220046EFF0E0324D96EFF0E40
:104990000420DA6E000EDF6EAB981200000E126E6D
:1049A00010BED7EF24F0D5EF24F0E9EF24F0101E6D
:1049B0000F1E0E1E0D1E0C1E0B1E0A1E096C000E75
:1049C0000A220B220C220D220E220F221022010E8F
:1049D000126E08BEF0EF24F0EEEF24F002EF25F0A7
:1049E000081E071E061E051E041E031E021E016C65
:1049F000000E022203220422052206220722082298
:104A0000010E121A20EE13F0070EDE6AE806FDE230
:104A100009500A100B100C100D100E100F10101072
:104A2000D8B415EF25F017EF25F069EF25F0010E4A
:104A3000116E25EF25F0D89009360A360B360C3664
:104A40000D360E360F361036112A10AE2AEF25F02D
:104A50002CEF25F01BEF25F0D890133614361536C1
:104A600016361736183619361A360950015C0A50B0
:104A700002580B5003580C5004580D5005580E5056
:104A800006580F50075810500858D8A04AEF25F084
:104A90004CEF25F05DEF25F00950015E0A50025AF7
:104AA0000B50035A0C50045A0D50055A0E50065A1A
:104AB0000F50075A1050085A1380D89010320F32F6
:104AC0000E320D320C320B320A320932112E2CEF1B
:104AD00025F01250D8B46FEF25F071EF25F081EF7B
:104AE00025F01A1E191E181E171E161E151E141E3E
:104AF000136C000E142215221622172218221922D6
:104B00001A2213C001F014C002F015C003F016C041
:104B100004F017C005F018C006F019C007F01AC05D
:104B200008F0120021EEECF010EE0FF0060EDBCFD5
:104B3000E3FFE806FCE20CC01AF00DC01BF01A50AF
:104B40001B10D8A4A6EF25F0A8EF25F0ACEF25F0B8
:104B50000F0E1A6E000E1B6E1AC001F01BC002F081
:104B6000D4EC30F001C01EF002C01FF0FAC01CF0FF
:104B7000FBC01DF01DBEBFEF25F0C1EF25F0D6EF45
:104B800025F01E501C5C1D50800A0E6E1F50800ABE
:104B90000E58D8A0CEEF25F0D0EF25F0D2EF25F0BB
:104BA000D6EF25F01CC01EF01DC01FF01EC01CF06B
:104BB0001FC01DF0F8C018F0F9C019F00001FCB1D9
:104BC000E4EF25F0E6EF25F003EF26F0F4EF25F013
:104BD000000E026E200E016E0AC003F00BC004F03E
:104BE00095EC2AF01E4A1F2A18501E5C1F50800A9E
:104BF0000E6E1950800A0E58D8A001EF26F003EF70
:104C000026F0E8EF25F0000E176E000E166E1CEF72
:104C100026F01AC0D9FF1BC0DAFFDF500E6E0E500F
:104C2000016E026A0AC003F00BC004F095EC2AF092
:104C30001A4A1B2A164A172A1C50165C1750800A5B
:104C40000E6E1D50800A0E58D8A029EF26F02BEFCB
:104C500026F009EF26F00001FCA131EF26F033EF3A
:104C600026F050EF26F041EF26F0000E026E200EE7
:104C7000016E0AC003F00BC004F095EC2AF01E4A46
:104C80001F2A18501E5C1F50800A0E6E1950800A91
:104C90000E58D8A04EEF26F050EF26F035EF26F054
:104CA0001EC00AF01FC00BF01200000E126E08BEEC
:104CB0005EEF26F05CEF26F070EF26F0081E071E70
:104CC000061E051E041E031E021E016C000E02229B
:104CD000032204220522062207220822010E126E58
:104CE00010BE77EF26F075EF26F087EF26F0101E46
:104CF0000F1E0E1E0D1E0C1E0B1E0A1E096C000E32
:104D00000A220B220C220D220E220F221022095001
:104D10000A100B100C100D100E100F101010D8B43C
:104D200094EF26F096EF26F0DEEF26F0010E116EDE
:104D3000A4EF26F0D89009360A360B360C360D361D
:104D40000E360F361036112A10AEA9EF26F0ABEF53
:104D500026F09AEF26F00950015C0A5002580B50D9
:104D600003580C5004580D5005580E5006580F505B
:104D7000075810500858D8A0C0EF26F0C2EF26F010
:104D8000D2EF26F00950015E0A50025A0B50035A26
:104D90000C50045A0D50055A0E50065A0F50075A1F
:104DA0001050085AD89010320F320E320D320C3299
:104DB0000B320A320932112EABEF26F01250D8B462
:104DC000E4EF26F0E6EF26F0F6EF26F0081E071EC9
:104DD000061E051E041E031E021E016C000E02228A
:104DE00003220422052206220722082201C001F024
:104DF00002C002F003C003F004C004F005C005F0D7
:104E000006C006F007C007F008C008F0120060C036
:104E100059F061C05AF007EC31F059C064F05AC043
:104E200065F05BC066F05CC067F064C01AF065C0F6
:104E30001BF066C01CF067C01DF0000E1E6E000E59
:104E40001F6EC80E206E420E216EADEC1CF01AC013
:104E50006AF01BC06BF01CC06CF01DC06DF06AC026
:104E600001F06BC002F06CC003F06DC004F03CECCC
:104E700028F001C068F002C069F06AC043F06BC05E
:104E800044F06CC045F06DC046F068C001F069C0E8
:104E900002F0000E02BEFF0E036E046E010E65EC02
:104EA00022F001C047F002C048F003C049F004C03E
:104EB0004AF0E3EC2FF043C06AF044C06BF045C009
:104EC0006CF046C06DF0000E1E6E000E1F6E400EA0
:104ED000206E400E216E000E056E000E066EA00EB6
:104EE000076E400E086E6AC001F06BC002F06CC025
:104EF00003F06DC004F098EC1AF001C01AF002C083
:104F00001BF003C01CF004C01DF0ADEC1CF01AC077
:104F100033F01BC034F01CC035F01DC036F068C043
:104F200001F069C002F0000E02BEFF0E036E046EB7
:104F3000010E65EC22F001C037F002C038F003C06A
:104F400039F004C03AF0EAEC15F033C06AF034C02E
:104F50006BF035C06CF036C06DF06AC060F06BC0AD
:104F600061F06CC062F06DC063F01200000E0A6E5A
:104F700008BEBFEF27F0BDEF27F0C9EF27F0081EEE
:104F8000071E061E056C000E062207220822010ECF
:104F90000A6E04BED0EF27F0CEEF27F0DAEF27F04D
:104FA000041E031E021E016C000E022203220422B4
:104FB000010E0A1A000E0B6E000E0C6E000E0D6E26
:104FC000000E0E6E0550061007100810D8B4EBEF57
:104FD00027F0EDEF27F023EF28F0010E096EF7EF31
:104FE00027F0D8900536063607360836092A08AE67
:104FF000FCEF27F0FEEF27F0F1EF27F0D8900B360B
:105000000C360D360E360550015C0650025807501E
:10501000035808500458D8A010EF28F012EF28F0D9
:105020001BEF28F00550015E0650025A0750035A44
:105030000850045A0B80D8900832073206320532E5
:10504000092EFEEF27F00A50D8B429EF28F02BEFF5
:1050500028F033EF28F00E1E0D1E0C1E0B6C000EF8
:105060000C220D220E220BC001F00CC002F00DC06C
:1050700003F00EC004F01200033404340A6E0A5028
:10508000D8A445EF28F047EF28F051EF28F0000EA4
:10509000016E000E026E000E036E000E046EBEEF77
:1050A00028F001C005F002C006F003C007F004C0FC
:1050B00008F0200E61EF28F0D8900832073206324F
:1050C0000532E82E5CEF28F00550096E038EFF0EC6
:1050D0000116FF0E0216FF0E0316000E0416960EA2
:1050E0000A5E0ABE78EF28F076EF28F08EEF28F0FF
:1050F0000A50800A970FD8B080EF28F082EF28F08E
:1051000084EF28F047EF28F0D890043203320232BF
:1051100001320A3E84EF28F0A6EF28F01F0E0A6441
:1051200094EF28F096EF28F09EEF28F047EF28F054
:10513000D89001360236033604360A060A50D8A43F
:10514000A4EF28F0A6EF28F098EF28F00950D8B483
:10515000ACEF28F0AEEF28F0B6EF28F0041E031EE7
:10516000021E016C000E02220322042201C001F083
:1051700002C002F003C003F004C004F01200000EED
:105180001A14226E000E1B14236E800E1C14246E43
:105190007F0E1D14256E2250231024102510D8A434
:1051A000D4EF28F0D6EF28F0DEEF28F0000E1A6ECC
:1051B000000E1B6E000E1C6E000E1D6E000E1E14E7
:1051C000226E000E1F14236E800E2014246E7F0E9C
:1051D0002114256E2250231024102510D8A4F3EF9B
:1051E00028F0F5EF28F0FDEF28F0000E1E6E000EFF
:1051F0001F6E000E206E000E216E1DAE02EF29F014
:1052000004EF29F00DEF29F01A6C1B1ED8B01B2AF1
:105210001C1ED8B01C2A800E1D5621AE12EF29F09C
:1052200014EF29F01DEF29F01E6C1F1ED8B01F2AA5
:10523000201ED8B0202A800E2156000E1A1A000E09
:105240001B1A000E1C1A800E1D1A000E1E1A000ECC
:105250001F1A000E201A800E211A1E501A5C1F50B1
:105260001B5820501C5821501D58D8B03AEF29F037
:105270003CEF29F03FEF29F0D89040EF29F0D8809B
:105280001200F2C00BF0F3C00CF0F4C00DF0F5C04A
:105290000EF001C00BF002C00CF003C00DF004C012
:1052A0000EF00BC005F00CC006F00DC007F00EC0EC
:1052B00008F0180E61EF29F0D89008320732063254
:1052C0000532E82E5CEF29F00550096E0A6A095094
:1052D0000A10D8A46EEF29F070EF29F090EF29F0B2
:1052E000D8900B34056E0C34066E0D34076E0E34F8
:1052F000086E0550061007100810D8A482EF29F098
:1053000084EF29F08AEF29F0000E026E020E016E82
:10531000BFEF29F0000E026E030E016EBFEF29F001
:1053200009280A10D8A497EF29F099EF29F0BBEFCC
:1053300029F00BC005F00CC006F00DC007F00EC040
:1053400008F0090ED8900536063607360836E82EDE
:10535000A2EF29F00550061007100810D8B4B3EFDB
:1053600029F0B6EF29F0010EB7EF29F0000E016E1B
:10537000026ABFEF29F0000E026E040E016E1200E9
:1053800001C008F002C009F003C00AF004C00BF02D
:105390000506D8A00606052806E10628D8A4D3EFFE
:1053A00029F0D5EF29F0E2EF29F0000E026E000E91
:1053B000016E2AEF2AF0084A092A0A4A0B2A050632
:1053C000D8A0060608C0D9FF09C0DAFFDF50D8B45C
:1053D000ECEF29F0EEEF29F019EF2AF00AC0F6FF02
:1053E0000BC0F7FF0800F5500009D8B4FAEF29F018
:1053F000FCEF29F019EF2AF005500610D8B403EF9E
:105400002AF005EF2AF019EF2AF008C0D9FF09C0E9
:10541000DAFFDF50076E0AC0F6FF0BC0F7FF080087
:10542000F5500718D8B417EF2AF019EF2AF0DBEF80
:1054300029F008C0D9FF09C0DAFFDF50076E0AC0A3
:10544000F6FF0BC0F7FF0800F550075C016E026A1B
:10545000D8A00206120001C0D9FF02C0DAFF470E31
:10546000DE18D8B436EF2AF038EF2AF094EF2AF09D
:10547000000E0B6E000E0A6E000E0F6E000E0E6E0A
:10548000000E0D6E000E0C6E5DEF2AF00E50076ED2
:105490000F50086E0E4A0F2A07500124D96E08508B
:1054A0000220DA6E2C0EDE18D8A459EF2AF05BEF3A
:1054B0002AF05DEF2AF00A4A0B2A03500A1807E186
:1054C00004500B18D8A467EF2AF069EF2AF046EFD2
:1054D0002AF07DEF2AF00E500124D96E0F500220E1
:1054E000DA6E0C500524E16E0D500620E26EDFCF1F
:1054F000E7FF0E4A0F2A0C4A0D2A0E500124D96EDE
:105500000F500220DA6E2C0EDE18D8A48AEF2AF093
:105510008CEF2AF06BEF2AF00C500524D96E0D5059
:105520000620DA6E000EDF6E120003500410D8B4AD
:105530009CEF2AF09EEF2AF0A7EF2AF00350041008
:10554000D8A4A5EF2AF0A7EF2AF0ACEF2AF001507B
:105550007FEC31F0F9EF2AF020EE04F00350D92669
:105560000450DA22DE50DE10D8B4B9EF2AF0BBEFD7
:105570002AF0D6EF2AF020EE04F00350D92604508A
:10558000DA2210EE02F00350E1260450E222DE504F
:10559000E65CE650800A096EDE50800A0958D8B0F1
:1055A000D4EF2AF0D6EF2AF0F9EF2AF020EE02F03D
:1055B0000350D9260450DA22DECF05F0DDCF06F005
:1055C00003C0D9FF04C0DAFFDECF07F0DDCF08F05B
:1055D00005500724D96E06500820DA6E01C0DFFF9F
:1055E00020EE02F00350D9260450DA22DE2A000E03
:1055F000DD2212000001FCA100EF2BF002EF2BF0E6
:105600000CEF2BF013C00AF014C00BF011C00CF01B
:1056100012C00DF006EC30F016BE11EF2BF013EFB8
:105620002BF019EF2BF015C01AF016C01BF01DEF70
:105630002BF0000E1B6E000E1A6E000E196E000E7F
:10564000186E2FEF2BF0000E026E200E016E11C0AF
:1056500003F012C004F095EC2AF0184A192A1A50E7
:10566000185C1950800A176E1B50800A1758D8A072
:105670003CEF2BF03EEF2BF023EF2BF00001FCB1C1
:1056800044EF2BF046EF2BF050EF2BF013C00AF055
:1056900014C00BF011C00CF012C00DF006EC30F08D
:1056A00013C001F014C002F0D4EC30F01A50012401
:1056B000116E1B500220126E1200000E066E04BE08
:1056C00066EF2BF064EF2BF06CEF2BF0036C041EF5
:1056D000D8B0042A010E066E02BE73EF2BF071EFF4
:1056E0002BF079EF2BF0016C021ED8B0022A010ECC
:1056F000061A000E086E000E076E03500410D8B490
:1057000084EF2BF086EF2BF0AEEF2BF0010E056E41
:105710008EEF2BF0D89003360436052A04AE93EFB3
:105720002BF095EF2BF08AEF2BF0D8900736083648
:105730000350015C04500258D8A0A1EF2BF0A3EF56
:105740002BF0A8EF2BF00350015E0450025A0780A3
:10575000D89004320332052E95EF2BF00650D8B4C2
:10576000B4EF2BF0B6EF2BF0BAEF2BF0076C081E5E
:10577000D8B0082A07C001F008C002F01200000EDD
:105780000E6E0ABEC8EF2BF0C6EF2BF0CEEF2BF05B
:10579000096C0A1ED8B00A2A010E0E6E0CBED5EF97
:1057A0002BF0D3EF2BF0D9EF2BF00B6C0C1ED8B0F5
:1057B0000C2A0B500C10D8B4E0EF2BF0E2EF2BF0DA
:1057C00006EF2CF0010E0D6EEAEF2BF0D8900B36A1
:1057D0000C360D2A0CAEEFEF2BF0F1EF2BF0E6EFCD
:1057E0002BF00B50095C0C500A58D8A0FAEF2BF0A4
:1057F000FCEF2BF000EF2CF00B50095E0C500A5A16
:10580000D8900C320B320D2EF1EF2BF00E50D8B495
:105810000CEF2CF00EEF2CF012EF2CF0096C0A1E9E
:10582000D8B00A2A09C009F00AC00AF01200000E16
:105830000114096E000E02140A6E800E03140B6E22
:105840007F0E04140C6E09500A100B100C10D8A413
:105850002CEF2CF02EEF2CF036EF2CF0000E016E1A
:10586000000E026E000E036E000E046E000E051494
:10587000096E000E06140A6E800E07140B6E7F0E62
:1058800008140C6E09500A100B100C10D8A44BEF22
:105890002CF04DEF2CF055EF2CF0000E056E000EA5
:1058A000066E000E076E000E086E055001180FE11F
:1058B000065002180CE10750031809E108500418BB
:1058C000D8B465EF2CF067EF2CF06AEF2CF0D8908D
:1058D0006BEF2CF0D8801200C30EC216C282C282B7
:1058E000C2B275EF2CF077EF2CF070EF2CF0C350B4
:1058F000C4CF1CF01D6A1CC01DF01C6A1C26000EC3
:105900001D221CC001F01DC002F0000E02BEFF0EE1
:10591000036E046E010E65EC22F01AC0D9FF1BC0A5
:10592000DAFF01C0DEFF02C0DEFF03C0DEFF04C0FD
:10593000DEFF1AC0D9FF1BC0DAFFDECF01F0DECFD9
:1059400002F0DECF03F0DECF04F0100E056E400E45
:10595000066EFA0E076E3E0E086E98EC1AF01AC02C
:10596000D9FF1BC0DAFF01C0DEFF02C0DEFF03C0AB
:10597000DEFF04C0DEFF1200F5EF2CF0DA0EB86F88
:10598000000EB96F380EBA6F080EBB6FD6C0BCF0F0
:10599000D7C0BDF06AEC2FF078EC31F0010E046E48
:1059A000010E1DEC2EF0170E056E080E066E00ECB3
:1059B0002DF0010E046E020E1DEC2EF0DA0E056EB7
:1059C000000E066E00EC2DF0060E0001D96F130ECE
:1059D000D86FAD0EE82EFED7D82FFCD7D92FFAD727
:1059E00000D00001D607D8A0D7070001D651D711A3
:1059F000D8A4FDEF2CF0FFEF2CF0BEEF2CF012003E
:105A0000000E0A6E000E096E20EF2DF009500524DD
:105A1000076E0A500620086E07C0F6FF08C0F7FFA1
:105A2000F86A070EF76403D00800F55005D0F6CFEA
:105A3000E1FFF7CFE2FFE75048EC30F0094A0A2ACD
:105A400009500524076E0A500620086E07C0F6FFAD
:105A500008C0F7FFF86A070EF76403D00800F55096
:105A600005D0F6CFE1FFF7CFE2FFE7500009D8A459
:105A70003CEF2DF03EEF2DF006EF2DF01200000E62
:105A80003CEC2FF01A0E046EF80EE82EFED7042E12
:105A9000FCD700D0030E3EEC31F0070E046E7D0EF5
:105AA000E82EFED7042EFCD700F0030E3EEC31F0BA
:105AB0000F0E046E480EE82EFED7042EFCD7030E00
:105AC0003EEC31F0020E3EEC31F0020E3EEC31F0D5
:105AD000080E3EEC31F0000E3EEC31F00C0E3EECC8
:105AE00031F0000E3EEC31F0060E3EEC31F01200CB
:105AF000010E076ED00E036EFF0E046E01C005F09E
:105B000002C006F00350052604500622065009E1A3
:105B10000A0E055CD8A08FEF2DF091EF2DF0ACEFC1
:105B20002DF09F0E036EFF0E046E200E0110056E09
:105B3000000E0210066E0350052604500622065081
:105B400009E1060E055CD8A0A8EF2DF0AAEF2DF014
:105B5000ACEF2DF0000E076E07C001F0026A1200D4
:105B6000949C948E100E056E000E066E000E076E4D
:105B7000000E086E000E016E090E026E3D0E036EE1
:105B8000000E046EB6EC27F001C017F002C018F04A
:105B900003C019F004C01AF017C001F018C002F0D9
:105BA00019C003F01AC004F00FC005F010C006F0D1
:105BB00011C007F012C008F0B6EC27F00104AF6E78
:105BC000AC84AC98AB8EAC9CAC8AAB9CAB8812001E
:105BD000000E096E000E0A6E000E0B6E000E0C6EAB
:105BE00001A0F5EF2DF0F7EF2DF0FFEF2DF00550B0
:105BF000092606500A2207500B2208500C22D89082
:105C00000536063607360836D8900432033202329B
:105C100001320150021003100410D8A412EF2EF02C
:105C200014EF2EF0F0EF2DF009C001F00AC002F0E1
:105C30000BC003F00CC004F01200056E0504D8A4DC
:105C400024EF2EF026EF2EF037EF2EF004507F0FCA
:105C5000086E08380F0B066E08500F0B076E0650C3
:105C60003EEC31F007503EEC31F04FEF2EF0020EDB
:105C70000518D8A43EEF2EF040EF2EF04FEF2EF097
:105C80000450BF0F086E08380F0B066E08500F0B3C
:105C9000076E06503EEC31F007503EEC31F012003A
:105CA000B4C05DF0B5C05EF0000E0001F76F000EED
:105CB000F66F6EEF2EF0B2C057F0B3C058F05D0E25
:105CC000596E000E5A6EB6C05BF0B7C05CF0DBECEC
:105CD00012F057500001F6275850F7235DC0F6FF29
:105CE0005EC0F7FF0800F5500009D8A47AEF2EF047
:105CF0007CEF2EF05BEF2EF0F6C0B2F0F7C0B3F001
:105D00001200BF0E096EFF0E0A6E07C00BF008C02E
:105D10000CF009500B260A500C220C500AE11A0E06
:105D20000B5CD8A096EF2EF099EF2EF0010E9AEFB3
:105D30002EF0000E0D6E0E6A0D500E10D8B4A3EFAB
:105D40002EF0A5EF2EF0ACEF2EF0200E0710076E10
:105D50000850086EB0EF2EF007C007F008C008F03A
:105D600012009F0E096EFF0E0A6E07C00BF008C0EE
:105D70000CF009500B260A500C220C500AE11A0EA6
:105D80000B5CD8A0C6EF2EF0C9EF2EF0010ECAEFC3
:105D90002EF0000E0D6E0E6A0D500E10D8B4D3EF1B
:105DA0002EF0D5EF2EF0DBEF2EF05F0E0714076E0E
:105DB000086ADFEF2EF007C007F008C008F01200F5
:105DC00003C007F004C008F001C009F002C00AF0E7
:105DD0000750056E0850066E074A082A05C0F6FFF0
:105DE00006C0F7FFF86A09C0D9FF0AC0DAFF094AFE
:105DF0000A2A070EF76403D00800F55005D0F6CF45
:105E0000E1FFF7CFE2FFE750DF6EDF50D8A40BEFE2
:105E10002FF00DEF2FF0E8EF2EF012000001F851F7
:105E2000F911D8A416EF2FF018EF2FF01EEF2FF076
:105E3000F8C01FF0F9C020F024EF2FF0FF0EF82576
:105E40001F6EFF0EF921206E1EC000F2000E02012F
:105E5000016F1CC011F01DC012F0000E136E020E77
:105E6000146E1FC015F020C016F0FAEC2AF011C015
:105E70001CF012C01DF01200016E01A042EF2FF0C5
:105E800044EF2FF047EF2FF08C8848EF2FF08C98DD
:105E900001A24DEF2FF04FEF2FF052EF2FF08C8A31
:105EA00053EF2FF08C9A01A458EF2FF05AEF2FF0F8
:105EB0005DEF2FF08C8C5EEF2FF08C9C01A663EFD2
:105EC0002FF065EF2FF068EF2FF08C8E69EF2FF039
:105ED0008C9E1200BC0E0001CE6F000ECF6FB8C0BA
:105EE000D0F0B9C0D1F0000ED36F000ED26F000E0B
:105EF000D56F000ED46FD00EB26F000EB36FBAC064
:105F0000B4F0BBC0B5F0CE0EB66F000EB76F50EC5C
:105F10002EF00001D251B825D96ED351B921DA6ED5
:105F2000000EDF6E1200010E076E200E0118021027
:105F3000D8B49DEF2FF09FEF2FF0B8EF2FF0F70EB2
:105F4000036EFF0E046E01C005F002C006F00350A0
:105F5000052604500622065009E1050E055CD8A06E
:105F6000B4EF2FF0B6EF2FF0B8EF2FF0000E076E62
:105F700007C001F0026A12009C0EF66E620EF76E08
:105F8000000EF86E01EEDAF010EE19F00900F5CF10
:105F9000EEFFE550E150FAE102EE00F0500EEE6A3D
:105FA000E806FDE10101F76BF66BF56BF46BF36B43
:105FB00000EEF2F00C0EEE6AE806FDE1000EF86E5F
:105FC00000014AEF18F0000E471A000E481A000EA2
:105FD000491A800E4A1A43C033F044C034F045C019
:105FE00035F046C036F047C037F048C038F049C0F9
:105FF00039F04AC03AF0EAEC15F033C043F034C04F
:1060000044F035C045F036C046F01200000E106E68
:10601000000E0F6E17EF30F00EC001F0026A0CC0D8
:1060200003F00DC004F095EC2AF00F4A102A0F502F
:106030000A24D96E10500B20DA6EDF500E6E0E500F
:10604000D8A425EF30F027EF30F00CEF30F012003D
:1060500014BE35EF30F0145006E11304D8B033EF1E
:1060600030F035EF30F043EF30F013C015F014C0CE
:1060700016F0151E161E154A162A15C013F016C066
:1060800014F047EF30F013C013F014C014F01200F6
:10609000046E04500F0B026E0450F00B036E8C84E0
:1060A00003380F0B3CEC2FF08C860D0EE82EFED73C
:1060B00000F08C9602503CEC2FF08C860D0EE82EF2
:1060C000FED700F08C961200BF0E036EFF0E046E1A
:1060D00001C005F002C006F0035005260450062258
:1060E00006500AE11A0E055CD8A079EF30F07CEF7B
:1060F00030F0010E7DEF30F0000E016E026A1200EA
:106100009F0E036EFF0E046E01C005F002C006F084
:10611000035005260450062206500AE11A0E055CBB
:10612000D8A095EF30F098EF30F0010E99EF30F0F5
:10613000000E016E026A1200D00E036EFF0E046E96
:1061400001C005F002C006F00350052604500622E7
:1061500006500AE10A0E055CD8A0B1EF30F0B4EFAA
:1061600030F0010EB5EF30F0000E016E026A120041
:106170000150021003100410D8B4C1EF30F0C3EF87
:1061800030F0CBEF30F0000E011A000E021A000EB4
:10619000031A800E041A01C001F002C002F003C00D
:1061A00003F004C004F0120001C003F002C004F0C8
:1061B000DCEF30F0014A022A01C0D9FF02C0DAFF49
:1061C000DF50D8A4E6EF30F0E8EF30F0DAEF30F04F
:1061D0000350015C016E04500258026E1200FAEF87
:1061E00030F002C0D9FF03C0DAFFDF505BEC31F0C2
:1061F000024A032A02C0D9FF03C0DAFFDF50D8A445
:1062000004EF31F006EF31F0F1EF30F0120059C039
:1062100033F05AC034F0000E356E000E366E58EC76
:1062200004F033C059F034C05AF035C05BF036C0CA
:106230005CF0120001500302F3CF05F0F4CF06F03A
:1062400001500402F350062602500302F3500626C2
:1062500005C001F006C002F01200FF0E056EFF0E31
:10626000066EFF0E076E7F0E086E05C001F006C0B9
:1062700002F007C003F008C004F01200036E8C9413
:1062800003503CEC2FF08C86060E026E300EE82E8A
:10629000FED7022EFCD700D08C96120030302F3063
:1062A000302F30300030303A30303A303000286E05
:0562B000756C6C290073
:1062B600016E01C0ADFFACA263EF31F065EF31F0C6
:1062C6005EEF31F012009EAA6BEF31F06DEF31F008
