:100000000C9465000C948D000C948D000C948D0064
:100010000C948D000C948D000C948D000C948D002C
:100020000C948D000C948D000C948D000C948D001C
:100030000C948D000C948D000C948D000C948D000C
:100040000C9417100C948D000C94E7010C94C101D2
:100050000C948D000C948D000C948D000C948D00EC
:100060000C948D000C948D007C3C3E5E2B3D3F2F0C
:100070005B5D3B2C2A225C000000000800020100AE
:100080000003040700000000000000000000000062
:10009000250028002B0000000000240027002A0073
:1000A000040404040404040402020202020203031E
:1000B0000303030301020408102040800102040826
:1000C0001020010204081020201311241FBECFEFBE
:1000D000D8E0DEBFCDBF11E0A0E0B1E0ECE5FCE28E
:1000E00002C005900D92A03AB107D9F724E0A0EA2A
:1000F000B1E001C01D92AC3BB207E1F710E0C5E6EC
:10010000D0E004C02197FE010E94D514C436D10767
:10011000C9F70E9461100C942C160C940000FC018D
:10012000538D448D252F30E0842F90E0821B930B5C
:10013000541710F0CF96089501970895FC01918D02
:10014000828D981761F0828DDF01A80FB11D5D9639
:100150008C91928D9F5F9F73928F90E008958FEFA7
:100160009FEF0895FC01918D828D981731F0828D5B
:10017000E80FF11D858D90E008958FEF9FEF0895B2
:10018000FC01918D228D892F90E0805C9F4F821B16
:1001900091098F73992708958CEA93E00E94C0001B
:1001A00021E0892B09F420E0822F0895FC01848D41
:1001B000DF01A80FB11DA35ABF4F2C91848D90E091
:1001C00001968F739927848FA689B7892C93A0896C
:1001D000B1898C91837080648C93938D848D9813F6
:1001E00006C00288F389E02D80818F7D8083089589
:1001F000EF92FF920F931F93CF93DF93EC0181E077
:10020000888F9B8D8C8D981305C0E889F989808132
:1002100085FD26C0F62E0B8D10E00F5F1F4F0F736C
:100220001127E02E8C8DE8120CC00FB607FCFACF18
:10023000E889F989808185FFF5CFCE010E94D6003B
:10024000F1CF8B8DFE01E80FF11DE35AFF4FF082D5
:100250009FB7F8940B8FEA89FB89808180620AC07E
:100260009FB7F894EE89FF896083E889F9898081D6
:100270008370806480839FBF81E090E0DF91CF91A5
:100280001F910F91FF90EF900895CF93DF93EC01B2
:10029000888D8823C9F0EA89FB89808185FD05C0A6
:1002A000A889B9898C9186FD0FC00FB607FCF5CFE0
:1002B000808185FFF2CFA889B9898C9185FFEDCF28
:1002C000CE010E94D600E7CFDF91CF91089580E064
:1002D00090E0892B29F00E94CC0081110C94000041
:1002E0000895DC015996ED91FC915A973097B9F039
:1002F00083899489A589B6894285538564857585E6
:10030000841B950BA60BB70B811520E89207A1055E
:10031000B10538F08FEF9FE7A0E0B0E0089580E0EE
:1003200090E00895CF93DF931F92CDB7DEB7698336
:10033000DC01ED91FC910280F381E02D41E050E081
:10034000BE016F5F7F4F09950F90DF91CF910895A8
:10035000089580E090E008956115710579F0FB0142
:1003600001900020E9F73197AF01461B570BDC01E4
:10037000ED91FC910280F381E02D099480E090E002
:1003800008951F920F920FB60F9211242F933F934F
:100390004F935F936F937F938F939F93AF93BF938D
:1003A000EF93FF938CEA93E00E94D600FF91EF91C8
:1003B000BF91AF919F918F917F916F915F914F917D
:1003C0003F912F910F900FBE0F901F9018951F9285
:1003D0000F920FB60F9211242F938F939F93EF9349
:1003E000FF93E091BC03F091BD038081E091C203D3
:1003F000F091C30382FD12C090818091C5038F5F8D
:100400008F732091C603821751F0E091C503F0E08D
:10041000E455FC4F958F8093C50301C08081FF9107
:10042000EF919F918F912F910F900FBE0F901F9082
:1004300018958FB7F8948091A1018FBF089561E05E
:10044000FC0184810E94BE0F8091A0018111109255
:10045000A00108958EBD00000DB407FEFDCF8EB53E
:1004600008958FEF0C942A020F931F93CF93DF937D
:10047000EB010E940B108B010E9431028F3F49F06B
:100480000E940B10601B710B6C177D07A8F380E0B6
:1004900001C081E0DF91CF911F910F910895CF931B
:1004A000DF93EC018E81882389F08F8198859C01F0
:1004B0002F5F3F4F38872F838230924018F40E947D
:1004C0003102F3CFCE010E941F021E82DF91CF9135
:1004D00008958CBD9DBD0895CF93DF93EC0180916D
:1004E000A001811109C081E08093A001809149049D
:1004F00090914A040E94690260E08C81DF91CF9163
:100500000C94BE0F8F929F92AF92BF92FF920F9367
:100510001F93CF93DF93EC01F62E49015A010E94FD
:100520004F02CE010E946C026CE271E0CE010E948B
:1005300034028F2D80640E942A0208E110E0D50168
:10054000C401002E04C0B695A795979587950A9487
:10055000D2F70E942A0208501109083F8FEF1807AE
:1005600071F7FF2029F088E0F81204C087E803C083
:1005700085E901C08FEF0E942A0210E00E9431023B
:100580008A8787FF04C01F3F11F01F5FF7CFDF91FD
:10059000CF911F910F91FF90BF90AF909F908F9040
:1005A0000895AF92BF92CF92DF92EF92FF920F9396
:1005B0001F93CF93DF93EC016901C801820F931F52
:1005C0008130924008F070C08E81882371F088815C
:1005D0009981AA81BB8184179507A607B70729F4DB
:1005E0008F819885C816D906B0F5488359836A83E8
:1005F0007B838B85833039F089E0440F551F661F5C
:10060000771F8A95D1F79A01AB0161E1CE010E9473
:100610008202882319F083E08D8346C00E940B106C
:100620005B010E9431028A878F3F49F40E940B10C0
:100630006A197B096D327140A0F38FE003C08E3FD1
:1006400031F08DE08D83CE010E941F022DC01886EF
:100650001F8281E08E838F8198858C159D0540F4E3
:100660000E9431028F819885019698878F83F3CFFE
:100670006701E00EF11EEC14FD0431F00E9431021E
:10068000F60181936F01F7CF8F819885080F191FAD
:1006900018870F838985882319F00115124048F0C7
:1006A000CE010E944F0205C0CE010E941F0280E0D1
:1006B00001C081E0DF91CF911F910F91FF90EF90EA
:1006C000DF90CF90BF90AF900895EF92FF920F937D
:1006D0001F93CF93DF93EC0179014115510561051B
:1006E000710511F482E13CC08B85833039F089E0DB
:1006F000440F551F661F771F8A95D1F79A01AB01EA
:1007000068E1CE010E948202882311F084E028C0B3
:100710008EEF0E942A0287018EEFF81AF80181916C
:100720008F010E942A02E016F106C1F78FEF0E94A6
:100730002A028FEF0E942A020E9431028A878F715B
:10074000853031F081E18D83CE010E941F0209C006
:1007500068E572E0CE010E943402811107C085E194
:100760008D83CE010E941F0280E014C020E030E0A3
:10077000A9016DE0CE010E948202811109C00E9490
:100780003102811105C0CE010E941F0281E002C02A
:1007900084E1E6CFDF91CF911F910F91FF90EF9011
:1007A00008958091A2018823A9F140910001509100
:1007B000010160910201709103012AEA31E0809108
:1007C000AA039091AB030E946503811102C080E0EF
:1007D00008954091A3015091A4016091A5017091E9
:1007E000A601411551056105710591F02AEA31E034
:1007F0008091AA039091AB030E946503882339F38B
:100800001092A3011092A4011092A5011092A601CA
:100810001092A20181E008958F929F92AF92BF92B1
:10082000EF92FF920F931F93CF934B015C01C42F64
:100830008091000190910101A0910201B09103010A
:1008400088159905AA05BB0501F10E94D103811104
:1008500002C080E020C08AEAE82E81E0F82E00E0A5
:1008600012E020E030E0B501A4018091AA0390914C
:10087000AB030E94D102882361F380920001909221
:100880000101A0920201B09203018091A201C82B44
:10089000C093A20181E0CF911F910F91FF90EF9043
:1008A000BF90AF909F908F9008954F925F926F92FC
:1008B0007F928F929F92AF92BF92CF92DF92EF92F0
:1008C000FF920F931F93CF93DF93EC0142305105BA
:1008D0006105710510F480E078C089859A85AB8543
:1008E000BC850196A11DB11D84179507A607B70702
:1008F00090F3CB88DC88ED88FE888F89803129F4DD
:10090000BB27A72F962F852F09C0DB01CA01E7E07F
:10091000B695A79597958795EA95D1F7480159011E
:100920002A013B01C80ED91EEA1EFB1E8091000160
:1009300090910101A0910201B0910301C816D9065E
:10094000EA06FB0681F48F898031A9F4B301A20184
:10095000552766277727440F551FFA01E655FE4FA6
:100960009182808219C040E0C701B6010E940C0448
:100970008111E9CFB0CFB301A2014F775527662788
:100980007727440F551F440F551FFA01E655FE4FB8
:1009900080829182A282B3828091A2018160809341
:1009A000A2018A89823080F08D819E81AF81B885D5
:1009B000C80ED91EEA1EFB1EC092A301D092A4014C
:1009C000E092A501F092A60181E0DF91CF911F9105
:1009D0000F91FF90EF90DF90CF90BF90AF909F90DE
:1009E0008F907F906F905F904F9008958F929F921D
:1009F000AF92BF92CF92DF92EF92FF920F931F932D
:100A0000CF93DF93FC0181859285A385B485019600
:100A1000A11DB11D84179507A607B70710F480E044
:100A20005BC083889488A588B6888789803129F43B
:100A3000BB27A72F962F852F09C0DB01CA01C7E06E
:100A4000B695A79597958795CA95D1F7E9016A015B
:100A50007B018F01BC01CD01680D791D8A1D9B1D95
:100A60008090000190900101A0900201B0900301DC
:100A7000681579058A059B0591F4F801878980310D
:100A8000A1F4DD24EE24FF24C601880F991FFC0188
:100A9000E655FE4F80819181A0E0B0E018C040E0B3
:100AA0000E940C048111E9CFBACFE894C7F8DD2485
:100AB000EE24FF24C601880F991F880F991FFC019F
:100AC000E655FE4F80819181A281B381BF708883FA
:100AD0009983AA83BB8381E0DF91CF911F910F910E
:100AE000FF90EF90DF90CF90BF90AF909F908F904E
:100AF00008958F929F92AF92BF92CF92DF92EF9222
:100B0000FF920F931F93CF93DF93EC018D8181119F
:100B100002C080E078C00B891C892D893E890417AA
:100B2000150726073707A8F36A017B01823029F4ED
:100B3000CA86DB86EC86FD860DC0C114D104E104B3
:100B4000F10451F41E821F82188619861A861B86AC
:100B50001C861D8681E057C08A849B84AC84BD843A
:100B6000EB8DFC8D258530E0275F3F4FB501A4015B
:100B70004150510961097109022E04C076956795AB
:100B8000579547950A94D2F7D701C6010197A10955
:100B9000B10904C0B695A795979587952A95D2F780
:100BA00084179507A607B70720F089288A288B287D
:100BB00071F44F89588D698D7A8D4E835F83688774
:100BC00079874C015D018E010A5F1F4F16C0841B9F
:100BD000950BA60BB70BF5CF4E815F8168857985A4
:100BE00098018B8D9C8D0E94F60491E0891A9108E2
:100BF000A108B108882309F48CCF81149104A104C1
:100C0000B10451F795CFDF91CF911F910F91FF90D4
:100C1000EF90DF90CF90BF90AF909F908F9008950E
:100C20003F924F925F926F927F928F929F92AF927C
:100C3000BF92CF92DF92EF92FF920F931F93CF93C9
:100C4000DF93CDB7DEB72C970FB6F894DEBF0FBE9B
:100C5000CDBF5C01DC015B968D909C905C971696F5
:100C6000CD90DD90ED90FC901997C114D104E10472
:100C7000F10439F0BFEFCB1ADB0AEB0AFB0A312C87
:100C800007C0F401C080D180E280F3803324339424
:100C9000F40181859285A385B4859C01AD012F5F08
:100CA0003F4F4F4F5F4F29873A874B875C8726011D
:100CB00037011D821E821F821886F401818592856C
:100CC000A385B4852D813E814F815885281739072A
:100CD0004A075B0708F063C089859A85AB85BC85A8
:100CE0008C159D05AE05BF0550F482E0C82ED12CB1
:100CF000E12CF12C92E0492E512C612C712C9E019B
:100D00002F5F3F4FB701A601C4010E94F60488235C
:100D100009F445C089819A81AB81BC81892B8A2BDA
:100D20008B2B41F0260137019FEF491A590A690AB6
:100D3000790A05C0C414D504E604F70491F02D81A6
:100D40003E814F8158852F5F3F4F4F4F5F4F2D831F
:100D50003E834F8358873FEFC31AD30AE30AF30A4F
:100D6000ACCF0FEF1FEF2FEF3FE0B301A201C401A3
:100D70000E945504882399F0D50116964D915D91F6
:100D80006D917C911997411551056105710549F0E7
:100D900093018201C4010E945504811102C080E0C8
:100DA0002AC0D50116964D925D926D927C9219974C
:100DB000332051F0D301C2010196A11DB11DF401F0
:100DC00080839183A283B383F5018789908DA18D60
:100DD000B28D892B8A2B8B2B69F4D50157964D92B6
:100DE0005D926D927C925A9714968C9114978068BC
:100DF00014968C9381E02C960FB6F894DEBF0FBE4C
:100E0000CDBFDF91CF911F910F91FF90EF90DF90B9
:100E1000CF90BF90AF909F908F907F906F905F909A
:100E20004F903F9008954F925F926F927F92AF9252
:100E3000BF92CF92DF92EF92FF920F931F93CF93C7
:100E4000DF931F92CDB7DEB7FC012581222309F481
:100E5000C1C0848180FFBEC083899489A589B68979
:100E6000428453846484758484159505A605B7056A
:100E700009F4B0C06F015201F1E0BF22D6015B96C8
:100E80008D919C915C97B301A20139E076956795AD
:100E9000579547953A95D1F7223071F4FC01828D30
:100EA000938DA48DB58D8A019B01080F191F2A1FF0
:100EB0003B1FC901B8014AC0DC0114961C911150B6
:100EC0001423A114B104F9F411111DC045284628BA
:100ED000472851F4F6018789908DA18DB28D8683C4
:100EE0009783A087B1870FC0D60116964D915D916B
:100EF0006D917C91199796012A5F3F4F0E94F604ED
:100F0000882309F467C0F601238D348D868197818B
:100F1000A085B1850297A109B109AC01BD01F90114
:100F2000058404C0440F551F661F771F0A94D2F72B
:100F300086859785A089B189840F951FA61FB71F45
:100F4000BC01CD01610F711D811D911DD60114964B
:100F50002C9126FF0DC0409000015090010160903F
:100F6000020170900301461657066806790699F447
:100F700040E00E940C04882369F1F501E655FE4F1C
:100F8000DE0111969F012F5F3F4F2E173F0799F00B
:100F900081918D93FACFFE0131967F0101E010E03F
:100FA0009501AB01BC018091AA039091AB030E9413
:100FB000D102882379F0F60182859385A485B585D1
:100FC0000196A11DB11D82879387A487B58789816A
:100FD00090E002C08FEF9FEF0F90DF91CF911F91B4
:100FE0000F91FF90EF90DF90CF90BF90AF907F90E8
:100FF0006F905F904F900895FC01818D928D0097C6
:1010000011F00C9413078FEF9FEF08950F931F9328
:10101000CF93DF93FC01818D928D0097B9F0EF01A2
:101020000E9413078C010F3F8FEF180791F0898DF5
:101030009A8DFC014285538564857585415051091F
:10104000610971090E947905C80105C080E090E03E
:1010500002C08FEF9FEFDF91CF911F910F91089505
:10106000CF93DF93EC018D81882379F18C8187FF09
:1010700028C06E857F858889998941E00E940C048B
:10108000882319F1EA8980E2E89FF0011124E655EE
:10109000FE4F3097D1F08D81823040F48B899C894E
:1010A000AD89BE89848F958FA68FB78F8F89988DD4
:1010B000A98DBA8D938F828FB58BA48B8C818F77FE
:1010C0008C83DF91CF910C94D10380E0DF91CF919D
:1010D00008958F929F92AF92BF92CF92DF92EF923C
:1010E000FF920F931F93CF93DF9300D000D0CDB723
:1010F000DEB77C0180E2689FF0011124E655FE4FC7
:101100009385917121F0842F827409F08FC0142F80
:10111000D70152966C935297409100015091010172
:1011200060910201709103011E964D935D936D9342
:101130007C9351974489558960E070E0BA01552746
:101140004427828D938DA0E0B0E0482B592B6A2B69
:101150007B2BD70157964D935D936D937C935A9754
:101160008385887159F4848D958DA68DB78DF7018F
:10117000838B948BA58BB68B81E012C0803109F0F4
:1011800055C097012D5E3F4FD7015B968D919C9185
:101190005C970E947F0D882309F448C084E0F70122
:1011A0008583812F8F70D70114968C931497F70144
:1011B00016821782108611861A961D921D921D9214
:1011C0001C921D9716FF34C015968C91813071F5D5
:1011D00011FF2CC0F7014389548965897689452B15
:1011E000462B472B09F461C040E050E0BA01C7012B
:1011F0000E9479058823D1F0F7018788908CA18C13
:10120000B28CC38CD48C82E090E0A0E0B0E0F60118
:1012100080839183A283B3839E012F5F3F4FB501EB
:10122000A401C6010E94F604811104C080E03DC003
:1012300081E03BC000E010E09801B501A401C601C7
:101240000E945504882391F389809A80AB80BC80EA
:10125000D60157968C91803129F088EF9FEFAFEF40
:10126000BFE004C088EF9FEFA0E0B0E088169906C9
:10127000AA06BB0688F2D70157961D921D921D92B1
:101280001C925A97F701138A148A158A168A848148
:1012900080688483C7010E943008882339F240E0C7
:1012A00050E0BA01C7010E9479050F900F900F908E
:1012B0000F90DF91CF911F910F91FF90EF90DF90F2
:1012C000CF90BF90AF909F908F9008952F923F92B4
:1012D0004F925F926F927F928F929F92AF92BF9246
:1012E000CF92DF92EF92FF920F931F93CF93DF93F2
:1012F000CDB7DEB72B970FB6F894DEBF0FBECDBFCC
:101300007C01FE013196CE010C966F0130E23193E3
:10131000E817F907E1F7DA0130E087E09D919923BA
:1013200031F19E3231F48A3009F46BC138E08AE041
:10133000F5CFE8E6F0E04491442321F03196941390
:10134000FACF5FC1831708F45CC14FED490F4E35EA
:1013500008F057C141E0430FF601E30FF11D3FE9EB
:10136000390F3A3108F490529083342FD7CF8981C6
:10137000803209F446C1322E8B01DB015B968D91E0
:101380009C915C97F701948F838F16961D921D9206
:101390001D921C921997FB011286138614861586DE
:1013A000B12CF80182859385A485B585438954893C
:1013B0006589768984179507A607B70708F05BC08B
:1013C00025E0B695A795979587952A95D1F7F82F9B
:1013D000FF70AF2ED80115968C91823008F411C1A0
:1013E000C8010E94130797FD0CC1F80182859385FF
:1013F000A485B5854F96A11DB11D82879387A487CB
:10140000B587F0E2AF9EB001112466557E4F61159D
:10141000710509F4F6C0DB018C91882319F0853E33
:10142000C1F4F1C0B1100EC0F701A28A8091000191
:1014300090910101A0910201B091030186879787E5
:10144000A08BB18BDB018C91882399F0BB24B394E2
:10145000A8CF4BE050E0C6010E941016892B09F07E
:10146000A0CF832D8073803309F4CBC0432D6A2D28
:10147000C4C0BB24B394832D8271823109F0C1C0F2
:10148000BB20C1F0F701668577858089918941E0AD
:101490000E940C04882309F4B4C0D70152968C91A1
:1014A000B0E28B9FC001112486559E4F009709F032
:1014B00078C0A7C0F8018581823009F4A2C0C801B4
:1014C0000E941006882309F49CC0D8015B96ED9118
:1014D000FC915C9716968D909D90AD90BC9019975D
:1014E000B2E08B1A9108A108B108058404C0880CE9
:1014F000991CAA1CBB1C0A94D2F786859785A089E3
:10150000B189880E991EAA1EBB1E2480E1E08E1AA6
:101510009108A108B108222009F124013501420CEB
:10152000511C611C711C0E94D103882309F469C0FD
:10153000EAEAF1E0119223E0EA3AF207D9F74092A1
:1015400000015092010160920201709203018091AA
:10155000A20181608093A2012A94DDCFD8015B961D
:10156000ED91FC915C9780E092E0A0E0B0E0058412
:1015700004C0880F991FAA1FBB1F0A94D2F7F80155
:101580004389548965897689840F951FA61FB71FE3
:10159000838B948BA58BB68BD70152961C928AEACB
:1015A00091E020E2FC0111922A95E9F72BE0F60187
:1015B000DC0101900D922A95E1F721E238E2DC018D
:1015C00051963C932E93509740E058E01F965C93C1
:1015D0004E931E9753963C932E93529759963C9355
:1015E0002E93589757965C934E9356970E94D1032B
:1015F000882339F0432DF7016289C7010E946908E9
:1016000005C080E003C0B11021CF0ECF2B960FB6DE
:10161000F894DEBF0FBECDBFDF91CF911F910F9128
:10162000FF90EF90DF90CF90BF90AF909F908F9002
:101630007F906F905F904F903F902F900895CF9341
:10164000DF93EC010E943008882311F01D8281E0B5
:10165000DF91CF910895FC01818D928D009711F05B
:101660000C94300808952F923F924F925F926F92A0
:101670007F928F929F92AF92BF92CF92DF92EF9222
:10168000FF920F931F93CF93DF9300D000D0CDB77D
:10169000DEB78C015B011A01DC0115968C91159760
:1016A0008130C9F414968C9181FF15C082FF1DC052
:1016B000F801438954896589768982859385A48553
:1016C000B58584179507A607B70779F0C8010E946A
:1016D000790581110AC081E090E0D80113969C93AE
:1016E0008E93129780E090E036C1610183C05B96D3
:1016F0008D919C915C97FC0174802FEF270D2A013E
:101700003B0139E076946794579447943A95D1F722
:10171000722E74207A01F1E0FF22772009F476C05E
:1017200080E092E08E199F0946018C159D0508F412
:101730004C01D8015B962D913C915C9716968D914A
:101740009D910D90BC91A02D0297A109B109F901BD
:10175000058404C0880F991FAA1FBB1F0A94D2F7E3
:101760004685578560897189840F951FA61FB71F0D
:101770009C01AD01270D311D411D511D29013A016B
:10178000811432E0930609F088C0809100019091A5
:101790000101A0910201B0910301481659066A06A1
:1017A0007B0659F48FEF9FEFDC018093000190934B
:1017B0000101A0930201B09303019501B301A201BD
:1017C0008091AA039091AB030E946503882309F4DA
:1017D00082CF9EEFB91AC818D908F801828593857F
:1017E000A485B585880D991DA11DB11D828793879C
:1017F000A487B587D8011A964D915D916D917C9122
:101800001D97C114D10409F072CF87C0E114F1040F
:1018100009F086CF16964D915D916D917C91199747
:10182000411551056105710559F457968D919D91AA
:101830000D90BC91A02D0097A105B10541F521C0E7
:101840009E012F5F3F4F0E94F604882309F44BCF7F
:1018500089819A81AB81BC81F801238D348DF90196
:101860002789203129F048EF5FEF6FEF7FE004C058
:1018700048EF5FEF60E070E084179507A607B707B1
:1018800030F0C8010E94100681114ACF24CFF80120
:1018900086839783A087B18743CFE114F10429F5AC
:1018A000D8011A964D915D916D917C911D9753963B
:1018B0008D919D910D90BC91A02D481759076A07F5
:1018C0007B0798F00E94D103882309F404CF40924B
:1018D0000001509201016092020170920301809117
:1018E000A20181608093A20108C041E0C301B2015E
:1018F0000E940C04882309F4EECED501F701E655C9
:10190000FE4F9F01280D391D2E173F0719F08D91AD
:101910008193FACFA80CB91C5ECFF8018389948912
:10192000A589B68984179507A607B70738F4438BAE
:10193000548B658B768B848180688483F8018481E5
:1019400083FD02C0C10107C0C8010E94300888237E
:1019500009F4C1CEF7CF0F900F900F900F90DF9149
:10196000CF911F910F91FF90EF90DF90CF90BF909C
:10197000AF909F908F907F906F905F904F903F902F
:101980002F900895CF93DF931F92CDB7DEB7698371
:1019900041E050E0BE016F5F7F4F0E94330B0F901C
:1019A000DF91CF910895CF93DF93EC01898D9A8DCC
:1019B000009739F481E090E09B838A8380E090E097
:1019C0000BC0FC01138212820E94330BE98DFA8D49
:1019D00022813381232B71F7DF91CF910895FC0190
:1019E000DB0112968D919C9113979383828380E201
:1019F00091E09183808314968C911497848315963B
:101A00008C911597858316964D915D916D917C9182
:101A1000199746835783608771871A964D915D9118
:101A20006D917C911D9742875387648775871E96B9
:101A30004D915D916D917C91519746875787608B51
:101A4000718B52968C915297828B53964D915D91EA
:101A50006D917C915697438B548B658B768B579603
:101A60004D915D916D917C915A97478B508F618F0D
:101A7000728F5B968D919C915C97948F838F089564
:101A8000CF92DF92EF92FF920F931F93CF93DF934A
:101A90006C017A018B01C0E0D0E0CE15DF0581F04A
:101AA000D8016D918D01D601ED91FC910190F081ED
:101AB000E02DC6010995892B11F02196EECF7E010C
:101AC000C701DF91CF911F910F91FF90EF90DF90B1
:101AD000CF9008950E940B16CF93DF93BC018CEA40
:101AE00093E00E94AC01EC016CE971E08CEA93E0B8
:101AF0000E94AC018C0F9D1FDF91CF9108954F92F2
:101B00005F926F927F92AF92BF92CF92DF92EF92ED
:101B1000FF920F931F93CF93DF9300D000D0CDB7E8
:101B2000DEB78C0149835A836B837C835901C12CB6
:101B3000D12C7601412C82E0582E612C712C4981E8
:101B40005A816B817C819E012F5F3F4FC8010E94AB
:101B5000F604882351F1D301C201F801058404C0C1
:101B6000880F991FAA1FBB1F0A94D2F7C80ED91E4F
:101B7000EA1EFB1E49815A816B817C8187898031F5
:101B800029F088EF9FEFAFEFBFE004C088EF9FEF31
:101B9000A0E0B0E0481759076A077B0780F2F5011B
:101BA000C082D182E282F38281E00F900F900F9089
:101BB0000F90DF91CF911F910F91FF90EF90DF90E9
:101BC000CF90BF90AF907F906F905F904F900895AF
:101BD000CF93DF93FC012581222311F080E049C0DF
:101BE000EC0180916E048031C1F482E08583178A14
:101BF000108E118E128E80916F0490917004A0E06F
:101C0000B0E025E0880F991FAA1FBB1F2A95D1F7C6
:101C1000838B948BA58BB68B19C08032F9F683E049
:101C200085834091710450917204609173047091A6
:101C30007404478B508F618F728F9F012D5E3F4FD1
:101C400087E594E00E947F0D882341F287E594E0C8
:101C50009C8F8B8F81E08C831E821F821886198651
:101C60001A861B861C861D861E861F86188A198A60
:101C70001A8ADF91CF9108958F929F92AF92BF926F
:101C8000CF92DF92EF92FF92CF93DF93C82F8BE436
:101C900094E09093AB038093AA03CC2369F1C53001
:101CA00010F080E00CC140E060E070E0CB010E94E9
:101CB0000C048823B1F320E1C29FC0011124865691
:101CC0009E4FFC01E254FE4F20812F7751F73C9646
:101CD00040815181628173814436510561057105EE
:101CE00000F33497C080D180E280F380C114D10426
:101CF000E104F10421F4D5CFC12CD12C760140E0D0
:101D0000C701B6010E940C04882359F28091B501E5
:101D10009091B6018115924021F6A091BA01AA23B3
:101D200009F4BFCF6091B8017091B90161157105D7
:101D300009F4B7CF2091B701222309F4B2CFA093C1
:101D4000690420935B0480E030E041E050E0C82F5C
:101D5000FA01082E02C0EE0FFF1F0A94E2F72E17B9
:101D60003F0739F08F5FC83091F789E080936404B2
:101D700098CF809364042091C0013091C101211556
:101D8000310519F040E050E008C02091CE013091BB
:101D9000CF014091D0015091D10120935C04309348
:101DA0005D0440935E0450935F0446015701860E24
:101DB000971EA11CB11C80926A0490926B04A092A1
:101DC0006C04B0926D04E091BB01F091BC01F09302
:101DD0007004E0936F04B0E00E94CA14860E971E50
:101DE000A81EB91E8092710490927204A09273048E
:101DF000B092740485E0EE0FFF1F8A95E1F7E15081
:101E0000FE4FEF2FFF27E6958E0E9F1EA11CB11CE3
:101E10008092650490926604A0926704B092680470
:101E20002091BD013091BE012115310521F0A9019C
:101E300060E070E008C04091CA015091CB01609110
:101E4000CC017091CD01D701C60188199909AA0961
:101E5000BB09840F951FA61FB71F04C0B695A79591
:101E600097958795CA95D2F7809360049093610403
:101E7000A0936204B0936304853F2FE09207A1050D
:101E8000B10510F48CE018C0853F9F4FA105B10546
:101E900010F480E111C08091D6019091D701A091FA
:101EA000D801B091D9018093710490937204A093EA
:101EB0007304B093740480E280936E0481E0DF9138
:101EC000CF91FF90EF90DF90CF90BF90AF909F9019
:101ED0008F90089590E0FC01EC54FF4F2491FC0199
:101EE000E056FF4F8491882399F090E0880F991F66
:101EF000FC01EA56FF4FA591B491FC01E457FF4F56
:101F0000859194918FB7F894EC91E22BEC938FBF6D
:101F10000895EF92FF920F931F93CF93DF93EC01FD
:101F20007B018A011B821A8288EE93E0A0E0B0E078
:101F30008C839D83AE83BF838AE491E099838883F9
:101F40008DE190E00E94EA149A8F898F009779F0D2
:101F50002DE1F701DC0101900D922A95E1F74CE0AB
:101F600050E0B801CE010C960E941D16188EDF912C
:101F7000CF911F910F91FF90EF90089590E0FC0199
:101F8000E858FF4F2491FC01EC54FF4F3491FC01C1
:101F9000E056FF4FE491EE2309F43CC0222339F1CF
:101FA000233091F038F42130A9F0223001F584B5C6
:101FB0008F7D12C0273091F02830A1F02430B9F481
:101FC000809180008F7D03C0809180008F77809307
:101FD00080000DC084B58F7784BD09C08091B000AA
:101FE0008F7703C08091B0008F7D8093B000F0E0C8
:101FF000EE0FFF1FE457FF4FA591B4919FB7F894E0
:10200000611104C08C913095382302C0EC913E2BB5
:102010003C939FBF08952FB7F8946091B4047091DA
:10202000B5048091B6049091B7042FBF08951F9214
:102030000F920FB60F9211242F933F938F939F937C
:10204000AF93BF938091B4049091B504A091B6046E
:10205000B091B7043091B30423E0230F2D3720F45F
:102060000196A11DB11D05C026E8230F0296A11DF2
:10207000B11D2093B3048093B4049093B504A0934E
:10208000B604B093B7048091AF049091B004A091CE
:10209000B104B091B2040196A11DB11D8093AF04AB
:1020A0009093B004A093B104B093B204BF91AF91E8
:1020B0009F918F913F912F910F900FBE0F901F9086
:1020C0001895CF93DF93CDB7DEB7C657D1090FB6BA
:1020D000F894DEBF0FBECDBF789484B5826084BD16
:1020E00084B5816084BD85B5826085BD85B581601C
:1020F00085BD80916E00816080936E00109281009A
:102100008091810082608093810080918100816054
:102110008093810080918000816080938000809115
:10212000B10084608093B1008091B00081608093A1
:10213000B00080917A00846080937A0080917A0068
:10214000826080937A0080917A00816080937A0027
:1021500080917A00806880937A001092C100E091AB
:10216000BC03F091BD0382E08083E091B803F0915D
:10217000B9031082E091BA03F091BB038FEC808326
:102180001092C403E091C003F091C10386E0808304
:10219000E091BE03F091BF03808180618083E09174
:1021A000BE03F091BF03808188608083E091BE030D
:1021B000F091BF03808180688083E091BE03F0913D
:1021C000BF0380818F7D808384E00E946A0F8091AD
:1021D0007A04882321F085E794E00E941F0B109277
:1021E000560410925404109251041092500484E04A
:1021F00080934F040E940B108B0180914F040E942A
:102200006A0F61E080914F040E94BE0FFFB6F89400
:102210008091A701811124C0EAEAF0E08491EEEBFD
:10222000F0E09491E82FF0E0EE0FFF1FEA56FF4F29
:10223000A591B491EC91E92321F461E08AE00E9438
:10224000BE0F8AE00E946A0F8CB580618CBD8CB590
:1022500080648CBD8DE00E946A0F8BE00E946A0F43
:102260008091A7018F5F8093A701FFBE82E58093D5
:10227000490410924A048091490490914A040E94B2
:1022800069025AE0F52E8FEF0E942A02FA94F110AB
:10229000FACF8BE494E00E946C0220E030E0A901C8
:1022A00060E08BE494E00E948202F82E8093550453
:1022B00081E0F81649F00E940B10601B710B613D24
:1022C000774058F381E056C02AEA31E040E050E020
:1022D00068E08BE494E00E94820282FF03C0F092E7
:1022E000560410C044E0F42E0E943102809355043D
:1022F000FA94F110F9CF8A3A11F082E03BC082E003
:102300008093560480915604823021F0C12CD12C48
:10231000760105C0C12CD12CE12C30E4F32E20E055
:1023200030E0A90167E38BE494E00E948202A701F8
:10233000960169E28BE494E00E9482028093550446
:10234000882349F00E940B10601B710B613D7740A0
:1023500030F388E00FC080915604823001F520E010
:1023600030E0A9016AE38BE494E00E9482028823B2
:1023700041F086E0809350048BE494E00E941F02B9
:102380002AC00E943102807C803C19F483E0809353
:1023900056040E9431020E9431020E9431028BE4F5
:1023A00094E00E941F0280E58093490410924A0441
:1023B00081E00E943C0E882349F085E794E00E946A
:1023C000E80D882341F088E591E007C080E00E9495
:1023D0003C0E8111F2CF8AE691E00E946C0D80E400
:1023E000382E98EE492E93E0592E612C712C2AE05C
:1023F000822E912CA12CB12C30927C0080917A00FD
:10240000806480937A0080917A0086FDFCCF609191
:1024100078008091790070E0782B072E000C880BF3
:10242000990B0E94AF1320E130E44AEF5EE30E9473
:1024300013140E9477137093A9016093A8011C8262
:102440001B8280E291E09A8389831E82CE010196ED
:102450000E94E80DBE016F5F7F4FCE01CF960E94B4
:10246000EF0C1DA21CA2E0E2F1E0FBA3EAA31FA275
:1024700025968FAD2597811118C0A0961FAE1EAE70
:10248000A097A4964CAE5DAE6EAE7FAEA4978AE4E4
:1024900091E06E969FAF8EAF6E97E7961FAE1EAE21
:1024A000E797A9961FAEA99729C027E145E851E013
:1024B000BE01615C7F4FCE0182960E94660988232F
:1024C000E1F2CE01CF960E941F0B4DA95EA96FA924
:1024D00078ADCE0182960E947905BE016E5D7F4F78
:1024E000CE0101960E94EF0C45E851E0BE016F5FFE
:1024F0007F4FCE01845A9F4F0E94890FA0968EADC8
:102500009FADA0979093970480939604A4968CAD6A
:102510009DADAEADBFADA497809398049093990400
:10252000A0939A04B0939B04A8968CAD9DADAEADDC
:10253000BFADA89780939C0490939D04A0939E04A4
:10254000B0939F04ACE5B0E0AC0FBD1F1C96E0EA71
:10255000F4E08D91819394E0ED3AF907D1F7E79695
:10256000EEADFFADE797F093AE04E093AD04309786
:1025700009F45FC08581882309F45BC083E991E099
:102580000E946C0D2091A8013091A9016901330FBF
:10259000EE08FF08F7FE20C06DE284E994E00E9497
:1025A000920122273327A9012C193D094E095F0901
:1025B00019A28E010F5D1F4FCA01B901A501940137
:1025C0000E94A814605DF80162938F012115310506
:1025D0004105510589F715C0A701960119A28E0181
:1025E0000F5D1F4FCA01B901A50194010E94A814F3
:1025F000605DF80162938F01211531054105510598
:1026000089F7B80184E994E00E94AC018091AD049F
:102610009091AE04009789F00E941F0B8091AD0449
:102620009091AE040E9482151092AE041092AD04F7
:1026300004C088E991E00E946C0D0E946701DCCE25
:10264000ECEAF3E01382128288EE93E0A0E0B0E0BF
:1026500084839583A683B7832EE031E03183208382
:1026600025EC30E03587248724EC30E03787268757
:1026700020EC30E0318B208B21EC30E0338B228B4F
:1026800022EC30E0358B248B26EC30E0378B268B28
:10269000118E128E138E148EE9E4F4E020E520836F
:1026A0001182EBE4F4E0158216821186138642E073
:1026B00050E060E070E0448755876687778713A213
:1026C00015A614A620E231E033A722A717A6E4E955
:1026D000F4E01382128284839583A683B7838AE40D
:1026E00091E091838083128E118E148608950E944A
:1026F0007E136894B1110C940D1408950E94F21386
:1027000088F09F5798F0B92F9927B751B0F0E1F0B2
:10271000660F771F881F991F1AF0BA95C9F714C062
:10272000B13091F00E940C14B1E008950C940C1497
:10273000672F782F8827B85F39F0B93FCCF386959B
:1027400077956795B395D9F73EF4909580957095F8
:1027500061957F4F8F4F9F4F0895E89409C097FB75
:102760003EF490958095709561957F4F8F4F9F4F68
:102770009923A9F0F92F96E9BB279395F6958795AC
:1027800077956795B795F111F8CFFAF4BB0F11F46F
:1027900060FF1BC06F5F7F4F8F4F9F4F16C0882316
:1027A00011F096E911C0772321F09EE8872F762F4C
:1027B00005C0662371F096E8862F70E060E02AF08D
:1027C0009A95660F771F881FDAF7880F9695879579
:1027D00097F9089557FD9058440F551F59F05F3FE2
:1027E00071F04795880F97FB991F61F09F3F79F033
:1027F00087950895121613061406551FF2CF4695B5
:10280000F1DF08C0161617061806991FF1CF869536
:102810007105610508940895E894BB27662777271A
:10282000CB0197F908950E9426140C9497140E94E6
:10283000891438F00E94901420F0952311F00C9424
:1028400080140C94861411240C940D140E94EA1325
:1028500070F3959FC1F3950F50E0551F629FF001F3
:10286000729FBB27F00DB11D639FAA27F00DB11D0C
:10287000AA1F649F6627B00DA11D661F829F222795
:10288000B00DA11D621F739FB00DA11D621F839F1C
:10289000A00D611D221F749F3327A00D611D231FF2
:1028A000849F600D211D822F762F6A2F11249F5740
:1028B00050409AF0F1F088234AF0EE0FFF1FBB1F43
:1028C000661F771F881F91505040A9F79E3F510502
:1028D00080F00C9480140C940D145F3FE4F3983E48
:1028E000D4F3869577956795B795F795E7959F5FAC
:1028F000C1F7FE2B880F911D9695879597F908953E
:1029000097F99F6780E870E060E008959FEF80ECA2
:10291000089500240A941616170618060906089545
:1029200000240A9412161306140605060895092EAB
:102930000394000C11F4882352F0BB0F40F4BF2B1A
:1029400011F460FF04C06F5F7F4F8F4F9F4F08955A
:10295000A1E21A2EAA1BBB1BFD010DC0AA1FBB1FA3
:10296000EE1FFF1FA217B307E407F50720F0A21B15
:10297000B30BE40BF50B661F771F881F991F1A9482
:1029800069F760957095809590959B01AC01BD01AC
:10299000CF0108950E94DB14A59F900DB49F900D68
:1029A000A49F800D911D11240895EE0FFF1F059027
:1029B000F491E02D0994A29FB001B39FC001A39FA1
:1029C000700D811D1124911DB29F700D811D112468
:1029D000911D08950F931F93CF93DF93823091053C
:1029E00010F482E090E0E091BA04F091BB0420E0A2
:1029F00030E0A0E0B0E0309719F1408151810281D0
:102A0000138148175907C8F08417950769F4109780
:102A100031F012960C93129713961C9327C00093D3
:102A2000BA041093BB0422C02115310519F04217D6
:102A3000530718F49A01BD01EF01DF01F801DBCF64
:102A400021153105F9F0281B390B2430310580F4AC
:102A50008A819B816115710521F0FB01938382833B
:102A600004C09093BB048093BA04FE01329644C024
:102A7000FE01E20FF31F81939193225031093983B4
:102A800028833AC02091B8043091B904232B41F433
:102A900020910601309107013093B9042093B804C6
:102AA00020910401309105012115310541F42DB724
:102AB0003EB74091080150910901241B350BE0916C
:102AC000B804F091B904E217F307A0F42E1B3F0BF2
:102AD0002817390778F0AC014E5F5F4F2417350790
:102AE00048F04E0F5F1F5093B9044093B804819390
:102AF000919302C0E0E0F0E0CF01DF91CF911F9110
:102B00000F910895CF93DF93009709F481C0FC01E2
:102B1000329713821282A091BA04B091BB0410972D
:102B200081F420813181820F931F2091B80430916C
:102B3000B9042817390751F5F093B904E093B804A4
:102B400067C0ED0120E030E0CE17DF0740F44A8196
:102B50005B819E0141155105F1F0EA01F5CFD38368
:102B6000C28340815181840F951FC817D90759F43A
:102B700088819981840F951F0296918380838A8131
:102B80009B81938382832115310529F4F093BB0443
:102B9000E093BA043DC0E901FB83EA83499159916E
:102BA000C40FD51FEC17FD0761F480819181840F5C
:102BB000951F0296E90199838883828193819B8383
:102BC0008A83E0E0F0E012968D919C911397009734
:102BD00019F0FD01DC01F7CF8D919C9111979D01BA
:102BE0002E5F3F4F820F931F2091B8043091B9049C
:102BF0002817390769F4309729F41092BB04109212
:102C0000BA0402C013821282B093B904A093B8042C
:102C1000DF91CF91089581E090E0F8940C942C1608
:102C2000FB01DC0104C08D910190801921F4415019
:102C30005040C8F7881B990B0895FB01DC014150F7
:102C4000504048F001900D920020C9F701C01D923C
:0C2C500041505040E0F70895F894FFCF89
:102C5C00FFFFFFFF0000BC04800000000000F80034
:102C6C00400D8F004501C0009E00B2000000000026
:102C7C00C20C400DA901A801000000006A0D400D16
:102C8C00A901A8016A0D6A0D6A0D000000006A0D09
:102C9C00400DA901A801000000009201D30CA9016C
:102CAC002B0B7101FC0706085461726A6574612074
:102CBC00646574656374616461004E6F2073652094
:102CCC0068612064657465637461646F20746172FB
:102CDC006A6574610073656E736F54656D702E74E4
:102CEC007874004269656E004D616C000D0A00003D
:00000001FF
