:020000040000FA
:04000000B7EF1EF048
:10080000004F4B20496E696369616C697A6164616C
:1008100020656E206D6F646F205350490A004E4F63
:100820004B20696E696369616C697A6163696F6E97
:100830000A004F4B207465726D696E6520646520F7
:100840006C6565720A004E4F4B206E6F20707564A8
:1008500065206C6565720A0054454D503D20252E7B
:10086000326600252E32660A00494E46004E414E41
:1008700000696E66006E616E004F4B0A006C660088
:10088000460A0000000E00017B6F000E7A6F30C038
:100890008CF031C08DF032C08EF033C08FF08FBF3E
:1008A00056EF04F054EF04F06CEF04F0000E7B6F91
:1008B000010E7A6F8CC001F08DC002F08EC003F083
:1008C0008FC004F0FEEC1DF001C08CF002C08DF072
:1008D00003C08EF004C08FF0000E0001936F000E75
:1008E000926FF4C07FF0F5C080F07A517B11D8A4EC
:1008F0007CEF04F07EEF04F085EF04F0F8A583EFC1
:1009000004F085EF04F09FEF04F07A517B11D8A436
:100910008CEF04F08EEF04F094EF04F0000E656F9E
:100920002B0E646F98EF04F0000E656F2D0E646F50
:1009300064C004F1924B932B7F07D8A080078CC032
:1009400001F08DC002F08EC003F08FC004F04DECBA
:1009500017F001040210D8A4B0EF04F0B2EF04F0D5
:1009600009EF05F0BF0E356EFF0E366E3450376E50
:10097000386A355037263650382238500AE11A0E78
:10098000375CD8A0C6EF04F0C9EF04F0010ECAEF3F
:1009900004F0000E0001666F676B66516711D8B4F2
:1009A000D4EF04F0D6EF04F0E4EF04F0040E922547
:1009B000016E010E9321026E690E036E080E046E25
:1009C000CFEC1CF0F0EF04F0040E9225016E010E46
:1009D0009321026E710E036E080E046ECFEC1CF0B4
:1009E0000001FD0E7F27FF0E80232EC011F02FC0C7
:1009F00012F0040E136E010E146E7FC015F080C04D
:100A000016F003EC19F011C02EF012C02FF019EF00
:100A10000AF08CC001F08DC002F08EC003F08FC0D0
:100A200004F04DEC17F001500210D8A41AEF05F0B5
:100A30001CEF05F05CEF05F0BF0E356EFF0E366E55
:100A40003450376E386A3550372636503822385091
:100A50000AE11A0E375CD8A030EF05F033EF05F04D
:100A6000010E34EF05F0000E0001686F696B6851EC
:100A70006911D8B43EEF05F040EF05F04EEF05F0F8
:100A8000040E9225016E010E9321026E6D0E036E0F
:100A9000080E046ECFEC1CF0F0EF04F0040E92256B
:100AA000016E010E9321026E750E036E080E046E28
:100AB000CFEC1CF0F0EF04F0000E0001946F000E7C
:100AC000956F800E966F3F0E976F000E916F000E20
:100AD000906F8CC001F08DC002F08EC003F08FC00B
:100AE00004F0000E056E000E066E000E076E000E7E
:100AF000086ED9EC1AF0D8B080EF05F082EF05F05F
:100B000005EF06F0A1EF05F094C001F095C002F0EA
:100B100096C003F097C004F0000E056E000E066E3E
:100B2000200E076E410E086EAAEC0EF001C094F084
:100B300002C095F003C096F004C097F00001904BFE
:100B4000912B8CC01AF08DC01BF08EC01CF08FC092
:100B50001DF0000E056E000E066E200E076E410E93
:100B6000086E94C001F095C002F096C003F097C0E3
:100B700004F0AAEC0EF001C01EF002C01FF003C08A
:100B800020F004C021F0CBEC16F0D8B0CAEF05F08D
:100B9000CCEF05F084EF05F0ECEF05F094C001F028
:100BA00095C002F096C003F097C004F0000E056EE9
:100BB000000E066E200E076E410E086EBFEC10F0A0
:100BC00001C094F002C095F003C096F004C097F005
:100BD00000019007D8A091078CC01AF08DC01BF0BF
:100BE0008EC01CF08FC01DF094C01EF095C01FF089
:100BF00096C020F097C021F0CBEC16F0D8A003EF00
:100C000006F005EF06F0CEEF05F034C007F0086AF5
:100C10009FEC1CF007500001816F81C07EF0670ED1
:100C20008119D8A416EF06F018EF06F03EEF06F093
:100C3000F651F711D8A41FEF06F021EF06F025EFCB
:100C400006F0000EF76F010EF66FF7BF32EF06F0F9
:100C5000F75106E1F605D8B030EF06F032EF06F0B6
:100C600038EF06F0000E7D6F060E7C6F47EF06F042
:100C7000F6C07CF0F7C07DF047EF06F0F7BF43EF1A
:100C800006F045EF06F032EF06F038EF06F0670E9B
:100C90008119D8A44EEF06F050EF06F07FEF06F072
:100CA00091AF5EEF06F0FC0E905DFF0E9159D8A05B
:100CB0005CEF06F05EEF06F07DEF06F0FF0E356E9E
:100CC000FF0E366E7CC037F07DC038F035503726C9
:100CD000365038229051375C3850800A396E915125
:100CE000800A3958D8A077EF06F079EF06F07DEF4B
:100CF00006F0660E7E6F7FEF06F0650E7E6F7CC09D
:100D000074F07DC075F0670E8119D8A48AEF06F0E3
:100D10008CEF06F09CEF06F0660E7E19D8A493EFD8
:100D200006F095EF06F09EEF06F091BF9CEF06F0FF
:100D30009AEF06F09EEF06F0744B752B660E7E1947
:100D4000D8A4A5EF06F0A7EF06F0C7EF06F091BF15
:100D5000AEEF06F0ACEF06F0BAEF06F0000E946FBF
:100D6000000E956F800E966F3F0E976F000E916F7D
:100D7000000E906F670E8119D8B4C1EF06F0C3EF73
:100D800006F0C7EF06F09051742791517523000EBD
:100D90008B6F000E8A6F8CC082F08DC083F08EC086
:100DA00084F08FC085F094C060F095C061F096C06B
:100DB00062F097C063F058EF07F082C001F083C083
:100DC00002F084C003F085C004F094C005F095C023
:100DD00006F096C007F097C008F0BFEC10F001C015
:100DE0001AF002C01BF003C01CF004C01DF08CEC14
:100DF00012F01AC086F01BC087F01CC088F01DC01E
:100E000089F086C001F087C002F088C003F089C075
:100E100004F048EC16F001C078F002C079F082C00E
:100E20001AF083C01BF084C01CF085C01DF094C074
:100E300005F095C006F096C007F097C008F086C090
:100E400001F087C002F088C003F089C004F0AAEC6A
:100E50000EF001C01EF002C01FF003C020F004C05D
:100E600021F07DEC1DF01AC082F01BC083F01CC085
:100E700084F01DC085F094C001F095C002F096C0CA
:100E800003F097C004F0000E056E000E066E200EF3
:100E9000076E410E086EBFEC10F001C094F002C066
:100EA00095F003C096F004C097F000018A4B8B2B9D
:100EB00074518A5D8B51800A356E7551800A3558A0
:100EC000D8A065EF07F067EF07F0DDEF06F094C0FC
:100ED00001F095C002F096C003F097C004F0000E38
:100EE000056E000E066EA00E076E400E086EAAEC90
:100EF0000EF001C086F002C087F003C088F004C085
:100F000089F082C01AF083C01BF084C01CF085C039
:100F10001DF086C01EF087C01FF088C020F089C079
:100F200021F0CBEC16F0D8B098EF07F09AEF07F06D
:100F3000A5EF07F0000E0001866F000E876F000E10
:100F4000886F000E896FCEEF07F082C001F083C07A
:100F500002F084C003F085C004F086C005F087C0AD
:100F600006F088C007F089C008F0D9EC1AF0D8A0C4
:100F7000BCEF07F0BEEF07F0CEEF07F0000178B14D
:100F8000C4EF07F0C6EF07F0CEEF07F0000E866F54
:100F9000000E876F000E886F000E896F8CC001F005
:100FA0008DC002F08EC003F08FC004F086C005F043
:100FB00087C006F088C007F089C008F01AEC0AF074
:100FC00001C082F002C083F003C084F004C085F049
:100FD00060C094F061C095F062C096F063C097F075
:100FE000650E00017E19D8B4F8EF07F0FAEF07F0AC
:100FF00000EF08F090C076F091C077F004EF08F0B1
:10100000000E776F000E766F000E736F000E726F1A
:10101000000E716F000E706F000E8B6F000E8A6FE6
:10102000FFEF08F082C001F083C002F084C003F03B
:1010300085C004F094C005F095C006F096C007F096
:1010400097C008F0BFEC10F001C01AF002C01BF00E
:1010500003C01CF004C01DF08CEC12F01AC086F026
:101060001BC087F01CC088F01DC089F086C001F04D
:1010700087C002F088C003F089C004F048EC16F085
:1010800001C078F002C079F00001F8B94AEF08F029
:101090004CEF08F069EF08F078517911D8A453EFBC
:1010A00008F055EF08F069EF08F0670E8119D8A431
:1010B0005CEF08F05EEF08F069EF08F077BF65EFCE
:1010C00008F063EF08F069EF08F0704B712BB3EF95
:1010D00008F072517311D8A470EF08F072EF08F0A5
:1010E0009CEF08F077BF79EF08F077EF08F09CEFFE
:1010F00008F0040E9225D96E010E9321DA6E2E0EA1
:10110000DF6E924B932B7F07D8A08007000E736F82
:10111000010E726F9CEF08F0040E9225D96E010E3D
:101120009321DA6E300EDF6E924B932B7F07D8A09F
:1011300080077007D8A0710770517111D8A4A3EF70
:1011400008F0A5EF08F08CEF08F0040E9225D96E98
:10115000010E9321DA6E7851300FDF6E924B932B94
:101160007F07D8A0800782C01AF083C01BF084C01C
:101170001CF085C01DF094C005F095C006F096C027
:1011800007F097C008F086C001F087C002F088C061
:1011900003F089C004F0AAEC0EF001C01EF002C0FA
:1011A0001FF003C020F004C021F07DEC1DF01AC038
:1011B00082F01BC083F01CC084F01DC085F094C079
:1011C00001F095C002F096C003F097C004F0000E45
:1011D000056E000E066E200E076E410E086EBFEC07
:1011E00010F001C094F002C095F003C096F004C066
:1011F00097F000017607D8A077078A4B8B2B7451A4
:101200008A5D8B51800A356E7551800A3558D8B089
:101210000CEF09F00EEF09F01CEF09F093BF1AEF85
:1012200009F0935109E14B0E925DD8A01AEF09F035
:101230001CEF09F012EF08F072517311D8A423EFDC
:1012400009F025EF09F036EF09F0F8A92AEF09F0C7
:101250002CEF09F036EF09F0040E9225D96E010E3D
:101260009321DA6E2E0EDF6E924B932B040E922595
:10127000D96E010E9321DA6E000EDF6E650E7E19B7
:10128000D8A445EF09F047EF09F0F5EF04F0000EA0
:101290008B6F4F0E8A6F040E8A25D96E010E8B213B
:1012A000DA6E000EDF6E000E7B6F000E7A6F91BF5C
:1012B0005EEF09F05CEF09F066EF09F0000E7B6F5E
:1012C000010E7A6F906D911FD8B0912B000E7D6F3B
:1012D000020E7C6F97EF09F08A07D8A08B07040EE7
:1012E0008A25D96E010E8B21DA6E90C001F091C073
:1012F00002F0000E046E0A0E036E81EC1AF001502B
:10130000300FDF6E90C001F091C002F0000E046E4D
:101310000A0E036E66EC19F001C090F002C091F065
:1013200000017C07D8A07D077F07D8A080079051D7
:101330009111D8A49EEF09F0A0EF09F06CEF09F02D
:101340007DBFADEF09F07D5106E17C05D8B0ABEF74
:1013500009F0ADEF09F06CEF09F08A07D8A08B0710
:101360007A517B11D8A4B7EF09F0B9EF09F0BFEFBC
:1013700009F0000E6B6F2B0E6A6FC3EF09F0000EC1
:101380006B6F2D0E6A6F040E8A25D96E010E8B21AC
:10139000DA6E6AC0DFFF7F07D8A080078A07D8A06F
:1013A0008B07BF0E356EFF0E366E3450376E386ABF
:1013B000355037263650382238500AE11A0E375C3D
:1013C000D8A0E5EF09F0E8EF09F0010EE9EF09F028
:1013D000000E6E6F6F6B6E516F11D8A4F2EF09F0B3
:1013E000F4EF09F0FAEF09F0000E6D6F650E6C6F07
:1013F000FEEF09F0000E6D6F450E6C6F040E8A252E
:10140000D96E010E8B21DA6E6CC0DFFF7F07D8A08A
:101410008007040E9225016E010E9321026E040EC8
:101420008A25036E010E8B21046ECFEC1CF0F5EFC4
:1014300004F012000450800B0D6E045004240F6E53
:1014400003AE25EF0AF027EF0AF028EF0AF00F802D
:101450000F50D8B42EEF0AF030EF0AF045EF0AF043
:101460000F28D8A436EF0AF038EF0AF040EF0AF060
:10147000000E016E000E026E000E036E000E046E72
:10148000038E000E046E4DEF0AF0000E016E000E8A
:10149000026E000E036E000E046E0850800B0E6E7E
:1014A0000D500E18D8B457EF0AF059EF0AF05AEF62
:1014B0000AF00D8C085008240E6E07AE62EF0AF099
:1014C00064EF0AF065EF0AF00E800E50D8B46BEFAF
:1014D0000AF06DEF0AF082EF0AF00E28D8A473EF3D
:1014E0000AF075EF0AF07DEF0AF0000E056E000EAF
:1014F000066E000E076E000E086E078E000E086E58
:101500008AEF0AF0000E056E000E066E000E076EE2
:10151000000E086E0F500E5CD8B091EF0AF093EFFA
:101520000AF0BAEF0AF00DAC98EF0AF09AEF0AF061
:101530009CEF0AF0800E0D1A0FC010F00EC00FF0D5
:1015400010C00EF001C010F005C001F010C005F091
:1015500002C010F006C002F010C006F003C010F088
:1015600007C003F010C007F004C010F008C004F07A
:1015700010C008F0000E106E0F500EC009F00A6A7D
:10158000095E000E0A5A0ABECFEF0AF00A5009E1BE
:101590001A0E095CD8A0CFEF0AF0D1EF0AF008EFDD
:1015A0000BF00150021003100410D8A4DAEF0AF077
:1015B000DDEF0AF0010EDEEF0AF0000E106E000EF5
:1015C000016E000E026E000E036E000E046E0EC061
:1015D0000FF011EF0BF010A0F0EF0AF0F2EF0AF0AD
:1015E000F8EF0AF0D89010300109106EFAEF0AF007
:1015F000D890103201A0FFEF0AF001EF0BF002EFDC
:101600000BF0108E043404320332023201320F2AFE
:101610000E500F5CD8A00FEF0BF011EF0BF0EBEFBB
:101620000AF00DBC16EF0BF018EF0BF058EF0BF0B3
:101630000F50D8A41EEF0BF020EF0BF02AEF0BF0A9
:10164000000E016E000E026E000E036E000E046EA0
:1016500079EF0CF0055001260650022207500322B4
:101660000850042204A037EF0BF039EF0BF0E5EF40
:101670000BF010A03EEF0BF040EF0BF046EF0BF03D
:10168000D89010300109106E48EF0BF0D89010324E
:1016900001A04DEF0BF04FEF0BF050EF0BF0108E61
:1016A000043404320332023201320F2AE5EF0BF028
:1016B0000550015C06500258075003580450800A38
:1016C000096E0850800A0958D8B069EF0BF06BEF2B
:1016D0000BF096EF0BF00150055C096E02500658B6
:1016E0000A6E035007580B6E045008580C6EFF0E1C
:1016F0000924016EFF0E0A20026EFF0E0B20036EFE
:10170000FF0E0C20046E800E0D1A106C1050D8A421
:101710008CEF0BF08EEF0BF09EEF0BF0010E01261D
:10172000000E0222032204229EEF0BF00550015E00
:101730000650025A0750035A0850045A015002102A
:1017400003100410D8A4A7EF0BF0A9EF0BF0DEEF05
:101750000BF01050D8A4AFEF0BF0B1EF0BF0DEEFB1
:101760000BF0000E016E000E026E000E036E000EF6
:10177000046E79EF0CF0D890013602360336043649
:1017800010AEC5EF0BF0C7EF0BF0C8EF0BF0018008
:1017900010A0CDEF0BF0CFEF0BF0D3EF0BF0D88014
:1017A0001036D5EF0BF0D89010360F50D8B4DBEFD1
:1017B0000BF0DDEF0BF0DEEF0BF00F0603AEE3EF07
:1017C0000BF0E5EF0BF0BBEF0BF0000E0E6E10AE62
:1017D000ECEF0BF0EEEF0BF006EF0CF010C009F0A1
:1017E0007F0E0916D8B4F7EF0BF0F9EF0BF0FDEF11
:1017F0000BF0010E0E6E06EF0CF001A002EF0CF0E4
:1018000004EF0CF006EF0CF0F9EF0BF00E50D8B42B
:101810000CEF0CF00EEF0CF039EF0CF0010E01267E
:10182000000E02220322042204A019EF0CF01BEF89
:101830000CF039EF0CF001C009F002C00AF003C04F
:101840000BF004C00CF00C340C320B320A320932AB
:1018500009C001F00AC002F00BC003F00CC004F094
:101860000F28D8B436EF0CF038EF0CF039EF0CF04D
:101870000F2A0F28D8B43FEF0CF041EF0CF049EFDE
:101880000CF00F50D8A447EF0CF049EF0CF05BEFD1
:101890000CF0000E016E000E026E000E036E000EC4
:1018A000046E0F50D8A457EF0CF059EF0CF05BEF1B
:1018B0000CF0000E0D6E0FA060EF0CF062EF0CF05C
:1018C00065EF0CF0038E66EF0CF0039ED8900F309E
:1018D000046E0DAE6EEF0CF070EF0CF071EF0CF0CB
:1018E000048E01C001F002C002F003C003F004C086
:1018F00004F012003CC0D9FF3DC0DAFFDECFF6FF96
:10190000DDCFF7FF0800F550250AD8A48AEF0CF0C8
:101910008CEF0CF08EEF0EF03CC0D9FF3DC0DAFF2B
:10192000DE2A000EDD22000E0001F56F000EF46FBE
:10193000F4C0F8F0F5C0F9F0F669F7693CC0D9FFDA
:101940003DC0DAFFDECFF6FFDDCFF7FF0800F55030
:101950002E0AD8A4AEEF0CF0B0EF0CF02DEF0DF086
:10196000000EF76F000EF66F3CC0D9FF3DC0DAFFE6
:10197000DE2A000EDD223CC0D9FF3DC0DAFFDECFFB
:10198000F6FFDDCFF7FF0800F5502A0AD8A4CBEF09
:101990000CF0CDEF0CF0EAEF0CF03CC0D9FF3DC0ED
:1019A000DAFFDE2A000EDD223EC0D9FF3FC0DAFF9B
:1019B000DFCF40F0020EDE26DFCF41F0000EDD2249
:1019C00040C0D9FF41C0DAFFDECFF6F0DDCFF7F03F
:1019D0002DEF0DF03CC0D9FF3DC0DAFFDECF08F09F
:1019E000DDCF09F06FEC14F008C0F6F009C0F7F095
:1019F00001EF0DF03CC0D9FF3DC0DAFFDE2A000E3A
:101A0000DD22D00E406EFF0E416E3CC0D9FF3DC0BE
:101A1000DAFFDECFF6FFDDCFF7FF0800F550426EAC
:101A2000436A405042264150432243500AE10A0E85
:101A3000425CD8A01EEF0DF021EF0DF0010E22EF59
:101A40000DF0000E446E456A44504510D8A42BEFAB
:101A50000DF02DEF0DF0FAEF0CF03CC0D9FF3DC0BA
:101A6000DAFFDECFF6FFDDCFF7FF0800F550076E97
:101A7000086A9FEC1CF007504C6E4C50D8B443EFF2
:101A80000DF045EF0DF07DEF0DF03CC0D9FF3DC0EE
:101A9000DAFFDECF40F0DDCF41F0010E4026000E30
:101AA000412240C0F6FF41C0F7FF0800F550076E25
:101AB000086A9FEC1CF007504D6E4D50D8B463EF90
:101AC0000DF065EF0DF07DEF0DF03CC0D9FF3DC08E
:101AD000DAFFDECF40F0DDCF41F0020E4026000EEF
:101AE000412240C0F6FF41C0F7FF0800F550076EE5
:101AF000086A9FEC1CF007504E6E660E4C18D8A476
:101B000084EF0DF086EF0DF0C6EF0DF03CC0D9FF6D
:101B10003DC0DAFFDECFF6FFDDCFF7FF0800F5CFDF
:101B20004FF03CC0D9FF3DC0DAFFDE2A000EDD22B7
:101B30003EC0D9FF3FC0DAFFDFCF40F0040EDE2603
:101B4000DFCF41F0000EDD2240C0D9FF41C0DAFFF7
:101B5000DECF48F0DECF49F0DECF4AF0DECF4BF0EB
:101B60003AC02EF03BC02FF048C030F049C031F0F1
:101B70004AC032F04BC033F04FC034F042EC04F0B6
:101B80002EC03AF02FC03BF0A9EF0EF04C0E016EC4
:101B9000000E026E7D0E036E080E046E000E066EC1
:101BA000020E056ECCEC17F001500210D8A4DBEF4A
:101BB0000DF0DDEF0DF058EF0EF03CC0D9FF3DC049
:101BC000DAFFDECF40F0DDCF41F0010E4026000EFF
:101BD000412240C0F6FF41C0F7FF0800F5CF4FF0AB
:101BE000BF0E406EFF0E416E3CC0D9FF3DC0DAFF14
:101BF000DECFF6FFDDCFF7FF0800F550426E436AF7
:101C0000405042264150432243500AE11A0E425CA2
:101C1000D8A00DEF0EF010EF0EF0010E11EF0EF048
:101C2000000E466E476A46504710D8B41AEF0EF0C1
:101C30001CEF0EF036EF0EF03EC0D9FF3FC0DAFFCA
:101C4000DFCF40F0040EDE26DFCF41F0000EDD22B4
:101C500040C0D9FF41C0DAFFDECF48F0DECF49F007
:101C6000DECF4AF0DECF4BF04EEF0EF03EC0D9FF94
:101C70003FC0DAFFDFCF40F0040EDE26DFCF41F0B9
:101C8000000EDD2240C0D9FF41C0DAFFDECF48F0B0
:101C9000DECF49F0DECF4AF0DECF4BF0020E3CC083
:101CA000D9FF3DC0DAFFDE26000EDD22B0EF0DF0D9
:101CB0003CC0D9FF3DC0DAFFDECFF6FFDDCFF7FF36
:101CC0000800F550250AD8A468EF0EF06AEF0EF070
:101CD00081EF0EF03CC0D9FF3DC0DAFFDE2A000ED6
:101CE000DD22000E026E250E016E3AC003F03BC0ED
:101CF00004F09EEC18F0000E3B6E010E3A6EA9EF58
:101D00000EF03CC0D9FF3DC0DAFFDE2A000EDD2216
:101D1000000E3B6E000E3A6EA9EF0EF03CC0D9FFEC
:101D20003DC0DAFFDECFF6FFDDCFF7FF0800F5504C
:101D3000016E026A3AC003F03BC004F09EEC18F05A
:101D40003CC0D9FF3DC0DAFFDE2A000EDD227BEF6A
:101D50000EF012000450800B0D6E04500424136E1C
:101D600003AEB5EF0EF0B7EF0EF0B8EF0EF0138044
:101D70001350D8B4BEEF0EF0C0EF0EF0D3EF0EF05C
:101D80001328D8A4C6EF0EF0C8EF0EF0D0EF0EF077
:101D9000000E016E000E026E000E036E000E046E49
:101DA000038EDBEF0EF0000E016E000E026E000ED1
:101DB000036E000E046E0850800B0D1A08500824A4
:101DC000126E07AEE6EF0EF0E8EF0EF0E9EF0EF060
:101DD00012801250D8B4EFEF0EF0F1EF0EF004EFD6
:101DE0000FF01228D8A4F7EF0EF0F9EF0EF001EF84
:101DF0000FF0000E056E000E066E000E076E000E50
:101E0000086E078E0CEF0FF0000E056E000E066ECA
:101E1000000E076E000E086E1250D8B412EF0FF0CD
:101E200014EF0FF01CEF0FF01350D8A41AEF0FF0BF
:101E30001CEF0FF026EF0FF0000E016E000E026E89
:101E4000000E036E000E046EBEEF10F0075001028C
:101E5000F3CF18F0F4CF19F018500E6E0F6A106A15
:101E6000116A1950146E156A166A176A0650020232
:101E7000F3CF18F0F4CF19F018500E26000E0F22F1
:101E80001022112219501426000E15221622172294
:101E900005500302F3CF18F0F4CF19F018500E26B6
:101EA000000E0F221022112219501426000E1522A6
:101EB0001622172210C011F00FC010F00EC00FF044
:101EC0000E6A05500202F3CF18F0F4CF19F0185043
:101ED0000E2619500F22000E1022000E112206505D
:101EE0000102F3CF18F0F4CF19F018500E26195054
:101EF0000F22000E1022000E112210C011F00FC090
:101F000010F00EC00FF00E6A05500102F3CF18F06A
:101F1000F4CF19F018500E2619500F22000E10227F
:101F2000000E112207500202F3CF18F0F4CF19F07F
:101F30001850142619501522000E1622000E1722D2
:101F400006500302F3CF18F0F4CF19F018501426FE
:101F500019501522000E1622000E172207500302F8
:101F6000F3CF18F0F4CF19F01850096E19500A6E1B
:101F70000B6A0C6A0BC00CF00AC00BF009C00AF027
:101F8000096A095014260A5015220B5016220C50CB
:101F900017220EC009F00FC00AF010C00BF011C0DC
:101FA0000CF0190ED9EF0FF0D8900C320B320A3228
:101FB0000932E82ED4EF0FF0095014260A501522EA
:101FC0000B5016220C50172210C011F00FC010F049
:101FD0000EC00FF00E6A125013C009F00A6A0926EB
:101FE000000E0A22820E0924186EFF0E0A20196EB6
:101FF0000FEF10F0D890143615361636173611AE8E
:1020000004EF10F006EF10F007EF10F01480D890F6
:102010000E360F36103611361806D8A0190616AE31
:1020200014EF10F016EF10F0FAEF0FF0000E126E32
:1020300011AE1DEF10F01FEF10F043EF10F0FF0E88
:102040000E14096EFF0E0F140A6EFF0E10140B6EA5
:102050007F0E11140C6E09500A100B100C10D8B41E
:1020600034EF10F036EF10F03AEF10F0010E126E70
:1020700043EF10F014A03FEF10F041EF10F043EFEA
:1020800010F036EF10F01250D8B449EF10F04BEFCB
:1020900010F06FEF10F0010E1426000E152216221C
:1020A000172217A056EF10F058EF10F06FEF10F056
:1020B00014C009F015C00AF016C00BF017C00CF0E0
:1020C0000C340C320B320A32093209C014F00AC047
:1020D00015F00BC016F00CC017F0184A192A19BEDB
:1020E0007AEF10F0195008E11828D8A07AEF10F014
:1020F0007CEF10F086EF10F0000E146E000E156EDF
:10210000800E166E7F0E176EB4EF10F019BE93EFAF
:1021100010F0195006E11804D8B091EF10F093EFC9
:1021200010F09FEF10F0000E146E000E156E000EF2
:10213000166E000E176E000E0D6EB4EF10F018C084
:1021400013F0FF0E1416FF0E15167F0E1616000E56
:10215000171613A0AEEF10F0B0EF10F0B1EF10F0C3
:10216000168ED8901330176E0D50171214C001F050
:1021700015C002F016C003F017C004F0120004509E
:10218000800B116E04500424186E03AECAEF10F0D9
:10219000CCEF10F0CDEF10F018801850D8B4D3EF7A
:1021A00010F0D5EF10F0EAEF10F01828D8A4DBEF0C
:1021B00010F0DDEF10F0E5EF10F0000E016E000EF4
:1021C000026E000E036E000E046E038E000E046E8F
:1021D000F2EF10F0000E016E000E026E000E036EA4
:1021E000000E046E0850800B111A08500824196E56
:1021F00007AEFDEF10F0FFEF10F000EF11F01980C7
:102200001950D8B406EF11F008EF11F01DEF11F0DE
:102210001928D8A40EEF11F010EF11F018EF11F0FB
:10222000000E056E000E066E000E076E000E086EA4
:10223000078E000E086E25EF11F0000E056E000EE1
:10224000066E000E076E000E086E05500610071091
:102250000810D8A42EEF11F030EF11F048EF11F074
:10226000000E016E000E026E000E036E000E046E74
:10227000800E03127F0E04121150041201C001F0EF
:1022800002C002F003C003F004C004F08BEF12F0B0
:102290001850D8A44EEF11F050EF11F05AEF11F092
:1022A000000E016E000E026E000E036E000E046E34
:1022B0008BEF12F0195018C009F00A6A095E000E7F
:1022C0000A5A7F0E0924126E000E0A20136E01C0F6
:1022D0000DF002C00EF003C00FF004C010F0000EAD
:1022E000016E000E026E000E036E000E046E000EF4
:1022F000146E000E156E000E166E000E176E000E98
:10230000196EBBEF11F01950D8B489EF11F08BEFB3
:1023100011F0A2EF11F0D8900D360E360F361036B0
:10232000D890013602360336043617AE9AEF11F014
:102330009CEF11F09DEF11F00180D8901436153606
:102340001636173605500D5C06500E5807500F58BC
:1023500008501058D8A0AFEF11F0B1EF11F0BAEF5C
:1023600011F0178C05500D5E06500E5A07500F5A8B
:102370000850105A192A190E1964C1EF11F0C3EF51
:1023800011F083EF11F00D500E100F101010D8B493
:10239000CCEF11F0CEEF11F0E6EF11F01480E6EF84
:1023A00011F0D890013602360336043617AEDBEF53
:1023B00011F0DDEF11F0DEEF11F00180D89014364E
:1023C0001536163617361206D8A0130603AEEBEFF5
:1023D00011F0EDEF11F0D1EF11F0000E196E17AE04
:1023E000F4EF11F0F6EF11F01AEF12F0FF0E1414E3
:1023F000096EFF0E15140A6EFF0E16140B6E7F0E7B
:1024000017140C6E09500A100B100C10D8B40BEFF7
:1024100012F00DEF12F011EF12F0010E196E1AEF1B
:1024200012F001A016EF12F018EF12F01AEF12F0EE
:102430000DEF12F01950D8B420EF12F022EF12F085
:1024400046EF12F0010E0126000E022203220422A2
:1024500004A02DEF12F02FEF12F046EF12F001C0A2
:1024600009F002C00AF003C00BF004C00CF00C34F9
:102470000C320B320A32093209C001F00AC002F0F4
:102480000BC003F00CC004F0124A132A13BE51EF24
:1024900012F0135008E11228D8A051EF12F053EFB8
:1024A00012F05EEF12F0000E136E1268000E016E55
:1024B000000E026E000E036E000E046E13BE6BEF74
:1024C00012F0135006E11204D8B069EF12F06BEF6E
:1024D00012F079EF12F0000E136E000E126E000E65
:1024E000016E000E026E000E036E000E046E000EF2
:1024F000116E12C018F018A080EF12F082EF12F0E7
:1025000085EF12F0038E86EF12F0039ED8901830FC
:10251000046E3CEF11F0120000C12AF001C12BF053
:1025200002C12CF003C12DF01AC02AF01BC02BF001
:102530001CC02CF01DC02DF0810E1E6EFF0E1F6EF4
:102540002AC020F02BC021F02CC022F02DC023F097
:10255000180EB0EF12F0D8902332223221322032FE
:10256000E82EABEF12F020501E24286E000E1F2024
:10257000296E29BEC5EF12F0295009E1170E285C1B
:10258000D8A0C5EF12F0C7EF12F0D1EF12F01AC0C9
:102590001AF01BC01BF01CC01CF01DC01DF094EFF6
:1025A00013F029BED6EF12F0D8EF12F048EF13F077
:1025B00028C01EF0FF0E1F6EFF0E206E7F0E216ED4
:1025C000000E226E1E66E7EF12F0EFEF12F02234DB
:1025D0002232213220321F321E2EE2EF12F01FC0B3
:1025E00024F020C025F021C026F022C027F024507E
:1025F0002A141E6E25502B141F6E26502C14206E8C
:1026000027502D14216E1E501F1020102110D8A409
:102610000CEF13F00EEF13F010EF13F0C7EF12F002
:102620002AC01EF02BC01FF02CC020F02DC021F0BE
:10263000200E20EF13F0D890213220321F321E32AC
:10264000E82E1BEF13F01E501F1020102110D8B4DD
:102650002CEF13F02EEF13F036EF13F024502A2650
:1026600025502B2226502C2227502D22241C1E6E52
:10267000251C1F6E261C206E271C216E1E502A163C
:102680001F502B1620502C1621502D168CEF13F0B6
:102690002AC01EF02BC01FF02CC020F02DC021F04E
:1026A000200E58EF13F0D890213220321F321E3204
:1026B000E82E53EF13F01E501F1020102110D8A445
:1026C00064EF13F066EF13F070EF13F0000E2A6E54
:1026D000000E2B6E000E2C6E000E2D6E8CEF13F084
:1026E000D8902A341E6E2B341F6E2C34206E2D345D
:1026F000216E1E501F1020102110D8B482EF13F04D
:1027000084EF13F08CEF13F0000E2A6E000E2B6E88
:10271000800E2C6EBF0E2D6E2AC01AF02BC01BF03F
:102720002CC01CF02DC01DF01200096E0950D8B449
:102730009CEF13F09EEF13F0C0EF13F004BEA5EF73
:1027400013F0A3EF13F0C0EF13F001C005F002C0C7
:1027500006F003C007F004C008F0051E061E071EA1
:10276000081E052A000E06220722082205C00BF0CB
:1027700006C00CF007C00DF008C00EF0C8EF13F053
:1027800001C00BF002C00CF003C00DF004C00EF04D
:102790000150021003100410D8A4D1EF13F0D3EFAE
:1027A00013F0DDEF13F0000E016E000E026E000E4E
:1027B000036E000E046E6EEF14F0960E0A6EE7EFD5
:1027C00013F00A2AD8900E320D320C320B32000E62
:1027D0000B14056E000E0C14066E000E0D14076E21
:1027E000FE0E0E14086E0550061007100810D8A42F
:1027F000FCEF13F0FEEF13F0E1EF13F00CEF14F029
:102800000A2A010E0B26000E0C220D220E22D89051
:102810000E320D320C320B32000E0B14056E000E10
:102820000C14066E000E0D14076EFF0E0E14086ECB
:102830000550061007100810D8A421EF14F023EF5C
:1028400014F000EF14F02BEF14F00A06D8900B36BA
:102850000C360D360E360DBE30EF14F032EF14F09C
:102860003AEF14F0020E0A6038EF14F03AEF14F069
:1028700025EF14F00AB03FEF14F041EF14F042EFEF
:1028800014F00D9ED8900A320AC005F0066A076A55
:10289000086A05C008F0076A066A056A05500B1247
:1028A00006500C1207500D1208500E120950D8B4E1
:1028B0005CEF14F05EEF14F066EF14F004BE65EF09
:1028C00014F063EF14F066EF14F00E8E0BC001F0FD
:1028D0000CC002F00DC003F00EC004F01200000E98
:1028E000166E000E156E000E0F6E000E0E6E7BEF54
:1028F00014F0084A092A010E146E08C0F6FF09C038
:10290000F7FF0800F550200AD8B489EF14F08BEFD8
:1029100014F0A8EF14F0F70E0A6EFF0E0B6E08C04D
:10292000F6FF09C0F7FF0800F5500C6E0D6A0A505B
:102930000C260B500D220D5009E1050E0C5CD8A0A1
:10294000A4EF14F0A6EF14F0A8EF14F0000E146E2C
:1029500014C010F0116A10501110D8A4B2EF14F086
:10296000B4EF14F079EF14F0BEEF14F0000E0F6E18
:10297000010E0E6E084A092AF3EF14F008C0F6FFA4
:1029800009C0F7FF0800F5500A6E0B6A0B50000AE9
:10299000D8B4CDEF14F0F3EF14F00A502B0AD8B4EA
:1029A000BAEF14F0060AD8B4B6EF14F0F3EF14F04F
:1029B00015C001F016C002F0000E046E0A0E036E80
:1029C000A4EC1EF008C0F6FF09C0F7FF0800F550A0
:1029D000015E000E025A300E0124156E000E022018
:1029E000166EBAEF14F0D00E0A6EFF0E0B6E08C012
:1029F000F6FF09C0F7FF0800F5500C6E0D6A0A508B
:102A00000C260B500D220D500AE10A0E0C5CD8A0CA
:102A10000CEF15F00FEF15F0010E10EF15F0000E92
:102A2000126E136A12501310D8A419EF15F01BEF91
:102A300015F0D8EF14F00E500F10D8A422EF15F0B7
:102A400024EF15F032EF15F015C00AF016C00BF0A8
:102A50000A1E0B1E0A4A0B2A0AC008F00BC009F016
:102A600036EF15F015C008F016C009F012000C6E14
:102A7000849454C102F055C103F056C104F057C10B
:102A800005F0FF0E066E580E36EC1EF00009D8A4B5
:102A90004CEF15F04EEF15F039EF15F0F9EC1EF094
:102AA0000001FE6F070E0D6EFE0EE3EC1EF0000E31
:102AB0000001FB6F000EFA6F0C50E3EC1EF00001FA
:102AC000FA4BFB2BFBBF6CEF15F0020EFB5DD8A0A1
:102AD0006CEF15F06EEF15F05CEF15F0FF0EE3EC08
:102AE0001EF0000E0001FE6FFE51800A400FD8A0BC
:102AF0007CEF15F07EEF15F080EF15F09BEF15F0F1
:102B0000FF0EE3EC1EF0F9EC1EF0086E0850000119
:102B1000FC6FFD6BE50EFC19FD11D8A492EF15F0CA
:102B200094EF15F098EF15F0150E0E6E9BEF15F063
:102B3000FE2B74EF15F0F9EC1EF0FF0AD8A4A3EFFA
:102B400015F0A5EF15F09BEF15F00EC008F0096A1F
:102B500008BE09060DC00AF00B6A0ABE0B06085033
:102B60000A2609500B221C0E0A180B10D8A4BBEF22
:102B700015F0BDEF15F0C0EF15F0000EC1EF15F028
:102B80000A0E1200000E0A6E08BECBEF15F0C9EF58
:102B900015F0D5EF15F0081E071E061E056C000E79
:102BA000062207220822010E0A6E04BEDCEF15F091
:102BB000DAEF15F0E6EF15F0041E031E021E016C9D
:102BC000000E022203220422010E0A1A000E0B6ECE
:102BD000000E0C6E000E0D6E000E0E6E05500610EF
:102BE00007100810D8B4F7EF15F0F9EF15F02FEF34
:102BF00016F0010E096E03EF16F0D8900536063672
:102C000007360836092A08AE08EF16F00AEF16F064
:102C1000FDEF15F0D8900B360C360D360E360550FC
:102C2000015C065002580750035808500458D8A0B9
:102C30001CEF16F01EEF16F027EF16F00550015EA0
:102C40000650025A0750035A0850045A0B80D89075
:102C50000832073206320532092E0AEF16F00A5002
:102C6000D8B435EF16F037EF16F03FEF16F00E1E22
:102C70000D1E0C1E0B6C000E0C220D220E220BC022
:102C800001F00CC002F00DC003F00EC004F0120001
:102C9000033404340A6E0A50D8A451EF16F053EFEF
:102CA00016F05DEF16F0000E016E000E026E000EC3
:102CB000036E000E046ECAEF16F001C005F002C0EC
:102CC00006F003C007F004C008F0200E6DEF16F008
:102CD000D8900832073206320532E82E68EF16F037
:102CE0000550096E038EFF0E0116FF0E0216FF0E31
:102CF0000316000E0416960E0A5E0ABE84EF16F046
:102D000082EF16F09AEF16F00A50800A970FD8B0AB
:102D10008CEF16F08EEF16F090EF16F053EF16F0E2
:102D2000D89004320332023201320A3E90EF16F09C
:102D3000B2EF16F01F0E0A64A0EF16F0A2EF16F025
:102D4000AAEF16F053EF16F0D8900136023603368C
:102D500004360A060A50D8A4B0EF16F0B2EF16F007
:102D6000A4EF16F00950D8B4B8EF16F0BAEF16F089
:102D7000C2EF16F0041E031E021E016C000E02229A
:102D80000322042201C001F002C002F003C003F0DC
:102D900004C004F01200000E1A14226E000E1B1460
:102DA000236E800E1C14246E7F0E1D14256E22507F
:102DB000231024102510D8A4E0EF16F0E2EF16F04F
:102DC000EAEF16F0000E1A6E000E1B6E000E1C6E5F
:102DD000000E1D6E000E1E14226E000E1F14236EB8
:102DE000800E2014246E7F0E2114256E2250231095
:102DF00024102510D8A4FFEF16F001EF17F009EF0B
:102E000017F0000E1E6E000E1F6E000E206E000EDC
:102E1000216E1DAE0EEF17F010EF17F019EF17F03F
:102E20001A6C1B1ED8B01B2A1C1ED8B01C2A800E80
:102E30001D5621AE1EEF17F020EF17F029EF17F007
:102E40001E6C1F1ED8B01F2A201ED8B0202A800E4C
:102E50002156000E1A1A000E1B1A000E1C1A800EA4
:102E60001D1A000E1E1A000E1F1A000E201A800EC8
:102E7000211A1E501A5C1F501B5820501C582150FC
:102E80001D58D8B046EF17F048EF17F04BEF17F08A
:102E9000D8904CEF17F0D8801200EEC00BF0EFC0C6
:102EA0000CF0F0C00DF0F1C00EF001C00BF002C04C
:102EB0000CF003C00DF004C00EF00BC005F00CC008
:102EC00006F00DC007F00EC008F0180E6DEF17F0F9
:102ED000D8900832073206320532E82E68EF17F034
:102EE0000550096E0A6A09500A10D8A47AEF17F043
:102EF0007CEF17F09CEF17F0D8900B34056E0C3474
:102F0000066E0D34076E0E34086E0550061007105D
:102F10000810D8A48EEF17F090EF17F096EF17F087
:102F2000000E026E020E016ECBEF17F0000E026E65
:102F3000030E016ECBEF17F009280A10D8A4A3EFF7
:102F400017F0A5EF17F0C7EF17F00BC005F00CC096
:102F500006F00DC007F00EC008F0090ED890053637
:102F6000063607360836E82EAEEF17F00550061085
:102F700007100810D8B4BFEF17F0C2EF17F0010E1A
:102F8000C3EF17F0000E016E026ACBEF17F0000ED0
:102F9000026E040E016E120001C008F002C009F0BA
:102FA00003C00AF004C00BF00506D8A006060528E9
:102FB00006E10628D8A4DFEF17F0E1EF17F0EEEFF7
:102FC00017F0000E026E000E016E36EF18F0084A80
:102FD000092A0A4A0B2A0506D8A0060608C0D9FF06
:102FE00009C0DAFFDF50D8B4F8EF17F0FAEF17F0A6
:102FF00025EF18F00AC0F6FF0BC0F7FF0800F550E8
:103000000009D8B406EF18F008EF18F025EF18F013
:1030100005500610D8B40FEF18F011EF18F025EF97
:1030200018F008C0D9FF09C0DAFFDF50076E0AC0E8
:10303000F6FF0BC0F7FF0800F5500718D8B423EFD0
:1030400018F025EF18F0E7EF17F008C0D9FF09C016
:10305000DAFFDF50076E0AC0F6FF0BC0F7FF08006B
:10306000F550075C016E026AD8A002061200000E3D
:103070000101546F120E556F000E566F000E576F00
:1030800002EC1FF0EEEC1EF0CAEC1BF0800E0F6E8F
:10309000250E106E000E116E000E126E03EC1CF069
:1030A000060E0001A36F130EA26FAD0EE82EFED721
:1030B000A22FFCD7A32FFAD700D0EA0E1A6E000E6B
:1030C0001B6E2EEC1BF00AEC1FF0010E046E020EBC
:1030D0003BEC1CF0D60E586E000E596E580E5A6E10
:1030E000080E5B6EEAC05CF0EBC05DF0ECC05EF019
:1030F000EDC05FF02BEC1DF0D60E056E000E066ED7
:10310000C2EC1DF0A40E586E000E596E630E5A6E7E
:10311000080E5B6EEAC05CF0EBC05DF0ECC05EF0E8
:10312000EDC05FF02BEC1DF0A40E0F6E000E106EC4
:10313000C8EC19F050EF18F000EF00F00350041045
:10314000D8B4A5EF18F0A7EF18F0B0EF18F00350BF
:103150000410D8A4AEEF18F0B0EF18F0B5EF18F0E7
:10316000015011EC1FF002EF19F020EE04F00350B3
:10317000D9260450DA22DE50DE10D8B4C2EF18F09F
:10318000C4EF18F0DFEF18F020EE04F00350D9265A
:103190000450DA2210EE02F00350E1260450E2223D
:1031A000DE50E65CE650800A096EDE50800A09585F
:1031B000D8B0DDEF18F0DFEF18F002EF19F020EED5
:1031C00002F00350D9260450DA22DECF05F0DDCF1D
:1031D00006F003C0D9FF04C0DAFFDECF07F0DDCF71
:1031E00008F005500724D96E06500820DA6E01C099
:1031F000DFFF20EE02F00350D9260450DA22DE2A47
:10320000000EDD2212000001F8A109EF19F00BEF0A
:1032100019F015EF19F013C00AF014C00BF011C02B
:103220000CF012C00DF0A0EC1DF016BE1AEF19F054
:103230001CEF19F022EF19F015C01AF016C01BF0A0
:1032400026EF19F0000E1B6E000E1A6E000E196E9E
:10325000000E186E38EF19F0000E026E200E016E8F
:1032600011C003F012C004F09EEC18F0184A192A9D
:103270001A50185C1950800A176E1B50800A175894
:10328000D8A045EF19F047EF19F02CEF19F0000125
:10329000F8B14DEF19F04FEF19F059EF19F013C0D5
:1032A0000AF014C00BF011C00CF012C00DF0A0EC2D
:1032B0001DF013C001F014C002F06EEC1EF01A50A5
:1032C0000124116E1B500220126E1200000E066EB9
:1032D00004BE6FEF19F06DEF19F075EF19F0036C84
:1032E000041ED8B0042A010E066E02BE7CEF19F04F
:1032F0007AEF19F082EF19F0016C021ED8B0022AA1
:10330000010E061A000E086E000E076E0350041020
:10331000D8B48DEF19F08FEF19F0B7EF19F0010E57
:10332000056E97EF19F0D89003360436052A04AEDF
:103330009CEF19F09EEF19F093EF19F0D890073633
:1033400008360350015C04500258D8A0AAEF19F0C7
:10335000ACEF19F0B1EF19F00350015E0450025ABE
:103360000780D89004320332052E9EEF19F00650E4
:10337000D8B4BDEF19F0BFEF19F0C3EF19F0076C27
:10338000081ED8B0082A07C001F008C002F01200D9
:103390007EEC1BF0E806D8A4D0EF19F0D2EF19F0BC
:1033A000DAEF19F0010E026E080E036E89EC1EF0C2
:1033B00001EF1AF01E0E026E080E036E89EC1EF06D
:1033C00001EF1AF00FC0D9FF10C0DAFF0F4A102A20
:1033D000DF5037EC15F00009D8A4F1EF19F0F3EF46
:1033E00019F0FBEF19F0790E026E080E036E89ECEE
:1033F0001EF001EF1AF0800E026E080E036E89ECCB
:103400001EF00FC0D9FF10C0DAFFDF50D8A40BEFB9
:103410001AF00DEF1AF0E2EF19F027EC1AF000099C
:10342000D8A415EF1AF017EF1AF01FEF1AF0320EAA
:10343000026E080E036E89EC1EF025EF1AF0460EA0
:10344000026E080E036E89EC1EF0848412008494D0
:1034500054C102F055C103F056C104F057C105F044
:10346000FF0E066E510E36EC1EF00009D8A43BEF9D
:103470001AF03DEF1AF028EF1AF0F9EC1EF00001F7
:10348000FE6F070E0A6EF9EC1EF0FE0AD8A44BEF91
:103490001AF04DEF1AF043EF1AF0000E0001FE6F24
:1034A000FE51800A620FD8A058EF1AF05AEF1AF0B6
:1034B0005CEF1AF069EF1AF0FF0EE3EC1EF0F9EC86
:1034C0001EF0086E08500001FC6FFD6BFE2B50EFE4
:1034D0001AF00AC008F0096A08BE0906150E082687
:1034E000000E09221C0E08180910D8A47AEF1AF051
:1034F0007CEF1AF07FEF1AF0000E80EF1AF0848450
:103500001200000E066E02BE8AEF1AF088EF1AF063
:1035100090EF1AF0016C021ED8B0022A010E066E5E
:1035200004BE97EF1AF095EF1AF09BEF1AF0036CB8
:10353000041ED8B0042A03500410D8B4A2EF1AF025
:10354000A4EF1AF0C8EF1AF0010E056EACEF1AF0F6
:10355000D89003360436052A04AEB1EF1AF0B3EF63
:103560001AF0A8EF1AF00350015C04500258D8A0DA
:10357000BCEF1AF0BEEF1AF0C2EF1AF00350015E72
:103580000450025AD89004320332052EB3EF1AF0D9
:103590000650D8B4CEEF1AF0D0EF1AF0D4EF1AF0EC
:1035A000016C021ED8B0022A01C001F002C002F074
:1035B0001200000E0114096E000E02140A6E800E35
:1035C00003140B6E7F0E04140C6E09500A100B10BE
:1035D0000C10D8A4EEEF1AF0F0EF1AF0F8EF1AF092
:1035E000000E016E000E026E000E036E000E046EE1
:1035F000000E0514096E000E06140A6E800E0714E4
:103600000B6E7F0E08140C6E09500A100B100C1074
:10361000D8A40DEF1BF00FEF1BF017EF1BF0000EFF
:10362000056E000E066E000E076E000E086E055049
:1036300001180FE1065002180CE10750031809E1C8
:1036400008500418D8B427EF1BF029EF1BF02CEF1B
:103650001BF0D8902DEF1BF0D8801200C30EC216BD
:10366000C282C282C2B237EF1BF039EF1BF032EFD9
:103670001BF0C350C4CF1CF01D6A1CC01DF01C6A97
:103680001C26000E1D221CC001F01DC002F0000E01
:1036900002BEFF0E036E046E010E95EC13F01AC00D
:1036A000D9FF1BC0DAFF01C0DEFF02C0DEFF03C08E
:1036B000DEFF04C0DEFF1AC0D9FF1BC0DAFFDECF79
:1036C00001F0DECF02F0DECF03F0DECF04F0100E0B
:1036D000056E400E066EFA0E076E3E0E086EAAECE0
:1036E0000EF01AC0D9FF1BC0DAFF01C0DEFF02C016
:1036F000DEFF03C0DEFF04C0DEFF12008484000E84
:103700000001FE6FFE51800A760FD8A08AEF1BF0F1
:103710008CEF1BF08EEF1BF095EF1BF0FF0EE3EC30
:103720001EF00001FE2B82EF1BF08494000E026E4F
:10373000000E036E000E046E000E056E950E066EF2
:10374000400E36EC1EF0E806D8A4A9EF1BF0ABEF54
:103750001BF096EF1BF0F9EC1EF00001FE6F000E5F
:10376000026E000E036E000E046E000E056EFF0E5C
:10377000066E410E36EC1EF00009D8A4C2EF1BF015
:10378000C4EF1BF0AFEF1BF0F9EC1EF00001FE6F71
:10379000010E1200000EFDEC1CF01A0E046EF80E65
:1037A000E82EFED7042EFCD700D0030EC8EC1EF086
:1037B000070E046E7D0EE82EFED7042EFCD700F017
:1037C000030EC8EC1EF00F0E046E480EE82EFED756
:1037D000042EFCD7030EC8EC1EF0020EC8EC1EF03F
:1037E000020EC8EC1EF0080EC8EC1EF0000EC8EC6D
:1037F0001EF00C0EC8EC1EF0000EC8EC1EF0060EFB
:10380000C8EC1EF01200949C948E100E056E000EF3
:10381000066E000E076E000E086E000E016E090E99
:10382000026E3D0E036E000E046EC2EC15F001C078
:1038300017F002C018F003C019F004C01AF017C046
:1038400001F018C002F019C003F01AC004F00FC054
:1038500005F010C006F011C007F012C008F0C2EC6D
:1038600015F00104AF6EAC84AC98AB8EAC9CAC8A06
:10387000AB9CAB881200056E0504D8A442EF1CF087
:1038800044EF1CF055EF1CF004507F0F086E083811
:103890000F0B066E08500F0B076E0650C8EC1EF09B
:1038A0000750C8EC1EF06DEF1CF0020E0518D8A4EE
:1038B0005CEF1CF05EEF1CF06DEF1CF00450BF0FCE
:1038C000086E08380F0B066E08500F0B076E065077
:1038D000C8EC1EF00750C8EC1EF0120052C056F0A3
:1038E00053C057F0000E0001F36F000EF26F8CEF23
:1038F0001CF050C03AF051C03BF0560E3C6E000E2A
:103900003D6E54C03EF055C03FF07AEC0CF03A509A
:103910000001F2273B50F32356C0F6FF57C0F7FFD4
:103920000800F5500009D8A498EF1CF09AEF1CF09D
:1039300079EF1CF0F2C050F0F3C051F01200BF0E4E
:10394000096EFF0E0A6E07C00BF008C00CF009509C
:103950000B260A500C220C500AE11A0E0B5CD8A060
:10396000B4EF1CF0B7EF1CF0010EB8EF1CF0000E26
:103970000D6E0E6A0D500E10D8B4C1EF1CF0C3EFDF
:103980001CF0CAEF1CF0200E0710076E0850086EDE
:10399000CEEF1CF007C007F008C008F0120003C00B
:1039A00007F004C008F001C009F002C00AF0075097
:1039B000056E0850066E074A082A05C0F6FF06C0C5
:1039C000F7FFF86A09C0D9FF0AC0DAFF094A0A2AD4
:1039D000070EF76403D00800F55005D0F6CFE1FFDD
:1039E000F7CFE2FFE750DF6EDF50D8A4FAEF1CF00C
:1039F000FCEF1CF0D7EF1CF01200016E01A003EFEA
:103A00001DF005EF1DF008EF1DF08C8809EF1DF08B
:103A10008C9801A20EEF1DF010EF1DF013EF1DF0BA
:103A20008C8A14EF1DF08C9A01A419EF1DF01BEF86
:103A30001DF01EEF1DF08C8C1FEF1DF08C9C01A65D
:103A400024EF1DF026EF1DF029EF1DF08C8E2AEFDC
:103A50001DF08C9E12005C0E00019A6F000E9B6F91
:103A600058C09CF059C09DF0000E9F6F000E9E6FD5
:103A7000000EA16F000EA06F9C0E506E000E516ED6
:103A80005AC052F05BC053F09A0E546E000E556E41
:103A90006EEC1CF000019E515824D96E9F515920A4
:103AA000DA6E000EDF6E1200010E076E200E011896
:103AB0000210D8B45EEF1DF060EF1DF079EF1DF03D
:103AC000F70E036EFF0E046E01C005F002C006F093
:103AD0000350052604500622065009E1050E055C38
:103AE000D8A075EF1DF077EF1DF079EF1DF0000EF7
:103AF000076E07C001F0026A1200000E1E1A000EC7
:103B00001F1A000E201A800E211A1AC001F01BC0C5
:103B100002F01CC003F01DC004F01EC005F01FC061
:103B200006F020C007F021C008F01AEC0AF001C02E
:103B30001AF002C01BF003C01CF004C01DF01200FC
:103B4000000E106E000E0F6EB1EF1DF00EC001F0F2
:103B5000026A0CC003F00DC004F09EEC18F00F4A8E
:103B6000102A0F500A24D96E10500B20DA6EDF5045
:103B70000E6E0E50D8A4BFEF1DF0C1EF1DF0A6EFE2
:103B80001DF01200000E086E000E076ED3EF1DF040
:103B900007500524D96E08500620DA6EDF5052EC2B
:103BA0001EF0074A082A07500524D96E085006203F
:103BB000DA6EDF50D8A4DFEF1DF0E1EF1DF0C8EFA3
:103BC0001DF01200BF0E036EFF0E046E01C005F063
:103BD00002C006F0035005260450062206500AE1F2
:103BE0001A0E055CD8A0F7EF1DF0FAEF1DF0010EDC
:103BF000FBEF1DF0000E016E026A12000150021070
:103C000003100410D8B407EF1EF009EF1EF011EFF7
:103C10001EF0000E011A000E021A000E031A800E8A
:103C2000041A01C001F002C002F003C003F004C096
:103C300004F01200D00E036EFF0E046E01C005F0FA
:103C400002C006F0035005260450062206500AE181
:103C50000A0E055CD8A02FEF1EF032EF1EF0010E09
:103C600033EF1EF0000E016E026A1200076EFF0EA7
:103C7000E3EC1EF00750E3EC1EF00550E3EC1EF001
:103C80000450E3EC1EF00350E3EC1EF00250E3ECB2
:103C90001EF00650E3EC1EF0FF0EE3EC1EF0F9EC14
:103CA0001EF01200046E04500F0B026E0450F00B55
:103CB000036E8C8403380F0BFDEC1CF08C860D0E0C
:103CC000E82EFED700F08C960250FDEC1CF08C869E
:103CD0000D0EE82EFED700F08C96120001C003F006
:103CE00002C004F076EF1EF0014A022A01C0D9FF9B
:103CF00002C0DAFFDF50D8A480EF1EF082EF1EF082
:103D000074EF1EF00350015C016E04500258026E05
:103D1000120095EF1EF002C0F6FF03C0F7FF080087
:103D2000F550D8EC1EF0024A032A02C0F6FF03C089
:103D3000F7FF0800F5500009D8A4A1EF1EF0A3EF8B
:103D40001EF08BEF1EF0120001500302F3CF05F0BE
:103D5000F4CF06F001500402F3500626025003028D
:103D6000F350062605C001F006C002F0120001EE75
:103D700000F0540EEE6AE806FDE100EEEEF0110EE2
:103D8000EE6AE806FDE1000EF86E000137EF18F06C
:103D9000036E8C940350FDEC1CF08C86060E026EB4
:103DA000300EE82EFED7022EFCD700D08C961200E3
:103DB000016E01C0ADFFACA2E0EF1EF0E2EF1EF01D
:103DC000DBEF1EF01200016E01C0C9FFC7A0EBEFD0
:103DD0001EF0EDEF1EF0E6EF1EF0120093809392BE
:103DE000949E929A400EC76E200EC66E84849E9654
:103DF0001200C7A0FEEF1EF000EF1FF0F9EF1EF05B
:103E0000C9501200C2800E0EC16EA50EC06E010E0A
:103E1000926E1200000EC8EC1EF0010EC8EC1EF0EF
:043E2000120012007A
:020000040020DA
:08000000FFFFFFFFFFFFFFFF00
:020000040030CA
:0E0000000000191EFF0080FF0FC00FE00F4030
:00000001FF
