:100000000C9466000C948E000C948E000C948E0060
:100010000C948E000C948E000C948E000C948E0028
:100020000C948E000C948E000C948E000C948E0018
:100030000C948E000C948E000C948E000C948E0008
:100040000C948C100C948E000C94730D0C944D0D2C
:100050000C948E000C948E000C948E000C948E00E8
:100060000C948E000C948E007C3C3E5E2B3D3F2F0A
:100070005B5D3B2C2A225C000000000800020100AE
:100080000003040700000000000000000000000062
:10009000250028002B0000000000240027002A0073
:1000A000040404040404040402020202020203031E
:1000B0000303030301020408102040800102040826
:1000C00010200102040810205C13D61011241FBE5A
:1000D000CFEFD8E0DEBFCDBF24E0A6E9B1E001C09C
:1000E0001D92A73BB207E1F711E0A0E0B1E0E0E22A
:1000F000FDE202C005900D92A639B107D9F710E0D4
:10010000C5E6D0E004C02197FE010E946514C43604
:10011000D107C9F70E94DC100C9483160C940000E0
:10012000DC015996ED91FC915A973097B9F083898B
:100130009489A589B6894285538564857585841B14
:10014000950BA60BB70B811520E89207A105B10509
:1001500038F08FEF9FE7A0E0B0E0089580E090E0F6
:100160000895CF93DF931F92CDB7DEB76983DC018B
:10017000ED91FC910280F381E02D41E050E0BE0161
:100180006F5F7F4F09950F90DF91CF91089508958C
:1001900080E090E00895EF92FF920F931F93CF932A
:1001A000DF9300D0CDB7DEB7EE24E39481EA93E08D
:1001B0000E94C60C892BB9F181EA93E00E94A40C3D
:1001C000F82E89831A820091A8041091A9040F5F68
:1001D0001F4FC8010E94A50D882399F02091A40407
:1001E0003091A5048091A8049091A904BE016F5F8D
:1001F0007F4F820F931F0E946D161093A9040093E6
:10020000A8048DE0F812D2CFE0929D014091A8049D
:100210005091A9046091A4047091A50481EA93E02F
:100220000E946B0CC3CF0F900F90DF91CF911F9165
:100230000F91FF90EF9008950E94D20C81110C94C1
:10024000CB000895FC01848DDF01A80FB11DA35AD6
:10025000BF4F2C91848D90E001968F739927848FE6
:10026000A689B7892C93A089B1898C918370806409
:100270008C93938D848D981306C00288F389E02DAA
:1002800080818F7D808308958FB7F8948091970146
:100290008FBF089561E0FC0184810E94331080913A
:1002A000960181111092960108958EBD00000DB443
:1002B00007FEFDCF8EB508958FEF0C9455010F9377
:1002C0001F93CF93DF93EB010E9480108B010E945C
:1002D0005C018F3F49F00E948010601B710B6C170E
:1002E0007D07A8F380E001C081E0DF91CF911F91ED
:1002F0000F910895CF93DF93EC018E81882389F0CD
:100300008F8198859C012F5F3F4F38872F838230E4
:10031000924018F40E945C01F3CFCE010E944A0182
:100320001E82DF91CF9108958CBD9DBD0895CF931E
:10033000DF93EC0180919601811109C081E08093E7
:10034000960180913E0490913F040E94940160E0E8
:100350008C81DF91CF910C9433108F929F92AF924A
:10036000BF92FF920F931F93CF93DF93EC01F62E72
:1003700049015A010E947A01CE010E9497016CE264
:1003800071E0CE010E945F018F2D80640E945501B3
:1003900008E110E0D501C401002E04C0B695A79570
:1003A000979587950A94D2F70E9455010850110934
:1003B000083F8FEF180771F7FF2029F088E0F81247
:1003C00004C087E803C085E901C08FEF0E94550192
:1003D00010E00E945C018A8787FF04C01F3F11F074
:1003E0001F5FF7CFDF91CF911F910F91FF90BF90CB
:1003F000AF909F908F900895AF92BF92CF92DF926F
:10040000EF92FF920F931F93CF93DF93EC0169015B
:10041000C801820F931F8130924008F070C08E8116
:10042000882371F088819981AA81BB8184179507FF
:10043000A607B70729F48F819885C816D906B0F5A5
:10044000488359836A837B838B85833039F089E0C5
:10045000440F551F661F771F8A95D1F79A01AB018C
:1004600061E1CE010E94AD01882319F083E08D8304
:1004700046C00E9480105B010E945C018A878F3F0A
:1004800049F40E9480106A197B096D327140A0F313
:100490008FE003C08E3F31F08DE08D83CE010E944E
:1004A0004A012DC018861F8281E08E838F81988536
:1004B0008C159D0540F40E945C018F819885019602
:1004C00098878F83F3CF6701E00EF11EEC14FD04D3
:1004D00031F00E945C01F60181936F01F7CF8F81AB
:1004E0009885080F191F18870F838985882319F0AD
:1004F0000115124048F0CE010E947A0105C0CE01DC
:100500000E944A0180E001C081E0DF91CF911F91FC
:100510000F91FF90EF90DF90CF90BF90AF90089534
:10052000EF92FF920F931F93CF93DF93EC0179012A
:10053000411551056105710511F482E13CC08B85BF
:10054000833039F089E0440F551F661F771F8A9565
:10055000D1F79A01AB0168E1CE010E94AD01882379
:1005600011F084E028C08EEF0E94550187018EEFC4
:10057000F81AF80181918F010E945501E016F106E9
:10058000C1F78FEF0E9455018FEF0E9455010E9425
:100590005C018A878F71853031F081E18D83CE01D6
:1005A0000E944A0109C068E572E0CE010E945F0125
:1005B000811107C085E18D83CE010E944A0180E050
:1005C00014C020E030E0A9016DE0CE010E94AD0131
:1005D000811109C00E945C01811105C0CE010E94F9
:1005E0004A0181E002C084E1E6CFDF91CF911F9103
:1005F0000F91FF90EF900895809198018823A9F1C1
:10060000409100015091010160910201709103013C
:100610002FE931E080919F039091A0030E94900206
:10062000811102C080E008954091990150919A0192
:1006300060919B0170919C01411551056105710507
:1006400091F02FE931E080919F039091A0030E94E7
:100650009002882339F31092990110929A01109216
:100660009B0110929C011092980181E008958F9255
:100670009F92AF92BF92EF92FF920F931F93CF93EF
:100680004B015C01C42F8091000190910101A09168
:100690000201B091030188159905AA05BB0501F176
:1006A0000E94FC02811102C080E020C08FE9E82E88
:1006B00081E0F82E00E012E020E030E0B501A40176
:1006C00080919F039091A0030E94FC01882361F315
:1006D0008092000190920101A0920201B092030168
:1006E00080919801C82BC093980181E0CF911F9110
:1006F0000F91FF90EF90BF90AF909F908F900895D3
:100700004F925F926F927F928F929F92AF92BF9221
:10071000CF92DF92EF92FF920F931F93CF93DF93CD
:10072000EC01423051056105710510F480E078C09C
:1007300089859A85AB85BC850196A11DB11D84175D
:100740009507A607B70790F3CB88DC88ED88FE886D
:100750008F89803129F4BB27A72F962F852F09C0B9
:10076000DB01CA01E7E0B695A79597958795EA95CD
:10077000D1F7480159012A013B01C80ED91EEA1ED2
:10078000FB1E8091000190910101A0910201B091A6
:100790000301C816D906EA06FB0681F48F89803169
:1007A000A9F4B301A201552766277727440F551FE7
:1007B000FA01E156FE4F9182808219C040E0C701E4
:1007C000B6010E9437038111E9CFB0CFB301A20176
:1007D0004F77552766277727440F551F440F551F1E
:1007E000FA01E156FE4F80829182A282B38280910B
:1007F00098018160809398018A89823080F08D8190
:100800009E81AF81B885C80ED91EEA1EFB1EC0921C
:100810009901D0929A01E0929B01F0929C0181E0B3
:10082000DF91CF911F910F91FF90EF90DF90CF90CC
:10083000BF90AF909F908F907F906F905F904F9000
:1008400008958F929F92AF92BF92CF92DF92EF92D4
:10085000FF920F931F93CF93DF93FC0181859285C5
:10086000A385B4850196A11DB11D84179507A60720
:10087000B70710F480E05BC083889488A588B688A9
:100880008789803129F4BB27A72F962F852F09C090
:10089000DB01CA01C7E0B695A79597958795CA95DC
:1008A000D1F7E9016A017B018F01BC01CD01680D1F
:1008B000791D8A1D9B1D8090000190900101A090E0
:1008C0000201B0900301681579058A059B0591F432
:1008D000F80187898031A1F4DD24EE24FF24C601CC
:1008E000880F991FFC01E156FE4F80819181A0E0A5
:1008F000B0E018C040E00E9437038111E9CFBACFC1
:10090000E894C7F8DD24EE24FF24C601880F991F60
:10091000880F991FFC01E156FE4F80819181A281D1
:10092000B381BF7088839983AA83BB8381E0DF9101
:10093000CF911F910F91FF90EF90DF90CF90BF90DC
:10094000AF909F908F9008958F929F92AF92BF9299
:10095000CF92DF92EF92FF920F931F93CF93DF938B
:10096000EC018D81811102C080E078C00B891C8967
:100970002D893E890417150726073707A8F36A0152
:100980007B01823029F4CA86DB86EC86FD860DC0A9
:10099000C114D104E104F10451F41E821F821886AF
:1009A00019861A861B861C861D8681E057C08A849C
:1009B0009B84AC84BD84EB8DFC8D258530E0275F66
:1009C0003F4FB501A4014150510961097109022E3F
:1009D00004C076956795579547950A94D2F7D70145
:1009E000C6010197A109B10904C0B695A7959795CD
:1009F00087952A95D2F784179507A607B70720F0A1
:100A000089288A288B2871F44F89588D698D7A8DB1
:100A10004E835F83688779874C015D018E010A5F91
:100A20001F4F16C0841B950BA60BB70BF5CF4E813D
:100A30005F816885798598018B8D9C8D0E9421044A
:100A400091E0891A9108A108B108882309F48CCF94
:100A500081149104A104B10451F795CFDF91CF9196
:100A60001F910F91FF90EF90DF90CF90BF90AF90CC
:100A70009F908F9008953F924F925F926F927F92D6
:100A80008F929F92AF92BF92CF92DF92EF92FF929E
:100A90000F931F93CF93DF93CDB7DEB72C970FB68D
:100AA000F894DEBF0FBECDBF5C01DC015B968D907C
:100AB0009C905C971696CD90DD90ED90FC901997E8
:100AC000C114D104E104F10439F0BFEFCB1ADB0A01
:100AD000EB0AFB0A312C07C0F401C080D180E28010
:100AE000F38033243394F40181859285A385B48502
:100AF0009C01AD012F5F3F4F4F4F5F4F29873A87D2
:100B00004B875C87260137011D821E821F82188653
:100B1000F40181859285A385B4852D813E814F8125
:100B20005885281739074A075B0708F063C089858D
:100B30009A85AB85BC858C159D05AE05BF0550F427
:100B400082E0C82ED12CE12CF12C92E0492E512CC0
:100B5000612C712C9E012F5F3F4FB701A601C4018C
:100B60000E942104882309F445C089819A81AB81C0
:100B7000BC81892B8A2B8B2B41F0260137019FEFFB
:100B8000491A590A690A790A05C0C414D504E60449
:100B9000F70491F02D813E814F8158852F5F3F4FA3
:100BA0004F4F5F4F2D833E834F8358873FEFC31ACC
:100BB000D30AE30AF30AACCF0FEF1FEF2FEF3FE0AA
:100BC000B301A201C4010E948003882399F0D501DA
:100BD00016964D915D916D917C9119974115510536
:100BE0006105710549F093018201C4010E948003EF
:100BF000811102C080E02AC0D50116964D925D9207
:100C00006D927C921997332051F0D301C201019665
:100C1000A11DB11DF40180839183A283B383F501EB
:100C20008789908DA18DB28D892B8A2B8B2B69F4AE
:100C3000D50157964D925D926D927C925A9714967B
:100C40008C911497806814968C9381E02C960FB643
:100C5000F894DEBF0FBECDBFDF91CF911F910F91F2
:100C6000FF90EF90DF90CF90BF90AF909F908F90CC
:100C70007F906F905F904F903F9008954F925F925A
:100C80006F927F92AF92BF92CF92DF92EF92FF92DC
:100C90000F931F93CF93DF931F92CDB7DEB7FC0165
:100CA0002581222309F4C1C0848180FFBEC08389CD
:100CB0009489A589B6894284538464847584841593
:100CC0009505A605B70509F4B0C06F015201F1E022
:100CD000BF22D6015B968D919C915C97B301A201D6
:100CE00039E076956795579547953A95D1F7223033
:100CF00071F4FC01828D938DA48DB58D8A019B01C9
:100D0000080F191F2A1F3B1FC901B8014AC0DC0187
:100D100014961C9111501423A114B104F9F411116B
:100D20001DC045284628472851F4F6018789908D33
:100D3000A18DB28D86839783A087B1870FC0D6011E
:100D400016964D915D916D917C91199796012A5F50
:100D50003F4F0E942104882309F467C0F601238DC8
:100D6000348D86819781A085B1850297A109B1094B
:100D7000AC01BD01F901058404C0440F551F661F75
:100D8000771F0A94D2F786859785A089B189840F49
:100D9000951FA61FB71FBC01CD01610F711D811DDD
:100DA000911DD60114962C9126FF0DC04090000194
:100DB00050900101609002017090030146165706A1
:100DC0006806790699F440E00E943703882369F1A8
:100DD000F501E156FE4FDE0111969F012F5F3F4F57
:100DE0002E173F0799F081918D93FACFFE0131962E
:100DF0007F0101E010E09501AB01BC0180919F03F0
:100E00009091A0030E94FC01882379F0F60182856D
:100E10009385A485B5850196A11DB11D8287938711
:100E2000A487B587898190E002C08FEF9FEF0F9074
:100E3000DF91CF911F910F91FF90EF90DF90CF90B6
:100E4000BF90AF907F906F905F904F900895FC019E
:100E5000818D928D009711F00C943E068FEF9FEFDD
:100E600008950F931F93CF93DF93FC01818D928D93
:100E70000097B9F0EF010E943E068C010F3F8FEF03
:100E8000180791F0898D9A8DFC0142855385648500
:100E9000758541505109610971090E94A404C80176
:100EA00005C080E090E002C08FEF9FEFDF91CF910F
:100EB0001F910F910895CF93DF93EC018D818823CB
:100EC00079F18C8187FF28C06E857F858889998913
:100ED00041E00E943703882319F1EA8980E2E89F04
:100EE000F0011124E156FE4F3097D1F08D81823010
:100EF00040F48B899C89AD89BE89848F958FA68F9C
:100F0000B78F8F89988DA98DBA8D938F828FB58B6E
:100F1000A48B8C818F778C83DF91CF910C94FC0212
:100F200080E0DF91CF9108958F929F92AF92BF9210
:100F3000CF92DF92EF92FF920F931F93CF93DF93A5
:100F400000D000D0CDB7DEB77C0180E2689FF00111
:100F50001124E156FE4F9385917121F0842F827404
:100F600009F08FC0142FD70152966C93529740917D
:100F700000015091010160910201709103011E96E0
:100F80004D935D936D937C9351974489558960E0AF
:100F900070E0BA0155274427828D938DA0E0B0E020
:100FA000482B592B6A2B7B2BD70157964D935D937A
:100FB0006D937C935A978385887159F4848D958DB0
:100FC000A68DB78DF701838B948BA58BB68B81E0B3
:100FD00012C0803109F055C097012D5E3F4FD701F7
:100FE0005B968D919C915C970E94F40D882309F487
:100FF00048C084E0F7018583812F8F70D701149654
:101000008C931497F70116821782108611861A9610
:101010001D921D921D921C921D9716FF34C01596AD
:101020008C91813071F511FF2CC0F70143895489EF
:1010300065897689452B462B472B09F461C040E032
:1010400050E0BA01C7010E94A4048823D1F0F7013F
:101050008788908CA18CB28CC38CD48C82E090E079
:10106000A0E0B0E0F60180839183A283B3839E0168
:101070002F5F3F4FB501A401C6010E9421048111D9
:1010800004C080E03DC081E03BC000E010E098017A
:10109000B501A401C6010E948003882391F38980D1
:1010A0009A80AB80BC80D60157968C91803129F014
:1010B00088EF9FEFAFEFBFE004C088EF9FEFA0E0A5
:1010C000B0E088169906AA06BB0688F2D7015796A3
:1010D0001D921D921D921C925A97F701138A148A31
:1010E000158A168A848180688483C7010E945B0701
:1010F000882339F240E050E0BA01C7010E94A404FD
:101100000F900F900F900F90DF91CF911F910F9143
:10111000FF90EF90DF90CF90BF90AF909F908F9017
:1011200008952F923F924F925F926F927F928F928B
:101130009F92AF92BF92CF92DF92EF92FF920F9366
:101140001F93CF93DF93CDB7DEB72B970FB6F894ED
:10115000DEBF0FBECDBF7C01FE013196CE010C96E5
:101160006F0130E23193E817F907E1F7DA0130E077
:1011700087E09D91992331F19E3231F48A3009F450
:101180006BC138E08AE0F5CFE8E6F0E04491442313
:1011900021F031969413FACF5FC1831708F45CC134
:1011A0004FED490F4E3508F057C141E0430FF601AE
:1011B000E30FF11D3FE9390F3A3108F49052908363
:1011C000342FD7CF8981803209F446C1322E8B016A
:1011D000DB015B968D919C915C97F701948F838FD7
:1011E00016961D921D921D921C921997FB01128654
:1011F000138614861586B12CF80182859385A48503
:10120000B585438954896589768984179507A6072A
:10121000B70708F05BC025E0B695A7959795879529
:101220002A95D1F7F82FFF70AF2ED80115968C9123
:10123000823008F411C1C8010E943E0697FD0CC11E
:10124000F80182859385A485B5854F96A11DB11DB2
:1012500082879387A487B587F0E2AF9EB0011124FF
:1012600061567E4F6115710509F4F6C0DB018C9162
:10127000882319F0853EC1F4F1C0B1100EC0F7010A
:10128000A28A8091000190910101A0910201B09188
:10129000030186879787A08BB18BDB018C91882314
:1012A00099F0BB24B394A8CF4BE050E0C6010E9454
:1012B0005716892B09F0A0CF832D8073803309F452
:1012C000CBC0432D6A2DC4C0BB24B394832D82713F
:1012D000823109F0C1C0BB20C1F0F7016685778576
:1012E0008089918941E00E943703882309F4B4C0C2
:1012F000D70152968C91B0E28B9FC0011124815688
:101300009E4F009709F078C0A7C0F8018581823010
:1013100009F4A2C0C8010E943B05882309F49CC0BF
:10132000D8015B96ED91FC915C9716968D909D90FF
:10133000AD90BC901997B2E08B1A9108A108B10842
:10134000058404C0880C991CAA1CBB1C0A94D2F703
:1013500086859785A089B189880E991EAA1EBB1E15
:101360002480E1E08E1A9108A108B108222009F139
:1013700024013501420C511C611C711C0E94FC02AD
:10138000882309F469C0EFE9F1E0119223E0EF3915
:10139000F207D9F7409200015092010160920201D8
:1013A00070920301809198018160809398012A9442
:1013B000DDCFD8015B96ED91FC915C9780E092E0E7
:1013C000A0E0B0E0058404C0880F991FAA1FBB1FCE
:1013D0000A94D2F7F8014389548965897689840F84
:1013E000951FA61FB71F838B948BA58BB68BD70138
:1013F00052961C928FE991E020E2FC0111922A950D
:10140000E9F72BE0F601DC0101900D922A95E1F756
:1014100021E238E2DC0151963C932E93509740E054
:1014200058E01F965C934E931E9753963C932E93D1
:10143000529759963C932E93589757965C934E9398
:1014400056970E94FC02882339F0432DF7016289E8
:10145000C7010E94940705C080E003C0B11021CFEE
:101460000ECF2B960FB6F894DEBF0FBECDBFDF9127
:10147000CF911F910F91FF90EF90DF90CF90BF9091
:10148000AF909F908F907F906F905F904F903F9024
:101490002F900895CF93DF93EC010E945B07882380
:1014A00011F01D8281E0DF91CF910895FC01818DC3
:1014B000928D009711F00C945B0708952F923F9244
:1014C0004F925F926F927F928F929F92AF92BF9254
:1014D000CF92DF92EF92FF920F931F93CF93DF9300
:1014E00000D000D0CDB7DEB78C015B011A01DC0162
:1014F00015968C9115978130C9F414968C9181FFC3
:1015000015C082FF1DC0F801438954896589768919
:1015100082859385A485B58584179507A607B707A7
:1015200079F0C8010E94A40481110AC081E090E012
:10153000D80113969C938E93129780E090E036C169
:10154000610183C05B968D919C915C97FC017480D6
:101550002FEF270D2A013B0139E0769467945794C9
:1015600047943A95D1F7722E74207A01F1E0FF2268
:10157000772009F476C080E092E08E199F09460139
:101580008C159D0508F44C01D8015B962D913C917A
:101590005C9716968D919D910D90BC91A02D029710
:1015A000A109B109F901058404C0880F991FAA1F78
:1015B000BB1F0A94D2F74685578560897189840FCD
:1015C000951FA61FB71F9C01AD01270D311D411DA1
:1015D000511D29013A01811432E0930609F088C0B7
:1015E0008091000190910101A0910201B09103014D
:1015F000481659066A067B0659F48FEF9FEFDC0107
:101600008093000190930101A0930201B093030124
:101610009501B301A20180919F039091A0030E94C4
:101620009002882309F482CF9EEFB91AC818D9080E
:10163000F80182859385A485B585880D991DA11D26
:10164000B11D82879387A487B587D8011A964D91DB
:101650005D916D917C911D97C114D10409F072CFF9
:1016600087C0E114F10409F086CF16964D915D9183
:101670006D917C911997411551056105710559F4DA
:1016800057968D919D910D90BC91A02D0097A1052D
:10169000B10541F521C09E012F5F3F4F0E942104FB
:1016A000882309F44BCF89819A81AB81BC81F801F1
:1016B000238D348DF9012789203129F048EF5FEF20
:1016C0006FEF7FE004C048EF5FEF60E070E08417E9
:1016D0009507A607B70730F0C8010E943B058111A6
:1016E0004ACF24CFF80186839783A087B18743CF61
:1016F000E114F10429F5D8011A964D915D916D918F
:101700007C911D9753968D919D910D90BC91A02D2C
:10171000481759076A077B0798F00E94FC02882344
:1017200009F404CF4092000150920101609202013D
:10173000709203018091980181608093980108C0A4
:1017400041E0C301B2010E943703882309F4EECEC1
:10175000D501F701E156FE4F9F01280D391D2E17C7
:101760003F0719F08D918193FACFA80CB91C5ECF79
:10177000F80183899489A589B68984179507A607F6
:10178000B70738F4438B548B658B768B84818068E4
:101790008483F801848183FD02C0C10107C0C801B0
:1017A0000E945B07882309F4C1CEF7CF0F900F90FA
:1017B0000F900F90DF91CF911F910F91FF90EF90BD
:1017C000DF90CF90BF90AF909F908F907F906F9061
:1017D0005F904F903F902F900895CF93DF931F928B
:1017E000CDB7DEB7698341E050E0BE016F5F7F4F48
:1017F0000E945E0A0F90DF91CF910895CF93DF93FF
:10180000EC01898D9A8D009739F481E090E09B83FB
:101810008A8380E090E00BC0FC01138212820E9458
:101820005E0AE98DFA8D22813381232B71F7DF91D6
:10183000CF910895FC01DB0112968D919C91139735
:101840009383828380E291E09183808314968C91CC
:101850001497848315968C911597858316964D91D0
:101860005D916D917C91199746835783608771874D
:101870001A964D915D916D917C911D97428753878A
:10188000648775871E964D915D916D917C915197FE
:1018900046875787608B718B52968C915297828BBB
:1018A00053964D915D916D917C915697438B548BDE
:1018B000658B768B57964D915D916D917C915A9782
:1018C000478B508F618F728F5B968D919C915C9747
:1018D000948F838F0895CF92DF92EF92FF920F93B0
:1018E0001F93CF93DF936C017A018B01C0E0D0E0AE
:1018F000CE15DF0581F0D8016D918D01D601ED91F6
:10190000FC910190F081E02DC6010995892B11F021
:101910002196EECF7E01C701DF91CF911F910F91EC
:10192000FF90EF90DF90CF900895FC01538D448D90
:10193000252F30E0842F90E0821B930B541710F07A
:10194000CF96089501970895FC01918D828D981787
:1019500061F0828DDF01A80FB11D5D968C91928D93
:101960009F5F9F73928F90E008958FEF9FEF089590
:10197000FC01918D828D981731F0828DE80FF11D59
:10198000858D90E008958FEF9FEF0895FC01918D74
:10199000228D892F90E0805C9F4F821B91098F736D
:1019A0009927089581EA93E00E94C60C21E0892BD3
:1019B00009F420E0822F08950E945216EF92FF92C0
:1019C0000F931F93CF93DF93EC0181E0888F9B8D62
:1019D0008C8D981305C0E889F989808185FD26C022
:1019E000F62E0B8D10E00F5F1F4F0F731127E02EA7
:1019F0008C8DE8120CC00FB607FCFACFE889F98984
:101A0000808185FFF5CFCE010E942201F1CF8B8D21
:101A1000FE01E80FF11DE35AFF4FF0829FB7F894E3
:101A20000B8FEA89FB89808180620AC09FB7F89496
:101A3000EE89FF896083E889F989808183708064F9
:101A400080839FBF81E090E0DF91CF911F910F9144
:101A5000FF90EF900895CF93DF93EC01888D88235A
:101A6000C9F0EA89FB89808185FD05C0A889B9890B
:101A70008C9186FD0FC00FB607FCF5CF808185FFE6
:101A8000F2CFA889B9898C9185FFEDCFCE010E9454
:101A90002201E7CFDF91CF9108951F920F920FB6E9
:101AA0000F9211242F933F934F935F936F937F93E4
:101AB0008F939F93AF93BF93EF93FF9381EA93E04C
:101AC0000E942201FF91EF91BF91AF919F918F9161
:101AD0007F916F915F914F913F912F910F900FBE2A
:101AE0000F901F9018951F920F920FB60F9211240E
:101AF0002F938F939F93EF93FF93E091B103F09116
:101B0000B2038081E091B703F091B80382FD12C067
:101B100090818091BA038F5F8F732091BB038217EE
:101B200051F0E091BA03F0E0EF55FC4F958F8093B0
:101B3000BA0301C08081FF91EF919F918F912F9106
:101B40000F900FBE0F901F901895CF93DF93EC016D
:101B50008091A4049091A504009739F02091A604E7
:101B60003091A7042C173D07B8F4BE016F5F7F4F7B
:101B70000E948C15009791F09093A5048093A40483
:101B8000D093A704C093A6042091A8043091A9047F
:101B9000232B11F4FC01108281E001C080E0DF9171
:101BA000CF910895CF93DF93009779F0FC010190D6
:101BB0000020E9F73197AF01481B590BBC0181EABE
:101BC00093E00E946B0CEC0102C0C0E0D0E042E068
:101BD00050E063E971E081EA93E00E946B0C8C0FA6
:101BE0009D1FDF91CF9108954F925F926F927F92E8
:101BF000AF92BF92CF92DF92EF92FF920F931F931B
:101C0000CF93DF9300D000D0CDB7DEB78C014983EE
:101C10005A836B837C835901C12CD12C7601412CD2
:101C200082E0582E612C712C49815A816B817C8114
:101C30009E012F5F3F4FC8010E942104882351F16C
:101C4000D301C201F801058404C0880F991FAA1F9F
:101C5000BB1F0A94D2F7C80ED91EEA1EFB1E49818B
:101C60005A816B817C818789803129F088EF9FEFD1
:101C7000AFEFBFE004C088EF9FEFA0E0B0E04817EF
:101C800059076A077B0780F2F501C082D182E282A0
:101C9000F38281E00F900F900F900F90DF91CF9122
:101CA0001F910F91FF90EF90DF90CF90BF90AF907A
:101CB0007F906F905F904F900895CF93DF93FC01DA
:101CC0002581222311F080E049C0EC01809163045A
:101CD0008031C1F482E08583178A108E118E128EB6
:101CE0008091640490916504A0E0B0E025E0880F45
:101CF000991FAA1FBB1F2A95D1F7838B948BA58BA5
:101D0000B68B19C08032F9F683E085834091660472
:101D1000509167046091680470916904478B508FFB
:101D2000618F728F9F012D5E3F4F8CE494E00E9483
:101D3000F40D882341F28CE494E09C8F8B8F81E03A
:101D40008C831E821F82188619861A861B861C8623
:101D50001D861E861F86188A198A1A8ADF91CF91DE
:101D600008958F929F92AF92BF92CF92DF92EF929F
:101D7000FF92CF93DF93C82F80E494E09093A00369
:101D800080939F03CC2369F1C53010F080E00CC133
:101D900040E060E070E0CB010E9437038823B1F39C
:101DA00020E1C29FC001112481579E4FFC01E254E3
:101DB000FE4F20812F7751F73C96408151816281FF
:101DC0007381443651056105710500F33497C08075
:101DD000D180E280F380C114D104E104F10421F444
:101DE000D5CFC12CD12C760140E0C701B6010E94AD
:101DF0003703882359F28091AA019091AB01811594
:101E0000924021F6A091AF01AA2309F4BFCF6091BF
:101E1000AD017091AE016115710509F4B7CF209144
:101E2000AC01222309F4B2CFA0935E0420935004A6
:101E300080E030E041E050E0C82FFA01082E02C0F7
:101E4000EE0FFF1F0A94E2F72E173F0739F08F5F5E
:101E5000C83091F789E08093590498CF8093590452
:101E60002091B5013091B6012115310519F040E0FE
:101E700050E008C02091C3013091C4014091C501D8
:101E80005091C6012093510430935204409353045F
:101E90005093540446015701860E971EA11CB11C95
:101EA00080925F0490926004A0926104B0926204F8
:101EB000E091B001F091B101F0936504E093640406
:101EC000B0E00E941414860E971EA81EB91E8092C0
:101ED000660490926704A0926804B092690485E059
:101EE000EE0FFF1F8A95E1F7E150FE4FEF2FFF271E
:101EF000E6958E0E9F1EA11CB11C80925A049092F2
:101F00005B04A0925C04B0925D042091B201309118
:101F1000B3012115310521F0A90160E070E008C08E
:101F20004091BF015091C0016091C1017091C20107
:101F3000D701C60188199909AA09BB09840F951F01
:101F4000A61FB71F04C0B695A79597958795CA9504
:101F5000D2F78093550490935604A0935704B093FE
:101F60005804853F2FE09207A105B10510F48CE0DD
:101F700018C0853F9F4FA105B10510F480E111C045
:101F80008091CB019091CC01A091CD01B091CE0177
:101F90008093660490936704A0936804B0936904E7
:101FA00080E28093630481E0DF91CF91FF90EF9016
:101FB000DF90CF90BF90AF909F908F90089590E06A
:101FC000FC01EC54FF4F2491FC01E056FF4F84913B
:101FD000882399F090E0880F991FFC01EA56FF4F83
:101FE000A591B491FC01E457FF4F859194918FB76F
:101FF000F894EC91E22BEC938FBF0895EF92FF924F
:102000000F931F93CF93DF93EC017B018A011B8217
:102010001A8288EE93E0A0E0B0E08C839D83AE83CB
:10202000BF838AE491E0998388838DE190E00E94E8
:102030006B149A8F898F009779F02DE1F701DC01FD
:1020400001900D922A95E1F74CE050E0B801CE01E5
:102050000C960E947416188EDF91CF911F910F91EC
:10206000FF90EF90089590E0FC01E858FF4F249115
:10207000FC01EC54FF4F3491FC01E056FF4FE4911A
:10208000EE2309F43CC0222339F1233091F038F4D7
:102090002130A9F0223001F584B58F7D12C02730A0
:1020A00091F02830A1F02430B9F4809180008F7D28
:1020B00003C0809180008F77809380000DC084B52D
:1020C0008F7784BD09C08091B0008F7703C0809165
:1020D000B0008F7D8093B000F0E0EE0FFF1FE4575B
:1020E000FF4FA591B4919FB7F894611104C08C91F2
:1020F0003095382302C0EC913E2B3C939FBF08954E
:102100002FB7F8946091AF047091B0048091B1043E
:102110009091B2042FBF08951F920F920FB60F92A5
:1021200011242F933F938F939F93AF93BF938091ED
:10213000AF049091B004A091B104B091B204309179
:10214000AE0423E0230F2D3720F40196A11DB11D0D
:1021500005C026E8230F0296A11DB11D2093AE04F1
:102160008093AF049093B004A093B104B093B204F1
:102170008091AA049091AB04A091AC04B091AD04FD
:102180000196A11DB11D8093AA049093AB04A09366
:10219000AC04B093AD04BF91AF919F918F913F91EB
:1021A0002F910F900FBE0F901F9018958091A4044F
:1021B0009091A5040C940315CF93DF93CDB7DEB7B0
:1021C000C257D1090FB6F894DEBF0FBECDBF7894C9
:1021D00084B5826084BD84B5816084BD85B582602C
:1021E00085BD85B5816085BD80916E0081608093DD
:1021F0006E00109281008091810082608093810046
:102200008091810081608093810080918000816055
:10221000809380008091B10084608093B1008091B0
:10222000B00081608093B00080917A0084608093D8
:102230007A0080917A00826080937A0080917A009F
:10224000816080937A0080917A00806880937A0020
:102250001092C100E091B103F091B20382E080835B
:10226000E091AD03F091AE031082E091AF03F091E5
:10227000B0038FEC80831092B903E091B503F09125
:10228000B60386E08083E091B303F091B4038081CC
:1022900080618083E091B303F091B4038081886012
:1022A0008083E091B303F091B403808180688083E0
:1022B000E091B303F091B40380818F7D808384E04B
:1022C0000E94DF0F80916F04882321F08AE694E05A
:1022D0000E944A0A10924B0410924904109246043C
:1022E0001092450484E0809344040E9480108B0186
:1022F000809144040E94DF0F61E0809144040E94B9
:102300003310FFB6F89480919E01811124C0EAEA4F
:10231000F0E08491EEEBF0E09491E82FF0E0EE0F26
:10232000FF1FEA56FF4FA591B491EC91E92321F4E8
:1023300061E08AE00E9433108AE00E94DF0F8CB5D2
:1023400080618CBD8CB580648CBD8DE00E94DF0FF8
:102350008BE00E94DF0F80919E018F5F80939E0132
:10236000FFBE82E580933E0410923F0480913E04BC
:1023700090913F040E9494014AE0F42E8FEF0E9456
:102380005501FA94F110FACF80E494E00E9497018D
:1023900020E030E0A90160E080E494E00E94AD011B
:1023A000F82E80934A0481E0F81649F00E948010CC
:1023B000601B710B613D774058F381E056C02AEAFB
:1023C00031E040E050E068E080E494E00E94AD013C
:1023D00082FF03C0F0924B0410C034E0F32E0E9441
:1023E0005C0180934A04FA94F110F9CF8A3A11F013
:1023F00082E03BC082E080934B0480914B048230AA
:1024000021F0812C912C540105C0812C912CA12C00
:1024100020E4B22E20E030E0A90167E380E494E0FC
:102420000E94AD01A501940169E280E494E00E945C
:10243000AD0180934A04882349F00E948010601BFC
:10244000710B613D774030F388E00FC080914B0401
:10245000823001F520E030E0A9016AE380E494E0F5
:102460000E94AD01882341F086E08093450480E41A
:1024700094E00E944A012AC00E945C01807C803C5A
:1024800019F483E080934B040E945C010E945C017C
:102490000E945C0180E494E00E944A0180E5809300
:1024A0003E0410923F0481E00E94B10E882349F05F
:1024B0008AE694E00E945D0E882341F088E591E071
:1024C00007C080E00E94B10E8111F2CF8AE691E050
:1024D0000E94D20D00E211E088EE882E83E0982E53
:1024E000A12CB12C9AE4E92E91E0F92E80919D0166
:1024F000882309F4DEC01C821B821A8309831E8292
:10250000CE0101960E945D0EBE016F5F7F4FCE012E
:10251000CB960E941A0C19A218A21F8F0E8F1BA215
:1025200021968FAD2197811116C06C961FAE1EAEFD
:102530006C97A0968CAE9DAEAEAEBFAEA0976A96DD
:10254000FFAEEEAE6A97E3961FAE1EAEE397A5967A
:102550001FAEA59729C027E145E851E0BE01655CA3
:102560007F4FCE014E960E9491088823F1F2CE0152
:10257000CB960E944A0A49A95AA96BA97CA9CE0107
:102580004E960E94A404BE01625E7F4FCE0101966A
:102590000E941A0C45E851E0BE016F5F7F4FCE01EB
:1025A000885A9F4F0E94FE0F6C968EAD9FAD6C9720
:1025B00090938C0480938B04A0968CAD9DADAEADB2
:1025C000BFADA09780938D0490938E04A0938F0449
:1025D000B0939004A4968CAD9DADAEADBFADA49765
:1025E0008093910490939204A0939304B0939404E5
:1025F000A8E5B0E0AC0FBD1F1C96E5E9F4E08D91B5
:10260000819384E0E23AF807D1F7E396EEADFFADAF
:10261000E397F093A304E093A204309711F185812E
:102620008823F9F04091A8045091A9046091A40472
:102630007091A50489E894E00E94FE0B8091A204A9
:102640009091A304009779F00E944A0A8091A20415
:102650009091A3040E9403151092A3041092A20467
:1026600002C010929D0180E090E00E94A50D209193
:10267000A4043091A504811113C02115310519F06E
:10268000C9010E9403151092A5041092A40410928F
:10269000A9041092A8041092A7041092A60409C0DD
:1026A0001092A9041092A80465E971E0C9010E9482
:1026B0006D160E941C011ACF1092A4031092A3035E
:1026C00088EE93E0A0E0B0E08093A5039093A6038A
:1026D000A093A703B093A8038EE091E09093A20388
:1026E0008093A10385EC90E09093AE038093AD03BB
:1026F00084EC90E09093B0038093AF0380EC90E083
:102700009093B2038093B10381EC90E09093B40373
:102710008093B30382EC90E09093B6038093B5036B
:1027200086EC90E09093B8038093B7031092BA03BD
:102730001092BB031092BC031092BD0380E58093FE
:102740003E0410923F0410924504109246041092E9
:10275000490410924B0482E090E0A0E0B0E0809346
:102760004C0490934D04A0934E04B0934F041092E8
:10277000630410926D0410926C0480E291E09093D7
:102780006B0480936A0410926F041092A504109257
:10279000A4041092A7041092A6041092A904109207
:1027A000A80480E090E00E94A50D2091A40430913F
:1027B000A504811113C02115310519F0C9010E942A
:1027C00003151092A5041092A4041092A90410926B
:1027D000A8041092A7041092A60409C01092A9049C
:1027E0001092A80465E971E0C9010E946D1610926B
:1027F0008C0410928B0488EE93E0A0E0B0E080930C
:102800008D0490938E04A0938F04B09390048AE477
:1028100091E090938A04809389041092A30410920B
:10282000A2041092950408950E945614A59F900D3D
:10283000B49F900DA49F800D911D112408952F9297
:102840003F924F925F926F927F928F929F92AF9240
:10285000BF92CF92DF92EF92FF920F931F93CF938D
:10286000DF93CDB7DEB7CA1BDB0B0FB6F894DEBF24
:102870000FBECDBF09942A88398848885F846E844A
:102880007D848C849B84AA84B984C884DF80EE8094
:10289000FD800C811B81AA81B981CE0FD11D0FB69D
:1028A000F894DEBF0FBECDBFED010895A29FB00129
:1028B000B39FC001A39F700D811D1124911DB29F74
:1028C000700D811D1124911D0895EE0FFF1F0590BD
:1028D000F491E02D09940F931F93CF93DF938230EF
:1028E000910510F482E090E0E091B504F091B60417
:1028F00020E030E0A0E0B0E0309719F14081518154
:102900000281138148175907C8F08417950769F4A5
:10291000109731F012960C93129713961C9327C0C0
:102920000093B5041093B60422C02115310519F0A7
:102930004217530718F49A01BD01EF01DF01F801B6
:10294000DBCF21153105F9F0281B390B2430310577
:1029500080F48A819B816115710521F0FB019383CD
:10296000828304C09093B6048093B504FE0132962E
:1029700044C0FE01E20FF31F81939193225031096D
:10298000398328833AC02091B3043091B404232BB7
:1029900041F420910601309107013093B404209353
:1029A000B30420910401309105012115310541F452
:1029B0002DB73EB74091080150910901241B350BFA
:1029C000E091B304F091B404E217F307A0F42E1BD6
:1029D0003F0B2817390778F0AC014E5F5F4F241783
:1029E000350748F04E0F5F1F5093B4044093B30473
:1029F0008193919302C0E0E0F0E0CF01DF91CF91AD
:102A00001F910F910895CF93DF93009709F481C030
:102A1000FC01329713821282A091B504B091B604E2
:102A2000109781F420813181820F931F2091B3048C
:102A30003091B4042817390751F5F093B404E093AA
:102A4000B30467C0ED0120E030E0CE17DF0740F4AB
:102A50004A815B819E0141155105F1F0EA01F5CFF4
:102A6000D383C28340815181840F951FC817D90732
:102A700059F488819981840F951F029691838083F0
:102A80008A819B81938382832115310529F4F093F8
:102A9000B604E093B5043DC0E901FB83EA834991A4
:102AA0005991C40FD51FEC17FD0761F48081918106
:102AB000840F951F0296E90199838883828193810F
:102AC0009B838A83E0E0F0E012968D919C911397AE
:102AD000009719F0FD01DC01F7CF8D919C911197C2
:102AE0009D012E5F3F4F820F931F2091B3043091C1
:102AF000B4042817390769F4309729F41092B60402
:102B00001092B50402C013821282B093B404A09351
:102B1000B304DF91CF910895A0E0B0E0E2E9F5E1E0
:102B20000C942314EC01009721F4CB010E946B1448
:102B3000B4C0FC01E60FF71F9C0122503109E217D7
:102B4000F30708F4A8C0D9010D911C91119706173D
:102B50001707B0F00530110508F49BC0C8010497B1
:102B60008617970708F495C002501109061B170B2A
:102B7000019311936D937C93CF010E94031589C03B
:102B80005B01A01AB10A4C01800E911EA091B50400
:102B9000B091B604612C712CE12CF12C109709F442
:102BA00046C08D919C911197A815B905B1F56C019E
:102BB00042E0C40ED11CCA14DB0478F14C018A181F
:102BC0009B08640142E0C40ED11C1296BC9012977F
:102BD0001396AC91B5E0CB16D10440F0B282A3833A
:102BE00091828082D9016D937C9309C00E5F1F4F43
:102BF000800F911FF90191838083EB2DFA2FE1144F
:102C0000F10431F0D7011396FC93EE93129741C073
:102C1000F093B604E093B5043CC06816790608F456
:102C20003C017D0112960D90BC91A02DB7CF8091F3
:102C3000B3049091B40488169906E1F466167706F9
:102C4000C8F48091040190910501009741F48DB77B
:102C50009EB74091080150910901841B950BE8171C
:102C6000F907C8F4F093B404E093B304F901718355
:102C700060830FC0CB010E946B147C01009759F058
:102C8000A801BE010E946416CE010E940315C7016F
:102C900004C0CE0102C080E090E0CDB7DEB7EEE028
:102CA0000C943F1481E090E0F8940C948316FB019F
:102CB000DC0104C08D910190801921F441505040F5
:102CC000C8F7881B990B0895FB01DC0102C0019035
:102CD0000D9241505040D8F70895FB01DC0101905E
:102CE0000D920020E1F70895FB01DC0141505040B6
:102CF00048F001900D920020C9F701C01D9241508B
:102D00005040E0F7089510E0C5E6D0E004C0FE01B1
:102D10000E9465142196C636D107C9F7F894FFCFF3
:102D2000FFFFFFFF0000B704800000000000DE0C82
:102D30006B0C950C2B0DC60CA40CB80C00000000FD
:102D4000ED0B6B0CC800C70000000000DC0C6B0C26
:102D5000C800C700DC0CDC0CDC0C00000000DC0C44
:102D60006B0CC800C70000000000B100FE0BC800DB
:102D7000560A9000270731075461726A6574612012
:102D8000646574656374616461004E6F20736520CF
:102D900068612064657465637461646F2074617236
:102DA0006A6574610073656E736F54656D702E741F
:062DB0007874000D0A001A
:107E0000112484B714BE81FFF0D085E080938100F7
:107E100082E08093C00088E18093C10086E0809377
:107E2000C20080E18093C4008EE0C9D0259A86E02C
:107E300020E33CEF91E0309385002093840096BBD3
:107E4000B09BFECF1D9AA8958150A9F7CC24DD24C4
:107E500088248394B5E0AB2EA1E19A2EF3E0BF2EE7
:107E6000A2D0813461F49FD0082FAFD0023811F036
:107E7000013811F484E001C083E08DD089C08234E0
:107E800011F484E103C0853419F485E0A6D080C0E4
:107E9000853579F488D0E82EFF2485D0082F10E0AE
:107EA000102F00270E291F29000F111F8ED06801E7
:107EB0006FC0863521F484E090D080E0DECF843638
:107EC00009F040C070D06FD0082F6DD080E0C81688
:107ED00080E7D80618F4F601B7BEE895C0E0D1E017
:107EE00062D089930C17E1F7F0E0CF16F0E7DF06D8
:107EF00018F0F601B7BEE89568D007B600FCFDCFD4
:107F0000A601A0E0B1E02C9130E011968C91119780
:107F100090E0982F8827822B932B1296FA010C0160
:107F200087BEE89511244E5F5F4FF1E0A038BF0790
:107F300051F7F601A7BEE89507B600FCFDCF97BE46
:107F4000E89526C08437B1F42ED02DD0F82E2BD052
:107F50003CD0F601EF2C8F010F5F1F4F84911BD097
:107F6000EA94F801C1F70894C11CD11CFA94CF0C13
:107F7000D11C0EC0853739F428D08EE10CD085E9AC
:107F80000AD08FE07ACF813511F488E018D01DD067
:107F900080E101D065CF982F8091C00085FFFCCF94
:107FA0009093C60008958091C00087FFFCCF809118
:107FB000C00084FD01C0A8958091C6000895E0E648
:107FC000F0E098E1908380830895EDDF803219F02E
:107FD00088E0F5DFFFCF84E1DECF1F93182FE3DFCA
:107FE0001150E9F7F2DF1F91089580E0E8DFEE27F6
:047FF000FF270994CA
:027FFE00040479
:0400000300007E007B
:00000001FF
